:1010000090AF0020C5C800005710030099C8000029
:1010100099C8000099C8000099C8000000000000AD
:10102000000000000000000000000000D9C900001E
:1010300099C800000000000055C9000099C80000D0
:10104000EDCB0000D1170200EDCB0000EDCB00008E
:10105000EDCB0000EDCB0000EDCB0000EDCB0000B0
:10106000EDCB0000EDCB0000EDCB0000EDCB0000A0
:10107000EDCB0000EDCB0000EDCB0000EDCB000090
:10108000EDCB0000EDCB0000EDCB0000EDCB000080
:10109000EDCB0000EDCB0000EDCB0000EDCB000070
:1010A000EDCB0000EDCB0000EDCB0000EDCB000060
:1010B000EDCB0000EDCB0000EDCB0000EDCB000050
:1010C000EDCB0000EDCB0000EDCB0000EDCB000040
:1010D000EDCB0000EDCB0000EDCB0000EDCB000030
:1010E000EDCB0000EDCB0000EDCB0000EDCB000020
:1010F000EDCB0000EDCB0000EDCB0000EDCB000010
:1011000090F800F06DE9024520F007016FF0000C47
:1011100010F0070491F820F040F049804FF00004EF
:101120006FF00700D1E9002391F840F000F10800CA
:1011300082FA4CF2A4FA8CF283FA4CF3A2FA8CF302
:101140004BBBD1E9022382FA4CF200F10800A4FA69
:101150008CF283FA4CF3A2FA8CF3E3B9D1E90423BD
:1011600082FA4CF200F10800A4FA8CF283FA4CF3F4
:10117000A2FA8CF37BB9D1E9062301F1200182FAAE
:101180004CF200F10800A4FA8CF283FA4CF3A2FAB4
:101190008CF3002BC6D0002A04BF04301A4612BAC2
:1011A000B2FA82F2FDE8024500EBD2007047D1E9C5
:1011B000002304F00305C4F100004FEAC50514F054
:1011C000040F91F840F00CFA05F562EA05021CBF25
:1011D00063EA050362464FF00004A9E7000000003F
:1011E000A2EB0300704700BF02780B78012A28BFEA
:1011F0009A42F5D16DE9044540EA0104CDE9026760
:101200006FF0000C4FEA447212B380EA010414F04C
:10121000070F6AD100F0070420F0070004F003056F
:1012200021F007014FEAC505F0E8042314F0040F8C
:10123000F1E804670CFA05F462EA040266EA0406BF
:101240000AD063EA0403624667EA0407664603E0DD
:10125000F0E80423F1E8046782FA4CF582EA060418
:10126000A4FA8CF46CBB83FA4CF583EA0705A5FA63
:101270008CF595B950E9022351E9026782FA4CF5E1
:1012800082EA0604A4FA8CF483FA4CF583EA070593
:10129000A5FA8CF52543DBD09CB92DBAB5FA85F4B7
:1012A00024F0070427FA04F1DDE9026723FA04F3C6
:1012B00003F0FF0001F0FF01FDE80445A0EB010091
:1012C000704724BAB4FA84F424F0070426FA04F12F
:1012D000DDE9026722FA04F202F0FF0001F0FF01EB
:1012E000FDE80445A0EB0100704714F0030F3CD16A
:1012F00010F0030428D150F8082B51F8083B82FA6B
:101300004CF582EA0305A5FA8CF55DB950F8042C7A
:1013100051F8043C82FA4CF582EA0305A5FA8CF5F3
:10132000002DE8D02DBAB5FA85F424F0070423FA8D
:1013300004F122FA04F202F0FF0001F0FF01FDE8DF
:101340000445A0EB010070474FEAC40420F00300FD
:1013500050F8082B21F0030151F8083B0CFA04F473
:1013600062EA040263EA0403C9E710F003041AD036
:10137000A1EB040120F00300E40750F8042B06D091
:101380000FD28B785FFAA2F4E41A06D12BB1CB7896
:101390005FFAB2F4E41A00D11BB920465DF8104B95
:1013A000704701F1040150F8042BCC0721F0030130
:1013B00051F8043B48D824D222F07F4482FA4CF5FD
:1013C00094EA1325A5FA8CF50AD165B951F8043BC6
:1013D00084EA0204B4EB036F0ED150F8042BEBE760
:1013E0004FEA132355E035F07F454DD10878FDE8ED
:1013F0000445C0F1000070474FEA126203F0FF039A
:1014000047E002EA1C4482FA4CF594EA1345A5FA37
:101410008CF50AD165B951F8043B84EA0204B4EBB7
:10142000034F0CD150F8042BEBE74FEA134330E0A5
:1014300015EA1C4528D10B884FEA124229E04FEAF1
:10144000124203EA1C4324E002F0FF0482FA4CF546
:1014500094EA1365A5FA8CF50AD165B951F8043BF5
:1014600084EA0204B4EB032F09D150F8042BEBE714
:101470004FEA13630DE015F0FF0F05D10B684FEA3B
:10148000122223F07F4304E04FF00000FDE8044502
:10149000704712BA1BBA82FA4CF482EA0304A4FA27
:1014A0008CF5B5FA85F402FA04F203FA04F34FEA74
:1014B0001260FDE80445A0EB1360704700000000D7
:1014C00001F0FF01102A2BDB10F0070F08D010F8F5
:1014D000013B013A8B422DD010F0070F42B3F6D1F9
:1014E000F0B441EA012141EA014122F007047FF012
:1014F00000070023F0E80256083C85EA010586EA69
:10150000010685FA47F5A3FA87F586FA47F6A5FAA4
:1015100087F68EB9EED1F0BC01F0FF0102F00702B0
:1015200032B110F8013B013A83EA010313B1F8D15B
:101530000020704701387047002D06BF354603383C
:10154000073815F0010F07D1013015F4807F02BF75
:10155000013015F4C03F0130F0BC0138704700BFC6
:1015600081F0004102E000BF83F0004330B54FEA54
:1015700041044FEA430594EA050F08BF90EA020FC1
:101580001FBF54EA000C55EA020C7FEA645C7FEA54
:10159000655C00F0E2804FEA5454D4EB5555B8BF77
:1015A0006D420CDD2C4480EA020281EA030382EAE8
:1015B000000083EA010180EA020281EA0303362D7A
:1015C00088BF30BD11F0004F4FEA01314FF4801C4D
:1015D0004CEA113102D0404261EB410113F0004F5F
:1015E0004FEA03334CEA133302D0524263EB430316
:1015F00094EA050F00F0A780A4F10104D5F1200EB4
:101600000DDB02FA0EFC22FA05F2801841F100010E
:1016100003FA0EF2801843FA05F359410EE0A5F1E2
:1016200020050EF1200E012A03FA0EFC28BF4CF013
:10163000020C43FA05F3C01851EBE37101F00045C9
:1016400007D54FF0000EDCF1000C7EEB00006EEBD6
:101650000101B1F5801F1BD3B1F5001F0CD3490860
:101660005FEA30004FEA3C0C04F101044FEA4452B7
:1016700012F5800F80F09A80BCF1004F08BF5FEA3E
:10168000500C50F1000041EB045141EA050130BD1E
:101690005FEA4C0C404141EB0101013C28BFB1F530
:1016A000801FE9D291F0000F04BF01460020B1FA7B
:1016B00081F308BF2033A3F10B03B3F120020CDA4E
:1016C0000C3208DD02F1140CC2F10C0201FA0CF02C
:1016D00021FA02F10CE002F11402D8BFC2F1200C91
:1016E00001FA02F120FA0CFCDCBF41EA0C01904047
:1016F000E41AA2BF01EB0451294330BD6FEA040490
:101700001F3C1CDA0C340EDC04F11404C4F120027A
:1017100020FA04F001FA02F340EA030021FA04F38C
:1017200045EA030130BDC4F10C04C4F1200220FAE3
:1017300002F001FA04F340EA0300294630BD21FA21
:1017400004F0294630BD94F0000F83F4801306BFE7
:1017500081F480110134013D4EE77FEA645C18BFDB
:101760007FEA655C29D094EA050F08BF90EA020F72
:1017700005D054EA000C04BF1946104630BD91EA6A
:10178000030F1EBF0021002030BD5FEA545C05D16D
:101790004000494128BF41F0004130BD14F58004AC
:1017A0003CBF01F5801130BD01F0004545F0FE4120
:1017B00041F470014FF0000030BD7FEA645C1ABF55
:1017C000194610467FEA655C1CBF0B46024650EA8C
:1017D000013406BF52EA033591EA030F41F40021B8
:1017E00030BD00BF90F0000F04BF0021704730B53E
:1017F0004FF4806404F132044FF000054FF0000113
:1018000050E700BF90F0000F04BF0021704730B5D3
:101810004FF4806404F1320410F0004548BF4042A8
:101820004FF000013EE700BF42004FEAE2014FEAFD
:1018300031014FEA02701FBF12F07F4393F07F4FD8
:1018400081F06051704732F07F4208BF704793F0DB
:101850007F4F04BF41F40021704730B54FF46074EE
:1018600001F0004521F000411CE700BF50EA0102F1
:1018700008BF704730B54FF000050AE050EA01029A
:1018800008BF704730B511F0004502D5404261EB0A
:1018900041014FF4806404F132045FEA915C3FF44B
:1018A000D8AE4FF003025FEADC0C18BF03325FEAE8
:1018B000DC0C18BF033202EBDC02C2F1200300FA99
:1018C00003FC20FA02F001FA03FE40EA0E0021FABE
:1018D00002F11444BDE600BF70B54FF0FF0C4CF4AC
:1018E000E06C1CEA11541DBF1CEA135594EA0C0F5E
:1018F00095EA0C0F00F0DEF82C4481EA030621EA99
:101900004C5123EA4C5350EA013518BF52EA0335D3
:1019100041F4801143F4801338D0A0FB02CE4FF085
:101920000005E1FB02E506F00042E0FB03E54FF0B5
:101930000006E1FB03569CF0000F18BF4EF0010EAD
:10194000A4F1FF04B6F5007F64F5407404D25FEAA9
:101950004E0E6D4146EB060642EAC62141EA55515C
:101960004FEAC52040EA5E504FEACE2EB4F1FD0C9E
:1019700088BFBCF5E06F1ED8BEF1004F08BF5FEA1C
:10198000500E50F1000041EB045170BD06F00046CE
:1019900046EA010140EA020081EA0301B4EB5C047B
:1019A000C2BFD4EB0C0541EA045170BD41F4801173
:1019B0004FF0000E013C00F3AB8014F1360FDEBF98
:1019C000002001F0004170BDC4F10004203C35DA74
:1019D0000C341BDC04F11404C4F1200500FA05F3F7
:1019E00020FA04F001FA05F240EA020001F0004298
:1019F00021F0004110EBD37021FA04F642EB06010E
:101A00005EEA430E08BF20EAD37070BDC4F10C0437
:101A1000C4F1200500FA04F320FA05F001FA04F2FB
:101A200040EA020001F0004110EBD37041F10001E7
:101A30005EEA430E08BF20EAD37070BDC4F12005F2
:101A400000FA05F24EEA020E20FA04F301FA05F25A
:101A500043EA020321FA04F001F0004121FA04F202
:101A600020EA020000EBD3705EEA430E08BF20EAD2
:101A7000D37070BD94F0000F0FD101F0004640000C
:101A800041EB010111F4801F08BF013CF7D041EA8E
:101A9000060195F0000F18BF704703F00046520092
:101AA00043EB030313F4801F08BF013DF7D043EA63
:101AB0000603704794EA0C0F0CEA135518BF95EA19
:101AC0000C0F0CD050EA410618BF52EA4306D1D1A0
:101AD00081EA030101F000414FF0000070BD50EABF
:101AE000410606BF1046194652EA430619D094EA49
:101AF0000C0F02D150EA013613D195EA0C0F05D133
:101B000052EA03361CBF104619460AD181EA030186
:101B100001F0004141F0FE4141F470014FF000003E
:101B200070BD41F0FE4141F4780170BD70B54FF0D9
:101B3000FF0C4CF4E06C1CEA11541DBF1CEA135559
:101B400094EA0C0F95EA0C0F00F0A7F8A4EB05043B
:101B500081EA030E52EA03354FEA013100F0888032
:101B60004FEA03334FF0805545EA131343EA1263FB
:101B70004FEA022245EA111545EA10654FEA0026B0
:101B80000EF000419D4208BF964244F1FD0404F569
:101B9000407402D25B084FEA3202B61A65EB0305C5
:101BA0005B084FEA32024FF480104FF4002CB6EB82
:101BB000020E75EB030E22BFB61A754640EA0C0002
:101BC0005B084FEA3202B6EB020E75EB030E22BF42
:101BD000B61A754640EA5C005B084FEA3202B6EB83
:101BE000020E75EB030E22BFB61A754640EA9C0042
:101BF0005B084FEA3202B6EB020E75EB030E22BF12
:101C0000B61A754640EADC0055EA060E18D04FEACF
:101C1000051545EA16754FEA06164FEAC30343EA6F
:101C200052734FEAC2025FEA1C1CC0D111F4801F3C
:101C30000BD141EA00014FF000004FF0004CB6E735
:101C400011F4801F04BF01430020B4F1FD0C88BFD4
:101C5000BCF5E06F3FF6AFAEB5EB030C04BFB6EBDF
:101C6000020C5FEA500C50F1000041EB045170BDD2
:101C70000EF0004E4EEA113114EB5C04C2BFD4EBFF
:101C80000C0541EA045170BD41F480114FF0000E83
:101C9000013C90E645EA060E8DE60CEA135594EAFF
:101CA0000C0F08BF95EA0C0F3FF43BAF94EA0C0F02
:101CB0000AD150EA01347FF434AF95EA0C0F7FF477
:101CC00025AF104619462CE795EA0C0F06D152EACB
:101CD00003353FF4FDAE1046194622E750EA4106AF
:101CE00018BF52EA43067FF4C5AE50EA41047FF4C0
:101CF0000DAF52EA43057FF4EBAE12E753B94AB990
:101D0000002908BF00281CBF4FF0FF314FF0FF3003
:101D100000F00CB8ADF1080C6DE904CE00F068F9E4
:101D2000DDF804E0DDE9022304B07047704700BF2E
:101D30004FF0FF3C06E000BF4FF0010C02E000BF97
:101D40004FF0010C4DF804CD4FEA410C7FEA6C5C7A
:101D50004FEA430C18BF7FEA6C5C1BD001B050EA1D
:101D6000410C0CBF52EA430C91EA030F02BF90EA08
:101D7000020F0020704710F1000F91EA030F58BFC7
:101D8000994208BF90422CBFD8176FEAE37040F029
:101D9000010070474FEA410C7FEA6C5C02D150EAC7
:101DA000013C07D14FEA430C7FEA6C5CD6D152EA82
:101DB000033CD3D05DF8040B704700BF8446104647
:101DC00062468C461946634600E000BF01B5FFF746
:101DD000B7FF002848BF10F1000F01BD4DF808ED16
:101DE000FFF7F4FF0CBF012000205DF808FB00BFE7
:101DF0004DF808EDFFF7EAFF34BF012000205DF841
:101E000008FB00BF4DF808EDFFF7E0FF94BF01208D
:101E100000205DF808FB00BF4DF808EDFFF7CEFF8E
:101E200094BF012000205DF808FB00BF4DF808EDCD
:101E3000FFF7C4FF34BF012000205DF808FB00BF9E
:101E4000844641EA000313F003036DD1403A41D3C5
:101E500051F8043B40F8043B51F8043B40F8043B84
:101E600051F8043B40F8043B51F8043B40F8043B74
:101E700051F8043B40F8043B51F8043B40F8043B64
:101E800051F8043B40F8043B51F8043B40F8043B54
:101E900051F8043B40F8043B51F8043B40F8043B44
:101EA00051F8043B40F8043B51F8043B40F8043B34
:101EB00051F8043B40F8043B51F8043B40F8043B24
:101EC00051F8043B40F8043B51F8043B40F8043B14
:101ED000403ABDD2303211D351F8043B40F8043BB4
:101EE00051F8043B40F8043B51F8043B40F8043BF4
:101EF00051F8043B40F8043B103AEDD20C3205D3C4
:101F000051F8043B40F8043B043AF9D2043208D0BB
:101F1000D2071CBF11F8013B00F8013B01D30B882D
:101F200003806046704700BF082A13D38B078DD00B
:101F300010F003038AD0C3F10403D21ADB071CBFDD
:101F400011F8013B00F8013B80D331F8023B20F847
:101F5000023B7BE7043AD9D3013A11F8013B00F880
:101F6000013BF9D20B7803704B7843708B78837008
:101F7000604670474FEA410C7FEA6C5C02D150EA40
:101F8000013C0AD14FEA430C7FEA6C5C02D152EA71
:101F9000033C02D14FF0000070474FF00100704742
:101FA0004FEA410212F5001215D211D56FF4787381
:101FB000B3EB625212D94FEAC12343F0004343EA24
:101FC000505311F0004F23FA02F018BF40427047FF
:101FD0004FF00000704750EA013005D111F0004089
:101FE00008BF6FF0004070474FF00000704700BF1F
:101FF0002DE9F04786468C460846089E15467446ED
:102000001946002B40F0C2808542B2FA82F245D9CF
:102010004AB1C2F1200300FA02FC2EFA03F3954004
:1020200043EA0C0C94404FEA154EA8B2BCFBFEF8F4
:10203000230C0EFB18CC08FB00F943EA0C4399452E
:1020400028D9EB1808F1FF3704D2994502D9A8F135
:1020500002072B44A3EB0903A4B2B3FBFEFC0EFB67
:102060001C330CFB00F044EA0344A04214D92C19A1
:102070000CF1FF3304D2A04202D9ACF102032C448C
:10208000241A43EA07401EB1D44000233460736031
:10209000BDE8F0874746DDE76346F1E792BB431BA7
:1020A00001214FEA154EAFB2B3FBFEFC200C0EFB34
:1020B0001C330CFB07F840EA0343984562D9EB1840
:1020C0000CF1FF3004D2984502D9ACF102002B4448
:1020D000A3EB0803A4B2B3FBFEFC0EFB1C330CFB0A
:1020E00007F744EA0344A7424ED92C190CF1FF33F9
:1020F00004D2A74202D9ACF102032C44E41B43EA08
:102100000040C0E7C2F1200320FA03F1954090405F
:102110002EFA03F303434FEA154EAFB2B1FBFEFCB8
:102120000EFB1C10190C0CFB07F841EA0041884516
:1021300004FA02F422D969180CF1FF3004D2884560
:1021400002D9ACF102002944A1EB08019BB2B1FB1A
:10215000FEFC0EFB1C110CFB07F743EA01439F42F8
:102160000ED9EB180CF1FF3104D29F4202D9ACF129
:1021700002012B44DB1B41EA004192E76046E3E7A2
:102180006146F7E76046A3E76346B7E7834206D9AF
:1021900016B9002108467BE7C6E900E0F9E7B3FA83
:1021A00083F78FB9834201D3724508D8BEEB02048E
:1021B00060EB030301209C461EB9002168E7384606
:1021C000FAE7C6E9004CF8E7C7F1200CBB4022FA59
:1021D0000CF41C432EFA0CF120FA0CF3B840014326
:1021E0004FEA14490EFA07F5B3FBF9F81FFA84FE1B
:1021F00009FB18300B0C08FB0EFA43EA00439A4522
:1022000002FA07F240D9E31808F1FF3004D29A45E8
:1022100002D9A8F102002344A3EB0A0389B2B3FB5D
:10222000F9F809FB183308FB0EFE41EA03418E451D
:102230002CD9611808F1FF3304D28E4502D9A8F1D8
:102240000203214443EA0040A0FB0298A1EB0E01E7
:102250004145CE46434602D306D14D4504D2B9EBA3
:10226000020E68EB04030138002EA6D0B5EB0E0277
:1022700061EB030101FA0CFC22FA07F34CEA0303B9
:10228000F940C6E9003198E74046C5E74346D9E73B
:10229000F7B5404DD5F85C31996811F0010124D1B2
:1022A00001AA40F603400BF0F5FC044600286DD16E
:1022B000019CE3681B78ABB90CF0B2FFBFF35B8FF6
:1022C000D5F8D430BFF35B8F05F1D40203F00903D6
:1022D000BFF35B8F52E8001F42E800300028F9D1BD
:1022E000BFF35B8F204622F04FFD01AA002141F28F
:1022F00003000BF0CFFC0446002847D1019B264E7B
:10230000DA68D2F80100D2F8051003C6184622F0A8
:102310003BFD214601AA41F201000BF0BBFC044643
:10232000A0BB0198C3685A7885F870205A88A5F830
:1023300072201A7985F87120B3F80720A5F8742067
:10234000B3F80530A5F8763022F01EFD214601AA2B
:1023500041F202000BF09EFC0446B8B9019FFA68F6
:10236000531C413218685968344603C408339342F9
:102370002646F7D109482EF081FF384622F004FDA9
:1023800095F87C305B060BD46FF01204204603B046
:10239000F0BD00BF30000020A8000020B0000020E9
:1023A00001AA002142F203000BF074FC044600284D
:1023B000ECD1019BB64EDA68D2F80100D2F80510D4
:1023C00003C6184622F0E0FC214601AA42F20200B0
:1023D0000BF060FC04460028D8D1019CE368B3F8F8
:1023E000012091B249B1D97839B1A5F80421DA7840
:1023F000114606F1280033F0E0FF204622F0C4FC2D
:1024000095F87C6016F0200618D1022140F66D4048
:102410000BF0E4FB0446002800F0CC8002210C30D5
:1024200032F082FF0123037046702146324640F6A7
:102430006D400BF02FFC04460028A7D195F89C3086
:102440001F0712D501AA002142F21C000BF022FC4A
:10245000044600289AD10198C368D3F80120D3F824
:102460000530C5E9382322F08FFC95F8D8309E0658
:1024700024D50DF1020168462FF021FA0446002808
:1024800084D1042142F224000BF0A8FB0646002868
:1024900000F0908004210C3032F046FFBDF800308F
:1024A0000380BDF8023043802246314642F22400C8
:1024B0000BF0F0FB044600287FF468AF95F8D830A5
:1024C0005C0610D501AA002142F22A000BF0E2FBC3
:1024D000044600287FF45AAF0198C3685B7885F8FA
:1024E000203122F051FC082142F201000BF076FB72
:1024F000044600285ED008210C3032F015FF95F814
:10250000D81011F0400F024640F2022308BF032307
:1025100088074CBF43F02C0043F00C0095F8D930ED
:102520008F0648BF40F0400013F0090F95F8A23025
:1025300018BF40F4006003F00603CE0748BF40F028
:102540001000062B08BF40F4C07000212FF028F8BF
:102550002146002242F201000BF09CFB04460028B9
:102560007FF414AF95F87C30B5F80411980624D4A4
:10257000C9B901AA41F205000BF08CFB0446002802
:102580007FF404AFB5F80431019C4BB9E368B3F8AC
:102590000120A5F804219A883E48114633F00DFF2A
:1025A000204622F0F1FB082140F601400BF016FB1B
:1025B000044638B96FF06804E8E60029F3D16FF0FB
:1025C0000404E3E608210C3032F0AEFE95F8D83072
:1025D000D907024653BF4FF000512BA1D1E90001AA
:1025E0002D482EF0DDFF2146002240F601400BF081
:1025F00051FB044600287FF4C9AE014601AA4FF6FC
:1026000001400BF047FB044620BB019822F0BCFBC5
:10261000214601AA4FF602400BF03CFB0446C8B924
:102620000198C368B3F80130A5F8C13022F0ACFBC3
:1026300095F8C1305B070DD501AA21464FF603403E
:102640000BF028FB30B90198C3685B7885F8C0307F
:1026500022F09AFB2FF0ACFB044600287FF496AEE4
:102660000EF006F8044600287FF490AEEB79002BBC
:102670003FF48CAE082109482EF0F8FE0BF0A6FEC0
:1026800084E600BFAFF30080908800020080002045
:1026900008010020380100201088000204010020F9
:1026A0002DE9F843D0E90C35D0F82C805C19303492
:1026B000A0450F46164619D81D4DA3FB05011AA3C8
:1026C000D3E90023FFF71AFB0346A4EB0800A0FBA5
:1026D000050123F07F4414A3D3E90023FFF70EFB89
:1026E00020F07F403C603060BDE8F883DFF8409028
:1026F0000DA3D3E90023A8FB0901FFF7FFFA044665
:1027000005F1300008A3D3E90023A0FB0901FFF77E
:10271000F5FA24F07F4420F07F403C603060BDE853
:10272000F88300BFAFF300808D49FD1A0700000059
:1027300000CA9A3B000000009FED0D7B124B134A2C
:102740001348144910B483ED007B9FED0B7B82EDA1
:10275000007B9FED0B7B104B4FF0FF34002281ED8F
:10276000007B04601A605DF8044B14F0E9BF00BF01
:10277000FFFFFFFFFF1F000000000000000000003F
:102780001F00000000000000B00100207831002090
:10279000EC5A0020A8010020E45A002000000000AC
:1027A000002800F05F812DE9F04FB54C94F86A20C5
:1027B00012F001058DB040F0A78194F82500FF23A9
:1027C00000F0030084F826301EF0E2FA94F86A0064
:1027D000420727D494F8292094F8353004EB82027C
:1027E00004EB8303D66AD3F8388086B1A448314617
:1027F00016F02AFF33785B0605D5062111F0CEFED0
:10280000002800F083819E48414616F01DFF337872
:1028100013F00E0F40F0B780236A93B10C200DB077
:10282000BDE8F08F2A4604F16B01C0F3C0001EF032
:102830004BFCFF2884F82600CCD028461EF0EEFA88
:10284000C8E714F0A7F88146002800F0718114F061
:10285000ADF88246002800F0688117F023FB05469A
:10286000002800F06781D0F888004FF6FF732B85B1
:1028700005F11C0B002800F04F8105F1780105F1EE
:102880007C0211F097FEB5F876307E4A23F4EF63B0
:1028900023F0070343F4887343F00103A5F876306F
:1028A0001346D2F80120C5F89B21C5F8A12113F8E1
:1028B000012B9B88A5F89F31A5F8A53195F89A3191
:1028C00002F0010262F3000362F3410385F89A31DA
:1028D00095F8393003F03F0363F07F0385F8393012
:1028E00095F88E3023F0070385F88E3095F83C304C
:1028F00023F00703002785F83C304FF4C023C5F8C8
:1029000088312846C5E91277C5F88870A5F88C701B
:102910006F86C5F82E7085F83B702F65A5F88E710F
:10292000A5F884711AF08CF885F85071C5F85491A7
:1029300017F076FD95F8943160F3020385F8943131
:1029400017F074FD95F8943160F3C50385F8943160
:1029500095F8803167F3410385F8803101212846DD
:1029600018F0C4F905F1D40019F0F2FDC4E9189A81
:10297000C4F820B0C5E905772F70ED611FF0D6FCD3
:10298000002840F0C58094F824300121C3F34203AD
:102990000DF12B008DF82B3011F0AAFF0246002814
:1029A00062D098F80110304616F010FC31233649F9
:1029B000A360364BB4F86870A0FB01010025C01875
:1029C00041F107012CA3D3E90023C4E90555257083
:1029D0006560E560FFF792F9206113F0BDFA00F140
:1029E00009083FB9357805F00F05A5F10105B5FADD
:1029F00085F56D0994F82400236965F3000010F053
:102A0000010584F824004BD0214A0992002010606F
:102A10000225204A204F04930BAE01930592032117
:102A2000CDE90200069443460090089607972A468F
:102A30000B9513F02FF9314614F072F8A0B917492D
:102A400005914AF2D8330093CDE90300CDE90100A6
:102A50000797089606944346012203210B9513F02D
:102A6000E5F843E016F0FEBA236A002B3FF4D6AE39
:102A700016F0B6FAD2E600BF8D49FD1A0700000035
:102A8000A45B0020A4A5030000CA9A3B8C49FD1A50
:102A9000985B002049920100E96001005D8D010012
:102AA0002B4A2C48049303F2471306940295912174
:102AB0001360A7FB000301FB0731274B0793274B4C
:102AC00005934FF6FF730992022703930BAE1EA3E3
:102AD000D3E900230B970896FFF710F94346CDE999
:102AE00000503A462846032113F0D4F8314614F03A
:102AF00017F80028B8D194F86A3043F0010384F83D
:102B00006A3016F0C3FF60B1002088E6122086E626
:102B100016F066FA032082E605F18000C5F8880009
:102B2000ABE601201EF016F9EEE7484613F038FF39
:102B3000072074E6504613F03FFF484613F030FF7D
:102B4000F6E700BFAFF300808D49FD1A07000000D3
:102B5000985B0020002AE784E960010049920100A7
:102B600070B590F824308AB0C3F342030D46044692
:102B700001210DF1230016468DF8233011F0B8FE27
:102B800071780246284616F021FB1F491F4AA0FB18
:102B90000131981841F1070119A3D3E90023FFF788
:102BA000ADF823699842054621D21B1A00220192F2
:102BB000174A0293174BA21AA3FB02320221920971
:102BC00000230A4409AE099113490591CDE9033365
:102BD0000321D2B206960093184613F0BBF8314693
:102BE00013F09EFF38B9256100200AB070BDFBD9F3
:102BF000C21A0023DBE70C200AB070BDAFF30080DF
:102C00008D49FD1A0700000000CA9A3B8C49FD1A45
:102C1000A45B002089888888E9600100000000002A
:102C200038B5194C9DF810E094F848C01CF0010527
:102C300023D163F3420C400194F83230A1874FEA6C
:102C4000CE0E0EF0180E00F0200040EA0E0023F029
:102C5000380303430D4884F832309121A2FB00036E
:102C600084F848C001FB023105A3D3E90023FFF734
:102C700045F8C4E91000284638BD0C25284638BD63
:102C80008D49FD1A0700000080310020002AE784EA
:102C900010B504469DF8080022844FEA411CC0008C
:102CA000A17D00F018000CF0200C4CEA000C0C4840
:102CB00021F038014CEA010CA3FB0002912184F8B9
:102CC00016C001FB032104A3D3E90023FFF716F884
:102CD000606210BDAFF300808D49FD1A070000004F
:102CE000002AE784000000002DE9F047044600F1C7
:102CF000350190F8480094F832305B4DDFF8808160
:102D0000C0F3400060F386138CB084F8323013F0C7
:102D100077F994F83220A38F5448E46102F07902E5
:102D2000002784F832209121A3FB0002C4E9057733
:102D3000277001FB03214AA3D3E90023FEF7DEFF3E
:102D4000651B626C4A4B6760AD08A3FB053502F159
:102D50000903984298BF3A46C5F3470522644FF0ED
:102D600031028CBF19460146A26005EB4502E760BF
:102D7000216148F82210064613F0EEF8236A00F1AC
:102D800009074FEA450A002B4AD00DF12C09AA4445
:102D900008EB8A030993CDF820900694A38F33485B
:102DA0004FF00008A3FB0002CDF80C80912101FB3D
:102DB0000321236904932F4B07932F4B05934FF067
:102DC000020A27A3D3E90023CDF82CA0FEF796FF33
:102DD000104619464FF47A720023FEF78FFF043530
:102DE000EDB2CDE9016003213B462A46CDF80080D3
:102DF000404612F04FFF494613F092FE60B994F836
:102E0000483043F0010384F8483016F0F3FB08B370
:102E100000200CB0BDE8F0870C200CB0BDE8F087B6
:102E20000DF12C09CDE90A3321694B460AAA03208A
:102E300001F096F90028AAD10B99104808A3D3E90C
:102E40000023A1FB0001FEF759FF0A9B20F07F47FA
:102E50001F449CE750461DF07DFFD9E7AFF300808B
:102E60008D49FD1A0700000080310020002AE78408
:102E7000BD86F21AE96001007D98010000CA9A3B04
:102E8000345C0020000000002DE9F04F05468BB0B7
:102E90008B46012002219A46144621F0EDFC0022C7
:102EA00002218146012011F0D5FB3B494FF4D47239
:102EB000284611F05FFB461DF6B2384B00953246AE
:102EC0000121002012F05EFF10F0FD0F0CD0344AFB
:102ED0003449354840F62F032CF0C1FA404080F3C6
:102EE00011884FF0030002DF304BA4FB034820465B
:102EF00027A3D3E900234146FEF700FF2C4B20F027
:102F00007F47A7FB03310722E01A02FB071168EB9A
:102F100001014FF47A720023FEF7F0FECDE9017053
:102F2000CDF800B008950695296995F939402148F2
:102F30000491214931EA240128BF014605911F4C23
:102F400007944FF6FE71039153463246012100204B
:102F500012F06CFE10F0FD0F0CD0114A114912480E
:102F600040F644032CF07BFA404080F311884FF088
:102F7000030002DFB9F1000F02D10BB0BDE8F08F02
:102F80000122022110460BB0BDE8F04F11F062BBE8
:102F90008D49FD1A07000000D03100204D9E010030
:102FA000E08A0300A48B03007C85030000CA9A3BDF
:102FB0008D49FD1AC5FE01006D000200F59D01005E
:102FC0002DE9F043C469228D4FF6FF739A428DB00C
:102FD00000F08880054620461AF02AF895F8283037
:102FE000012B00F00F81022B00F00281002B00F07A
:102FF000E18094F85071002F40F0FD80E68DB4F828
:103000003080002E71D1AA8C08F101060023CDE991
:103010000A33B6B2002A70D094F93930002BC0F2CE
:1030200048810023A4F88A3195F82630D90740F169
:10303000EF800023A4F88E310DF12702314620469F
:1030400019F03AFD743000F04681B4F888312BB1A4
:10305000B34240F20D819B1BA4F88831B4F884314F
:103060002BB1B34240F2FB809B1BA4F88431258E28
:1030700017B9A84500F0EA800135ADB294F8D13017
:1030800013F001065AD1DDE90A130A46002B40F07D
:10309000ED80002900F0DC801E461846228DE46990
:1030A0000694CDE903570532A74D0290CDE90016ED
:1030B000D2B201210020059512F04CFE10F0FD0F58
:1030C00010D013F057FD84420CD0A04AA049A1486B
:1030D00040F215532CF0C3F9404080F311884FF0B3
:1030E000030002DF0DB0BDE8F083AA8C4644002344
:1030F000CDE90A33B6B2002A8ED195F82630DA0728
:1031000097D4B4F88A31002B00F08280B34240F2A9
:10311000FA809B1BA4F88A31B4F88E31002B8BD037
:103120009E4280F0DE809B1B9BB20022062BA4F8FF
:103130008E31228600F2AC8001277DE794F9392098
:103140006FF30003002A84F8D13077DB94F876001F
:10315000C0F3C00100F007001EF04EFFB4F86E206F
:10316000B4F86C30134403F2D51303447A4A7B4815
:103170000721E3FB0021104671A3D3E90023FEF7EA
:10318000BDFDDDE90A1320F07F42206922619042F3
:1031900035BF161A801A002000260A46002B7FF43D
:1031A0007DAF56EA010C7FF479AF002850D0194664
:1031B0001E4673E794F88E3003F01803182B7FF443
:1031C00018AFA18DB4F886218B1D9A42C4BF931FFE
:1031D0005B1AB4F88211CCBF9BB21346994200F03F
:1031E0008C80A4F88231A4F88431A4F8882100E707
:1031F0003D2784F85071394620460DB0BDE8F043B4
:1032000017F032BA0023A4F88831A4F88431F0E62C
:10321000B4F88E31002B83D1628DB4F88C3140F23A
:10322000E24101FB02F242F2107101FB0323013B78
:10323000B3FBF2F39BB2A4F88E316FE794F87700FA
:10324000012100F007001EF0D9FE87E73D4615E793
:10325000002D4BD000261146304633461EE7002392
:10326000A4F88431204619F0C7FC00E7304615E782
:1032700013F0E8FB014600283BD00023A4F8883176
:10328000238DC3801B230371006813F0A5FBE5E6C3
:1032900094F939309342BFF6CFAEB8F1000F7FF406
:1032A0004BAFD4F878315A08DB0743D4C4F87821FF
:1032B000C2E628460AAA0BA904F1D409FFF7F0F9DF
:1032C000484619F087F918B3484619F083F918B33E
:1032D00000232386A5E69DF82710204617F0C4F9A1
:1032E00000E70821204617F0BFF9FBE6002FB1D117
:1032F000F8E60123A4F88831B0E6B4F88811002973
:103300007FF477AE6FE73E21204617F0ADF9E9E68E
:10331000FF2017F061F9D7E70246D4E91E0111F04A
:1033200061F90028D4D194F83C30580744BFA38DEC
:10333000238676E642F00042C4F87821FCE600BF1E
:103340008D49FD1A07000000B59D0100E08A0300C9
:10335000F08B03007C8503008C49FD1A00CA9A3B60
:103360002DE9F04F87B0CDE90432BDF84420037851
:103370000292BDF84820BDF84080BDF84C50468E02
:10338000B0F82E90B0F814B1019104460392002BCE
:1033900000F0CB80013EB6B2A368D4F80C71721B6A
:1033A00092B2002B009209DAE168626823F00043D0
:1033B00091422CBF7F18BF18A360FF1A009A638D3B
:1033C00013FB02F39BB2B3FBF8F218FB02F080B2DE
:1033D00083421FFA82FA80F09780C01A40F2E242DC
:1033E0005D4902FB00F0A0FB010159A3D3E90023D2
:1033F000FEF784FC20F07F400744D94494F839302C
:103400004D44AD1B554440F2E246DB09E58506FB21
:1034100008F500F08E80226C0099A36CDFF838B1BB
:1034200002FB1133A3641EF0D3FF814694F87401AC
:10343000C0F342001EF0D0FF059B814406FB03F35E
:1034400005FB09F9236509F57429444B09F23F2965
:10345000A3FB09394FEA994303FB0AF02364A5EB68
:103460000309A36C6A080344963A934228BF1346A3
:10347000C4E911230023C4F87C31A0FB0B0134A361
:10348000D3E90023FEF73AFC049B3F1A3448A0FB23
:103490000330800A06FB00F02DA3D3E90023A0FB34
:1034A0000B01FEF72BFC20F07F46029BA385039BBC
:1034B000A4F88C3129462046A4F82A8019F038FB5C
:1034C000284BA18D2B44881DB3FBF5F39AB2904293
:1034D000A4F8862102D2521A063A92B2019BA4F8AD
:1034E000822113B10023A4F88E313B464A4631466F
:1034F0002046FFF7C9FC94F8803143F0010384F8BB
:10350000803107B0BDE8F08F08FB1231124840F25D
:10351000E24389B203FB01F1A1FB00010CA3D3E953
:103520000023FEF7EBFB3F1A67E74E445E44B6B25A
:1035300032E7049B0848A3FB000105A3D3E900235D
:10354000FEF7DCFB20F07F46A9460136ADE700BF61
:103550008D49FD1A0700000000CA9A3B83DE1B4319
:103560005917B7D17FC3C9012DE9F04F04460B6845
:10357000077F1668D3F800A0638CD0F81E0095B0C2
:1035800015464A7CADF84C30FF2AC7F380138946B4
:103590000D9212908DF83F3072D198461A4612ABB8
:1035A00093E803000DF1400B1090ADF84410F809BA
:1035B0000AF1710127680A915B460C900B9716F08F
:1035C0003BFF0A99002843D196F89A310C9A0A9049
:1035D00068F3410362F3000386F89A311098BBF850
:1035E0000430C6F8A101A6F8A531DAF87130C6F8A2
:1035F0009B318B88A6F89F31E38D94F83010A97227
:103600002B81D4F82A306B60D4F83A30AB6105F1E5
:10361000180094F83E300371052111F069F96B7FB1
:1036200000F03F0060F305036B7794F83F30C3F37D
:103630000401A977A18EE981012803F01F0389B253
:1036400006D91B3303F01F030B2B01D80A9A59BB71
:103650000022CAF8142095F820300B9862F300037A
:1036600085F82030E56801262146267113F0AAF975
:1036700028682E71294613F0AFF915B0BDE8F08F18
:103680000DF1400B10460DF13F015A461DF0D8F8E0
:103690009DF83F80277F08F102085FFA88F88DF8CF
:1036A0003F8008F0010282E7D9F800305A60E38ECB
:1036B0002B82EB8940F2E24808FB03F71146638E48
:1036C0000A93304619F048FA94F83F3096F874217E
:1036D0005B0963F3430286F874211EF079FE0C90B7
:1036E00096F87401C0F342001EF076FE0C9B18445D
:1036F00007FB00F0BA4B00F5742000F23F20A3FB5B
:1037000000307B08800C963B6862AB6294F83130E5
:1037100008FB03F3AB63238FA6F88C3139463046A0
:1037200019F006FAAF4BB04AC6F890213B44B3FB00
:10373000F7F39AB2A6F88621298A881D824204DD11
:10374000C1F57F41FA310A4492B2A6F882216B6832
:10375000C6F87831234613F81C2FC2F34018DA0755
:1037600000F104814FF48073A3839AF826001DF0C2
:10377000C1FD04F12B03002800F0EE80626AC4F85A
:103780002B20228D9A800D9BFF2B00F0E980BDF845
:103790004C301298A4F82930C4F82500BBF8043046
:1037A000A4F8233010989DF83F30C4F81F00A37789
:1037B000EB8963862B8AA386B6F88C31E38696F86C
:1037C0007431C3F3420384F83830304616F076FB88
:1037D000A881E08021460B98D9F8044013F0F2F854
:1037E000AB89E3801C23D4F800B02371B8F1000F3B
:1037F00040F0D18084F81C802146584613F0ECF844
:1038000095F85B00B5F85080B5F85240012100F002
:1038100007001EF0F3FB444404F2D514DFF8D48112
:103820000444834671480721E4FB08013123002446
:10383000B360746068A3D3E90023F460FEF75EFA16
:1038400020F07F4030616D6A0A9A7D1BD9F80C70B8
:1038500040F2E24303FB027702212246012010F0EE
:10386000F9FE504615F0ACFE07F2B2470246A7EB50
:103870000B07A7FB0801174657A3D3E90023FEF760
:103880003DFACDF804A0D9F808305949009120F04C
:103890007F48BA1C3A3BD2B220464344012112F081
:1038A000B3FA012800F082809AF82430DB076AD44A
:1038B000304616F003FB4F4BA5FB035A044646A3C4
:1038C000D3E9002328465146FEF718FAD9F8083004
:1038D000494A0792A3F13A09484B069620F07F47E0
:1038E000A7FB0331E81A464B059340F2D113089326
:1038F00033694FF0000BCDE903B34FF0070303FB2F
:1039000007116AEB01014FF47A720023FEF7F6F912
:103910000534E4B2CDE90170CDF800804B46224673
:103920000121584612F082F910F0FD0F0CD0354AF3
:10393000354936484FF4E9732BF091FD404080F350
:1039400011884FF0030002DF01220221104610F01F
:1039500081FE15B0BDE8F08FC4F82B00988012E707
:103960000022C4F82520A4F8292017E7254A284971
:103970002648F8232BF073FD404080F311884FF068
:10398000030002DFEEE600230122009318461146F1
:1039900012F0F8F98CE76B7F43F040036B77281D3A
:1039A0001CF046FD4FF00108E88323E713F0E2F82E
:1039B00082453FF479AF134A1649144840F27923FF
:1039C0002BF04DFD404080F311884FF0030002DFE3
:1039D0006AE700BFAFF300808D49FD1A07000000C1
:1039E00083DE1B437FC3C901404B4C008C49FD1A49
:1039F00089FE010000CA9A3B59FE01008D49FD1A5B
:103A0000C5FE010090900300A48B03007C85030099
:103A100040880300EC9003002DE9F04F8DB01F4665
:103A2000BDF860300793CDE90501BDF868309DF819
:103A30005C90BDF864B004930020164616F034F88C
:103A4000002800F0658109F001080446404612F0A4
:103A5000C7FA0390B8F1000F6DD1169B03993A464F
:103A6000404616F0E9FC002840F06381236A04F127
:103A70001C020892002B65D0D4F820A0DAF8005080
:103A800007F0010B9AF85A00C0F3C00100F00700DC
:103A90001EF0B2FABAF85210BAF8502000F2D5135C
:103AA0000A441344CC48CD4A0721E3FB00211046C9
:103AB000C7A3D3E90023FEF721F920F07F40286156
:103AC00030461DF087F994F833306FF3410384F8E2
:103AD0003330FF2384F83430002E00F01D81A9F12B
:103AE0000203012B40F2298194F84810089869F3E9
:103AF000420184F8481094F833106BF30001DDE9BB
:103B0000052384F83310169909686162169989882B
:103B100021850499218600960021FFF7B9F8606499
:103B20001EF004FC002840F013812046FFF7DCF86B
:103B30000DB0BDE8F08F062110F030FD00288CD1CB
:103B40001220F5E712F026FF0990002800F073819B
:103B500016F0A8F90546002800F06A81203010F020
:103B6000DBFE05F11C0A002840F01D81032105F150
:103B700024001EF0F5F8079BD5F888006B854FF6FA
:103B8000FF73A5F82CB02B85002800F0198105F1F2
:103B90007C0205F1780110F00DFDB5F8763023F4C4
:103BA000EF6323F0070343F4887343F00103A5F8A0
:103BB000763095F88E304FF0000B23F0070385F830
:103BC0008E300121C5F888B0A5F88CB0284617F0D2
:103BD0008DF8C5F82EB0A5F832B005F134001CF010
:103BE000D1FB95F8393060F30503012185F83930B0
:103BF0000DF12F001EF0B4F8049B9DF82F20A5F8BE
:103C00008C31774B85F83BB0A3FB0213DB0803EB49
:103C10004303A2EB830295F83930A98DA5F88EB144
:103C200003F03F0385F8393095F83C30A5F884B1AE
:103C3000053223F0030385F83A20079A85F83C30D3
:103C400040F2E24B674B0BFB02FB4FF4C0225B449C
:103C5000C5F88821881DB3FBFBF39AB28242A5F810
:103C6000862102DD063A521A92B2A5F88221284630
:103C700018F0E6FE5946284618F05AFF099BC5F889
:103C80005431002385F8503116F0CAFB95F8942181
:103C900060F3020285F8942116F0C8FB95F8942190
:103CA00060F3C50285F8942195F88021002363F321
:103CB000410285F8802105F1D40018F049FC95F8FF
:103CC0009A21169907F0010B6BF3410285F89A21AE
:103CD0003122AA600023169A6B60EB601268C5F867
:103CE000A12195F89A218988A5F8A51169F3000208
:103CF000039985F89A210A68C5F89B218A88A5F856
:103D00009F21C4F820A0C5E905332B70ED61B9E609
:103D10000C200DB0BDE8F08F1DF09CFC00283FF496
:103D2000DEAE1699384632461DF0CEF984F83400DE
:103D3000D5E60B200DB0BDE8F08F00201DF06EF829
:103D400094F8333043F00203C14684F83330CBE6B5
:103D5000256AEB6E63B1244A2449254840F21D438D
:103D60002BF07DFB404080F311884FF0030002DF11
:103D700005F1600105F15C0010F020FC064600280A
:103D80003AD02F68EE66D7F85451002D42D028461D
:103D900012F006FE384616F08BF80023032023624B
:103DA0000DB0BDE8F08F104A12491148C1232BF025
:103DB00056FB404080F311884FF0030002DFD5E648
:103DC00005F18000C5F88800E1E600BFAFF3008090
:103DD0008D49FD1A0700000000CA9A3B8C49FD1A64
:103DE000ABAAAAAA7FC3C9011C910300D48903000E
:103DF0007C850300D8850300104A1149114840F220
:103E00001F432BF02CFB404080F311884FF0030040
:103E100002DFB6E7094A0A490A4840F226432BF076
:103E20001EFB404080F311884FF0030002DFAEE735
:103E3000099812F0B5FD07207AE600BF1C91030037
:103E4000308B03007C8503002DE9F04F04468DB0D4
:103E500090F81C80238D406AADF82C30E307C8F33E
:103E6000C0170E461546C8F340180A9000F10D81A0
:103E70000023A383B37C707C13F001031CBFD4F830
:103E80001E30C4F82B3004F12B0214BF638CC4F82D
:103E90002B30FF28938004F1250904F11F0240F024
:103EA000E5800023BDF82C100A98C4F82530A9F845
:103EB0000430A777C4F81F0091803368D3F80090CE
:103EC000EB8963862B8AA386B9F83030E3861EF02F
:103ED0007DFA84F838002F68384615F0EFFF00218E
:103EE000A881E080384618F037FED6F804A0206894
:103EF000214612F067FDAB89AAF806301C23DAF8D8
:103F000000408AF80430B8F1000F40F0CC808AF805
:103F10001C805146204612F05FFDBB687A6895F818
:103F20005A00B5F80E80F568674C934238BF1346C7
:103F3000C0F3C00103F1090A00F0070040F2E243B8
:103F400003FB08F81EF058F8002202212D1A012068
:103F500010F080FB484615F07DFDA5FB044558A3F5
:103F6000D3E90023834629462046FDF7C7FECDF856
:103F70000490B3685549009120F07F490BF1040289
:103F8000A3EB0A03D2B24B440121002011F03CFF05
:103F900010F0FD0F0CD04E4A4E494F4840F23D33D1
:103FA0002BF05DFA404080F311884FF0030002DFF0
:103FB0004FF0000B5B4603220121CDF800B05846BC
:103FC00011F0E0FE384615F079FFB36806463E482A
:103FD000A3EB0A0AA8FB000139A3D3E90023FDF7EC
:103FE0008DFE19463D4B08933D4B069340F26D33D1
:103FF000079709933B698046CDE904B31046002337
:104000004FF47A72FDF77AFE364B0722A9FB033193
:10401000CDE9028002FB0911E01A65EB01014FF4C2
:104020007A720023FDF76AFE0536F6B2CDE90090FC
:10403000534632460121584611F014FE10F0FD0F90
:104040000CD0234A2349244840F26E332BF007FA60
:10405000404080F311884FF0030002DF012202216B
:1040600010460DB0BDE8F04F10F0F4BA04F11E0197
:104070001CF0E6FBA37FBDF82C200A98C4F82500AD
:104080000233A377A9F8042017E7114A164912480A
:1040900040F2BD232BF0E3F9404080F311884FF04C
:1040A000030002DFE4E66B7F43F040036B77281DDB
:1040B0001CF0BEF94FF00108E88328E7AFF3008059
:1040C0008D49FD1A0700000000CA9A3B3900020022
:1040D0001C910300A48B03007C8503003D000200BB
:1040E0006D0002008D49FD1A4088030000000000A9
:1040F0000538C3B2052B0CD870B580B20D4615F04B
:10410000E5FE044618B190F93930002B03DA00209F
:1041100070BD0020704790F876000F4EC0F3C001CC
:1041200000F007001DF068FF0C4A00F2B5500721AF
:10413000E0FB0621104606A3D3E90023FDF7DEFDD0
:1041400020F07F402860204670BD00BFAFF30080A4
:104150008D49FD1A0700000000CA9A3B8C49FD1AE0
:104160002DE9F04F93B0FF240B930B1D0A9300230E
:10417000CDE90E33054616468DF837409B464FF085
:10418000040A1F469946984610AB0693564B059372
:10419000564B03930FAB01930EAB00200093022309
:1041A00010930490029033460DF13702294611F026
:1041B0006FFE022815D0109BCBB9FF2C26D0336898
:1041C000BB4223D0BAF1000F40D00AF1FF3AFF24DE
:1041D0005FFA8AFA8DF83740D6E72946002011F0B9
:1041E000A3FE109B022BF8D0109B002BE5D0404A79
:1041F000404941484FF4F7732BF031F9404080F3C8
:1042000011884FF0030002DFFF2CD8D19DF8370052
:10421000FF2829D011A9FFF76BFF0028B4D0FF2C8D
:104220000E9F119B0AD041463846099311F096FE25
:104230000A9B03EB09029042099B17D8B8469DF8E8
:1042400037403768DDF83CB099469DE72B49284A4E
:1042500029484FF4FB732BF002F9404080F311889A
:104260004FF0030002DFB0E7FF2C34D024480721D1
:10427000A9FB000301FB093119A3D3E90023FDF7D2
:104280003DFD044600B140341E4AABF57423A3F54E
:104290001073934216D81A480721A8FB000301FBAC
:1042A00008310FA3D3E90023FDF728FD164BA3FB2C
:1042B0000B2304EB93440B9B044400201C6013B0BD
:1042C000BDE8F08F0BF1E87B0BF5D43B08F1FF382C
:1042D0000BF5A57BDFE76FF0090013B0BDE8F08FA9
:1042E00000CA9A3B00000000490302004D0302008F
:1042F00068910300AC9103007C850300B491030036
:104300008D49FD1ABFBDF07F83DE1B430000000016
:104310002DE9F043C668476873683D491A68D0F8CC
:104320000090A7F57423A3F510738B4283B08046E9
:1043300007D907F1E87707F5D43709F1FF3907F511
:10434000A57773681169DD89CDF8049006F1100333
:1043500001AA0220FFF704FF00284ED10199A1EB2A
:1043600009031B0237D40846494611F0F7FD0346FE
:1043700028480721A3FB000201FB032122A3D3E964
:104380000023FDF7BBFC34690444002C346109DBD5
:1043900040F2E24305FB03F3A3422FD2E41AA34207
:1043A000FCD33461D8F800301A48A3EB0903A3FB0F
:1043B0000002072101FB032113A3D3E90023FDF72A
:1043C0009DFC154BA3FB0737A0EB974020443061C1
:1043D00003B0BDE8F083484611F0C0FD03460D4828
:1043E0000721A3FB000201FB032107A3D3E900235C
:1043F000FDF784FC3469241AC7E73469002CD1D155
:1044000003B0BDE8F08300BF00CA9A3B0000000083
:10441000BFBDF07F8D49FD1A83DE1B430000000005
:1044200010B5334C3349002304F1FF3C14F833201A
:10443000072A02EB820E05D811F83E206FF34512D1
:1044400001F83E201CF833206FF300020CF83320F3
:104450000133082BEAD1284A284C002313700A782C
:1044600063F300020A7091F8282063F3000281F8D8
:10447000282091F8502063F3000281F8502091F831
:10448000782063F3000281F8782091F8A02063F38C
:10449000000281F8A02091F8C82063F3000281F89F
:1044A000C82091F8F02063F3000281F8F02091F821
:1044B000182163F3000281F81821114A9FED0A7B4D
:1044C0001370104B83ED007B0F4B236028B1BDE8C8
:1044D00010400E490E4832F037B8BDE810400C4885
:1044E00032F040B8AFF30080FFFFFFFFFFFFFFFF98
:1044F0007569002034680020D47C002044670020C7
:10450000D37C0020F03B0020A0BB0D00091002006E
:10451000C03B0020000000002DE9F04F8FB00DF1EE
:1045200037010446DFF8E0A0DFF8E0800DF1360047
:1045300012F0D0FA9DF836309DF837B00B9311F099
:104540000BFDDAF80060A6FB085629A3D3E9002387
:104550000027814631462846FDF7D0FBCDE9077795
:10456000069420F07F44DAF80400234B0593A0FB67
:1045700008011FA3D3E90023FDF7C0FB1F4B20F068
:104580007F40A4FB0331072202FB0411CDE9037035
:10459000E81A66EB01014FF47A720023FDF7AEFBD7
:1045A0000097CDE901404B460B985A46032111F084
:1045B0003DFB10F0FD0404D06FF08B000FB0BDE8A0
:1045C000F08F0F480F4A002325F084F920B9DAF85C
:1045D0000C000FB0BDE8F08F9DF837209DF8360035
:1045E00000942346032111F0CDFB6FF07300E5E743
:1045F0008D49FD1A07000000591702008D49FD1A68
:10460000E8690020447B0B00006A002000CA9A3B46
:1046100038B50F4D044611F09FFCA96811F09EFCBF
:10462000696803460B48B3FBF4F4A1FB00011C448A
:1046300005A3D3E90023FDF761FB20F07F4084420E
:1046400094BF0020012038BD8D49FD1A07000000ED
:10465000006A002000CA9A3BF0B5C468636883B062
:104660000546002B63D11FF04DFC08201FF070FCA5
:10467000002108461FF05EFC0022252108201FF0C3
:104680009DFC454B019301A81FF080FC434940F27B
:104690005B601FF02BFD237AC3F3420262F3061323
:1046A000204623721EF0B6F81CF0D4FF58BB637A84
:1046B0009B071FD127682E6838461DF03BFC064437
:1046C0006A6806F1090101201FF06AFE1FF056FF1B
:1046D000204614F081FF811C3246C9B238461DF0D5
:1046E00037FC054670BB20461DF0BEFB88B9002094
:1046F00003B0F0BD01201CF021FB4178821C007842
:104700001FF0EEFDD6E7607A10F0030018BF01201D
:10471000F1E7234A2349244840F22C432AF09FFE24
:10472000404080F311884FF0030002DFDFE793F889
:1047300020309A0797D01D4821461FF0A1FB1FF09B
:104740008FFCD4E7164A1A49174840F214432AF05E
:1047500086FE184B0721A5FB030301FB05310CA3C3
:10476000D3E90023FDF7CAFA1349024613482AF099
:1047700076FE404080F311884FF0030002DF1048BE
:1047800021461FF07DFB1FF06BFC6FF08B00AFE745
:1047900000CA9A3B00000000D6BE898E55555500D0
:1047A00060950300E88603007C850300D9200200A1
:1047B000FC8503008D49FD1A10960300E495030063
:1047C000E5230200000000002DE9F041C46894F9DF
:1047D0001630002B8CB0C0F2FF80636805460E4691
:1047E000002B40F0EE80A37D6FF30003A3751FF054
:1047F00089FB08201FF0ACFB002108461FF09AFB44
:104800000022252108201FF0D9FB012012F064FAB4
:104810000746002800F0C78007F11C001FF0F8FBD6
:10482000874B0B930BA81FF0B1FB864940F25B60EE
:104830001FF05CFCA07DC0F3410025301DF09AFB09
:10484000814821461FF01CFBA37D9B0603D46368AF
:10485000002B00F0A58096201FF096FD00231A463D
:10486000194618461FF0A8FC1CF0F4FE002838D1A9
:10487000A37D13F0180F59D1D4F800802F6840465B
:104880001DF058FB07446A6807F1090100201FF07A
:1048900087FD1FF073FE1FF0FFFC204615F0E8F8BF
:1048A000011DC9B240463A461DF052FB8046002821
:1048B00040F0998016B9636A002B4ED1636843B10A
:1048C000624B0122022100209D600FF0F9FE0028BA
:1048D00035D120461DF0C8FAD0B900200CB0BDE893
:1048E000F081A07DC0F3C0001CF028FA07460DF14E
:1048F0002B001CF027FD79788046BA1C38781FF011
:10490000EFFC9DF82B00002241461FF007FFB3E7A4
:104910004F4A5049504840F20B232AF0A0FD404036
:1049200080F311884FF0030002DFD6E701201CF06E
:1049300005FA4178821C00781FF0D2FC9CE7444ABB
:104940004649454840F206232AF089FD404080F35D
:1049500011884FF0030002DFBBE7414A0792414A4A
:10496000059240F2F31200930892CDE90366CDE977
:10497000016606943B463146032211F057F910F0C8
:10498000FD0F9BD0324A384933484FF4FA732AF06E
:1049900066FD404080F311884FF0030002DF8DE791
:1049A0001FF06AFC60E72A4A30492B484FF4C57370
:1049B0002AF055FD404080F311884FF0030002DFDC
:1049C0002AE7636893F82030D90705D4636893F821
:1049D00020309A077FF507AF254821461FF050FA8F
:1049E0001FF03EFB79E71A4A22491B4840F2E513C3
:1049F0002AF035FD204B0721A8FB030301FB0831FA
:104A00000DA3D3E90023FDF779F91C4902461C48A0
:104A10002AF025FD404080F311884FF0030002DFAB
:104A2000184821461FF02CFA1FF01AFB6FF08B007C
:104A300054E700BFAFF3008000CA9A3B00000000BB
:104A4000D6BE898E55555500294B000044130020D1
:104A50001C960300E88603007C850300F0860300B3
:104A60005D2F0200FD2F020020890300AC9503009A
:104A7000D9200200FC8503008D49FD1A68960300C9
:104A8000E4950300392E020038B504461EF084F97F
:104A9000A37DA27DC3F34103013303F00303032B82
:104AA00008BF002363F3420214BF03F12500252051
:104AB000A2751DF05FFA63680BB123694BB911F061
:104AC0004BFAC11C00201FF0DFFCBDE838401FF08E
:104AD00055BD1FF007FD054611F03EFAC11C002030
:104AE0001FF0D2FC1FF04AFD1FF0FCFC294611F01C
:104AF00035FA0B4A03460721A0FB020201FB032102
:104B000005A3D3E90023FDF7F9F823691B1A2361F4
:104B100038BD00BFAFF3008000CA9A3B0000000020
:104B20008D49FD1A000000002DE9F0478AB00446C7
:104B30001FF0C8FAC0B250B91DF074FAC44821463B
:104B40001FF09EF90AB0BDE8F0471FF089BA1FF0C8
:104B5000D9FA05461FF0F8FB07461FF0FFFB814618
:104B60001FF036FE06461FF015FE82461FF0AEFB14
:104B7000EDB280461FF08EFB1DF054FA002DDDD003
:104B8000012012F0A9F80546002800F04D8117F029
:104B9000FF07F6B240F0E380002E40F0DA804FF0DD
:104BA000FF093A464B46314620461EF01BFB0028C3
:104BB000C4D02A7F616800238DF823305FFA88F71C
:104BC00002F00F03002900F0EC80616891F82010DA
:104BD000880700F1E680072BB0D0A17D090740F1DE
:104BE0004381002B40F0C4806B7F063B1F2BA5D870
:104BF000042012F071F80028A0D01FF0C7FC636AEF
:104C0000074643B9238C40F2712202FB03F3B0FB49
:104C1000F3F203FB120723681A698E4B0721A2FBEC
:104C2000030301FB023188A3D3E90023FDF766F8F3
:104C30006FF44A7C00EB0C03BB42FFF47FAF1FF024
:104C40001BFB484663681CF063FBE37D99078046C5
:104C500040F1E581002800F0E281824601271FF043
:104C60005FFACDE9027A09AB049305F11E030193C3
:104C70002B7FC3F3801301460746009300220123D4
:104C800020461EF0C9FA38461FF0C8F91FF010FA86
:104C9000002840F0CA81704821461FF0F1F8626890
:104CA00092F8203043F0010382F82030A37D43F0D6
:104CB0008003A37512F032F8172202714FF6FF72CB
:104CC000C28095F81CC082463B46CCF3401C00F1E4
:104CD0001C0207F1200E1D6858689968DF68D760CC
:104CE0001033734515605060916002F11002F2D1EB
:104CF0001B6813609AF81C30CAF808406CF345131F
:104D00008AF81C301FF0EEFB002ECAF81000099B39
:104D1000CAF8143008BF4FF0FF098AF81990E37DF4
:104D200013F0020303D0B8F1000318BF01239AF86F
:104D30001A2063F300028AF81A2011F0EFFFCAF874
:104D40000C00DAF8000051460AB0BDE8F04712F056
:104D500013B85FFA8AF01CF069FB814621E7A07D59
:104D60005FFA89F1C0F3C0001CF0F6FA814618E73B
:104D7000012B40F089806A7F0C2A7FF4DFAE2A7F06
:104D8000CDF80090194600230193D20905F12403C0
:104D900020461EF07BF900287FF42AAF2B7F03F01A
:104DA0000F03002B70D16B7F052B7FF6C7AE252B31
:104DB0003FF6C4AEA27D02F02102202A09D162682A
:104DC000002A00F0C180052B7FF6B8AE252B3FF6F8
:104DD000B5AE63682BB12B7F03F00F03072B7FF475
:104DE000ADAE03209DF8238011F076FF0546002824
:104DF0003FF4A4AE11F092FF4FF6FF73EB80052352
:104E00002B71002F3CD17F20AB7E2876002E08BF6F
:104E10004FF0FF0968F34103286885F81990AB76D5
:104E2000294611F0A9FF89E60C4A0D490D4840F2C8
:104E3000C7232AF014FB404080F311884FF0030091
:104E400002DFA4E6AFF3008000CA9A3B0000000036
:104E5000512E02008D49FD1A413002001C960300BC
:104E6000AC9503007C850300B9F1FF0F8DF8249009
:104E7000C2F380184BD0227E91453FF4B2AE90E74A
:104E80001FF014FAC0B2BFE7062B8CD04521D940E1
:104E900011F0010139D1012B10D16B7F0C2B7FF464
:104EA0004DAE2A7FCDF800900DF123030193D20976
:104EB00005F1240320461EF0E9F808BB2B7F03F020
:104EC0000F03042B7FF43AAE6B7F063B1F2B3FF69C
:104ED00035AEA37DDB077FF531AE1FF021F92B7FC7
:104EE0000278C3F38013B3EBD21F7FF427AE0830F0
:104EF000062205F11E0125F051FF00287FF41EAEA9
:104F00006B7F002B7FF465AF18E66B7F5BE705F1E5
:104F10001E0A09AA514640461CF03EFB00283FF4F9
:104F20003DAFE37D03F0010343457FF437AF5146C6
:104F3000062204F1080025F031FF00287FF42EAF8F
:104F40002B7F03F00F034CE6962007921FF01CFA0C
:104F5000079A10461FF0E8F8032011F0BDFE8046C6
:104F600000283FF4EBAD11F0D9FE4FF6FF73A8F81F
:104F70000630052388F80430002F64D17F23002EEB
:104F800088F8183014BF4B46FF2388F8193098F87A
:104F90001A30D8F800006FF3410388F81A30414600
:104FA00011F0EAFE1FF0BCF806460322337862F3E4
:104FB000030333702B7F3278C3F3801363F3C7127C
:104FC0000C233270484673701CF0A2F9E27D920700
:104FD0003DD500283BD03178324641F0400102F8FF
:104FE000021B0168C6F8021083889380D5F81E3032
:104FF000B3606B8CB38130461FF010F81FF058F887
:10500000002835D11FF0BAFAA37D204843F00103F0
:105010002146A3750AB0BDE8F0471EF031BFA77D59
:1050200004F1190AC7F3801719E6194A19491A48F1
:1050300040F2A4432AF013FA404080F311884FF065
:10504000030002DF27E61FF031F9C3B297E7A37D23
:105050003278C3F3801363F38612334603F8022BCE
:10506000D4F81920C6F80220B4F81D209A80BDE7B4
:10507000074A084908484FF4A5632AF0F0F9404070
:1050800080F311884FF0030002DFBBE7652E0200BA
:105090001C960300B49503007C850300000000000B
:1050A0002DE9F041C468A2894FF6FF739A4282B09D
:1050B00000F0C78005461EF0B3F92B89628AE08AAA
:1050C0001A4492B21044637FA28280B2411CE182F2
:1050D0005E064FF00001618204F1180100F18C803E
:1050E00003F03F000B46A17F009004F11F001BF06E
:1050F00057F90646D4E90B231344D4E90D020021E5
:105100000244E1626163A16AA26394F872208B4257
:1051100028BF0B4612F00402236377D01EF0F2FE84
:1051200008201EF015FF201D1EF030FF2389A17AF4
:1051300040F25B6043EA01411EF0D8FF30461CF0AC
:1051400019FF214658481EF09BFE96201FF01CF9BF
:1051500094F85A2094F85B00C2F3C003002102F0D7
:10516000070200F007001FF027F820461EF0BAF9EA
:1051700027682E6838461CF0DDFE06446A6806F192
:10518000090100201FF00CF980461FF0CBF9002028
:105190001FF0E2F9236B94F85B0003F13002A36B7C
:1051A00000F00700012103EB42051EF045FF4544D6
:1051B000054494F85B0000F00700022824D004287E
:1051C0000CBF4FF4BC73282301211D441EF036FF91
:1051D00028441FF099F9A18905313246C9B23846F1
:1051E0001CF0B6FE054698BB20461CF03DFED0B92B
:1051F000002002B0BDE8F0810A4603F03F03E18BD6
:105200001BF01AF9064675E71823DDE7D4E9170104
:105210000FF0E8F9002881D194F8723043F00403CC
:1052200084F872307AE7214A2149224840F2551326
:105230002AF015F9404080F311884FF0030002DF97
:10524000D6E71D4821461EF01BFE1EF009FFCFE7E2
:10525000164A1A49174840F24B132AF000F9184B26
:105260000721A5FB030301FB05310DA3D3E90023AF
:10527000FCF744FD1349024613482AF0F0F8404079
:1052800080F311884FF0030002DF104821461EF022
:10529000F7FD1EF0E5FE6FF08B00AAE7AFF300808C
:1052A00000CA9A3B000000003D370200E896030068
:1052B000E88603007C850300D9200200FC850300FA
:1052C0008D49FD1A3C970300E4950300B5200200C8
:1052D000F0B5C468A2894FF6FF739A4285B000F01A
:1052E0008B8005461EF09CF82B89628AE08A1A445E
:1052F00092B21044637FA28280B2411CE1825E06BA
:105300004FF00001618204F118015FD403F03F0007
:105310000B46A17F009004F11F001BF041F80646E8
:10532000204603A91EF0ACF9039B94F872101A787A
:1053300061F3C3021A70039A94F872301178C3F3C0
:10534000400363F3820111701EF0DCFD08201EF0A3
:10535000FFFD201D1EF01AFE2389A17A40F25B603A
:1053600043EA01411EF0C2FE30461CF003FE0399E1
:1053700020461EF059F9214637481EF081FD96203F
:105380001FF002F894F85B0000F007001EF0CCFE5E
:1053900027682E6838461CF0CDFD06446A6806F181
:1053A000090101201EF0FCFF1FF0E8F8A18905317A
:1053B0003246C9B238461CF0CBFD054618BB204624
:1053C0001CF052FD50B9002005B0F0BD0A4603F0B4
:1053D0003F03E18B1BF030F80646A1E71F4A204946
:1053E000204840F203132AF03AF8404080F3118835
:1053F0004FF0030002DFE6E71B4821461EF040FDA8
:105400001EF02EFEDFE7154A18491648F9232AF048
:1054100026F8174B0721A5FB030301FB05310CA35D
:10542000D3E90023FCF76AFC1249024612482AF02D
:1054300016F8404080F311884FF0030002DF0F4858
:1054400021461EF01DFD1EF00BFE6FF08B00BBE72A
:1054500000CA9A3B00000000713502004897030023
:10546000E88603007C850300D9200200FC85030048
:105470008D49FD1A98970300E4950300B5200200BA
:105480002DE9F0472DED028B9FED498B4A4E84B0FC
:1054900004464FF02003EFF3118783F31288BFF324
:1054A0006F8FD4F8C8508DB9022104F1E00030F0BC
:1054B00094FF002843D100238DED008B029304F16B
:1054C000D00239463D4824F0E3FEE2E7D4F8CC2090
:1054D0002B68C4F8C830954208BFC4F8CC30D4F863
:1054E000E03043F00203C4F8E030EB6823F004033B
:1054F00043F00103EB606B6887F31188BFF36F8F94
:10550000284698474FF02003EFF3118983F3128860
:10551000BFF36F8FEB68990723F0010219D4EA609B
:10552000D4F8E03023F00203C4F8E03089F31188A6
:10553000BFF36F8FDB05ACD424F08AFDA9E704F13B
:10554000D80500220121284631F04DF90028F8D174
:10555000B1E7306823F00303EB600028E0D00027B8
:10556000D0F80080BA460028DAD042689542014659
:105570000BD1016897B972683160824200D17160C5
:1055800040F808AB24F080F93946B8F1000F0BD091
:10559000D8F8002040460F469046E4E7396072682C
:1055A000824208BF7760EBE74246F3E7AFF3008043
:1055B000FFFFFFFFFFFFFFFF447A0020EB7C00208E
:1055C0002DE9F04F2DED028BD3B00C46CDE908014B
:1055D00092460B9326F020FC036813931846FBF7C2
:1055E0008FFDA38912901D0603D52369002B00F0BF
:1055F0008A870023CDF810A0CDE92733CDE91533F4
:10560000CDE917330E9314930793049B9FEDA27B70
:105610001B7829AA8DED107B26929346002B00F073
:10562000EB81DDF810A004E01AF8013F002B00F038
:105630001C81252BF8D1049BBAEB030540F01A819D
:105640009AF80030002B00F0D78100239AF801501F
:105650008DF87B3006930AF1010A4FF0FF3903936E
:105660000AF1010AA5F120035A2B00F23B81DFE881
:1056700013F0A502390139019E02390139013901BE
:105680006A00390139016602780239017102850226
:1056900039017E025B005B005B005B005B005B002E
:1056A0005B005B005B0039013901390139013901C7
:1056B00039013901CF01390134028700CF01CF010F
:1056C000CF013901390139013901C20239013901EA
:1056D000B5003901390139013E023901B002390101
:1056E000390101073901390139013901390139011C
:1056F00039013901CF01390134028B00CF01CF01CB
:10570000CF01F2028B0080003901E8023901DA0290
:10571000B900C902800039013E027D002507390128
:105720003901280739017D00A5F1300300221AF85C
:10573000015B02EB820203EB4202A5F13003092B6D
:10574000F5D906928EE7089D284626F065FB43684A
:1057500017931846FBF7D4FC18900446284626F009
:105760005BFB83681593002C40F070869AF800501C
:1057700076E7039B9AF8005043F0200303936FE70A
:10578000039B43F010030393039B9C0640F1948119
:105790000B9B073323F007031A46596852F8083B5E
:1057A0000B920A460029C0F2BB85B9F1FF3F00F019
:1057B000F587039921F0800653EA020100F05A852B
:1057C0000A2B72F1000180F07C8730338DF847316D
:1057D0000DF2471303960493012634E0039B43F034
:1057E00010030393039B13F0200200F054810B9BE2
:1057F000073323F0070319465A6851F8083B0B9109
:10580000039921F4806600210020B9F1FF3F8DF853
:105810007B0000F0938226F08000039053EA0200A0
:1058200040F08B82B9F1000F40F0C187002940F0B1
:10583000268516F001061BBF30238DF8473152AB89
:105840000DF2471304930023B145CDE90C334946CB
:105850009DF87B200A93B8BF314605910F93002A2B
:1058600052D0059B013305934EE0049BBAEB030530
:1058700000F0C280049B289FCBE90035279B0133B1
:105880002F44072B289727930ADC0BF1080B079B63
:105890002B440793D4E600BF000000000000000086
:1058A000DDE9080126AA26F0DFFE80B90DF1A40B80
:1058B000EDE7DDE9080126AA26F0D6FE002800F073
:1058C0008A800A9B1BB10A99089826F0A7F9099BC0
:1058D0009B89590601F1E582079853B0BDEC028B14
:1058E000BDE8F08F002D00F0878000228DF8E45095
:1058F0008DF87B200123CDE90C2205931E4639ABA0
:105900000A9291460F920493039B13F0020302D074
:10591000059902310591039911F0840405D1DDE95F
:1059200005010F1A002F00F34183289F8AB1279A9F
:105930000DF17B0101320137CBF80010072A4FF03F
:10594000010128972792CBF8041000F387830BF10D
:10595000080B83B1279B1FAA01330237CBF8002025
:10596000072B4FF0020228972793CBF8042000F36F
:1059700083830BF1080B802C00F0FC81A9EB060857
:10598000B8F1000F00F34282039BDA0500F16D814C
:10599000049BCBF80030279BCBF804600133F5194A
:1059A000072B2895279300F3AA820BF1080B039B82
:1059B000580705D5DDE905239C1A002C00F36E83FA
:1059C000DDE9062305998A42ACBF9B185B18079353
:1059D000002D7FF46EAF002327930A9B1BB10A9919
:1059E000089826F01BF90DF1A40BCDF810A0049B2C
:1059F0001B78002B7FF415AE289B002B3FF467AF7C
:105A0000099C089826AA214626F02EFEA38960E765
:105A10000B9B073323F00703B3EC027B57EC176BA8
:105A20000B9327F000431B938DED1A7ADDE91A01E1
:105A3000AE4B4FF0FF328DED107BFCF79BFA002848
:105A400040F09B84DDE91A01A84B4FF0FF32FCF7D0
:105A5000D9F9002840F091840022002330463946CD
:105A6000FCF7C6F9002840F05B879DF87B20039B7C
:105A70009F4C23F0800303939E4B472DC8BF1C46C9
:105A800003210023CDE90C3304940A9305910E46BB
:105A900099460F93E3E60B9951F8043B0B91039958
:105AA00011F010017FF4ACAE039A12F0400000F048
:105AB00019879BB20A46A3E60B9A52F8043B0B9255
:105AC000039AD00600F15584039A510640F14D84A3
:105AD00043F3C03211461BB264E60B9B002253F81D
:105AE000041B8DF87B208DF8E4100B9302E70B9FCD
:105AF00057F8043B049300268DF87B60002B00F0E0
:105B00009E86B9F1FF3F00F00D8504984A46314664
:105B1000FBF7D6FC0A90002801F025810A9B049A25
:105B20000B97B1469E1A26EAE673CDE90C999DF8CB
:105B30007B200593CDF82890CDF83C908FE60B9B09
:105B400053F8042B0692002A80F20A84069A0B93DB
:105B500052420692039B9AF8005043F004030393C9
:105B60007EE52B239AF800508DF87B3078E5039B77
:105B70009AF8005043F08003039371E5524612F8FF
:105B8000015B2A2D01F01982A5F13003092B924601
:105B90004FF000093FF666AD1AF8015B09EB890981
:105BA00003EB4909A5F13003092BF5D95AE5039B0D
:105BB0009AF8005043F00103039351E59DF87B30C0
:105BC0009AF80050002B7FF44BAD20238DF87B30EA
:105BD00046E5039B43F0100616F0200200F089838F
:105BE0000B9B073323F0070319465A6851F8083B0B
:105BF0000B91012108E6039B9AF8005043F008033B
:105C000003932DE50B9A039B43F0020652F8043BE5
:105C10000B9247F63002ADF87C20374A14920221ED
:105C200000227825F0E5039B9E0640F1FD830B9B47
:105C3000079A1B681A60D2175A600B9B04330B93A8
:105C4000D3E69AF80050039B6C2D00F0538443F088
:105C50001003039304E59AF80050039B682D00F0AD
:105C6000408443F040030393FAE4652D40F35381ED
:105C7000DDE9100100220023FCF7B0F8002800F055
:105C80004982279B1D4ACBF80020013301370122AE
:105C9000072B28972793CBF8042000F38E850BF170
:105CA000080B209B0E9A934204DB039BDB0701D475
:105CB0003D467CE6129B139ADD19CBE90023279B16
:105CC00028950133072B279300F3FE830BF1080B74
:105CD0000E9B5C1E002C7FF76AAE102C279B084F92
:105CE00040F37885DDE90889102611E0FFFFEF7F9A
:105CF000C09A0300C49A0300D09A0300FC850300F5
:105D0000009B03000BF1080B103C102C40F3628544
:105D100001331035072BCBE90076CDE92735F1DDCE
:105D200026AA4946404626F09FFC00287FF4C9ADCC
:105D3000DDE927350DF1A40BE6E7039E01293FF4C9
:105D40003FAD022900F0768152AC03F00701DB0879
:105D500043EA4273D208303153EA0207204604F87E
:105D6000011DF2D1F707049400F1768252AB03963D
:105D70001E1B68E5DDE90523A3EB0208B8F1000F5F
:105D80007FF7FCADB8F1100F3A46279BC04F29DDD5
:105D900019951C961024DDE90865194606E0A8F15E
:105DA0001008B8F1100F0BF1080B18DD013110329B
:105DB0000729CBE90074CDE92712F0DD26AA294690
:105DC00030460DF1A40B26F04FFC00287FF479AD8E
:105DD000A8F11008B8F1100FDDE92712E6DC199DD3
:105DE0001C9E0B460133CBF80070072B08EB020713
:105DF000CDE92737CBF8048000F30E85A9EB060820
:105E0000B8F1000F0BF1080B7FF7BEADB8F1100F22
:105E10003A46279B9E4F2EDD5946089CC3464FF0BD
:105E20001009B84637462E46099D06E0ABF1100B27
:105E3000BBF1100F01F1080118DD01339448103255
:105E4000072BC1E90009CDE92732EFDD26AA294653
:105E5000204626F009FC00287FF433ADABF1100B8F
:105E6000BBF1100FDDE9273229A9E6DC35463E46B5
:105E70004746D8468B460133CBF80070072B08EB1A
:105E80000207CDE92737CBF8048000F325820BF118
:105E9000080B79E5279B7F49CBF8001001337D1C67
:105EA0000121072B28952793CBF8041000F34A858E
:105EB0000BF1080B002A40F0E084039B0E9A03F0DC
:105EC000010313433FF473AD129B139A5919CBE9A5
:105ED0000023279B28910133072B279300F3EF859D
:105EE0000BF1080B049ACBF800200E9ACBF8042093
:105EF00001335518072BCDE927357FF756ADDDE97E
:105F0000080126AA26F0B0FB00287FF4DAAC289D11
:105F10000DF1A40B4BE50E9B012B0BF1080640F392
:105F20007A81049BCBF80030279B01330137012293
:105F3000072B28972793CBF8042000F3F981129AB6
:105F400003F10108139BD519B8F1070FC6E9003218
:105F5000CDE9278500F3F88108360E9BDDE91001B5
:105F600003F1FF3900220023FBF738FF002840F03F
:105F70008B81049CC6F8049008F1010801344D445B
:105F8000B8F1070FCDE92785346000F35981083651
:105F9000169A726008F101031544072B22AACDE975
:105FA00027353260ABDC06F1080B00E5102FDDE988
:105FB0002721DFF8E4802DDD19934346CDE91C4508
:105FC000B046DDE908451E4604E0103F102F0BF1F6
:105FD000080B19DD013210311023072ACDE92721E2
:105FE000CBF80060CBF80430EFDD26AA2946204626
:105FF0000DF1A40B26F038FB00287FF462AC103FB3
:10600000102FDDE92721E5DCDDE91C453046199B31
:106010004646804601323944072ACBF80080CBF847
:1060200004702891279200F3A9839DF87B200BF13F
:10603000080B7AE4149C52A903F00F001B09205CA2
:1060400001F8010D43EA0273120953EA0200F3D189
:1060500052ABCDE903615E1AFFF7F5BBDDE908013C
:1060600026AA199326F000FB00287FF42AAC289F6B
:10607000199B0DF1A40B6CE4DDE9080126AA26F0BA
:10608000F3FA00287FF41DAC289F0DF1A40B72E4F5
:10609000009B0300FC850300109B0300102C279B32
:1060A000DFF8CC8323DD4746DDF82490DDF820803F
:1060B000102604E0103C102C0BF1080B16DD013308
:1060C0001035072BCBE90076CDE92735F2DD26AA7E
:1060D000494640460DF1A40B26F0C6FA00287FF48D
:1060E000F0AB103C102CDDE92735E8DCB846013375
:1060F0002544072BCBE90084CDE927357FF760AC39
:10610000DDE9080126AA26F0AFFA00287FF4D9AB12
:10611000289D55E4209A002A7FF7BCAE0C9E0E9B6A
:10612000049A9E42A8BF1E46002E134419930BDD0D
:10613000279B01333744072BCBE900262897279369
:1061400000F39F850BF1080B0C9D002EA8BFAD1B23
:10615000002D00F3EF81049B0C9A13449946039B96
:106160005E0500F10C82209C0E9B9C4203DB039A8F
:10617000D50740F18E84129B139ADD19CBE90023D9
:10618000279B28950133072B279300F3DE850BF11E
:10619000080B0E9B1C1B199BA3EB0906A642A8BF6C
:1061A0002646002E0DDD279BCBF8009001333544A9
:1061B000072BCBF804602895279300F3E0850BF1BB
:1061C000080B002EA8BFA41B002C7FF7F0AB102CEF
:1061D000279BA64F40F3FE82DDE90889102605E0E3
:1061E0000BF1080B103C102C40F3F48201331035F6
:1061F000072BCBE90076CDE92735F1DD26AA494604
:10620000404626F031FA00287FF45BABDDE9273504
:106210000DF1A40BE6E7039BDC073FF582AE049B80
:10622000CBF80030279B03F101087D1C0123B8F156
:10623000070F2895CDF89C80CBF804307FF7A8AEE7
:10624000DDE9080126AA26F00FFA00287FF439AB11
:10625000DDE9278529AE9BE6302900F0C882049A43
:1062600003963023023802F8013C52AB1E1A049008
:10627000FFF7E9BAB9F1000F7FF4A7AA039652AB72
:106280004E460493FFF7DFBA0E9B012B7FF780AEDB
:10629000112B764F40F3E48243461024DDE9088B4E
:1062A00006E00836A9F11009B9F1100F40F3D782C2
:1062B00001331035072BC6E90074CDE92735F0DD31
:1062C00026AA5946404626F0CFF900287FF4F9AABD
:1062D000DDE9273529AEE5E7DDE9080126AA26F044
:1062E000C3F900287FF4EDAA289F0DF1A40BFFF756
:1062F0004BBB0B9951F8043B0B9116F010010CD1DC
:1063000016F0400004D00A469BB20121FFF77CBA88
:1063100016F400721CBFDBB202460121FFF774BA0B
:106320005B42039E62EB42022D200121FFF76DBA12
:10633000DDE9080126AA26F097F900287FF4C1AA12
:10634000DDE9273729AEFAE5DDE9080126AA26F0BE
:106350008BF900287FF4B5AADDE9278529AEFCE595
:106360009AF800500B93FFF77BB9039A920500F15E
:10637000A083DA171146FFF715BADDE910010246CE
:106380000B46FBF7F7FD002840F0CC85612D00F0AF
:106390009584412D00F00385B9F1FF3F00F0AA83F9
:1063A00025F02003472B04D1B9F1000F08BF4FF0AF
:1063B0000109DDE91001039C002944F48072059273
:1063C000C0F2B584002341EC180B19930A93A5F190
:1063D0004103252B00F2C482DFE813F09603C202CA
:1063E000C202C2028F039303C202C202C202C202ED
:1063F000C202C202C202C202C202C202C202C2027D
:10640000C202C202C202C202C202C202C202C2026C
:10641000C202C202C202C202C202C202C202C2025C
:10642000C202C2028F039303039BDD0600F10182C7
:10643000039B5C0600F13783039B980540F1F981CB
:106440000B9B079A1B681A70FFF7F7BB159B9AF80E
:106450000050002B3FF404A91B78002B3FF400A947
:10646000039B43F480630393FFF7FAB8009B030098
:10647000109B0300BD4B1493039B13F0200200F00C
:1064800002810B9B073323F0070319465A6851F822
:10649000083B0B910398C1070AD553EA020107D0C4
:1064A00040F00201039130218DF87D508DF87C1071
:1064B000039921F480660221FFF7A6B9039EFFF736
:1064C0008BBBAB4B1493D7E7DDE9080126AA26F076
:1064D000CBF800287FF4F5A9289D0DF1A40BFFF758
:1064E000F7BB43F400739AF8015003930AF1010AD1
:1064F000FFF7B6B843F020039AF8015003930AF16E
:10650000010AFFF7ADB80898402124F08BF9099BE8
:1065100018601861002800F0C184099A4023536173
:10652000FFF767B804980B97FAF7EAFDB1460646FD
:10653000FFF7F9BA102D3A46279B8E4F40F3E181C1
:10654000DDE90848102605E00BF1080B103D102D81
:1065500040F3D78101331032072BCBE90076CDE928
:106560002732F1DD26AA4146204626F07DF8002894
:106570007FF4A7A9DDE927320DF1A40BE6E70D9919
:10658000CDF870A05A4638467A4EDDF854A0189BD4
:10659000DDF824B04F464FF01008DDF83C9081B391
:1065A000B9F1000F00F0FD8009F1FF391799C2E938
:1065B000001327990131184407292890279173DC8B
:1065C0000832199C9AF80010E51B8D42A8BF0D46B1
:1065D000002D0CDD2799013128440729C2E90075F7
:1065E0002890279100F309819AF800100832002DB5
:1065F000ACBF4C1B0C46002C12DC0F440D9900293B
:10660000CED1B9F1000FCFD1199BCDF854A0B94626
:106610009945DDF870A09346074628BF9946A2E544
:10662000102C279940F39084089D04930C9604E065
:10663000103C102C02F1080215DD01311030072941
:10664000C2E90068CDE92710F2DD26AA594628469E
:1066500026F00AF800287FF434A9103C102CDDE95C
:10666000271029AAE9DC049B0C9D15600131204408
:106670000729CDE92710546000F310839AF8001021
:1066800008320F44BAE70B9951F8043B0B91039978
:1066900011F010017FF4FEAE039A12F0400000F0FA
:1066A00029819BB20A46F5E60898049326AA594622
:1066B00025F0DAFF00287FF404A92898049B29AA72
:1066C0007FE70021CDE9045606F48067DFF8A88053
:1066D000159ECDF80CA052AC8C4605E00A2B72F149
:1066E000000235D353462A46991841F10001A8FB10
:1066F000010525F0030000EB9500091A581A4FF028
:10670000CC3562F1000E05FB00F508FB0E55A0FB31
:1067100008A005440AF0010E0520AEFB000E40184B
:106720004FEA5A0A303004F8010C4AEAC57A0CF1F3
:10673000010C013C6D08002FD0D031788C45CDD1B3
:10674000BCF1FF0FCAD00A2B72F1000280F0ED807D
:106750001596DDE9045652ABDDF80CA0CDF838C033
:10676000CDE903641E1BFFF76EB800BFE49A030077
:10677000D09A0300009B0300CDCCCCCCDDE908010E
:1067800026AA199325F070FF00287FF49AA89DF897
:106790007B20199B0DF1A40BFFF7C7B8039EFFF7F1
:1067A0000FB80D9901390AF1FF3A0D91FEE6012962
:1067B000039E7FF4C6AAFFF708B8DDE9080126AA00
:1067C00025F052FF00287FF47CA8289F0DF1A40B30
:1067D000FFF767BA01332544072BCBF80070CBF8DD
:1067E0000440CDE927357FF7E0A8FFF788BB049A7E
:1067F000039652AB9E1AFFF726B80898049326AA70
:10680000594625F031FF00287FF45BA89AF8001064
:106810002898049B29AAEAE6DDE9080126AA25F0C2
:1068200023FF00287FF44DA8289F0DF1A40BFFF74C
:10683000A5B80B9B079A1B681A60FFF7FEB94E4676
:10684000062E1A4628BF062699460A93C14B05967E
:10685000CDE90C220B9704930F92FFF700B89846EE
:1068600008F101084D44B8F1070FCDE927853760DD
:10687000C6F804907FF78BABE2E4129B139859198A
:10688000CBE90003279B28910133072B279300F3C3
:1068900016810BF1080B002ABFF624AB56421032CA
:1068A000AD4F80F2D382DDE90848102505E00BF1F9
:1068B000080B103E102E40F3C98201331031072B14
:1068C000CBE90075CDE92731F1DD26AA4146204606
:1068D00025F0CAFE00287EF4F4AFDDE927310DF182
:1068E000A40BE6E7039A12F400721CBFDBB2024667
:1068F000FEF786BF039A12F400721CBFDBB2024699
:10690000C8E50133CBF80070072B05EB0207CDE992
:106910002737CBF8045000F3E0800BF1080B1AE4A2
:106920002D228DF87B20FFF7A2B8189B1799E41A47
:106930001A46204625F064FE737803B101364FF005
:10694000000CCFE6DDE9080126AA25F08DFE00281F
:106950007EF4B7AF209A289D0DF1A40BFFF7AABAD9
:106960004F46022124AB019321AB00930898B0EE6F
:10697000480AF0EE680A20AB3A4600F041FB672D6A
:10698000049000F00E82472D00F09D82049B25F0BC
:106990002008B8F1460F03EB070605D11B78302B12
:1069A00000F0E482209F3E4451EC180B00220023AB
:1069B000FBF714FA002800F040813346049A9B1A32
:1069C0000E93209A0C92B8F1470F00F02481B8F191
:1069D000460F00F0FE81531E612D209300F0DE82F1
:1069E000412D40F0208150210120002BB6BFC2F183
:1069F00001032B222D22092B8DF888108DF8892078
:106A000040F33D820DF19706544F32461046A7FBE6
:106A10000312D20802EB8201A3EB4101303100F8EE
:106A2000011C19466329134600F1FF32EEDC3033B6
:106A300002F8013C831EB34280F0BC820DF1890252
:106A400013F8011B02F8011FB342F9D152AB181A17
:106A5000A0F1AD0316930E9B169A012B03EB0206D1
:106A600040F32D82129B1E4424F4806343F4807310
:106A700003930023CDE90C3326EAE6720F930592C7
:106A8000199B002B40F0D2809DF87B209946FEF7A1
:106A9000E6BE199A1C1BA2EB0906A6423D46A8BFFA
:106AA0002646FFF78EBB0B9B079A1B681A80FFF7E1
:106AB000C4B843F3C01211465BB2FEF773BEDDE902
:106AC000080126AA25F0D0FD00287EF4FAAEDDE903
:106AD0002731209A0DF1A40BDDE6DDE9080126AA95
