:1010000020A70020058E00002FA00200D98D00002F
:10101000D98D0000D98D0000D98D0000000000009E
:10102000000000000000000000000000298F000008
:10103000D98D000000000000958E0000D98D0000C1
:1010400049910000D5DC0100499100004991000060
:101050004991000049910000499100004991000028
:101060004991000049910000499100004991000018
:101070004991000049910000499100004991000008
:1010800049910000499100004991000049910000F8
:1010900049910000499100004991000049910000E8
:1010A00049910000499100004991000049910000D8
:1010B00049910000499100004991000049910000C8
:1010C00049910000499100004991000049910000B8
:1010D00049910000499100004991000049910000A8
:1010E0004991000049910000499100004991000098
:1010F0004991000049910000499100004991000088
:1011000053B94AB9002908BF00281CBF4FF0FF316E
:101110004FF0FF3000F00CB8ADF1080C6DE904CED3
:1011200000F008F8DDF804E0DDE9022304B07047C0
:10113000704700BF2DE9F04786468C460846089E5A
:10114000154674461946002B40F0C2808542B2FA1B
:1011500082F245D94AB1C2F1200300FA02FC2EFA0C
:1011600003F3954043EA0C0C94404FEA154EA8B2A5
:10117000BCFBFEF8230C0EFB18CC08FB00F943EA7D
:101180000C43994528D9EB1808F1FF3704D299454B
:1011900002D9A8F102072B44A3EB0903A4B2B3FBC5
:1011A000FEFC0EFB1C330CFB00F044EA0344A0429F
:1011B00014D92C190CF1FF3304D2A04202D9ACF19E
:1011C00002032C44241A43EA07401EB1D4400023F2
:1011D00034607360BDE8F0874746DDE76346F1E7BA
:1011E00092BB431B01214FEA154EAFB2B3FBFEFC8D
:1011F000200C0EFB1C330CFB07F840EA0343984518
:1012000062D9EB180CF1FF3004D2984502D9ACF149
:1012100002002B44A3EB0803A4B2B3FBFEFC0EFBBD
:101220001C330CFB07F744EA0344A7424ED92C19A0
:101230000CF1FF3304D2A74202D9ACF102032C44D3
:10124000E41B43EA0040C0E7C2F1200320FA03F1A7
:10125000954090402EFA03F303434FEA154EAFB288
:10126000B1FBFEFC0EFB1C10190C0CFB07F841EA4D
:101270000041884504FA02F422D969180CF1FF30C4
:1012800004D2884502D9ACF102002944A1EB08013F
:101290009BB2B1FBFEFC0EFB1C110CFB07F743EAF3
:1012A00001439F420ED9EB180CF1FF3104D29F424B
:1012B00002D9ACF102012B44DB1B41EA004192E769
:1012C0006046E3E76146F7E76046A3E76346B7E7B2
:1012D000834206D916B9002108467BE7C6E900E03B
:1012E000F9E7B3FA83F78FB9834201D3724508D87F
:1012F000BEEB020460EB030301209C461EB90021F3
:1013000068E73846FAE7C6E9004CF8E7C7F1200C71
:10131000BB4022FA0CF41C432EFA0CF120FA0CF319
:10132000B84001434FEA14490EFA07F5B3FBF9F848
:101330001FFA84FE09FB18300B0C08FB0EFA43EA77
:1013400000439A4502FA07F240D9E31808F1FF304A
:1013500004D29A4502D9A8F102002344A3EB0A0360
:1013600089B2B3FBF9F809FB183308FB0EFE41EA1A
:1013700003418E452CD9611808F1FF3304D28E4504
:1013800002D9A8F10203214443EA0040A0FB0298DD
:10139000A1EB0E014145CE46434602D306D14D4551
:1013A00004D2B9EB020E68EB04030138002EA6D07C
:1013B000B5EB0E0261EB030101FA0CFC22FA07F314
:1013C0004CEA0303F940C6E9003198E74046C5E717
:1013D0004346D9E710F8012B11F8013B012A28BF39
:1013E0009A42F7D0D01A7047034611F8012B03F840
:1013F000012B002AF9D17047034613F8012B002A6C
:10140000FBD1181A01387047F7B5404DD5F85C315B
:10141000996811F0010124D101AA40F6034008F0B7
:10142000ABFE044600286DD1019CE3681B78ABB984
:101430000AF068F9BFF35B8FD5F8D430BFF35B8F48
:1014400005F1D40203F00903BFF35B8F52E8001FDC
:1014500042E800300028F9D1BFF35B8F20461FF02F
:1014600015FF01AA002141F2030008F085FE0446A1
:10147000002847D1019B264EDA68D2F80100D2F845
:10148000051003C618461FF001FF214601AA41F2CC
:10149000010008F071FE0446A0BB0198C3685A78A9
:1014A00085F870205A88A5F872201A7985F871207D
:1014B000B3F80720A5F87420B3F80530A5F8763006
:1014C0001FF0E4FE214601AA41F2020008F054FE9A
:1014D0000446B8B9019FFA68531C4132186859682C
:1014E000344603C4083393422646F7D1094828F00E
:1014F0007DFE38461FF0CAFE95F87C305B060BD4A3
:101500006FF01204204603B0F0BD00BF3000002091
:10151000A8000020B000002001AA002142F2030030
:1015200008F02AFE04460028ECD1019BB64EDA688A
:10153000D2F80100D2F8051003C618461FF0A6FE27
:10154000214601AA42F2020008F016FE04460028D5
:10155000D8D1019CE368B3F8012091B249B1D978A0
:1015600039B1A5F80421DA78114606F128002DF0EA
:10157000DCFE20461FF08AFE95F87C6016F02006FF
:1015800018D1022140F66D4008F09AFD044600286B
:1015900000F0CC8002210C302CF07EFE0123037081
:1015A00046702146324640F66D4008F0E5FD04469F
:1015B0000028A7D195F89C301F0712D501AA002159
:1015C00042F21C0008F0D8FD044600289AD1019888
:1015D000C368D3F80120D3F80530C5E938231FF0DC
:1015E00055FE95F8D8309E0624D50DF102016846C7
:1015F00029F01DF90446002884D1042142F2240078
:1016000008F05EFD0646002800F0908004210C30B2
:101610002CF042FEBDF800300380BDF8023043805C
:101620002246314642F2240008F0A6FD0446002876
:101630007FF468AF95F8D8305C0610D501AA002178
:1016400042F22A0008F098FD044600287FF45AAFC1
:101650000198C3685B7885F820311FF017FE0821D8
:1016600042F2010008F02CFD044600285ED008215B
:101670000C302CF011FE95F8D81011F0400F0246F6
:1016800040F2022308BF032388074CBF43F02C001D
:1016900043F00C0095F8D9308F0648BF40F0400069
:1016A00013F0090F95F8A23018BF40F4006003F062
:1016B0000603CE0748BF40F01000062B08BF40F4D9
:1016C000C070002128F024FF2146002242F20100D0
:1016D00008F052FD044600287FF414AF95F87C30E2
:1016E000B5F80411980624D4C9B901AA41F205003D
:1016F00008F042FD044600287FF404AFB5F8043139
:10170000019C4BB9E368B3F80120A5F804219A883D
:101710003E4811462DF009FE20461FF0B7FD082176
:1017200040F6014008F0CCFC044638B96FF068047C
:10173000E8E60029F3D16FF00404E3E608210C3059
:101740002CF0AAFD95F8D830D907024653BF4FF0C8
:1017500000512BA1D1E900012D4828F0D9FE2146E6
:10176000002240F6014008F007FD044600287FF4FF
:10177000C9AE014601AA4FF6014008F0FDFC04463F
:1017800020BB01981FF082FD214601AA4FF60240BE
:1017900008F0F2FC0446C8B90198C368B3F80130F8
:1017A000A5F8C1301FF072FD95F8C1305B070DD56B
:1017B00001AA21464FF6034008F0DEFC30B901983B
:1017C000C3685B7885F8C0301FF060FD29F0A8FA87
:1017D000044600287FF496AE0BF0C0F904460028BA
:1017E0007FF490AEEB79002B3FF48CAE08210948D2
:1017F00028F0F4FD09F05CF884E600BFAFF3008048
:10180000908800020080002008010020380100209C
:1018100010880002040100202DE9F843D0E90C35BE
:10182000D0F82C805C193034A0450F46164619D8E4
:101830001D4DA3FB05011AA3D3E90023FFF760FCAC
:101840000346A4EB0800A0FB050123F07F4414A38A
:10185000D3E90023FFF754FC20F07F403C60306068
:10186000BDE8F883DFF840900DA3D3E90023A8FB7F
:101870000901FFF745FC044605F1300008A3D3E950
:101880000023A0FB0901FFF73BFC24F07F4420F07C
:101890007F403C603060BDE8F88300BFAFF300805C
:1018A0008D49FD1A0700000000CA9A3B00000000A5
:1018B0009FED0D7B124B134A1348144910B483ED6E
:1018C000007B9FED0B7B82ED007B9FED0B7B104B34
:1018D0004FF0FF34002281ED007B04601A605DF858
:1018E000044B12F0AFB900BFFFFFFFFFFF1F000066
:1018F00000000000000000001F00000000000000C9
:10190000B001002038290020B8520020A801002092
:10191000B052002000000000002800F05F812DE997
:10192000F04FB54C94F86A2012F001058DB040F0EC
:10193000A78194F82500FF2300F0030084F82630E7
:101940001BF0A8FC94F86A00420727D494F82920D9
:1019500094F8353004EB820204EB8303D66AD3F8A3
:10196000388086B1A448314614F0F0F833785B062D
:1019700005D506210FF094F8002800F083819E48D9
:10198000414614F0E3F8337813F00E0F40F0B780BF
:10199000236A93B10C200DB0BDE8F08F2A4604F104
:1019A0006B01C0F3C0001BF011FEFF2884F8260075
:1019B000CCD028461BF0B4FCC8E711F06DFA814684
:1019C000002800F0718111F073FA8246002800F0BF
:1019D000688114F0E9FC0546002800F06781D0F822
:1019E00088004FF6FF732B8505F11C0B002800F0D3
:1019F0004F8105F1780105F17C020FF05DF8B5F833
:101A000076307E4A23F4EF6323F0070343F48873B0
:101A100043F00103A5F876301346D2F80120C5F84B
:101A20009B21C5F8A12113F8012B9B88A5F89F31B4
:101A3000A5F8A53195F89A3102F0010262F300038E
:101A400062F3410385F89A3195F8393003F03F038A
:101A500063F07F0385F8393095F88E3023F0070363
:101A600085F88E3095F83C3023F00703002785F881
:101A70003C304FF4C023C5F888312846C5E91277B9
:101A8000C5F88870A5F88C706F86C5F82E7085F83B
:101A90003B702F65A5F88E71A5F8847117F052FA86
:101AA00085F85071C5F8549114F03CFF95F89431C5
:101AB00060F3020385F8943114F03AFF95F89431FD
:101AC00060F3C50385F8943195F8803167F34103DD
:101AD00085F880310121284615F08AFB05F1D400F4
:101AE00016F0B8FFC4E9189AC4F820B0C5E9057724
:101AF0002F70ED611CF09CFE002840F0C58094F82A
:101B000024300121C3F342030DF12B008DF82B305B
:101B10000FF070F90246002862D098F801103046A4
:101B200013F0D6FD31233649A360364BB4F8687004
:101B3000A0FB01010025C01841F107012CA3D3E946
:101B40000023C4E9055525706560E560FFF7D8FA04
:101B5000206110F083FC00F109083FB9357805F0E9
:101B60000F05A5F10105B5FA85F56D0994F8240076
:101B7000236965F3000010F0010584F824004BD0C0
:101B8000214A0992002010600225204A204F049328
:101B90000BAE019305920321CDE902000694434662
:101BA0000090089607972A460B9510F0F5FA3146F3
:101BB00011F038FAA0B9174905914AF2D8330093C9
:101BC000CDE90300CDE90100079708960694434646
:101BD000012203210B9510F0ABFA43E013F0C4BCD3
:101BE000236A002B3FF4D6AE13F07CFCD2E600BF94
:101BF0008D49FD1A07000000705300205535030081
:101C000000CA9A3B8C49FD1A645300204D570100CD
:101C1000ED250100615201002B4A2C48049303F288
:101C200047130694029591211360A7FB000301FB63
:101C30000731274B0793274B05934FF6FF73099204
:101C4000022703930BAE1EA3D3E900230B9708963C
:101C5000FFF756FA4346CDE900503A46284603219D
:101C600010F09AFA314611F0DDF90028B8D194F855
:101C70006A3043F0010384F86A3014F089F960B1E6
:101C8000002088E6122086E613F02CFC032082E672
:101C900005F18000C5F88800ABE601201BF0DCFAF6
:101CA000EEE7484611F0FEF8072074E6504611F0C2
:101CB00005F9484611F0F6F8F6E700BFAFF30080EB
:101CC0008D49FD1A0700000064530020002AE784B4
:101CD000ED2501004D57010070B590F824308AB011
:101CE000C3F342030D46044601210DF123001646BD
:101CF0008DF823300FF07EF871780246284613F0F5
:101D0000E7FC1F491F4AA0FB0131981841F1070168
:101D100019A3D3E90023FFF7F3F923699842054695
:101D200021D21B1A00220192174A0293174BA21AC2
:101D3000A3FB02320221920900230A4409AE099151
:101D400013490591CDE903330321D2B206960093DE
:101D5000184610F081FA314611F064F938B925615E
:101D600000200AB070BDFBD9C21A0023DBE70C20AB
:101D70000AB070BDAFF300808D49FD1A0700000066
:101D800000CA9A3B8C49FD1A7053002089888888C4
:101D9000ED2501000000000038B5194C9DF810E059
:101DA00094F848C01CF0010523D163F3420C4001B4
:101DB00094F83230A1874FEACE0E0EF0180E00F0E4
:101DC000200040EA0E0023F0380303430D4884F856
:101DD00032309121A2FB000384F848C001FB02319C
:101DE00005A3D3E90023FFF78BF9C4E910002846C7
:101DF00038BD0C25284638BD8D49FD1A0700000066
:101E000040290020002AE78410B504469DF8080008
:101E100022844FEA411CC000A17D00F018000CF0A4
:101E2000200C4CEA000C0C4821F038014CEA010C63
:101E3000A3FB0002912184F816C001FB032104A337
:101E4000D3E90023FFF75CF9606210BDAFF30080B7
:101E50008D49FD1A07000000002AE78400000000F9
:101E60002DE9F047044600F1350190F8480094F858
:101E700032305B4DDFF88081C0F3400060F38613A1
:101E80008CB084F8323010F03DFB94F83220A38FF0
:101E90005448E46102F07902002784F8322091214D
:101EA000A3FB0002C4E90577277001FB03214AA3C5
:101EB000D3E90023FFF724F9651B626C4A4B676086
:101EC000AD08A3FB053502F10903984298BF3A46D5
:101ED000C5F3470522644FF031028CBF1946014615
:101EE000A26005EB4502E760216148F82210064632
:101EF00010F0B4FA236A00F109074FEA450A002BF3
:101F00004AD00DF12C09AA4408EB8A030993CDF8B5
:101F100020900694A38F33484FF00008A3FB0002E3
:101F2000CDF80C80912101FB0321236904932F4BF1
:101F300007932F4B05934FF0020A27A3D3E9002301
:101F4000CDF82CA0FFF7DCF8104619464FF47A7252
:101F50000023FFF7D5F80435EDB2CDE90160032188
:101F60003B462A46CDF80080404610F015F9494618
:101F700011F058F860B994F8483043F0010384F840
:101F8000483013F0B9FD08B300200CB0BDE8F0876D
:101F90000C200CB0BDE8F0870DF12C09CDE90A3317
:101FA00021694B460AAA032001F096F90028AAD11C
:101FB0000B99104808A3D3E90023A1FB0001FFF708
:101FC0009FF80A9B20F07F471F449CE750461BF078
:101FD00043F9D9E7AFF300808D49FD1A07000000EF
:101FE00040290020002AE784BD86F21AED25010071
:101FF000815D010000CA9A3B0054002000000000EF
:102000002DE9F04F05468BB08B46012002219A4600
:1020100014461EF0B3FE00220221814601200EF07C
:102020009BFD3B494FF4D47228460EF025FD461D1A
:10203000F6B2384B009532460121002010F024F909
:1020400010F0FD0F0CD0344A3449354840F62F03C8
:1020500026F0F1F9404080F311884FF0030002DFD1
:10206000304BA4FB0348204627A3D3E90023414675
:10207000FFF746F82C4B20F07F47A7FB03310722E0
:10208000E01A02FB071168EB01014FF47A7200239A
:10209000FFF736F8CDE90170CDF800B00895069548
:1020A000296995F9394021480491214931EA2401EF
:1020B00028BF014605911F4C07944FF6FE7103910E
:1020C000534632460121002010F032F810F0FD0F87
:1020D0000CD0114A1149124840F6440326F0ABF9DE
:1020E000404080F311884FF0030002DFB9F1000F88
:1020F00002D10BB0BDE8F08F0122022110460BB0D7
:10210000BDE8F04F0EF028BD8D49FD1A0700000014
:102110009029002051630100601D0300241E03006C
:10212000FC17030000CA9A3B8D49FD1AC9C3010080
:1021300071C50100F96201002DE9F043C469228DE7
:102140004FF6FF739A428DB000F088800546204616
:1021500017F0F0F995F82830012B00F00F81022BD1
:1021600000F00281002B00F0E18094F85071002F04
:1021700040F0FD80E68DB4F83080002E71D1AA8C3D
:1021800008F101060023CDE90A33B6B2002A70D067
:1021900094F93930002BC0F248810023A4F88A3129
:1021A00095F82630D90740F1EF800023A4F88E314E
:1021B0000DF127023146204616F000FF743000F082
:1021C0004681B4F888312BB1B34240F20D819B1B9C
:1021D000A4F88831B4F884312BB1B34240F2FB80CB
:1021E0009B1BA4F88431258E17B9A84500F0EA801E
:1021F0000135ADB294F8D13013F001065AD1DDE9C2
:102200000A130A46002B40F0ED80002900F0DC8024
:102210001E461846228DE4690694CDE9035705321F
:10222000A74D0290CDE90016D2B2012100200595FC
:1022300010F012F810F0FD0F10D010F01DFF8442C6
:102240000CD0A04AA049A14840F2155326F0F3F85B
:10225000404080F311884FF0030002DF0DB0BDE86D
:10226000F083AA8C46440023CDE90A33B6B2002A93
:102270008ED195F82630DA0797D4B4F88A31002B3E
:1022800000F08280B34240F2FA809B1BA4F88A31AE
:10229000B4F88E31002B8BD09E4280F0DE809B1BE9
:1022A0009BB20022062BA4F88E31228600F2AC806D
:1022B00001277DE794F939206FF30003002A84F8A1
:1022C000D13077DB94F87600C0F3C00100F007004E
:1022D0001CF014F9B4F86E20B4F86C30134403F217
:1022E000D51303447A4A7B480721E3FB00211046BB
:1022F00071A3D3E90023FEF703FFDDE90A1320F001
:102300007F4220692261904235BF161A801A002050
:1023100000260A46002B7FF47DAF56EA010C7FF4BD
:1023200079AF002850D019461E4673E794F88E30D6
:1023300003F01803182B7FF418AFA18DB4F8862191
:102340008B1D9A42C4BF931F5B1AB4F88211CCBF95
:102350009BB21346994200F08C80A4F88231A4F815
:102360008431A4F8882100E73D2784F8507139466C
:1023700020460DB0BDE8F04314F0F8BB0023A4F8EC
:102380008831A4F88431F0E6B4F88E31002B83D183
:10239000628DB4F88C3140F2E24101FB02F242F26C
:1023A000107101FB0323013BB3FBF2F39BB2A4F8D2
:1023B0008E316FE794F87700012100F007001CF0E0
:1023C0009FF887E73D4615E7002D4BD000261146C4
:1023D000304633461EE70023A4F88431204616F029
:1023E0008DFE00E7304615E710F0AEFD01460028EF
:1023F0003BD00023A4F88831238DC3801B230371B5
:10240000006810F06BFDE5E694F939309342BFF6B1
:10241000CFAEB8F1000F7FF44BAFD4F878315A0843
:10242000DB0743D4C4F87821C2E628460AAA0BA9E0
:1024300004F1D409FFF7F0F9484616F04DFB18B344
:10244000484616F049FB18B300232386A5E69DF8FD
:102450002710204614F08AFB00E70821204614F0DC
:1024600085FBFBE6002FB1D1F8E60123A4F8883103
:10247000B0E6B4F8881100297FF477AE6FE73E210B
:10248000204614F073FBE9E6FF2014F027FBD7E7A2
:102490000246D4E91E010EF027FB0028D4D194F89F
:1024A0003C30580744BFA38D238676E642F00042B5
:1024B000C4F87821FCE600BF8D49FD1A0700000032
:1024C000B9620100601D0300701E0300FC170300C9
:1024D0008C49FD1A00CA9A3B2DE9F04F87B0CDE92F
:1024E0000432BDF8442003780292BDF84820BDF8BC
:1024F0004080BDF84C50468EB0F82E90B0F814B124
:10250000019104460392002B00F0CB80013EB6B24D
:10251000A368D4F80C71721B92B2002B009209DAF6
:10252000E168626823F0004391422CBF7F18BF1816
:10253000A360FF1A009A638D13FB02F39BB2B3FBF7
:10254000F8F218FB02F080B283421FFA82FA80F0A0
:102550009780C01A40F2E2425D4902FB00F0A0FB06
:10256000010159A3D3E90023FEF7CAFD20F07F4003
:102570000744D94494F839304D44AD1B554440F2DA
:10258000E246DB09E58506FB08F500F08E80226C4B
:102590000099A36CDFF838B102FB1133A3641CF07F
:1025A00099F9814694F87401C0F342001CF096F941
:1025B000059B814406FB03F305FB09F9236509F537
:1025C0007429444B09F23F29A3FB09394FEA994387
:1025D00003FB0AF02364A5EB0309A36C6A08034418
:1025E000963A934228BF1346C4E911230023C4F846
:1025F0007C31A0FB0B0134A3D3E90023FEF780FD5F
:10260000049B3F1A3448A0FB0330800A06FB00F00D
:102610002DA3D3E90023A0FB0B01FEF771FD20F0F1
:102620007F46029BA385039BA4F88C312946204654
:10263000A4F82A8016F0FEFC284BA18D2B44881D9F
:10264000B3FBF5F39AB29042A4F8862102D2521A53
:10265000063A92B2019BA4F8822113B10023A4F898
:102660008E313B464A4631462046FFF7C9FC94F876
:10267000803143F0010384F8803107B0BDE8F08F6A
:1026800008FB1231124840F2E24389B203FB01F128
:10269000A1FB00010CA3D3E90023FEF731FD3F1A93
:1026A00067E74E445E44B6B232E7049B0848A3FB9A
:1026B000000105A3D3E90023FEF722FD20F07F46A9
:1026C000A9460136ADE700BF8D49FD1A070000009D
:1026D00000CA9A3B83DE1B435917B7D17FC3C90198
:1026E0002DE9F04F04460B68077F1668D3F800A069
:1026F000638CD0F81E0095B015464A7CADF84C307E
:10270000FF2AC7F3801389460D9212908DF83F304F
:1027100072D198461A4612AB93E803000DF1400BB4
:102720001090ADF84410F8090AF1710127680A9178
:102730005B460C900B9714F001F90A99002843D1DD
:1027400096F89A310C9A0A9068F3410362F30003F9
:1027500086F89A311098BBF80430C6F8A101A6F8A3
:10276000A531DAF87130C6F89B318B88A6F89F3115
:10277000E38D94F83010A9722B81D4F82A306B6065
:10278000D4F83A30AB6105F1180094F83E3003718B
:1027900005210EF02FFB6B7F00F03F0060F3050377
:1027A0006B7794F83F30C3F30401A977A18EE981D8
:1027B000012803F01F0389B206D91B3303F01F035E
:1027C0000B2B01D80A9A59BB0022CAF8142095F89D
:1027D00020300B9862F3000385F82030E56801266D
:1027E0002146267110F070FB28682E71294610F0E2
:1027F00075FB15B0BDE8F08F0DF1400B10460DF1E3
:102800003F015A461AF09EFA9DF83F80277F08F153
:1028100002085FFA88F88DF83F8008F0010282E72D
:10282000D9F800305A60E38E2B82EB8940F2E248FF
:1028300008FB03F71146638E0A93304616F00EFC30
:1028400094F83F3096F874215B0963F3430286F8ED
:1028500074211CF03FF80C9096F87401C0F342000C
:102860001CF03CF80C9B184407FB00F0BA4B00F539
:10287000742000F23F20A3FB00307B08800C963BC5
:102880006862AB6294F8313008FB03F3AB63238FCB
:10289000A6F88C313946304616F0CCFBAF4BB04A27
:1028A000C6F890213B44B3FBF7F39AB2A6F8862111
:1028B000298A881D824204DDC1F57F41FA310A442C
:1028C00092B2A6F882216B68C6F87831234613F8D5
:1028D0001C2FC2F34018DA0700F104814FF4807313
:1028E000A3839AF826001AF087FF04F12B0300282F
:1028F00000F0EE80626AC4F82B20228D9A800D9B36
:10290000FF2B00F0E980BDF84C301298A4F8293074
:10291000C4F82500BBF80430A4F8233010989DF8C3
:102920003F30C4F81F00A377EB8963862B8AA38608
:10293000B6F88C31E38696F87431C3F3420384F819
:102940003830304613F03CFDA881E08021460B98DA
:10295000D9F8044010F0B8FAAB89E3801C23D4F80E
:1029600000B02371B8F1000F40F0D18084F81C80D2
:102970002146584610F0B2FA95F85B00B5F8508041
:10298000B5F85240012100F007001BF0B9FD4444A6
:1029900004F2D514DFF8D48104448346714807213A
:1029A000E4FB080131230024B360746068A3D3E919
:1029B0000023F460FEF7A4FB20F07F4030616D6AD5
:1029C0000A9A7D1BD9F80C7040F2E24303FB0277B0
:1029D0000221224601200EF0BFF8504613F072F893
:1029E00007F2B2470246A7EB0B07A7FB0801174601
:1029F00057A3D3E90023FEF783FBCDF804A0D9F851
:102A000008305949009120F07F48BA1C3A3BD2B2B5
:102A10002046434401210FF079FC012800F0828018
:102A20009AF82430DB076AD4304613F0C9FC4F4BC8
:102A3000A5FB035A044646A3D3E900232846514682
:102A4000FEF75EFBD9F80830494A0792A3F13A092C
:102A5000484B069620F07F47A7FB0331E81A464B08
:102A6000059340F2D113089333694FF0000BCDE981
:102A700003B34FF0070303FB07116AEB01014FF4A7
:102A80007A720023FEF73CFB0534E4B2CDE9017015
:102A9000CDF800804B462246012158460FF048FBF6
:102AA00010F0FD0F0CD0354A354936484FF4E97324
:102AB00025F0C1FC404080F311884FF0030002DF95
:102AC0000122022110460EF047F815B0BDE8F08F44
:102AD000C4F82B00988012E70022C4F82520A4F83F
:102AE000292017E7254A28492648F82325F0A3FC82
:102AF000404080F311884FF0030002DFEEE6002330
:102B000001220093184611460FF0BEFB8CE76B7F45
:102B100043F040036B77281D19F00CFF4FF00108BC
:102B2000E88323E710F0A8FA82453FF479AF134A0F
:102B30001649144840F2792325F07DFC404080F38B
:102B400011884FF0030002DF6AE700BFAFF3008097
:102B50008D49FD1A0700000083DE1B437FC3C901B6
:102B6000404B4C008C49FD1A8DC3010000CA9A3BB2
:102B70005DC301008D49FD1AC9C301001023030084
:102B8000241E0300FC170300C01A03006C2303007B
:102B90002DE9F04F8DB01F46BDF860300793CDE9A9
:102BA0000501BDF868309DF85C90BDF864B00493F1
:102BB0000020164613F0FAF9002800F0658109F0AC
:102BC0000108044640460FF08DFC0390B8F1000F59
:102BD0006DD1169B03993A46404613F0AFFE00288C
:102BE00040F06381236A04F11C020892002B65D037
:102BF000D4F820A0DAF8005007F0010B9AF85A0038
:102C0000C0F3C00100F007001BF078FCBAF85210C6
:102C1000BAF8502000F2D5130A441344CC48CD4AE8
:102C20000721E3FB00211046C7A3D3E90023FEF7E9
:102C300067FA20F07F40286130461AF04DFB94F887
:102C400033306FF3410384F83330FF2384F834309A
:102C5000002E00F01D81A9F10203012B40F2298111
:102C600094F84810089869F3420184F8481094F8E1
:102C700033106BF30001DDE9052384F83310169956
:102C800009686162169989882185049921860096D0
:102C90000021FFF7B9F860641BF0CAFD002840F07E
:102CA00013812046FFF7DCF80DB0BDE8F08F062158
:102CB0000DF0F6FE00288CD11220F5E710F0ECF8AC
:102CC0000990002800F0738113F06EFB0546002880
:102CD00000F06A8120300EF0A1F805F11C0A0028EE
:102CE00040F01D81032105F124001BF0BBFA079B76
:102CF000D5F888006B854FF6FF73A5F82CB02B85AF
:102D0000002800F0198105F17C0205F178010DF031
:102D1000D3FEB5F8763023F4EF6323F0070343F4D2
:102D2000887343F00103A5F8763095F88E304FF0A4
:102D3000000B23F0070385F88E300121C5F888B019
:102D4000A5F88CB0284614F053FAC5F82EB0A5F8B3
:102D500032B005F1340019F097FD95F8393060F381
:102D60000503012185F839300DF12F001BF07AFAA7
:102D7000049B9DF82F20A5F88C31774B85F83BB04C
:102D8000A3FB0213DB0803EB4303A2EB830295F8DA
:102D90003930A98DA5F88EB103F03F0385F839309D
:102DA00095F83C30A5F884B1053223F0030385F88B
:102DB0003A20079A85F83C3040F2E24B674B0BFB18
:102DC00002FB4FF4C0225B44C5F88821881DB3FB89
:102DD000FBF39AB28242A5F8862102DD063A521A26
:102DE00092B2A5F88221284616F0ACF8594628463A
:102DF00016F020F9099BC5F85431002385F85031AD
:102E000013F090FD95F8942160F3020285F8942167
:102E100013F08EFD95F8942160F3C50285F8942196
:102E200095F88021002363F3410285F8802105F1A4
:102E3000D40015F00FFE95F89A21169907F0010BB2
:102E40006BF3410285F89A213122AA600023169A79
:102E50006B60EB601268C5F8A12195F89A2189880A
:102E6000A5F8A51169F30002039985F89A210A686B
:102E7000C5F89B218A88A5F89F21C4F820A0C5E940
:102E800005332B70ED61B9E60C200DB0BDE8F08F75
:102E90001AF062FE00283FF4DEAE1699384632463C
:102EA0001AF094FB84F83400D5E60B200DB0BDE891
:102EB000F08F00201AF034FA94F8333043F0020314
:102EC000C14684F83330CBE6256AEB6E63B1244A01
:102ED0002449254840F21D4325F0ADFA404080F3D7
:102EE00011884FF0030002DF05F1600105F15C007D
:102EF0000DF0E6FD064600283AD02F68EE66D7F8BA
:102F00005451002D42D028460FF0CCFF384613F024
:102F100051FA0023032023620DB0BDE8F08F104A60
:102F200012491148C12325F086FA404080F31188E8
:102F30004FF0030002DFD5E605F18000C5F88800F8
:102F4000E1E600BFAFF300808D49FD1A07000000E5
:102F500000CA9A3B8C49FD1AABAAAAAA7FC3C90131
:102F60009C230300541C0300FC17030058180300A3
:102F7000104A1149114840F21F4325F05CFA4040C5
:102F800080F311884FF0030002DFB6E7094A0A49CF
:102F90000A4840F2264325F04EFA404080F311885B
:102FA0004FF0030002DFAEE709980FF07BFF072028
:102FB0007AE600BF9C230300B01D0300FC1703004A
:102FC0002DE9F04F04468DB090F81C80238D406AA7
:102FD000ADF82C30E307C8F3C0170E461546C8F30A
:102FE00040180A9000F10D810023A383B37C707C0C
:102FF00013F001031CBFD4F81E30C4F82B3004F1C9
:103000002B0214BF638CC4F82B30FF28938004F18B
:10301000250904F11F0240F0E5800023BDF82C10C3
:103020000A98C4F82530A9F80430A777C4F81F001F
:1030300091803368D3F80090EB8963862B8AA3864E
:10304000B9F83030E3861BF043FC84F838002F6871
:10305000384613F0B5F90021A881E080384615F014
:10306000FDFFD6F804A0206821460FF02DFFAB89A4
:10307000AAF806301C23DAF800408AF80430B8F1C8
:10308000000F40F0CC808AF81C80514620460FF09B
:1030900025FFBB687A6895F85A00B5F80E80F56888
:1030A000674C934238BF1346C0F3C00103F1090ACD
:1030B00000F0070040F2E24303FB08F81BF01EFAA1
:1030C000002202212D1A01200DF046FD484612F083
:1030D00043FFA5FB044558A3D3E9002383462946B3
:1030E0002046FEF70DF8CDF80490B36855490091DD
:1030F00020F07F490BF10402A3EB0A03D2B24B4448
:10310000012100200FF002F910F0FD0F0CD04E4A03
:103110004E494F4840F23D3325F08DF9404080F351
:1031200011884FF0030002DF4FF0000B5B460322D3
:103130000121CDF800B058460FF0A6F8384613F03C
:103140003FF9B36806463E48A3EB0A0AA8FB000114
:1031500039A3D3E90023FDF7D3FF19463D4B08936C
:103160003D4B069340F26D33079709933B698046C8
:10317000CDE904B3104600234FF47A72FDF7C0FF87
:10318000364B0722A9FB0331CDE9028002FB09116E
:10319000E01A65EB01014FF47A720023FDF7B0FFEE
:1031A0000536F6B2CDE90090534632460121584625
:1031B0000EF0DAFF10F0FD0F0CD0234A234924480B
:1031C00040F26E3325F037F9404080F311884FF01C
:1031D000030002DF0122022110460DB0BDE8F04FCE
:1031E0000DF0BABC04F11E0119F0ACFDA37FBDF8CF
:1031F0002C200A98C4F825000233A377A9F80420EC
:1032000017E7114A1649124840F2BD2325F013F979
:10321000404080F311884FF0030002DFE4E66B7F4B
:1032200043F040036B77281D19F084FB4FF0010831
:10323000E88328E7AFF300808D49FD1A07000000FE
:1032400000CA9A3B3DC501009C230300241E0300D5
:10325000FC17030041C5010071C501008D49FD1A2D
:10326000C01A0300000000000538C3B2052B0CD8BB
:1032700070B580B20D4613F0ABF8044618B190F962
:103280003930002B03DA002070BD0020704790F821
:1032900076000F4EC0F3C00100F007001BF02EF9BE
:1032A0000C4A00F2B5500721E0FB0621104606A3A8
:1032B000D3E90023FDF724FF20F07F40286020465B
:1032C00070BD00BFAFF300808D49FD1A07000000FC
:1032D00000CA9A3B8C49FD1A2DE9F04F93B0FF24A8
:1032E0000B930B1D0A930023CDE90E3305461646BA
:1032F0008DF837409B464FF0040A1F469946984682
:1033000010AB0693564B0593564B03930FAB0193AB
:103310000EAB0020009302231093049002903346DA
:103320000DF1370229460FF035F8022815D0109B11
:10333000CBB9FF2C26D03368BB4223D0BAF1000FA3
:1033400040D00AF1FF3AFF245FFA8AFA8DF837403D
:10335000D6E7294600200FF069F8109B022BF8D021
:10336000109B002BE5D0404A404941484FF4F77389
:1033700025F061F8404080F311884FF0030002DF30
:10338000FF2CD8D19DF83700FF2829D011A9FFF7CD
:103390006BFF0028B4D0FF2C0E9F119B0AD0414632
:1033A000384609930FF05CF80A9B03EB0902904240
:1033B000099B17D8B8469DF837403768DDF83CB010
:1033C00099469DE72B49284A29484FF4FB7325F07D
:1033D00032F8404080F311884FF0030002DFB0E77D
:1033E000FF2C34D024480721A9FB000301FB09313D
:1033F00019A3D3E90023FDF783FE044600B140344E
:103400001E4AABF57423A3F51073934216D81A48DD
:103410000721A8FB000301FB08310FA3D3E9002318
:10342000FDF76EFE164BA3FB0B2304EB93440B9BA3
:10343000044400201C6013B0BDE8F08F0BF1E87B62
:103440000BF5D43B08F1FF380BF5A57BDFE76FF0F8
:10345000090013B0BDE8F08F00CA9A3B00000000DD
:103460004DC8010051C80100E82303002C240300CB
:10347000FC170300342403008D49FD1ABFBDF07F03
:1034800083DE1B43000000002DE9F043C668476857
:1034900073683D491A68D0F80090A7F57423A3F526
:1034A00010738B4283B0804607D907F1E87707F5A0
:1034B000D43709F1FF3907F5A57773681169DD89FC
:1034C000CDF8049006F1100301AA0220FFF704FFD3
:1034D00000284ED10199A1EB09031B0237D40846FD
:1034E00049460EF0BDFF034628480721A3FB000212
:1034F00001FB032122A3D3E90023FDF701FE346978
:103500000444002C346109DB40F2E24305FB03F381
:10351000A3422FD2E41AA342FCD33461D8F800307E
:103520001A48A3EB0903A3FB0002072101FB0321B7
:1035300013A3D3E90023FDF7E3FD154BA3FB0737E6
:10354000A0EB97402044306103B0BDE8F0834846CB
:103550000EF086FF03460D480721A3FB000201FB86
:10356000032107A3D3E90023FDF7CAFD3469241A18
:10357000C7E73469002CD1D103B0BDE8F08300BFA8
:1035800000CA9A3B00000000BFBDF07F8D49FD1AC4
:1035900083DE1B430000000010B5334C3349002389
:1035A00004F1FF3C14F83320072A02EB820E05D801
:1035B00011F83E206FF3451201F83E201CF833202D
:1035C0006FF300020CF833200133082BEAD1284AAC
:1035D000284C002313700A7863F300020A7091F8F4
:1035E000282063F3000281F8282091F8502063F32B
:1035F000000281F8502091F8782063F3000281F8EE
:10360000782091F8A02063F3000281F8A02091F8BF
:10361000C82063F3000281F8C82091F8F02063F31A
:10362000000281F8F02091F8182163F3000281F87C
:103630001821114A9FED0A7B1370104B83ED007B1C
:103640000F4B236028B1BDE810400E490E482BF007
:1036500033BFBDE810400C482BF03CBFAFF30080F7
:10366000FFFFFFFFFFFFFFFF416100200060002020
:1036700068740020105F002067740020B0330020C1
:10368000A0BB0D000DD5010080330020000000001C
:103690002DE9F04F8FB00DF137010446DFF8E0A0BF
:1036A000DFF8E0800DF136000FF096FC9DF8363023
:1036B0009DF837B00B930EF0D1FEDAF80060A6FB50
:1036C000085629A3D3E9002300278146314628461E
:1036D000FDF716FDCDE90777069420F07F44DAF870
:1036E0000400234B0593A0FB08011FA3D3E900238B
:1036F000FDF706FD1F4B20F07F40A4FB033107229E
:1037000002FB0411CDE90370E81A66EB01014FF4E6
:103710007A720023FDF7F4FC0097CDE901404B4697
:103720000B985A4603210EF003FD10F0FD0404D05F
:103730006FF08B000FB0BDE8F08F0F480F4A0023E9
:1037400022F052FB20B9DAF80C000FB0BDE8F08F80
:103750009DF837209DF836000094234603210EF093
:1037600093FD6FF07300E5E78D49FD1A0700000037
:103770005DDC01008D49FD1AB4610020447B0B0023
:10378000CC61002000CA9A3B38B50F4D04460EF0BC
:1037900065FEA9680EF064FE696803460B48B3FB3A
:1037A000F4F4A1FB00011C4405A3D3E90023FDF7B9
:1037B000A7FC20F07F40844294BF0020012038BD48
:1037C0008D49FD1A07000000CC61002000CA9A3B19
:1037D000F0B5C468636883B00546002B63D11CF064
:1037E00013FE08201CF036FE002108461CF024FEC3
:1037F0000022252108201CF063FE454B019301A8FF
:103800001CF046FE434940F25B601CF0F1FE237A57
:10381000C3F3420262F30613204623721BF07CFAC4
:103820001AF09AF958BB637A9B071FD127682E6854
:1038300038461AF001FE06446A6806F109010120C3
:103840001DF030F81DF01CF9204612F047F9811CDC
:103850003246C9B238461AF0FDFD054670BB204617
:103860001AF084FD88B9002003B0F0BD012019F0E2
:10387000E7FC4178821C00781CF0B4FFD6E7607A40
:1038800010F0030018BF0120F1E7234A2349244820
:1038900040F22C4324F0CFFD404080F311884FF0DC
:1038A000030002DFDFE793F820309A0797D01D4826
:1038B00021461CF067FD1CF055FED4E7164A1A4954
:1038C000174840F2144324F0B6FD184B0721A5FB1E
:1038D000030301FB05310CA3D3E90023FDF710FC22
:1038E00013490246134824F0A6FD404080F3118896
:1038F0004FF0030002DF104821461CF043FD1CF08E
:1039000031FE6FF08B00AFE700CA9A3B0000000069
:10391000D6BE898E55555500E0270300681903006F
:10392000FC170300DDE501007C1803008D49FD1A3A
:103930009028030064280300E9E80100000000006B
:103940002DE9F041C46894F91630002B8CB0C0F218
:10395000FF80636805460E46002B40F0EE80A37D95
:103960006FF30003A3751CF04FFD08201CF072FDDF
:10397000002108461CF060FD0022252108201CF0D3
:103980009FFD01200FF02AFC0746002800F0C780A9
:1039900007F11C001CF0BEFD874B0B930BA81CF01D
:1039A00077FD864940F25B601CF022FEA07DC0F3EB
:1039B000410025301AF060FD814821461CF0E2FCF0
:1039C000A37D9B0603D46368002B00F0A58096209E
:1039D0001CF05CFF00231A46194618461CF06EFEC8
:1039E0001AF0BAF8002838D1A37D13F0180F59D176
:1039F000D4F800802F6840461AF01EFD07446A681C
:103A000007F1090100201CF04DFF1DF039F81CF0F2
:103A1000C5FE204612F0AEFA011DC9B240463A4634
:103A20001AF018FD8046002840F0998016B9636AA4
:103A3000002B4ED1636843B1624B0122022100206A
:103A40009D600DF0BFF8002835D120461AF08EFC9D
:103A5000D0B900200CB0BDE8F081A07DC0F3C0005B
:103A600019F0EEFB07460DF12B0019F0EDFE797809
:103A70008046BA1C38781CF0B5FE9DF82B00002259
:103A800041461DF0CDF8B3E74F4A5049504840F247
:103A90000B2324F0D0FC404080F311884FF003004A
:103AA00002DFD6E7012019F0CBFB4178821C0078B9
:103AB0001CF098FE9CE7444A4649454840F20623DC
:103AC00024F0B9FC404080F311884FF0030002DF7E
:103AD000BBE7414A0792414A059240F2F312009334
:103AE0000892CDE90366CDE9016606943B4631466E
:103AF00003220EF01DFB10F0FD0F9BD0324A384917
:103B000033484FF4FA7324F096FC404080F3118858
:103B10004FF0030002DF8DE71CF030FE60E72A4A19
:103B200030492B484FF4C57324F085FC404080F3A6
:103B300011884FF0030002DF2AE7636893F8203012
:103B4000D90705D4636893F820309A077FF507AF4B
:103B5000254821461CF016FC1CF004FD79E71A4AA2
:103B600022491B4840F2E51324F065FC204B072155
:103B7000A8FB030301FB08310DA3D3E90023FDF7E4
:103B8000BFFA1C4902461C4824F055FC404080F313
:103B900011884FF0030002DF184821461CF0F2FBA9
:103BA0001CF0E0FC6FF08B0054E700BFAFF3008027
:103BB00000CA9A3B00000000D6BE898E55555500BC
:103BC000A13C0000A40C00209C28030068190300FD
:103BD000FC1703007019030061F4010001F50100F6
:103BE000A01B03002C280300DDE501007C18030066
:103BF0008D49FD1AE8280300642803003DF3010005
:103C000038B504461BF04AFBA37DA27DC3F34103F4
:103C1000013303F00303032B08BF002363F34202C5
:103C200014BF03F125002520A2751AF025FC636856
:103C30000BB123694BB90EF011FCC11C00201CF024
:103C4000A5FEBDE838401CF01BBF1CF0CDFE0546AC
:103C50000EF004FCC11C00201CF098FE1CF010FFAC
:103C60001CF0C2FE29460EF0FBFB0B4A034607215F
:103C7000A0FB020201FB032105A3D3E90023FDF70A
:103C80003FFA23691B1A236138BD00BFAFF30080E0
:103C900000CA9A3B000000008D49FD1A0000000098
:103CA0002DE9F0478AB004461CF08EFCC0B250B932
:103CB0001AF03AFCC44821461CF064FB0AB0BDE887
:103CC000F0471CF04FBC1CF09FFC05461CF0BEFDED
:103CD00007461CF0C5FD81461CF0FCFF06461CF0A3
:103CE000DBFF82461CF074FDEDB280461CF054FDF3
:103CF0001AF01AFC002DDDD001200FF06FFA0546F6
:103D0000002800F04D8117F0FF07F6B240F0E38085
:103D1000002E40F0DA804FF0FF093A464B4631461C
:103D200020461BF0E1FC0028C4D02A7F61680023F4
:103D30008DF823305FFA88F702F00F03002900F0B6
:103D4000EC80616891F82010880700F1E680072B6D
:103D5000B0D0A17D090740F14381002B40F0C48021
:103D60006B7F063B1F2BA5D804200FF037FA0028E5
:103D7000A0D01CF08DFE636A074643B9238C40F245
:103D8000712202FB03F3B0FBF3F203FB120723687B
:103D90001A698E4B0721A2FB030301FB023188A3A2
:103DA000D3E90023FDF7ACF96FF44A7C00EB0C0378
:103DB000BB42FFF47FAF1CF0E1FC4846636819F09A
:103DC00029FDE37D9907804640F1E581002800F058
:103DD000E281824601271CF025FCCDE9027A09AB7D
:103DE000049305F11E0301932B7FC3F38013014657
:103DF000074600930022012320461BF08FFC384623
:103E00001CF08EFB1CF0D6FB002840F0CA817048E5
:103E100021461CF0B7FA626892F8203043F00103A3
:103E200082F82030A37D43F08003A3750FF0F8F9EA
:103E3000172202714FF6FF72C28095F81CC08246AD
:103E40003B46CCF3401C00F11C0207F1200E1D681C
:103E500058689968DF68D760103373451560506003
:103E6000916002F11002F2D11B6813609AF81C30C5
:103E7000CAF808406CF345138AF81C301CF0B4FDF6
:103E8000002ECAF81000099BCAF8143008BF4FF082
:103E9000FF098AF81990E37D13F0020303D0B8F10B
:103EA000000318BF01239AF81A2063F300028AF86E
:103EB0001A200FF0B5F9CAF80C00DAF800005146E4
:103EC0000AB0BDE8F0470FF0D9B95FFA8AF019F0EF
:103ED0002FFD814621E7A07D5FFA89F1C0F3C00084
:103EE00019F0BCFC814618E7012B40F089806A7FFD
:103EF0000C2A7FF4DFAE2A7FCDF80090194600230C
:103F00000193D20905F1240320461BF041FB002850
:103F10007FF42AAF2B7F03F00F03002B70D16B7F50
:103F2000052B7FF6C7AE252B3FF6C4AEA27D02F06F
:103F30002102202A09D16268002A00F0C180052BE5
:103F40007FF6B8AE252B3FF6B5AE63682BB12B7F5D
:103F500003F00F03072B7FF4ADAE03209DF8238001
:103F60000FF03CF9054600283FF4A4AE0FF058F9D5
:103F70004FF6FF73EB8005232B71002F3CD17F2080
:103F8000AB7E2876002E08BF4FF0FF0968F341038F
:103F9000286885F81990AB7629460FF06FF989E605
:103FA0000C4A0D490D4840F2C72324F044FA404022
:103FB00080F311884FF0030002DFA4E6AFF3008026
:103FC00000CA9A3B0000000055F301008D49FD1A1C
:103FD00045F501009C2803002C280300FC17030072
:103FE000B9F1FF0F8DF82490C2F380184BD0227ED8
:103FF00091453FF4B2AE90E71CF0DAFBC0B2BFE7E8
:10400000062B8CD04521D94011F0010139D1012B6B
:1040100010D16B7F0C2B7FF44DAE2A7FCDF8009032
:104020000DF123030193D20905F1240320461BF06F
:10403000AFFA08BB2B7F03F00F03042B7FF43AAEDB
:104040006B7F063B1F2B3FF635AEA37DDB077FF56D
:1040500031AE1CF0E7FA2B7F0278C3F38013B3EB89
:10406000D21F7FF427AE0830062205F11E012BF087
:1040700013FF00287FF41EAE6B7F002B7FF465AF2B
:1040800018E66B7F5BE705F11E0A09AA5146404618
:1040900019F004FD00283FF43DAFE37D03F0010378
:1040A00043457FF437AF5146062204F108002BF058
:1040B000F3FE00287FF42EAF2B7F03F00F034CE6B6
:1040C000962007921CF0E2FB079A10461CF0AEFA0D
:1040D00003200FF083F8804600283FF4EBAD0FF08B
:1040E0009FF84FF6FF73A8F80630052388F80430D0
:1040F000002F64D17F23002E88F8183014BF4B4660
:10410000FF2388F8193098F81A30D8F800006FF3B8
:10411000410388F81A3041460FF0B0F81CF082FADB
:1041200006460322337862F3030333702B7F327821
:10413000C3F3801363F3C7120C23327048467370C5
:1041400019F068FBE27D92073DD500283BD031781D
:10415000324641F0400102F8021B0168C6F8021025
:1041600083889380D5F81E30B3606B8CB381304662
:104170001CF0D6F91CF01EFA002835D11CF080FC8A
:10418000A37D204843F001032146A3750AB0BDE892
:10419000F0471CF0F7B8A77D04F1190AC7F38017A0
:1041A00019E6194A19491A4840F2A44324F043F980
:1041B000404080F311884FF0030002DF27E61CF037
:1041C000F7FAC3B297E7A37D3278C3F3801363F3A2
:1041D0008612334603F8022BD4F81920C6F80220C1
:1041E000B4F81D209A80BDE7074A084908484FF4F3
:1041F000A56324F020F9404080F311884FF00300BC
:1042000002DFBBE769F301009C28030034280300A8
:10421000FC170300000000002DE9F041C468A289EA
:104220004FF6FF739A4282B000F0C78005461BF03C
:1042300079FB2B89628AE08A1A4492B21044637F28
:10424000A28280B2411CE1825E064FF000016182D1
:1042500004F1180100F18C8003F03F000B46A17FB0
:10426000009004F11F0018F01DFB0646D4E90B2353
:104270001344D4E90D0200210244E1626163A16AA2
:10428000A26394F872208B4228BF0B4612F00402FE
:10429000236377D01CF0B8F808201CF0DBF8201D51
:1042A0001CF0F6F82389A17A40F25B6043EA0141F1
:1042B0001CF09EF930461AF0DFF8214658481CF0F1
:1042C00061F896201CF0E2FA94F85A2094F85B000A
:1042D000C2F3C003002102F0070200F007001CF047
:1042E000EDF920461BF080FB27682E6838461AF04F
:1042F000A3F806446A6806F1090100201CF0D2FA0E
:1043000080461CF091FB00201CF0A8FB236B94F866
:104310005B0003F13002A36B00F00700012103EB07
:1043200042051CF00BF94544054494F85B0000F08D
:104330000700022824D004280CBF4FF4BC732823A4
:1043400001211D441CF0FCF828441CF05FFBA189EE
:1043500005313246C9B238461AF07CF8054698BB9A
:1043600020461AF003F8D0B9002002B0BDE8F08171
:104370000A4603F03F03E18B18F0E0FA064675E7C2
:104380001823DDE7D4E917010CF0AEFB002881D13A
:1043900094F8723043F0040384F872307AE7214ACB
:1043A0002149224840F2551324F045F8404080F35B
:1043B00011884FF0030002DFD6E71D4821461BF0AD
:1043C000E1FF1CF0CFF8CFE7164A1A49174840F230
:1043D0004B1324F030F8184B0721A5FB030301FB16
:1043E00005310DA3D3E90023FCF78AFE13490246E9
:1043F000134824F020F8404080F311884FF0030068
:1044000002DF104821461BF0BDFF1CF0ABF86FF037
:104410008B00AAE7AFF3008000CA9A3B00000000BF
:1044200041FC01006829030068190300FC17030020
:10443000DDE501007C1803008D49FD1ABC2903004D
:1044400064280300B9E50100F0B5C468A2894FF6FD
:10445000FF739A4285B000F08B8005461BF062FA2C
:104460002B89628AE08A1A4492B21044637FA28246
:1044700080B2411CE1825E064FF00001618204F1CE
:1044800018015FD403F03F000B46A17F009004F1B8
:104490001F0018F007FA0646204603A91BF072FB1E
:1044A000039B94F872101A7861F3C3021A70039A8E
:1044B00094F872301178C3F3400363F382011170F2
:1044C0001BF0A2FF08201BF0C5FF201D1BF0E0FF22
:1044D0002389A17A40F25B6043EA01411CF088F82D
:1044E000304619F0C9FF039920461BF01FFB2146F7
:1044F00037481BF047FF96201CF0C8F994F85B0082
:1045000000F007001CF092F827682E68384619F072
:1045100093FF06446A6806F1090101201CF0C2F904
:104520001CF0AEFAA18905313246C9B2384619F0FD
:1045300091FF054618BB204619F018FF50B900201E
:1045400005B0F0BD0A4603F03F03E18B18F0F6F921
:104550000646A1E71F4A2049204840F2031323F0F2
:104560006AFF404080F311884FF0030002DFE6E766
:104570001B4821461BF006FF1BF0F4FFDFE7154A3E
:1045800018491648F92323F056FF174B0721A5FBBE
:10459000030301FB05310CA3D3E90023FCF7B0FDB5
:1045A00012490246124823F046FF404080F311882A
:1045B0004FF0030002DF0F4821461BF0E3FE1BF023
:1045C000D1FF6FF08B00BBE700CA9A3B00000000F0
:1045D00075FA0100C829030068190300FC170300DD
:1045E000DDE501007C1803008D49FD1A182A03003F
:1045F00064280300B9E501002DE9F0472DED028B99
:104600009FED498B4A4E84B004464FF02003EFF3F0
:10461000118783F31288BFF36F8FD4F8C8508DB918
:10462000022104F1E0002AF090FE002843D100238B
:104630008DED008B029304F1D00239463D4822F003
:10464000B1F8E2E7D4F8CC202B68C4F8C830954222
:1046500008BFC4F8CC30D4F8E03043F00203C4F80B
:10466000E030EB6823F0040343F00103EB606B6878
:1046700087F31188BFF36F8F284698474FF02003C8
:10468000EFF3118983F31288BFF36F8FEB689907FB
:1046900023F0010219D4EA60D4F8E03023F00203D9
:1046A000C4F8E03089F31188BFF36F8FDB05ACD419
:1046B00021F058FFA9E704F1D8050022012128467E
:1046C0002BF049F80028F8D1B1E7306823F0030354
:1046D000EB600028E0D00027D0F80080BA46002820
:1046E000DAD04268954201460BD1016897B97268E9
:1046F0003160824200D1716040F808AB21F04EFB7E
:104700003946B8F1000F0BD0D8F8002040460F46CC
:104710009046E4E739607268824208BF7760EBE751
:104720004246F3E7AFF30080FFFFFFFFFFFFFFFF0D
:10473000107200207F740020014821F031BC00BFBE
:10474000B802002007B52BF043F84FF47A72A0FBB3
:10475000020302FB0131C00B074A40EA41401060EE
:1047600000234FF400420548CDE9002322F0F8F978
:10477000002003B05DF804FB20380020E00F00208B
:10478000014B187800F0C2BA2A730020044B1A7843
:10479000824202D01870FFF7F3BF0020704700BFBD
:1047A0002A73002008B52BF013F84FF47A72A0FB9F
:1047B000020302FB0131114AC30B126843EA414371
:1047C0009B1A0F4A934214DD02F05EFA20B1BDE855
:1047D00008400120FFF7DABF0220FFF7D7FF00F003
:1047E00043FA002803DABDE8084000F079BA23F064
:1047F0002FFE47F230529342E9DC08BD20380020FA
:10480000A0BB0D0008B52AF0E3FF4FF47A72A0FBBD
:10481000020302FB0131C00B044A40EA4140106030
:10482000BDE808400020FFF7B1BF00BF20380020DE
:10483000014B1878704700BF2A730020F8B5044672
:1048400010B900252846F8BD0378002BF9D00F4E8B
:104850000F4FBE420FD30D4EBE42F2D230682AF047
:10486000C7FB30B1356821462868FCF7B3FD002846
:10487000E8D00436F0E730682AF0BAFB18B13568A2
:104880002B68A342DED00436E3E700BF944E03005A
:10489000B04E030070B5194C194D8CB000220023A6
:1048A00003A9204621F036F908B10CB070BD2B6881
:1048B000059E5868DDE9031222F089FE0028EDDB31
:1048C000FF238DF81830B6FA86F35B0907908DF850
:1048D00020302AF07DFF4FF47A72A0FB020302FB26
:1048E0000131C00B40EA4140C90B8DE8030006AB23
:1048F000CDE90A010FCB00F023FACFE780110020A9
:10490000FC3800201FB50A4C2468A46884420DD1ED
:1049100083F00103CDE9011203930648002200232E
:1049200001A921F0A1F8044821F03AFB04B010BD20
:10493000FC38002080110020EC3800201FB5002337
:10494000CDE90233044B8DF80C0001A8019322F04D
:104950006EFE05B05DF804FB480703000268034BD8
:104960009A420CBF08300020704700BF4807030080
:10497000014B03603220704724380020044B1A6832
:10498000044B9A4214BF6FF012000020704700BF22
:10499000FC3800203407030038B5044600282FD027
:1049A000194D2B68834229D053B1986840B1836870
:1049B0005B6803B198472B680021986802F0EEFD10
:1049C0001249134B8C4214BFED21002132220020EA
:1049D00022F017FE002812DBA0682C6070B10121C4
:1049E00002F0DCFD2B68986883680A491B689847C9
:1049F0002B68986883689B6803B19847002038BD8E
:104A00006FF01200FBE700BFFC3800203407030002
:104A1000243800200549000038B5054648B9064845
:104A2000FFF7BAFF041E02DB2846FFF787FF204688
:104A300038BD6FF01504FAE734070300F7B50C46EC
:104A400015460D4901AA1E4624F0B2F868B1019B33
:104A50006BB9012C0DD1094F224639463046A84783
:104A6000002802DD3878FFF7D7FF03B0F0BD002043
:104A7000FBE76FF01500F8E728300300700F002007
:104A80000148FFF789BF00BF3407030008B50B4892
:104A90000B492AF0CDFC0B4823F0D9FF18B1094887
:104AA000012123F0A7FF084A002342F8043B013309
:104AB000322BFAD1BDE80840FFF7E2BFEC38002006
:104AC00095480000200203002438002030B51C4C1B
:104AD00004EB00148FB0606883683A21DB68984764
:104AE00058BB60686189836804AD1B692A46984792
:104AF00018BB95E803000123069307AB83E8030086
:104B00006389ADF824302AF063FE4FF47A75A0FB78
:104B1000053205FB0121DB0B43EA4143C90BCDE91B
:104B20000A31237B8DF830300EAB13E90F008DE88E
:104B30000F0006AB0FCB00F029F90FB030BD00BF5E
:104B4000D802002010B5134CBFF35B8F54E8002F40
:104B500022F0010144E800100028F7D1BFF35B8F79
:104B6000D20702D50020FFF7B1FFBFF35B8F54E8F7
:104B7000003F23F0020244E800210029F7D1BFF3EF
:104B80005B8F9B0704D5BDE810400120FFF79EBF57
:104B900010BD00BF00390020064901EB001250682B
:104BA00030B183689B68114608310BB1024A18473F
:104BB000704700BFD8020020BD4B000010B5104C5C
:104BC0000C1B102C1BD824112AF0D2FA90B1BFF381
:104BD0005B8F01230B4AA34052E8000F184342E8C1
:104BE00000010029F8D1BFF35B8F0748BDE81040F2
:104BF00021F0D6B92046BDE81040FFF767BF10BDD1
:104C0000E002002000390020C802002002289ABFDC
:104C1000024B03EB40000020704700BF740E0020E1
:104C2000F8B50F4D0F4E761B07460C4605EBC10538
:104C3000C6F3C706A64201DC00200CE02A683B68E8
:104C40009A4209D13C716B6838461B68984718B185
:104C5000431E012BF0D9F8BD01340835EAE700BF47
:104C6000C0390300083A030037B501A820F0ACFCB6
:104C7000194D019C00232B60182358431838044415
:104C8000019B9C4202D2002003B030BD20462AF096
:104C9000AFF9F0B1204623F0A3FED0B9204623F0AF
:104CA000E0FEB0B9204623F0C8FE014688B9204690
:104CB00002F074FC20F0200378330AD010F1860F44
:104CC00007D00028E0DB2B68044A42F82340013378
:104CD0002B60183CD4E700BF04390020C80F002027
:104CE00070B5084D084E2C68013C002C02DA0023F8
:104CF0002B6070BD56F82400012102F04FFC013CEE
:104D0000F3E700BF04390020C80F00201FB50023BF
:104D1000CDE90233044B8DF80C0001A8019322F079
:104D200086FC05B05DF804FB4C0703000268034BEA
:104D30009A420CBF08300020704700BF4C070300A8
:104D400084B030B589B00CAC84E80F000023019327
:104D50000CAD084B00930FCD02AC0FC495E80300D7
:104D600084E80300684622F062FC09B0BDE83040E8
:104D700004B07047500703000268034B9A420CBF0F
:104D800008300020704700BF5007030084B030B5E2
:104D90008BB00EAC84E80F00002301930EAD084BDE
:104DA00000930FCD02AC0FC495E80F0084E80F000C
:104DB000684622F03CFC0BB0BDE8304004B07047C0
:104DC000540703000268034B9A420CBF08300020CE
:104DD000704700BF540703001FB50023CDE902331D
:104DE000044B8DF80C0001A8019322F020FC05B0C3
:104DF0005DF804FB580703000D4A52F820300133D8
:104E000042F820300B4A0123117883400B430A49B2
:104E10000978DBB2137023EA01030849084A0978CC
:104E200050780B43181A537018BF0120704700BF09
:104E3000083900202D7300202B7300202C730020D4
:104E40007E0F002010B5114A52F82030002B19DDDA
:104E5000013B42F820300E4A2BB9137801218140E2
:104E600023EA010313700B480B4B047810780B4AAC
:104E70005978127820EA040010435870401A18BF7D
:104E8000012010BD6FF01500FBE700BF08390020BE
:104E90002D7300202B7300207E0F00202C73002028
:104EA000044A012312788340D8B213401B1A584297
:104EB000584170472D73002010B5084B084A1870F0
:104EC000084B51781C78084B1B7823EA04031843DD
:104ED0005070401A18BF012010BD00BF2C73002075
:104EE0007E0F00202B7300202D730020074B002223
:104EF0001A70074B074A1978074B50781B7823EA3A
:104F00000103181A537018BF012070472C7300203A
:104F10002B7300207E0F00202D730020A0F1E003F2
:104F2000072B03D82030C0B2FFF766BF064B06221E
:104F300013F8011F19B1013AFAD100207047187017
:104F40000028F8D0F9E700BF800F0020A0F1E003AF
:104F5000072B10B405D820305DF8044BC0B2FFF722
:104F600071BF0023064A194612F8014F0133A042CF
:104F700008BF1170062BF7D100205DF8044B704775
:104F8000800F0020A0F1E003072B03D82030C0B22F
:104F9000FFF786BF064A002312F8011F884204D09B
:104FA0000133062BF8D1002070470120704700BF65
:104FB000800F0020024B00221A605A60704700BF29
:104FC0007F0F0020B0F5805F10B510D20949002393
:104FD00001EB4302B2F8014024B10133062BF7D1B3
:104FE000002010BDA2F801000028F6D0F8E76FF00D
:104FF0008500F6E7710F002030B50023074C1946F5
:1050000004EB43020133B2F80150854204BF5170F2
:105010009170062BF4D1002030BD00BF710F00202D
:10502000024B00221A605A609A607047720F00208B
:10503000074A002302EB4301B1F80110814204D07A
:105040000133062BF6D1002070470120704700BFC6
:10505000710F0020004870477E0F00200048704705
:10506000710F002082B02DE9F84308A90068109C58
:1050700081E80C00174622F0D2F9056909982368E7
:10508000666832384200F3B114183C4405EBC40E94
:10509000DFF84890DEF80410314455F8346091FB95
:1050A000F9F833440E9E434436884FF4B47C09FB30
:1050B0001811BCFBF6FC93FBFCF60CFB163345F811
:1050C0003430CEF8041002443A440C32002045F843
:1050D0002260BDE8F84302B0704700BF40420F00B5
:1050E00030B593B0182200210CA82AF036FD254DCA
:1050F00006AC00220CA90023284620F00BFD014637
:1051000000283DD1182220462AF027FD0C9B07934A
:105110002AF05EFB4FF47A72A0FB020302FB01311E
:105120009DF834308DF82830C00B9DF8443040EAAB
:105130004140C90B13F00102CDE9080118BF01225B
:10514000049208AB0FCB8DE80F000EA894E80C007A
:1051500022F0BBF9119B012BCBD9C3F35E044FF4B2
:10516000004540F2E73000214FF47A720023E5FB5E
:105170000401FBF7C5FF02460B46034820F078FF09
:1051800013B030BDB01100200000002030B58BB04E
:1051900001AC84E80E0042680492027C8DF8142071
:1051A00094E8070006AD85E80B000F9A9DF83830AB
:1051B00043EA4203099309480022002304A920F08E
:1051C00053FC002804DB06482AF082F910B10020C5
:1051D0000BB030BD0248FFF783FFF8E7B0110020A5
:1051E0000000002070B500250646056000F004FCB4
:1051F000044678B101F07CFD30B900F0CFFC01230A
:1052000070603370304670BD064B1B78012BF4D0B4
:105210002846F5E701F06CFD0028EED02346204635
:10522000EEE700BF2E73002008B5094B1B7823B1B1
:10523000012B06D06FF0850008BDBDE8084022F0C4
:105240004BBDFFF707FFBDE80840013000F0E4BDAB
:105250007039002008B5094B1B7823B1012B06D00B
:105260006FF0850008BDBDE8084022F03DBDFFF7A6
:10527000F5FEBDE80840013000F0F4BD70390020B3
:1052800037B508490848094D6C462AF015F92046FB
:10529000FFF7A8FF94E8030085E80300002003B0AF
:1052A00030BD00BFB15200009014002070390020C2
:1052B00002490348012203F0E9B800BF2E73002021
:1052C0001031030082B00DF1080C0CE903001946FF
:1052D0009DF8003010461BB1012B05D0054A00E0B7
:1052E000054A02B021F014BD019B044A02B021F02E
:1052F0000FBD00BF2F31030024310300283103000C
:1053000030B589B001AD0F4C2846FFF76BFF94E82C
:105310000C0095E8030022F09CFA80B922F0C0FA54
:1053200095E803000A2305AA84E80300FFF7CAFFF3
:1053300094E8030003AB83E8030000F023F809B00E
:1053400030BD00BF7039002070B50C4615460B49C2
:1053500000221E4623F02CFC08B9002070BD012C51
:1053600008D1074922463046A8470028F6DDFFF756
:10537000C7FFF2E76FF01500F0E700BF1A31030036
:105380002E7300207FB56B4683E8030093E803008B
:10539000002206AB03E90300039202A8034A02922B
:1053A00022F045F907B05DF804FB00BFE0070300F9
:1053B00002281FB530D830BB11B9002004B010BD91
:1053C000174B1A68012383401343154C9A422360FC
:1053D000F3D08DF800008DF801102AF0F9F94FF4A0
:1053E0007A72A0FB020302FB0131C00B40EA41408C
:1053F000C90BCDE9020104AB13E90F0004B0BDE80D
:10540000104000F015B9064B1A680029DAD10123C3
:10541000834022EA0303D8E76FF01500CEE700BF10
:10542000403A0020014B196822F095BA403A00201A
:10543000312937B504460D4602D9002003B030BDEE
:105440000228FAD801A8FFF793FA0028F5DB854275
:10545000F3DA019B53F82530312BEED84FF4167256
:1054600002FB04F00C2202FB0300014B1844E5E7A9
:10547000EC0703002DE9F74FDDE90CABDFF84C90AA
:1054800007460C4615461AB10F4B1B6849F82130E8
:1054900002265FFA86F859F82410404622F05BFA9B
:1054A00030B9013EF5D26FF0850003B0BDE8F08F52
:1054B000CDE900AB2B4622464146384622F05BFA46
:1054C0000028F2DDEDE700BF403A002078390020E7
:1054D0002DE9F04F2DED028B9FB0544ECDE90A120D
:1054E0009DED2A8B00EB4003804606EB83060225E8
:1054F0004FF0000A00F132090DF1680B306B21F01A
:105500008EFF002800F0878000234046CDE910334D
:10551000FFF77CFBCDE90C598DED0E8B0DF1300CB6
:105520000446BCE80F0012AF0FC79CE8030087E8F1
:105530000300CDE912598DED148B0DF1480EBEE834
:105540000F000DF1600CACE80F0097E803008CE849
:105550000300306B21F063FF00285CD083681F6973
:10556000002F58D006F1300309930A9B06930B9B3A
:10557000CDE904439BE80F008DE80F00DDE9182317
:105580000998B847002846DBBAF1000F2FD1E8B2DE
:10559000FFF748FF80F00107FFB2CDE90C598DED10
:1055A0000E8B0DF1300CBCE80F0012AC0FC49CE860
:1055B0000300FFB284E80300CDE912598DED148B8E
:1055C0000DF1480EBEE80F000DF1600CACE80F00C5
:1055D00094E803008CE80300306B21F020FF40B911
:1055E0006FF015001FB0BDEC028BBDE8F08F0127F6
:1055F000D3E783685C6914B96FF08500F2E704971C
:105600009BE80F008DE80F00DDE918230998A047FB
:10561000002808D0E6DB013D6B1CA6F118067FF4DC
:105620006DAF0020DEE74FF0010AF4E71803002019
:1056300010B58AB06C4684E80F0000230593064B32
:10564000049394E80F000AAC04E90F0004A821F0C9
:10565000EEFF0AB010BD00BFF40E030084B030B5F9
:1056600089B00CAC84E80F00002301930CAD084B0B
:1056700000930FCD02AC0FC495E8030084E803004B
:10568000684621F0D4FF09B0BDE8304004B070474F
:10569000FC0E03000268034B9A420CBF0830002046
:1056A000704700BFFC0E03007FB56B4683E8030024
:1056B00093E80300002206AB03E90300039202A86B
:1056C000034A029221F0B3FF07B05DF804FB00BF6C
:1056D000000F0300074B1A78074B82B0162102FB1C
:1056E000013301938DF8002002AB13E9030002B0EF
:1056F000FFF7DABF367300203773002002490348F2
:10570000012202F0C3BE00BF36730020CD3103007A
:1057100008B5002005F0E4F8002802DA10F1780F4F
:1057200007D1044802F042FF0348044929F0C4FEAF
:10573000002008BDAC030020C0140020FD5600006E
:1057400070B503788AB004460E4607AD032B20D807
:10575000DFE803F002191B1D11492846FBF744FE40
:10576000059563780493A3780393E37802932379F0
:10577000019363790093A3790A4A1E21304621F0F0
:10578000C7FA0AB070BD0849E7E70849E5E70849E4
:10579000E3E7084A0A21284621F0BAFAE0E700BF09
:1057A000E031030009320300E7310300EE3103006A
:1057B000F83103000232030010B592B0044625F020
:1057C00013FE01A9FFF7BCFF09A9204606F040FF20
:1057D0009DF82530012B13D10A4820F0E1FB20462B
:1057E00025F002FE084B19780F22162313FB012324
:1057F0000649194422F03BF910B9054820F0D0FBC6
:1058000012B010BDC403002036730020377300208F
:10581000D40300202DE9F0418AB00D4616462849F0
:105820006A4604461F4623F0C3F9F8B10098E8B170
:105830000A2201A921F030FB019B1B7803BB162D26
:105840001ED1C4B2042C1BD8DFF888806C432A46D2
:1058500008EB04013846B047002813DD04F10F00BF
:1058600002A94044FFF76CFF00200BE015496A468F
:10587000204623F09DF978B1009B6BB9012D04D02F
:105880006FF015000AB0BDE8F0810F492A4638468E
:10589000B04700EAE070F5E70C496A46204623F07D
:1058A00087F90028E0D000980028DDD0072DE7D147
:1058B0002AF0EEFA0028D7D105492A46E7E700BFCB
:1058C0002C320300D131030036730020353203003F
:1058D0002F73002037730020042808B50CD80F223E
:1058E000162313FB002305480549184422F0BFF88E
:1058F000B0FA80F0400908BD0020FCE737730020B3
:105900005C350300014B1878FFF7E6BF36730020C3
:105910002DE9F0410C468EB005464FF0160806A959
:10592000204615FB08F7FFF70BFF0D4E216807F126
:105930000F029319B150A2889A80A2799A710949ED
:105940002A4601A821F010FA4246F11901A802F0F6
:105950009DFD054820F024FB0EB0BDE8F08100BF9E
:10596000377300204A320300D403002038B50F23D8
:10597000162414FB0034094B09491C4405462046F3
:1059800022F075F848B12146002004F08DFE28462B
:105990000349BDE83840FFF7BBBF38BD377300206F
:1059A0005C35030010B504288AB002D900200AB083
:1059B00010BD0F23162414FB00340D4B0D491C445D
:1059C000204622F054F80028F0D02146002006F0AE
:1059D000BFFD04460028E9D001A906F039FE2046A3
:1059E00025F0E4FB9DF82400831E58425841DEE771
:1059F000377300205C350300014B1878FFF7D2BFE6
:105A000036730020F0B58DB0FFF77CFF98B9FFF733
:105A1000F3FF80F001035B00DBB2214D2A7803EB3A
:105A20000213112B09DC022B2DD0102B23D00024C4
:105A300020460DB0F0BD0223EFE7202B1BD0122B28
:105A4000F5D105F03BFD00232B7004460028EFD173
:105A5000144F0FCF02AE0FC63B68134933600322C9
:105A60000094234602A805F0F7FC04460028DFD185
:105A700002232B70DBE705F021FD00232B70044689
:105A80000028D4D0D4E7074E0FCE07AC0FC433683C
:105A90002360002304490093032207A8E3E700BF23
:105AA000A573002020050300E403002030B593B067
:105AB000054625F099FC01A90446FFF741FE09A916
:105AC000284606F0C5FD9DF82530012B05D1FFF7CE
:105AD00019FF214618B904F0E7FD13B030BD034BA0
:105AE0001878FFF715FFFFF78DFFF6E736730020F4
:105AF00030B593B00D4609A9044606F0A9FD9DF8FE
:105B00002530012B0BD1204625F06EFC01A9FFF7B3
:105B100017FE0E4B00221A701DB1FFF773FF13B072
:105B200030BDFFF76FFF204625F05EFC084B19786B
:105B30000F22162313FB01230649194421F097FF76
:105B40000028ECD1044820F02BFAE8E7A5730020E8
:105B50003673002037730020D403002008B50648B0
:105B600006F0D0FC054806F0CBFF054806F0E2FF42
:105B7000FFF748FF002008BD8C03002070030020C1
:105B80006003002008B5044B1878FFF7EFFEBDE86E
:105B90000840FFF737BF00BF36730020014B18786D
:105BA000704700BF36730020042808B510D80A4B90
:105BB0001A7882420AD018704FF4F0120023074876
:105BC00020F08AFAFFF71EFFFFF784FD002008BDD2
:105BD0006FF02100FBE700BF36730020C0140020E7
:105BE000054B187805230130B0FBF3F303EB830377
:105BF000C01AC0B2FFF7D8BF36730020054B187823
:105C000005230430B0FBF3F303EB8303C01AC0B2E7
:105C1000FFF7CABF36730020042838B51DD80F23FC
:105C2000162414FB00340E4B0E491C44204621F070
:105C30001EFF18B96FF01204204638BD214600201F
:105C400006F086FC05460028F4D0132125F0CEFB93
:105C50000446284625F0AAFAEEE76FF02104EBE7A8
:105C6000377300205C35030010B50A4B0A491A78D7
:105C700016240F2314FB0234084B1C44204621F049
:105C8000F6FE28B121460020BDE8104006F060BCB9
:105C900010BD00BF367300205C3503003773002051
:105CA00070B5164D90B004460146284621F0DFFE3F
:105CB000E8B108A92846FFF743FD1149284621F01D
:105CC000D6FE0646B0B969462046FFF739FD23687F
:105CD0002B60A388AB80A3790A49AB71324608A830
:105CE00021F042F80722214608A802F0CFFB00204D
:105CF00010B070BD6FF00B00FAE700BF2F730020EB
:105D00005C3503005A3203001FB54D240294044C45
:105D10000194BDF81840009426F0A9FE04B010BD0F
:105D20009232030007B5064B009306490648052347
:105D30004FF4407220F03AF9002003B05DF804FB04
:105D40001C0F030080740020F0140020F0B5164EE4
:105D5000164F89B000220023694630461FF0DAFE54
:105D6000054608B109B0F0BDFFF77EFF04460028E4
:105D7000F8D01822294602A829F0EFFE08230DEBDF
:105D8000030120460397CDF810D0ADF8143008F089
:105D900085FD013003D10221204625F0ABFA2046D3
:105DA00025F004FAD6E700BF10120020880F030088
:105DB0002DE9F041164FDFF85C808AB001AE002279
:105DC0000023314638461FF0A5FE054610B10AB043
:105DD000BDE8F081FFF748FF04460028F7D01822FD
:105DE000294604A829F0B9FE0C2304A92046CDE9D0
:105DF0000586ADF81C3008F051FD013003D10221B9
:105E0000204625F077FA204625F0D0F9D7E700BFE5
:105E1000E0110020D80F030037B5054640F6CD420B
:105E2000014600230C481FF01FFE044678B110F114
:105E30000B0F09D100220023694607481FF06AFEB4
:105E40002846FFF7E9FF0446204603B030BD03496A
:105E5000034829F01AFBF7E7101200200C04002079
:105E6000F014002030B5054685B040F6CD4201461D
:105E700000230D481FF0F8FD044678B110F10B0F18
:105E800009D10022002301A907481FF043FE28463C
:105E9000FFF7E8FF0446204605B030BD034904483B
:105EA00029F0F3FAF7E700BFE0110020FC0300201F
:105EB000F01400201FB50023CDE90233044B8DF808
:105EC0000C0001A8019321F0B2FB05B05DF804FBC2
:105ED0005410030008B500F07DFFBDE808400149FB
:105EE00029F0D3BADC04002007B5084829F080F86F
:105EF00048B14FF4F0120023CDE9002304480022FA
:105F0000002320F02DFE03B05DF804FB50020300D7
:105F10005010002008B5FEF709FF10B96FF085009A
:105F200008BDFEF785FC38B10138C0B20128F5D8AC
:105F3000034829F094FC01E0FFF7D6FF0020EFE7CB
:105F40005010002037B5104CA5682D21EB68204675
:105F50009847B8B92D212B696A462046984788B9D9
:105F60000A4C00982378834204D0C0B22070FFF717
:105F7000A1FF38B902F05CFA2378984202D01846A3
:105F800002F05CFA03B030BD50020300A77300209A
:105F900008B5054829F02CF818B1FFF7A5FF002037
:105FA00008BD6FF01200FBE750020300064A1278AA
:105FB000022A00F1FF3315BFC0F101000023C01811
:105FC000037008BF01207047443A0020014B18605D
:105FD00000207047E83A002007B56846FFF7E6FF63
:105FE00088B1012814BF01230223084A1278002037
:105FF00062F30700064A127862F30F2063F317403A
:1060000003B05DF804FB0346EFE700BFA873002070
:10601000AA73002013B50C4B1C6894B1FFF7DCFF8A
:106020008DF80400C0F30723C0F307408DF8053056
:106030008DF8060001990548234602B0BDE81040DE
:10604000184702B010BD00BFE83A0020B04E030070
:1060500013B50E4B01221A700D4B1C6894B1FFF75B
:10606000BBFF8DF80400C0F30723C0F307408DF891
:1060700005308DF8060001990648234602B0BDE8B8
:1060800010401847204602B010BD00BFA873002082
:10609000E83A0020B04E030013B50024084909482F
:1060A000009405234FF400721FF080FF064806F0AD
:1060B00029FA064802F07AFA204602B010BD00BF65
:1060C00080770020D815002014050020EC04002063
:1060D00030B50E4B187887B098B10D4B187890B941
:1060E0000C4A52686AB90C4D01221A700FCD01ACEE
:1060F0000FC42B680949236001A805F041FC00EAA0
:10610000E07007B030BD0020FBE700BFAA7300209D
:10611000A9730020443A0020340503007968000088
:1061200008B5FEF71BFC10B102481FF039FF002034
:1061300008BD00BF3405002030B50E4C0E4D87B0B1
:106140000022002302A920461FF0E4FC08B107B09A
:1061500030BDDDF811009DF8153000908DF8043049
:10616000DDF80920DDF80D309DF80810284600F014
:10617000B9FCE5E750110020B04E030070B503787C
:106180008AB004460E4607AD032B20D8DFE803F0A3
:1061900002191B1D11492846FBF726F9059563785E
:1061A0000493A3780393E3780293237901936379AB
:1061B0000093A3790A4A1E21304620F0A9FD0AB0B7
:1061C00070BD0849E7E70849E5E70849E3E7084AF9
:1061D0000A21284620F09CFDE0E700BFE0310300E3
:1061E00009320300E7310300EE310300F831030008
:1061F0000232030008B5FEF7C1FB014604480378EC
:10620000022B04D1BDE80840C9B221F0DABC08BDB8
:10621000443A002008B50A4B187018B1BDE8084090
:10622000FFF756BF074B187005F02AFC064B1A788B
:10623000022A03D15868132125F0D8F8002008BDA0
:10624000AA730020A9730020443A00202DE9F041F0
:10625000DFF8B8802C4D92B00022002309A94046F7
:106260001FF058FC044670B99DF82400A42606FBD4
:1062700000F3EA18EB5C022BEED19DF82570012F9C
:1062800004D0022F39D012B0BDE8F081B2F88030CE
:10629000002BE1D0DDF83E308DF810309DF8423013
:1062A0008DF811309DF84330CDF81B40003B18BFEE
:1062B00001238DF81230DDF83630CDF813300DF1B2
:1062C0002601DDF83A30CDF8173009220DF11B0018
:1062D000CDF81F408DF8234021F08BF89DF8240065
:1062E0000097CDE9014406FB00501423B0F880105C
:1062F000406804AA26F091FEAEE79DF8261000FB48
:10630000065021F05EFCA7E7443A0020401200202E
:1063100084B030B591B014AC84E80F001348214626
:1063200040F6CD4200231FF09FFB0446C8B110F198
:106330000B0F10D10022002307A90C4818AD1FF045
:10634000E9FB0FCD6C460FC42B68238014AB0FCB39
:10635000FFF7DEFF0446204611B0BDE8304004B030
:1063600070470349034829F090F8F4E740120020F1
:1063700004050020D8150020034B5B68834214BF3E
:106380006FF0150000207047443A002030B50546F4
:1063900089B00846114622B982810024204609B0FE
:1063A00030BD012BF9D90C2B28BF0C231A4601A8AC
:1063B00029F0C5FB9DF80540012CEED10E220021ED
:1063C00004A829F0CAFB2846FFF7D6FFDDF80630FF
:1063D000CDF81230DDF80A30CDF81630BDF80E30A9
:1063E000ADF81A309DF804308DF810008DF811408A
:1063F0008DF81C300022002304A903481FF034FB51
:1064000002481FF0CDFDC9E75011002054050020BF
:1064100008B5FFF7B1FF031EA3BF0348A42202FB88
:106420000300002008BD00BF443A002010B5144608
:10643000FFF7EEFF50B1B0F882303BB134B901291B
:1064400004D9BDE8104002481FF0AABD10BD00BF2E
:1064500034050020F0B5134687B0064631B918223E
:10646000184629F07AFB002007B0F0BDFFF7D0FFF7
:1064700004460028F7D0114B876801AA03F1100EDB
:10648000944618685968154603C5083373452A466B
:10649000F7D11B782B706146384623F0E3FE08B134
:1064A0000120E1E7064BE3600323A060237604F1BB
:1064B0000801304608F074FBD5E700BF480503002B
:1064C000C56400002DE9F041074694B016460D461C
:1064D000002900F0CD80C968002900F0CB80FFF7CB
:1064E00097FF0446002846D0337C032B34D1624BFF
:1064F0000E686A4603F11008964618685968944673
:10650000ACE80300083343456246F6D11B788CF8AB
:1065100000307146304623F0A5FE78BB04F16803D5
:106520006363E38A2386284626F0B8FA534B236236
:106530000122A085228704F13C03BFF35B8F53E85F
:10654000001F43E800200028F9D1BFF35B8F04F15E
:106550002001384608F036FDB4F880304BB1A38DE9
:106560003BB1B4F8823023B1B4F85030003B18BFCF
:10657000012383F0010014B0BDE8F081404B05AA6F
:1065800003F110089646186859689446ACE8030071
:10659000083343456246F6D11B788CF800307146CB
:1065A000304623F05FFE20BBA0602B8A023323829B
:1065B0000323237604F16803A365E38AA4F8543027
:1065C000284626F06BFA2F4B63640122A4F8500092
:1065D000A4F85C2004F16003BFF35B8F53E8001F55
:1065E00043E800200028F9D1BFF35B8F04F1440198
:1065F000AFE7254B0AAA03F1100E944618685968B4
:10660000174603C7083373453A46F7D11B783B70EA
:106610006146304623F026FE48B9A0602B8A02333B
:106620002382284626F03AFAA4F8800094E7EB6823
:106630001F68164B0FAA03F1100E9446186859688C
:10664000164603C6083373453246F7D11B783370BC
:106650006146384623F006FE00287FF47DAF2846C9
:1066600026F01CFAA4F8820009481FF099FC73E791
:10667000084680E708467EE7590503009566000056
:106680006A0503008D6300007B0503008C05030091
:10669000340500202DE9F04F85B006461446FFF77B
:1066A000B7FE00284DD024B98C81204605B0BDE846
:1066B000F08F631E00F183020F3413F8011F12F8EC
:1066C000015F6940117419781170A342F5D1DFF8A8
:1066D0007890DFF878A000F1940400274FF00108CB
:1066E00000252378EB40DB0723D514F8102C08FA9B
:1066F00005F31A424FF000014FF00E02684614BF36
:106700004FF0010B4FF0000B29F027FA3046FFF74E
:1067100033FE7B198DF800008DF802308DF803B040
:1067200000220023694648461FF09EF950461FF09C
:1067300037FC0135082DD4D10837802F04F101042E
:10674000CED10120B2E700BF501100205405002037
:106750002DE9F043044685B0002838D11D4E33782A
:10676000ABB3706810B124F021FD746000241A4F9F
:10677000DFF86880DFF86890347000253B78EB40E4
:10678000DB0710D50E220021684629F0E6F96319CF
:106790008DF8023000220023694640461FF064F95C
:1067A00048461FF0FDFB0135082DE7D10834802C49
:1067B00007F10107E1D108482022002129F0CDF995
:1067C0000020B085C6F8800005B0BDE8F0836FF00A
:1067D0001500F9E7443A0020C83A00205011002083
:1067E0005405002070B5FFF75BFA041E0ADBA425F0
:1067F000064E6543735D2BB9FFF7AAFF012373555E
:10680000204670BD6FF00B04FAE700BF443A002049
:1068100070B586B00646FFF7E5FF041E22DB134B7A
:1068200000221A7005F02CF900281BDB104BD3F85E
:106830006A00D3F86E106A4603C2743315460FCB54
:1068400085E80F000B4BA42202FB043329466A465D
:10685000304605F05FFF002804DA2046FFF778FF96
:10686000FFF736FC002006B070BD00BFA973002002
:1068700034050300483A002070B588B015466946D3
:1068800004461E46FFF77AFC35B9064922463046D3
:1068900023F053FD08B070BD012DFBD12046FFF75A
:1068A000B7FFF7E7A9680000F0B50378063B012BB6
:1068B000A5B005460E4602D9012025B0F0BD4478AA
:1068C00014F00F04F8D16B789C42F5DA6968102255
:1068D000214401A823F0F4FC70B31A4B06AA03F17B
:1068E00010079646186859689446ACE803000833C8
:1068F000BB426246F6D11B788CF80030714601A885
:1069000023F0B0FCD0B1252210A901A803F088F92A
:106910000BAA0C4B9646186859689446ACE80300DD
:106920000833BB426246F6D11B788CF80030252232
:106930001AA9704603F074F91034C4E73046FFF723
:1069400067FFBAE74805030010B588B0044624F095
:106950004BFD6946FFF712FC204621F082F90348FF
:106960001FF01EFBFFF7B4FB08B010BD440500206C
:1069700008B5FFF701FD002805DBA4235843024BAF
:1069800002221A54002008BD443A002030B59BB0C2
:1069900004460D4624F028FD6946FFF7EFFB08A9E1
:1069A000204605F055FE9DF821302BB920462DB12B
:1069B00021F057F9FFF78CFB1BB030BDFFF7D8FF74
:1069C0002046FFF725FD38B1838D4BB111A9204634
:1069D00005F03EFEFFF77CFB0A481FF0E1FAEBE70B
:1069E000094A8260094AC260012202824FF6FF72A0
:1069F000C282037600F10801406808F0D1F800284F
:106A0000E4D0E9E7440500204E330300556400005C
:106A100073B5194C194EB442254602D36FF01200DB
:106A200008E02B68DB68043433B9154C2368AB42AB
:106A300011D1002002B070BD9847C0F307238DF834
:106A400004008DF80530C0F30743C0B28DF806305E
:106A50000028E0D0E9E723B11B689B680BB1002058
:106A600098472B6825609B68002BE2D0012002B07C
:106A7000BDE87040184700BFB04E0300B44E03009D
:106A8000EC3A002007B5094B01911B68834207D1FE
:106A90009DF8063033B903B05DF804EBFFF7B8BFDB
:106AA000FFF7B6FF002003B05DF804FBEC3A0020CE
:106AB00070B5094C094D0A4EAC42234603D3BDE8DC
:106AC0007040FFF7A5BF1B681B690434002BF3D08F
:106AD00030469847F0E700BFB04E0300B44E0300C5
