:10100000D8A90020459B0000F3B30200199B000003
:10101000199B0000199B0000199B000000000000B4
:10102000000000000000000000000000699C0000BB
:10103000199B000000000000D59B0000199B0000D8
:10104000899E0000A1EA0100899E0000899E00009F
:10105000899E0000899E0000899E0000899E0000F4
:10106000899E0000899E0000899E0000899E0000E4
:10107000899E0000899E0000899E0000899E0000D4
:10108000899E0000899E0000899E0000899E0000C4
:10109000899E0000899E0000899E0000899E0000B4
:1010A000899E0000899E0000899E0000899E0000A4
:1010B000899E0000899E0000899E0000899E000094
:1010C000899E0000899E0000899E0000899E000084
:1010D000899E0000899E0000899E0000899E000074
:1010E000899E0000899E0000899E0000899E000064
:1010F000899E0000899E0000899E0000899E000054
:101100004FEA4102B2F1E04324BFB3F5001CDCF129
:10111000FE5C0DD901F0004C4FEAC0024CEA507061
:10112000B2F1004F40EB830008BF20F00100704790
:1011300011F0804F21D113F13872BCBF01F0004093
:10114000704741F480114FEA5252C2F11802C2F1C5
:10115000200C10FA0CF320FA02F018BF40F0010046
:101160004FEAC1234FEAD32303FA0CFC40EA0C00F8
:1011700023FA02F34FEA4303CCE77FEA625307D135
:1011800050EA01331EBF4FF0FE4040F4400070476C
:1011900001F0004040F0FE4040F40000704700BF06
:1011A00053B94AB9002908BF00281CBF4FF0FF31CE
:1011B0004FF0FF3000F00CB8ADF1080C6DE904CE33
:1011C00000F008F8DDF804E0DDE9022304B0704720
:1011D000704700BF2DE9F04786468C460846089EBA
:1011E000154674461946002B40F0C2808542B2FA7B
:1011F00082F245D94AB1C2F1200300FA02FC2EFA6C
:1012000003F3954043EA0C0C94404FEA154EA8B204
:10121000BCFBFEF8230C0EFB18CC08FB00F943EADC
:101220000C43994528D9EB1808F1FF3704D29945AA
:1012300002D9A8F102072B44A3EB0903A4B2B3FB24
:10124000FEFC0EFB1C330CFB00F044EA0344A042FE
:1012500014D92C190CF1FF3304D2A04202D9ACF1FD
:1012600002032C44241A43EA07401EB1D440002351
:1012700034607360BDE8F0874746DDE76346F1E719
:1012800092BB431B01214FEA154EAFB2B3FBFEFCEC
:10129000200C0EFB1C330CFB07F840EA0343984577
:1012A00062D9EB180CF1FF3004D2984502D9ACF1A9
:1012B00002002B44A3EB0803A4B2B3FBFEFC0EFB1D
:1012C0001C330CFB07F744EA0344A7424ED92C1900
:1012D0000CF1FF3304D2A74202D9ACF102032C4433
:1012E000E41B43EA0040C0E7C2F1200320FA03F107
:1012F000954090402EFA03F303434FEA154EAFB2E8
:10130000B1FBFEFC0EFB1C10190C0CFB07F841EAAC
:101310000041884504FA02F422D969180CF1FF3023
:1013200004D2884502D9ACF102002944A1EB08019E
:101330009BB2B1FBFEFC0EFB1C110CFB07F743EA52
:1013400001439F420ED9EB180CF1FF3104D29F42AA
:1013500002D9ACF102012B44DB1B41EA004192E7C8
:101360006046E3E76146F7E76046A3E76346B7E711
:10137000834206D916B9002108467BE7C6E900E09A
:10138000F9E7B3FA83F78FB9834201D3724508D8DE
:10139000BEEB020460EB030301209C461EB9002152
:1013A00068E73846FAE7C6E9004CF8E7C7F1200CD1
:1013B000BB4022FA0CF41C432EFA0CF120FA0CF379
:1013C000B84001434FEA14490EFA07F5B3FBF9F8A8
:1013D0001FFA84FE09FB18300B0C08FB0EFA43EAD7
:1013E00000439A4502FA07F240D9E31808F1FF30AA
:1013F00004D29A4502D9A8F102002344A3EB0A03C0
:1014000089B2B3FBF9F809FB183308FB0EFE41EA79
:1014100003418E452CD9611808F1FF3304D28E4563
:1014200002D9A8F10203214443EA0040A0FB02983C
:10143000A1EB0E014145CE46434602D306D14D45B0
:1014400004D2B9EB020E68EB04030138002EA6D0DB
:10145000B5EB0E0261EB030101FA0CFC22FA07F373
:101460004CEA0303F940C6E9003198E74046C5E776
:101470004346D9E710F8012B11F8013B012A28BF98
:101480009A42F7D0D01A7047034611F8012B03F89F
:10149000012B002AF9D17047034613F8012B002ACB
:1014A000FBD1181A01387047F7B5404DD5F85C31BB
:1014B000996811F0010124D101AA40F6034009F016
:1014C000FBFC044600286DD1019CE3681B78ABB996
:1014D0000AF0B8FFBFF35B8FD5F8D430BFF35B8F52
:1014E00005F1D40203F00903BFF35B8F52E8001F3C
:1014F00042E800300028F9D1BFF35B8F204620F08E
:10150000C1FD01AA002141F2030009F0D5FC044607
:10151000002847D1019B264EDA68D2F80100D2F8A4
:10152000051003C6184620F0ADFD214601AA41F280
:10153000010009F0C1FC0446A0BB0198C3685A78B9
:1015400085F870205A88A5F872201A7985F87120DC
:10155000B3F80720A5F87420B3F80530A5F8763065
:1015600020F090FD214601AA41F2020009F0A4FCFE
:101570000446B8B9019FFA68531C4132186859688B
:10158000344603C4083393422646F7D109482AF06B
:101590000FF8384620F076FD95F87C305B060BD4CA
:1015A0006FF01204204603B0F0BD00BF30000020F1
:1015B000A8000020B000002001AA002142F2030090
:1015C00009F07AFC04460028ECD1019BB64EDA689B
:1015D000D2F80100D2F8051003C6184620F052FDDB
:1015E000214601AA42F2020009F066FC04460028E6
:1015F000D8D1019CE368B3F8012091B249B1D97800
:1016000039B1A5F80421DA78114606F128002FF047
:10161000BFF9204620F036FD95F87C6016F02006D4
:1016200018D1022140F66D4009F0EAFB044600287B
:1016300000F0CC8002210C302EF061F90123037000
:1016400046702146324640F66D4009F035FC0446AE
:101650000028A7D195F89C301F0712D501AA0021B8
:1016600042F21C0009F028FC044600289AD1019897
:10167000C368D3F80120D3F80530C5E9382320F03A
:1016800001FD95F8D8309E0624D50DF1020168467B
:101690002AF0AFFA0446002884D1042142F2240043
:1016A00009F0AEFB0646002800F0908004210C30C3
:1016B0002EF025F9BDF800300380BDF802304380DC
:1016C0002246314642F2240009F0F6FB0446002887
:1016D0007FF468AF95F8D8305C0610D501AA0021D8
:1016E00042F22A0009F0E8FB044600287FF45AAFD2
:1016F0000198C3685B7885F8203120F0C3FC08218D
:1017000042F2010009F07CFB044600285ED008216B
:101710000C302EF0F4F895F8D81011F0400F024676
:1017200040F2022308BF032388074CBF43F02C007C
:1017300043F00C0095F8D9308F0648BF40F04000C8
:1017400013F0090F95F8A23018BF40F4006003F0C1
:101750000603CE0748BF40F01000062B08BF40F438
:10176000C07000212AF0B6F82146002242F20100A2
:1017700009F0A2FB044600287FF414AF95F87C30F2
:10178000B5F80411980624D4C9B901AA41F205009C
:1017900009F092FB044600287FF404AFB5F8043149
:1017A000019C4BB9E368B3F80120A5F804219A889D
:1017B0003E4811462FF0ECF8204620F063FC08214B
:1017C00040F6014009F01CFB044638B96FF068048C
:1017D000E8E60029F3D16FF00404E3E608210C30B9
:1017E0002EF08DF895F8D830D907024653BF4FF048
:1017F00000512BA1D1E900012D482AF06BF82146B8
:10180000002240F6014009F057FB044600287FF40F
:10181000C9AE014601AA4FF6014009F04DFB04464E
:1018200020BB019820F02EFC214601AA4FF6024071
:1018300009F042FB0446C8B90198C368B3F8013007
:10184000A5F8C13020F01EFC95F8C1305B070DD51E
:1018500001AA21464FF6034009F02EFB30B901984A
:10186000C3685B7885F8C03020F00CFC2AF03AFCA5
:10187000044600287FF496AE0CF010F804460028C9
:101880007FF490AEEB79002B3FF48CAE0821094831
:1018900029F086FF09F0ACFE84E600BFAFF30080BC
:1018A00090880002008000200801002038010020FC
:1018B00010880002040100202DE9F843D0E90C351E
:1018C000D0F82C805C193034A0450F46164619D844
:1018D0001D4DA3FB05011AA3D3E90023FFF760FC0C
:1018E0000346A4EB0800A0FB050123F07F4414A3EA
:1018F000D3E90023FFF754FC20F07F403C603060C8
:10190000BDE8F883DFF840900DA3D3E90023A8FBDE
:101910000901FFF745FC044605F1300008A3D3E9AF
:101920000023A0FB0901FFF73BFC24F07F4420F0DB
:101930007F403C603060BDE8F88300BFAFF30080BB
:101940008D49FD1A0700000000CA9A3B0000000004
:101950009FED0D7B124B134A1348144910B483EDCD
:10196000007B9FED0B7B82ED007B9FED0B7B104B93
:101970004FF0FF34002281ED007B04601A605DF8B7
:10198000044B13F045B800BFFFFFFFFFFF1F00002F
:1019900000000000000000001F0000000000000028
:1019A000B0010020582B00206C550020A801002019
:1019B0006455002000000000002800F05F812DE940
:1019C000F04FB54C94F86A2012F001058DB040F04C
:1019D000A78194F82500FF2300F0030084F8263047
:1019E0001CF03EFB94F86A00420727D494F82920A3
:1019F00094F8353004EB820204EB8303D66AD3F803
:101A0000388086B1A448314614F086FF33785B06EF
:101A100005D506210FF02AFF002800F083819E489B
:101A2000414614F079FF337813F00E0F40F0B78081
:101A3000236A93B10C200DB0BDE8F08F2A4604F163
:101A40006B01C0F3C0001CF0A7FCFF2884F826003F
:101A5000CCD028461CF04AFBC8E712F003F98146B7
:101A6000002800F0718112F009F98246002800F088
:101A7000688115F07FFB0546002800F06781D0F8EB
:101A800088004FF6FF732B8505F11C0B002800F032
:101A90004F8105F1780105F17C020FF0F3FEB5F8F6
:101AA00076307E4A23F4EF6323F0070343F4887310
:101AB00043F00103A5F876301346D2F80120C5F8AB
:101AC0009B21C5F8A12113F8012B9B88A5F89F3114
:101AD000A5F8A53195F89A3102F0010262F30003EE
:101AE00062F3410385F89A3195F8393003F03F03EA
:101AF00063F07F0385F8393095F88E3023F00703C3
:101B000085F88E3095F83C3023F00703002785F8E0
:101B10003C304FF4C023C5F888312846C5E9127718
:101B2000C5F88870A5F88C706F86C5F82E7085F89A
:101B30003B702F65A5F88E71A5F8847118F0E8F850
:101B400085F85071C5F8549115F0D2FD95F894318F
:101B500060F3020385F8943115F0D0FD95F89431C7
:101B600060F3C50385F8943195F8803167F341033C
:101B700085F880310121284616F020FA05F1D400BD
:101B800017F04EFEC4E9189AC4F820B0C5E90577ED
:101B90002F70ED611DF032FD002840F0C58094F8F3
:101BA00024300121C3F342030DF12B008DF82B30BB
:101BB00010F006F80246002862D098F8011030466E
:101BC00014F06CFC31233649A360364BB4F86870CE
:101BD000A0FB01010025C01841F107012CA3D3E9A6
:101BE0000023C4E9055525706560E560FFF7D8FA64
:101BF000206111F019FB00F109083FB9357805F0B3
:101C00000F05A5F10105B5FA85F56D0994F82400D5
:101C1000236965F3000010F0010584F824004BD01F
:101C2000214A0992002010600225204A204F049387
:101C30000BAE019305920321CDE9020006944346C1
:101C40000090089607972A460B9511F08BF93146BC
:101C500012F0CEF8A0B9174905914AF2D833009393
:101C6000CDE90300CDE901000797089606944346A5
:101C7000012203210B9511F041F943E014F05ABB06
:101C8000236A002B3FF4D6AE14F012FBD2E600BF5D
:101C90008D49FD1A0700000024560020DE4E030087
:101CA00000CA9A3B8C49FD1A18560020196501009C
:101CB000B93301002D6001002B4A2C48049303F234
:101CC00047130694029591211360A7FB000301FBC3
:101CD0000731274B0793274B05934FF6FF73099264
:101CE000022703930BAE1EA3D3E900230B9708969C
:101CF000FFF756FA4346CDE900503A4628460321FD
:101D000011F030F9314612F073F80028B8D194F888
:101D10006A3043F0010384F86A3015F01FF860B1AF
:101D2000002088E6122086E614F0C2FA032082E63C
:101D300005F18000C5F88800ABE601201CF072F9BF
:101D4000EEE7484611F094FF072074E6504611F084
:101D50009BFF484611F08CFFF6E700BFAFF3008011
:101D60008D49FD1A0700000018560020002AE7845C
:101D7000B93301001965010070B590F824308AB0BC
:101D8000C3F342030D46044601210DF1230016461C
:101D90008DF823300FF014FF71780246284614F0B6
:101DA0007DFB1F491F4AA0FB0131981841F1070133
:101DB00019A3D3E90023FFF7F3F9236998420546F5
:101DC00021D21B1A00220192174A0293174BA21A22
:101DD000A3FB02320221920900230A4409AE0991B1
:101DE00013490591CDE903330321D2B2069600933E
:101DF000184611F017F9314611F0FAFF38B925618C
:101E000000200AB070BDFBD9C21A0023DBE70C200A
:101E10000AB070BDAFF300808D49FD1A07000000C5
:101E200000CA9A3B8C49FD1A24560020898888886C
:101E3000B93301000000000038B5194C9DF810E0DE
:101E400094F848C01CF0010523D163F3420C400113
:101E500094F83230A1874FEACE0E0EF0180E00F043
:101E6000200040EA0E0023F0380303430D4884F8B5
:101E700032309121A2FB000384F848C001FB0231FB
:101E800005A3D3E90023FFF78BF9C4E91000284626
:101E900038BD0C25284638BD8D49FD1A07000000C5
:101EA000602B0020002AE78410B504469DF8080046
:101EB00022844FEA411CC000A17D00F018000CF004
:101EC000200C4CEA000C0C4821F038014CEA010CC3
:101ED000A3FB0002912184F816C001FB032104A397
:101EE000D3E90023FFF75CF9606210BDAFF3008017
:101EF0008D49FD1A07000000002AE7840000000059
:101F00002DE9F047044600F1350190F8480094F8B7
:101F100032305B4DDFF88081C0F3400060F3861300
:101F20008CB084F8323011F0D3F994F83220A38FBA
:101F30005448E46102F07902002784F832209121AC
:101F4000A3FB0002C4E90577277001FB03214AA324
:101F5000D3E90023FFF724F9651B626C4A4B6760E5
:101F6000AD08A3FB053502F10903984298BF3A4634
:101F7000C5F3470522644FF031028CBF1946014674
:101F8000A26005EB4502E760216148F82210064691
:101F900011F04AF9236A00F109074FEA450A002BBC
:101FA0004AD00DF12C09AA4408EB8A030993CDF815
:101FB00020900694A38F33484FF00008A3FB000243
:101FC000CDF80C80912101FB0321236904932F4B51
:101FD00007932F4B05934FF0020A27A3D3E9002361
:101FE000CDF82CA0FFF7DCF8104619464FF47A72B2
:101FF0000023FFF7D5F80435EDB2CDE901600321E8
:102000003B462A46CDF80080404610F0ABFF4946DB
:1020100011F0EEFE60B994F8483043F0010384F803
:10202000483014F04FFC08B300200CB0BDE8F08736
:102030000C200CB0BDE8F0870DF12C09CDE90A3376
:1020400021694B460AAA032001F096F90028AAD17B
:102050000B99104808A3D3E90023A1FB0001FFF767
:102060009FF80A9B20F07F471F449CE750461BF0D7
:10207000D9FFD9E7AFF300808D49FD1A07000000B2
:10208000602B0020002AE784BD86F21AB9330100D4
:102090004D6B010000CA9A3BB456002000000000BE
:1020A0002DE9F04F05468BB08B46012002219A4660
:1020B00014461FF049FD00220221814601200FF045
:1020C00031FC3B494FF4D47228460FF0BBFB461D50
:1020D000F6B2384B009532460121002010F0BAFFCD
:1020E00010F0FD0F0CD0344A3449354840F62F0328
:1020F00027F083FB404080F311884FF0030002DF9C
:10210000304BA4FB0348204627A3D3E900234146D4
:10211000FFF746F82C4B20F07F47A7FB033107223F
:10212000E01A02FB071168EB01014FF47A720023F9
:10213000FFF736F8CDE90170CDF800B008950695A7
:10214000296995F9394021480491214931EA24014E
:1021500028BF014605911F4C07944FF6FE7103916D
:10216000534632460121002010F0C8FE10F0FD0F4A
:102170000CD0114A1149124840F6440327F03DFBA8
:10218000404080F311884FF0030002DFB9F1000FE7
:1021900002D10BB0BDE8F08F0122022110460BB036
:1021A000BDE8F04F0FF0BEBB8D49FD1A07000000DF
:1021B000B02B00201D710100B435030078360300F8
:1021C0005030030000CA9A3B8D49FD1A95D1010099
:1021D0003DD30100C57001002DE9F043C469228D93
:1021E0004FF6FF739A428DB000F088800546204676
:1021F00018F086F895F82830012B00F00F81022B9B
:1022000000F00281002B00F0E18094F85071002F63
:1022100040F0FD80E68DB4F83080002E71D1AA8C9C
:1022200008F101060023CDE90A33B6B2002A70D0C6
:1022300094F93930002BC0F248810023A4F88A3188
:1022400095F82630D90740F1EF800023A4F88E31AD
:102250000DF127023146204617F096FD743000F04C
:102260004681B4F888312BB1B34240F20D819B1BFB
:10227000A4F88831B4F884312BB1B34240F2FB802A
:102280009B1BA4F88431258E17B9A84500F0EA807D
:102290000135ADB294F8D13013F001065AD1DDE921
:1022A0000A130A46002B40F0ED80002900F0DC8084
:1022B0001E461846228DE4690694CDE9035705327F
:1022C000A74D0290CDE90016D2B20121002005955C
:1022D00010F0A8FE10F0FD0F10D011F0B3FD8442F5
:1022E0000CD0A04AA049A14840F2155327F085FA26
:1022F000404080F311884FF0030002DF0DB0BDE8CD
:10230000F083AA8C46440023CDE90A33B6B2002AF2
:102310008ED195F82630DA0797D4B4F88A31002B9D
:1023200000F08280B34240F2FA809B1BA4F88A310D
:10233000B4F88E31002B8BD09E4280F0DE809B1B48
:102340009BB20022062BA4F88E31228600F2AC80CC
:1023500001277DE794F939206FF30003002A84F800
:10236000D13077DB94F87600C0F3C00100F00700AD
:102370001CF0AAFFB4F86E20B4F86C30134403F2DA
:10238000D51303447A4A7B480721E3FB002110461A
:1023900071A3D3E90023FEF703FFDDE90A1320F060
:1023A0007F4220692261904235BF161A801A0020B0
:1023B00000260A46002B7FF47DAF56EA010C7FF41D
:1023C00079AF002850D019461E4673E794F88E3036
:1023D00003F01803182B7FF418AFA18DB4F88621F1
:1023E0008B1D9A42C4BF931F5B1AB4F88211CCBFF5
:1023F0009BB21346994200F08C80A4F88231A4F875
:102400008431A4F8882100E73D2784F850713946CB
:1024100020460DB0BDE8F04315F08EBA0023A4F8B5
:102420008831A4F88431F0E6B4F88E31002B83D1E2
:10243000628DB4F88C3140F2E24101FB02F242F2CB
:10244000107101FB0323013BB3FBF2F39BB2A4F831
:102450008E316FE794F87700012100F007001CF03F
:1024600035FF87E73D4615E7002D4BD00026114686
:10247000304633461EE70023A4F88431204617F087
:1024800023FD00E7304615E711F044FC0146002823
:102490003BD00023A4F88831238DC3801B23037114
:1024A000006811F001FCE5E694F939309342BFF67B
:1024B000CFAEB8F1000F7FF44BAFD4F878315A08A3
:1024C000DB0743D4C4F87821C2E628460AAA0BA940
:1024D00004F1D409FFF7F0F9484617F0E3F918B30F
:1024E000484617F0DFF918B300232386A5E69DF8C8
:1024F0002710204615F020FA00E70821204615F0A5
:102500001BFAFBE6002FB1D1F8E60123A4F88831CD
:10251000B0E6B4F8881100297FF477AE6FE73E216A
:10252000204615F009FAE9E6FF2015F0BDF9D7E7D6
:102530000246D4E91E010FF0BDF90028D4D194F869
:102540003C30580744BFA38D238676E642F0004214
:10255000C4F87821FCE600BF8D49FD1A0700000091
:1025600085700100B4350300C43603005030030009
:102570008C49FD1A00CA9A3B2DE9F04F87B0CDE98E
:102580000432BDF8442003780292BDF84820BDF81B
:102590004080BDF84C50468EB0F82E90B0F814B183
:1025A000019104460392002B00F0CB80013EB6B2AD
:1025B000A368D4F80C71721B92B2002B009209DA56
:1025C000E168626823F0004391422CBF7F18BF1876
:1025D000A360FF1A009A638D13FB02F39BB2B3FB57
:1025E000F8F218FB02F080B283421FFA82FA80F000
:1025F0009780C01A40F2E2425D4902FB00F0A0FB66
:10260000010159A3D3E90023FEF7CAFD20F07F4062
:102610000744D94494F839304D44AD1B554440F239
:10262000E246DB09E58506FB08F500F08E80226CAA
:102630000099A36CDFF838B102FB1133A3641DF0DD
:102640002FF8814694F87401C0F342001DF02CF875
:10265000059B814406FB03F305FB09F9236509F596
:102660007429444B09F23F29A3FB09394FEA9943E6
:1026700003FB0AF02364A5EB0309A36C6A08034477
:10268000963A934228BF1346C4E911230023C4F8A5
:102690007C31A0FB0B0134A3D3E90023FEF780FDBE
:1026A000049B3F1A3448A0FB0330800A06FB00F06D
:1026B0002DA3D3E90023A0FB0B01FEF771FD20F051
:1026C0007F46029BA385039BA4F88C3129462046B4
:1026D000A4F82A8017F094FB284BA18D2B44881D69
:1026E000B3FBF5F39AB29042A4F8862102D2521AB3
:1026F000063A92B2019BA4F8822113B10023A4F8F8
:102700008E313B464A4631462046FFF7C9FC94F8D5
:10271000803143F0010384F8803107B0BDE8F08FC9
:1027200008FB1231124840F2E24389B203FB01F187
:10273000A1FB00010CA3D3E90023FEF731FD3F1AF2
:1027400067E74E445E44B6B232E7049B0848A3FBF9
:10275000000105A3D3E90023FEF722FD20F07F4608
:10276000A9460136ADE700BF8D49FD1A07000000FC
:1027700000CA9A3B83DE1B435917B7D17FC3C901F7
:102780002DE9F04F04460B68077F1668D3F800A0C8
:10279000638CD0F81E0095B015464A7CADF84C30DD
:1027A000FF2AC7F3801389460D9212908DF83F30AF
:1027B00072D198461A4612AB93E803000DF1400B14
:1027C0001090ADF84410F8090AF1710127680A91D8
:1027D0005B460C900B9714F097FF0A99002843D1A1
:1027E00096F89A310C9A0A9068F3410362F3000359
:1027F00086F89A311098BBF80430C6F8A101A6F803
:10280000A531DAF87130C6F89B318B88A6F89F3174
:10281000E38D94F83010A9722B81D4F82A306B60C4
:10282000D4F83A30AB6105F1180094F83E300371EA
:1028300005210FF0C5F96B7F00F03F0060F3050341
:102840006B7794F83F30C3F30401A977A18EE98137
:10285000012803F01F0389B206D91B3303F01F03BD
:102860000B2B01D80A9A59BB0022CAF8142095F8FC
:1028700020300B9862F3000385F82030E5680126CC
:102880002146267111F006FA28682E71294611F0AA
:102890000BFA15B0BDE8F08F0DF1400B10460DF1AD
:1028A0003F015A461BF034F99DF83F80277F08F11D
:1028B00002085FFA88F88DF83F8008F0010282E78D
:1028C000D9F800305A60E38E2B82EB8940F2E2485F
:1028D00008FB03F71146638E0A93304617F0A4FAFB
:1028E00094F83F3096F874215B0963F3430286F84D
:1028F00074211CF0D5FE0C9096F87401C0F34200D0
:102900001CF0D2FE0C9B184407FB00F0BA4B00F5FC
:10291000742000F23F20A3FB00307B08800C963B24
:102920006862AB6294F8313008FB03F3AB63238F2A
:10293000A6F88C313946304617F062FAAF4BB04AF0
:10294000C6F890213B44B3FBF7F39AB2A6F8862170
:10295000298A881D824204DDC1F57F41FA310A448B
:1029600092B2A6F882216B68C6F87831234613F834
:102970001C2FC2F34018DA0700F104814FF4807372
:10298000A3839AF826001BF01DFE04F12B030028F8
:1029900000F0EE80626AC4F82B20228D9A800D9B95
:1029A000FF2B00F0E980BDF84C301298A4F82930D4
:1029B000C4F82500BBF80430A4F8233010989DF823
:1029C0003F30C4F81F00A377EB8963862B8AA38668
:1029D000B6F88C31E38696F87431C3F3420384F879
:1029E0003830304614F0D2FBA881E08021460B98A5
:1029F000D9F8044011F04EF9AB89E3801C23D4F8D8
:102A000000B02371B8F1000F40F0D18084F81C8031
:102A10002146584611F048F995F85B00B5F850800A
:102A2000B5F85240012100F007001CF04FFC44446F
:102A300004F2D514DFF8D481044483467148072199
:102A4000E4FB080131230024B360746068A3D3E978
:102A50000023F460FEF7A4FB20F07F4030616D6A34
:102A60000A9A7D1BD9F80C7040F2E24303FB02770F
:102A70000221224601200EF055FF504613F008FFB8
:102A800007F2B2470246A7EB0B07A7FB0801174660
:102A900057A3D3E90023FEF783FBCDF804A0D9F8B0
:102AA00008305949009120F07F48BA1C3A3BD2B215
:102AB00020464344012110F00FFB012800F08280E2
:102AC0009AF82430DB076AD4304614F05FFB4F4B92
:102AD000A5FB035A044646A3D3E9002328465146E2
:102AE000FEF75EFBD9F80830494A0792A3F13A098C
:102AF000484B069620F07F47A7FB0331E81A464B68
:102B0000059340F2D113089333694FF0000BCDE9E0
:102B100003B34FF0070303FB07116AEB01014FF406
:102B20007A720023FEF73CFB0534E4B2CDE9017074
:102B3000CDF800804B4622460121584610F0DEF9C0
:102B400010F0FD0F0CD0354A354936484FF4E97383
:102B500026F053FE404080F311884FF0030002DF5F
:102B60000122022110460EF0DDFE15B0BDE8F08F07
:102B7000C4F82B00988012E70022C4F82520A4F89E
:102B8000292017E7254A28492648F82326F035FE4C
:102B9000404080F311884FF0030002DFEEE600238F
:102BA000012200931846114610F054FA8CE76B7F0F
:102BB00043F040036B77281D1AF0A2FD4FF0010887
:102BC000E88323E711F03EF982453FF479AF134AD9
:102BD0001649144840F2792326F00FFE404080F356
:102BE00011884FF0030002DF6AE700BFAFF30080F7
:102BF0008D49FD1A0700000083DE1B437FC3C90116
:102C0000404B4C008C49FD1A59D1010000CA9A3B37
:102C100029D101008D49FD1A95D10100643B0300C3
:102C2000783603005030030014330300C03B030028
:102C30002DE9F04F8DB01F46BDF860300793CDE908
:102C40000501BDF868309DF85C90BDF864B0049350
:102C50000020164614F090F8002800F0658109F075
:102C600001080446404610F023FB0390B8F1000F22
:102C70006DD1169B03993A46404614F045FD002855
:102C800040F06381236A04F11C020892002B65D096
:102C9000D4F820A0DAF8005007F0010B9AF85A0097
:102CA000C0F3C00100F007001CF00EFBBAF8521090
:102CB000BAF8502000F2D5130A441344CC48CD4A48
:102CC0000721E3FB00211046C7A3D3E90023FEF749
:102CD00067FA20F07F40286130461BF0E3F994F852
:102CE00033306FF3410384F83330FF2384F83430FA
:102CF000002E00F01D81A9F10203012B40F2298171
:102D000094F84810089869F3420184F8481094F840
:102D100033106BF30001DDE9052384F833101699B5
:102D2000096861621699898821850499218600962F
:102D30000021FFF7B9F860641CF060FC002840F047
:102D400013812046FFF7DCF80DB0BDE8F08F0621B7
:102D50000EF08CFD00288CD11220F5E710F082FFD8
:102D60000990002800F0738114F004FA0546002849
:102D700000F06A8120300EF037FF05F11C0A0028B0
:102D800040F01D81032105F124001CF051F9079B3F
:102D9000D5F888006B854FF6FF73A5F82CB02B850E
:102DA000002800F0198105F17C0205F178010EF090
:102DB00069FDB5F8763023F4EF6323F0070343F49D
:102DC000887343F00103A5F8763095F88E304FF004
:102DD000000B23F0070385F88E300121C5F888B079
:102DE000A5F88CB0284615F0E9F8C5F82EB0A5F87E
:102DF00032B005F134001AF02DFC95F8393060F34B
:102E00000503012185F839300DF12F001CF010F970
:102E1000049B9DF82F20A5F88C31774B85F83BB0AB
:102E2000A3FB0213DB0803EB4303A2EB830295F839
:102E30003930A98DA5F88EB103F03F0385F83930FC
:102E400095F83C30A5F884B1053223F0030385F8EA
:102E50003A20079A85F83C3040F2E24B674B0BFB77
:102E600002FB4FF4C0225B44C5F88821881DB3FBE8
:102E7000FBF39AB28242A5F8862102DD063A521A85
:102E800092B2A5F88221284616F042FF59462846FC
:102E900016F0B6FF099BC5F85431002385F8503170
:102EA00014F026FC95F8942160F3020285F8942131
:102EB00014F024FC95F8942160F3C50285F8942160
:102EC00095F88021002363F3410285F8802105F104
:102ED000D40016F0A5FC95F89A21169907F0010B7D
:102EE0006BF3410285F89A213122AA600023169AD9
:102EF0006B60EB601268C5F8A12195F89A2189886A
:102F0000A5F8A51169F30002039985F89A210A68CA
:102F1000C5F89B218A88A5F89F21C4F820A0C5E99F
:102F200005332B70ED61B9E60C200DB0BDE8F08FD4
:102F30001BF0F8FC00283FF4DEAE16993846324606
:102F40001BF02AFA84F83400D5E60B200DB0BDE85A
:102F5000F08F00201BF0CAF894F8333043F00203DE
:102F6000C14684F83330CBE6256AEB6E63B1244A60
:102F70002449254840F21D4326F03FFC404080F3A1
:102F800011884FF0030002DF05F1600105F15C00DC
:102F90000EF07CFC064600283AD02F68EE66D7F883
:102FA0005451002D42D0284610F062FE384614F0ED
:102FB000E7F80023032023620DB0BDE8F08F104A2C
:102FC00012491148C12326F018FC404080F31188B3
:102FD0004FF0030002DFD5E605F18000C5F8880058
:102FE000E1E600BFAFF300808D49FD1A0700000045
:102FF00000CA9A3B8C49FD1AABAAAAAA7FC3C90191
:10300000F03B0300A834030050300300AC30030051
:10301000104A1149114840F21F4326F0EEFB404090
:1030200080F311884FF0030002DFB6E7094A0A492E
:103030000A4840F2264326F0E0FB404080F3118826
:103040004FF0030002DFAEE7099810F011FE0720F1
:103050007AE600BFF03B0300043603005030030063
:103060002DE9F04F04468DB090F81C80238D406A06
:10307000ADF82C30E307C8F3C0170E461546C8F369
:1030800040180A9000F10D810023A383B37C707C6B
:1030900013F001031CBFD4F81E30C4F82B3004F128
:1030A0002B0214BF638CC4F82B30FF28938004F1EB
:1030B000250904F11F0240F0E5800023BDF82C1023
:1030C0000A98C4F82530A9F80430A777C4F81F007F
:1030D00091803368D3F80090EB8963862B8AA386AE
:1030E000B9F83030E3861CF0D9FA84F838002F683C
:1030F000384614F04BF80021A881E080384616F0DD
:1031000093FED6F804A02068214610F0C3FDAB89D9
:10311000AAF806301C23DAF800408AF80430B8F127
:10312000000F40F0CC808AF81C805146204610F0F9
:10313000BBFDBB687A6895F85A00B5F80E80F56853
:10314000674C934238BF1346C0F3C00103F1090A2C
:1031500000F0070040F2E24303FB08F81CF0B4F86B
:10316000002202212D1A01200EF0DCFB484613F04C
:10317000D9FDA5FB044558A3D3E90023834629467E
:103180002046FEF70DF8CDF80490B368554900913C
:1031900020F07F490BF10402A3EB0A03D2B24B44A7
:1031A000012100200FF098FF10F0FD0F0CD04E4AC7
:1031B0004E494F4840F23D3326F01FFB404080F31C
:1031C00011884FF0030002DF4FF0000B5B46032233
:1031D0000121CDF800B058460FF03CFF384613F0FF
:1031E000D5FFB36806463E48A3EB0A0AA8FB0001D8
:1031F00039A3D3E90023FDF7D3FF19463D4B0893CC
:103200003D4B069340F26D33079709933B69804627
:10321000CDE904B3104600234FF47A72FDF7C0FFE6
:10322000364B0722A9FB0331CDE9028002FB0911CD
:10323000E01A65EB01014FF47A720023FDF7B0FF4D
:103240000536F6B2CDE90090534632460121584684
:103250000FF070FE10F0FD0F0CD0234A23492448D4
:1032600040F26E3326F0C9FA404080F311884FF0E7
:10327000030002DF0122022110460DB0BDE8F04F2D
:103280000EF050BB04F11E011AF042FCA37FBDF802
:103290002C200A98C4F825000233A377A9F804204B
:1032A00017E7114A1649124840F2BD2326F0A5FA45
:1032B000404080F311884FF0030002DFE4E66B7FAB
:1032C00043F040036B77281D1AF01AFA4FF00108FB
:1032D000E88328E7AFF300808D49FD1A070000005E
:1032E00000CA9A3B09D30100F03B03007836030083
:1032F000503003000DD301003DD301008D49FD1A6C
:1033000014330300000000000538C3B2052B0CD8AD
:1033100070B580B20D4613F041FF044618B190F924
:103320003930002B03DA002070BD0020704790F880
:1033300076000F4EC0F3C00100F007001BF0C4FF81
:103340000C4A00F2B5500721E0FB0621104606A307
:10335000D3E90023FDF724FF20F07F4028602046BA
:1033600070BD00BFAFF300808D49FD1A070000005B
:1033700000CA9A3B8C49FD1A2DE9F04F93B0FF2407
:103380000B930B1D0A930023CDE90E330546164619
:103390008DF837409B464FF0040A1F4699469846E1
:1033A00010AB0693564B0593564B03930FAB01930B
:1033B0000EAB00200093022310930490029033463A
:1033C0000DF1370229460FF0CBFE022815D0109BD5
:1033D000CBB9FF2C26D03368BB4223D0BAF1000F03
:1033E00040D00AF1FF3AFF245FFA8AFA8DF837409D
:1033F000D6E7294600200FF0FFFE109B022BF8D0E5
:10340000109B002BE5D0404A404941484FF4F773E8
:1034100026F0F3F9404080F311884FF0030002DFFB
:10342000FF2CD8D19DF83700FF2829D011A9FFF72C
:103430006BFF0028B4D0FF2C0E9F119B0AD0414691
:10344000384609930FF0F2FE0A9B03EB0902904203
:10345000099B17D8B8469DF837403768DDF83CB06F
:1034600099469DE72B49284A29484FF4FB7326F0DB
:10347000C4F9404080F311884FF0030002DFB0E749
:10348000FF2C34D024480721A9FB000301FB09319C
:1034900019A3D3E90023FDF783FE044600B14034AD
:1034A0001E4AABF57423A3F51073934216D81A483D
:1034B0000721A8FB000301FB08310FA3D3E9002378
:1034C000FDF76EFE164BA3FB0B2304EB93440B9B03
:1034D000044400201C6013B0BDE8F08F0BF1E87BC2
:1034E0000BF5D43B08F1FF380BF5A57BDFE76FF058
:1034F000090013B0BDE8F08F00CA9A3B000000003D
:1035000019D601001DD601003C3C0300803C03009D
:1035100050300300883C03008D49FD1ABFBDF07F89
:1035200083DE1B43000000002DE9F043C6684768B6
:1035300073683D491A68D0F80090A7F57423A3F585
:1035400010738B4283B0804607D907F1E87707F5FF
:10355000D43709F1FF3907F5A57773681169DD895B
:10356000CDF8049006F1100301AA0220FFF704FF32
:1035700000284ED10199A1EB09031B0237D408465C
:1035800049460FF053FE034628480721A3FB0002DB
:1035900001FB032122A3D3E90023FDF701FE3469D7
:1035A0000444002C346109DB40F2E24305FB03F3E1
:1035B000A3422FD2E41AA342FCD33461D8F80030DE
:1035C0001A48A3EB0903A3FB0002072101FB032117
:1035D00013A3D3E90023FDF7E3FD154BA3FB073746
:1035E000A0EB97402044306103B0BDE8F08348462B
:1035F0000FF01CFE03460D480721A3FB000201FB50
:10360000032107A3D3E90023FDF7CAFD3469241A77
:10361000C7E73469002CD1D103B0BDE8F08300BF07
:1036200000CA9A3B00000000BFBDF07F8D49FD1A23
:1036300083DE1B430000000010B5334C33490023E8
:1036400004F1FF3C14F83320072A02EB820E05D860
:1036500011F83E206FF3451201F83E201CF833208C
:103660006FF300020CF833200133082BEAD1284A0B
:10367000284C002313700A7863F300020A7091F853
:10368000282063F3000281F8282091F8502063F38A
:10369000000281F8502091F8782063F3000281F84D
:1036A000782091F8A02063F3000281F8A02091F81F
:1036B000C82063F3000281F8C82091F8F02063F37A
:1036C000000281F8F02091F8182163F3000281F8DC
:1036D0001821114A9FED0A7B1370104B83ED007B7C
:1036E0000F4B236028B1BDE810400E490E482DF065
:1036F00016BABDE810400C482DF01FBAAFF3008099
:10370000FFFFFFFFFFFFFFFFF5630020B462002013
:103710001E770020C46100201D770020D0350020D6
:10372000A0BB0D00D9E20100A03500200000000080
:103730002DE9F04F8FB00DF137010446DFF8E0A01E
:10374000DFF8E0800DF1360010F02CFB9DF83630EC
:103750009DF837B00B930FF067FDDAF80060A6FB19
:10376000085629A3D3E9002300278146314628467D
:10377000FDF716FDCDE90777069420F07F44DAF8CF
:103780000400234B0593A0FB08011FA3D3E90023EA
:10379000FDF706FD1F4B20F07F40A4FB03310722FD
:1037A00002FB0411CDE90370E81A66EB01014FF446
:1037B0007A720023FDF7F4FC0097CDE901404B46F7
:1037C0000B985A4603210FF099FB10F0FD0404D02A
:1037D0006FF08B000FB0BDE8F08F0F480F4A002349
:1037E00023F0FEF920B9DAF80C000FB0BDE8F08F35
:1037F0009DF837209DF836000094234603210FF0F2
:1038000029FC6FF07300E5E78D49FD1A0700000001
:1038100029EA01008D49FD1A68640020447B0B00F1
:103820008064002000CA9A3B38B50F4D04460FF063
:10383000FBFCA9680FF0FAFC696803460B48B3FB70
:10384000F4F4A1FB00011C4405A3D3E90023FDF718
:10385000A7FC20F07F40844294BF0020012038BDA7
:103860008D49FD1A070000008064002000CA9A3BC1
:10387000F0B5C468636883B00546002B63D11DF0C2
:10388000A9FC08201DF0CCFC002108461DF0BAFC64
:103890000022252108201DF0F9FC454B019301A8C9
:1038A0001DF0DCFC434940F25B601DF087FD237A8C
:1038B000C3F3420262F30613204623721CF012F98E
:1038C0001BF030F858BB637A9B071FD127682E681E
:1038D00038461BF097FC06446A6806F1090101208E
:1038E0001DF0C6FE1DF0B2FF204612F0DDFF811C68
:1038F0003246C9B238461BF093FC054670BB2046E1
:103900001BF01AFC88B9002003B0F0BD01201AF0AA
:103910007DFB4178821C00781DF04AFED6E7607A74
:1039200010F0030018BF0120F1E7234A234924487F
:1039300040F22C4325F061FF404080F311884FF0A6
:10394000030002DFDFE793F820309A0797D01D4885
:1039500021461DF0FDFB1DF0EBFCD4E7164A1A4989
:10396000174840F2144325F048FF184B0721A5FBE8
:10397000030301FB05310CA3D3E90023FDF710FC81
:1039800013490246134825F038FF404080F3118860
:103990004FF0030002DF104821461DF0D9FB1DF057
:1039A000C7FC6FF08B00AFE700CA9A3B0000000035
:1039B000D6BE898E5555550034400300BC310300F6
:1039C00050300300A9F30100D03003008D49FD1AE7
:1039D000E4400300B8400300B5F601000000000019
:1039E0002DE9F041C46894F91630002B8CB0C0F278
:1039F000FF80636805460E46002B40F0EE80A37DF5
:103A00006FF30003A3751DF0E5FB08201DF008FC13
:103A1000002108461DF0F6FB0022252108201DF09C
:103A200035FC012010F0C0FA0746002800F0C780DE
:103A300007F11C001DF054FC874B0B930BA81DF0E5
:103A40000DFC864940F25B601DF0B8FCA07DC0F320
:103A5000410025301BF0F6FB814821461DF078FB24
:103A6000A37D9B0603D46368002B00F0A5809620FD
:103A70001DF0F2FD00231A46194618461DF004FDFC
:103A80001AF050FF002838D1A37D13F0180F59D138
:103A9000D4F800802F6840461BF0B4FB07446A68E6
:103AA00007F1090100201DF0E3FD1DF0CFFE1DF020
:103AB0005BFD204613F044F9011DC9B240463A4669
:103AC0001BF0AEFB8046002840F0998016B9636A6F
:103AD000002B4ED1636843B1624B012202210020CA
:103AE0009D600DF055FF002835D120461BF024FBCA
:103AF000D0B900200CB0BDE8F081A07DC0F3C000BB
:103B00001AF084FA07460DF12B001AF083FD79783C
:103B10008046BA1C38781DF04BFD9DF82B00002222
:103B200041461DF063FFB3E74F4A5049504840F209
:103B30000B2325F062FE404080F311884FF0030014
:103B400002DFD6E701201AF061FA4178821C007882
:103B50001DF02EFD9CE7444A4649454840F20623A5
:103B600025F04BFE404080F311884FF0030002DF48
:103B7000BBE7414A0792414A059240F2F312009393
:103B80000892CDE90366CDE9016606943B463146CD
:103B900003220FF0B3F910F0FD0F9BD0324A3849E1
:103BA00033484FF4FA7325F028FE404080F3118823
:103BB0004FF0030002DF8DE71DF0C6FC60E72A4AE4
:103BC00030492B484FF4C57325F017FE404080F371
:103BD00011884FF0030002DF2AE7636893F8203072
:103BE000D90705D4636893F820309A077FF507AFAB
:103BF000254821461DF0ACFA1DF09AFB79E71A4AD8
:103C000022491B4840F2E51325F0F7FD204B072120
:103C1000A8FB030301FB08310DA3D3E90023FDF743
:103C2000BFFA1C4902461C4825F0E7FD404080F3DE
:103C300011884FF0030002DF184821461DF088FA72
:103C40001DF076FB6FF08B0054E700BFAFF30080F0
:103C500000CA9A3B00000000D6BE898E555555001B
:103C6000413D00006C0D0020F0400300BC3103001A
:103C700050300300C43103002D020200CD020200C7
:103C8000F433030080400300A9F30100D0300300A7
:103C90008D49FD1A3C410300B840030009010200B0
:103CA00038B504461CF0E0F9A37DA27DC3F34103BF
:103CB000013303F00303032B08BF002363F3420225
:103CC00014BF03F125002520A2751BF0BBFA636821
:103CD0000BB123694BB90FF0A7FAC11C00201DF0EE
:103CE0003BFDBDE838401DF0B1BD1DF063FD05464C
:103CF0000FF09AFAC11C00201DF02EFD1DF0A6FD4C
:103D00001DF058FD29460FF091FA0B4A0346072192
:103D1000A0FB020201FB032105A3D3E90023FDF769
:103D20003FFA23691B1A236138BD00BFAFF300803F
:103D300000CA9A3B000000008D49FD1A00000000F7
:103D40002DE9F0478AB004461DF024FBC0B250B9FB
:103D50001BF0D0FAC44821461DF0FAF90AB0BDE8BC
:103D6000F0471DF0E5BA1DF035FB05461DF054FC8B
:103D700007461DF05BFC81461DF092FE06461DF0D5
:103D800071FE82461DF00AFCEDB280461DF0EAFB92
:103D90001BF0B0FA002DDDD0012010F005F905462A
:103DA000002800F04D8117F0FF07F6B240F0E380E5
:103DB000002E40F0DA804FF0FF093A464B4631467C
:103DC00020461CF077FB0028C4D02A7F61680023BE
:103DD0008DF823305FFA88F702F00F03002900F016
:103DE000EC80616891F82010880700F1E680072BCD
:103DF000B0D0A17D090740F14381002B40F0C48081
:103E00006B7F063B1F2BA5D8042010F0CDF80028AF
:103E1000A0D01DF023FD636A074643B9238C40F20E
:103E2000712202FB03F3B0FBF3F203FB12072368DA
:103E30001A698E4B0721A2FB030301FB023188A301
:103E4000D3E90023FDF7ACF96FF44A7C00EB0C03D7
:103E5000BB42FFF47FAF1DF077FB484663681AF062
:103E6000BFFBE37D9907804640F1E581002800F023
:103E7000E281824601271DF0BBFACDE9027A09AB47
:103E8000049305F11E0301932B7FC3F380130146B6
:103E9000074600930022012320461CF025FB3846EC
:103EA0001DF024FA1DF06CFA002840F0CA81704819
:103EB00021461DF04DF9626892F8203043F001036D
:103EC00082F82030A37D43F08003A37510F08EF8B4
:103ED000172202714FF6FF72C28095F81CC082460D
:103EE0003B46CCF3401C00F11C0207F1200E1D687C
:103EF00058689968DF68D760103373451560506063
:103F0000916002F11002F2D11B6813609AF81C3024
:103F1000CAF808406CF345138AF81C301DF04AFCBF
:103F2000002ECAF81000099BCAF8143008BF4FF0E1
:103F3000FF098AF81990E37D13F0020303D0B8F16A
:103F4000000318BF01239AF81A2063F300028AF8CD
:103F50001A2010F04BF8CAF80C00DAF800005146AD
:103F60000AB0BDE8F04710F06FB85FFA8AF01AF0B7
:103F7000C5FB814621E7A07D5FFA89F1C0F3C0004F
:103F80001AF052FB814618E7012B40F089806A7FC6
:103F90000C2A7FF4DFAE2A7FCDF80090194600236B
:103FA0000193D20905F1240320461CF0D7F900281B
:103FB0007FF42AAF2B7F03F00F03002B70D16B7FB0
:103FC000052B7FF6C7AE252B3FF6C4AEA27D02F0CF
:103FD0002102202A09D16268002A00F0C180052B45
:103FE0007FF6B8AE252B3FF6B5AE63682BB12B7FBD
:103FF00003F00F03072B7FF4ADAE03209DF8238061
:104000000FF0D2FF054600283FF4A4AE0FF0EEFFFC
:104010004FF6FF73EB8005232B71002F3CD17F20DF
:10402000AB7E2876002E08BF4FF0FF0968F34103EE
:10403000286885F81990AB76294610F005F889E6CE
:104040000C4A0D490D4840F2C72325F0D6FB4040ED
:1040500080F311884FF0030002DFA4E6AFF3008085
:1040600000CA9A3B00000000210102008D49FD1AA0
:1040700011030200F04003008040030050300300B1
:10408000B9F1FF0F8DF82490C2F380184BD0227E37
:1040900091453FF4B2AE90E71DF070FAC0B2BFE7B1
:1040A000062B8CD04521D94011F0010139D1012BCB
:1040B00010D16B7F0C2B7FF44DAE2A7FCDF8009092
:1040C0000DF123030193D20905F1240320461CF0CE
:1040D00045F908BB2B7F03F00F03042B7FF43AAEA6
:1040E0006B7F063B1F2B3FF635AEA37DDB077FF5CD
:1040F00031AE1DF07DF92B7F0278C3F38013B3EB53
:10410000D21F7FF427AE0830062205F11E012DF0E4
:10411000F6F900287FF41EAE6B7F002B7FF465AFAD
:1041200018E66B7F5BE705F11E0A09AA5146404677
:104130001AF09AFB00283FF43DAFE37D03F0010342
:1041400043457FF437AF5146062204F108002DF0B5
:10415000D6F900287FF42EAF2B7F03F00F034CE637
:10416000962007921DF078FA079A10461DF044F940
:1041700003200FF019FF804600283FF4EBAD0FF04D
:1041800035FF4FF6FF73A8F80630052388F8043092
:10419000002F64D17F23002E88F8183014BF4B46BF
:1041A000FF2388F8193098F81A30D8F800006FF318
:1041B000410388F81A3041460FF046FF1DF018F908
:1041C00006460322337862F3030333702B7F327881
:1041D000C3F3801363F3C7120C2332704846737025
:1041E0001AF0FEF9E27D92073DD500283BD03178E8
:1041F000324641F0400102F8021B0168C6F8021085
:1042000083889380D5F81E30B3606B8CB3813046C1
:104210001DF06CF81DF0B4F8002835D11DF016FB28
:10422000A37D204843F001032146A3750AB0BDE8F1
:10423000F0471CF08DBFA77D04F1190AC7F3801762
:1042400019E6194A19491A4840F2A44325F0D5FA4B
:10425000404080F311884FF0030002DF27E61DF095
:104260008DF9C3B297E7A37D3278C3F3801363F36C
:104270008612334603F8022BD4F81920C6F8022020
:10428000B4F81D209A80BDE7074A084908484FF452
:10429000A56325F0B2FA404080F311884FF0030087
:1042A00002DFBBE735010200F04003008840030055
:1042B00050300300000000002DE9F041C468A289DD
:1042C0004FF6FF739A4282B000F0C78005461CF09B
:1042D0000FFA2B89628AE08A1A4492B21044637FF3
:1042E000A28280B2411CE1825E064FF00001618231
:1042F00004F1180100F18C8003F03F000B46A17F10
:10430000009004F11F0019F0B3F90646D4E90B231D
:104310001344D4E90D0200210244E1626163A16A01
:10432000A26394F872208B4228BF0B4612F004025D
:10433000236377D01CF04EFF08201CF071FF201D76
:104340001CF08CFF2389A17A40F25B6043EA0141B3
:104350001DF034F830461AF075FF214658481CF01D
:10436000F7FE96201DF078F994F85A2094F85B0037
:10437000C2F3C003002102F0070200F007001DF0A5
:1043800083F820461CF016FA27682E6838461AF083
:1043900039FF06446A6806F1090100201DF068F93A
:1043A00080461DF027FA00201DF03EFA236B94F89A
:1043B0005B0003F13002A36B00F00700012103EB67
:1043C00042051CF0A1FF4544054494F85B0000F051
:1043D0000700022824D004280CBF4FF4BC73282304
:1043E00001211D441CF092FF28441DF0F5F9A1891C
:1043F00005313246C9B238461AF012FF054698BB5D
:1044000020461AF099FED0B9002002B0BDE8F08134
:104410000A4603F03F03E18B19F076F9064675E78B
:104420001823DDE7D4E917010DF044FA002881D103
:1044300094F8723043F0040384F872307AE7214A2A
:104440002149224840F2551325F0D7F9404080F326
:1044500011884FF0030002DFD6E71D4821461CF00B
:1044600077FE1CF065FFCFE7164A1A49174840F25D
:104470004B1325F0C2F9184B0721A5FB030301FBE1
:1044800005310DA3D3E90023FCF78AFE1349024648
:10449000134825F0B2F9404080F311884FF0030033
:1044A00002DF104821461CF053FE1CF041FF6FF064
:1044B0008B00AAE7AFF3008000CA9A3B000000001F
:1044C0000D0A0200BC410300BC3103005030030060
:1044D000A9F30100D03003008D49FD1A10420300FA
:1044E000B840030085F30100F0B5C468A2894FF617
:1044F000FF739A4285B000F08B8005461CF0F8F8F7
:104500002B89628AE08A1A4492B21044637FA282A5
:1045100080B2411CE1825E064FF00001618204F12D
:1045200018015FD403F03F000B46A17F009004F117
:104530001F0019F09DF80646204603A91CF008FA52
:10454000039B94F872101A7861F3C3021A70039AED
:1045500094F872301178C3F3400363F38201117051
:104560001CF038FE08201CF05BFE201D1CF076FEBF
:104570002389A17A40F25B6043EA01411CF01EFFEF
:1045800030461AF05FFE039920461CF0B5F921462B
:1045900037481CF0DDFD96201DF05EF894F85B00B6
:1045A00000F007001CF028FF27682E6838461AF034
:1045B00029FE06446A6806F1090101201DF058F839
:1045C0001DF044F9A18905313246C9B238461AF0C6
:1045D00027FE054618BB20461AF0AEFD50B9002054
:1045E00005B0F0BD0A4603F03F03E18B19F08CF8EB
:1045F0000646A1E71F4A2049204840F2031325F050
:10460000FCF8404080F311884FF0030002DFE6E73A
:104610001B4821461CF09CFD1CF08AFEDFE7154A72
:1046200018491648F92325F0E8F8174B0721A5FB90
:10463000030301FB05310CA3D3E90023FCF7B0FD14
:1046400012490246124825F0D8F8404080F31188FC
:104650004FF0030002DF0F4821461CF079FD1CF0EB
:1046600067FE6FF08B00BBE700CA9A3B00000000BA
:10467000410802001C420300BC310300503003001B
:10468000A9F30100D03003008D49FD1A6C420300EC
:10469000B840030085F301002DE9F0472DED028BB2
:1046A0009FED498B4A4E84B004464FF02003EFF350
:1046B000118783F31288BFF36F8FD4F8C8508DB978
:1046C000022104F1E0002CF073F9002843D100230B
:1046D0008DED008B029304F1D00239463D4822F063
:1046E0005DFFE2E7D4F8CC202B68C4F8C8309542CF
:1046F00008BFC4F8CC30D4F8E03043F00203C4F86B
:10470000E030EB6823F0040343F00103EB606B68D7
:1047100087F31188BFF36F8F284698474FF0200327
:10472000EFF3118983F31288BFF36F8FEB6899075A
:1047300023F0010219D4EA60D4F8E03023F0020338
:10474000C4F8E03089F31188BFF36F8FDB05ACD478
:1047500022F004FEA9E704F1D80500220121284631
:104760002CF02CFB0028F8D1B1E7306823F00303CC
:10477000EB600028E0D00027D0F80080BA4600287F
:10478000DAD04268954201460BD1016897B9726848
:104790003160824200D1716040F808AB22F0FAF932
:1047A0003946B8F1000F0BD0D8F8002040460F462C
:1047B0009046E4E739607268824208BF7760EBE7B1
:1047C0004246F3E7AFF30080FFFFFFFFFFFFFFFF6D
:1047D000C474002035770020F8B510EE904A34F00C
:1047E00000472DED048B10EE103AB0EE609A0DD11B
:1047F00083F480035B0013F5000F40F2098230EE72
:10480000098AB0EE480ABDEC048BF8BD23F00040E5
:10481000B0F1FF4F02D8B7F1FF4F08D9B3F17E5F77
:10482000EDD184F48004640014F5000FE5E7002B5B
:1048300001462DDAB7F1974F0CD3B7F1FF4F2AD0CD
:104840000225B4F17C5F41D1002BC0F28F80B1EE24
:10485000C08AD6E7B7F17E5F31D3FA15C2F196026E
:1048600047FA02F505FA02F2BA423DD1B7F17E5F8E
:104870004AD1002C80F2D281B5EE400AF1EE10FA56
:1048800050D1D80FBDEC048BBDE8F84023F00EBD2D
:10489000B7F1FF4F3DD1B0F17E5F00F0B98108D98B
:1048A000DFED977A002CB4BFB0EE678AB0EE498A8C
:1048B000A7E7002C80F2AF81B1EE498AA1E7B4F1FD
:1048C000804F34D0B4F17C5F5CD0002523F04042AF
:1048D000B2F17E5FB0EEC08A3FD1002CBCBFB7EE14
:1048E000007A87EE088A29E0B7F17E5FC1D0002503
:1048F000B4F1804FEAD1B0F1BF4F1AD2B0F1D05F1E
:1049000029D920EE008A7CE705F00105C5F10205F2
:10491000EEE7B7F17E5FACD0B4F1804F4FF0000509
:10492000E9D08EE7B7EE007A87EE008A69E70025C6
:10493000E1E7B0F1FF4FB0EEC08A35D1002BBFF6F2
:1049400060AFA0F17E50284316D1BDEC048BBDE8CA
:10495000F84023F0B9BCB0EEC08A28BB002C1EDAA8
:10496000002B8FDA6B1E584258418BE7B0F1FF4F96
:10497000B0EEC08A40F05581012D7FF442AFB1EE18
:10498000488A3EE7B0F1FF4FB0EEC08A3FF439AF3E
:10499000B0F17E5FD9D000283FF433AFD5E7012DC9
:1049A00008BFB0EE408A2CE7DE0F013E55EA060252
:1049B000CBD0B7F19A4F40F24081524B984208D881
:1049C000002C0BDA0020BDEC048BBDE8F84023F08E
:1049D0005FBC4D4B984208D9002CF3DC0020BDECA5
:1049E000048BBDE8F84023F045BCB7EE007A38EE02
:1049F000478ADFED467ADFED469A3FA1D1E9000113
:104A000068EE278AFCF77CFB07EE900AB5EE007A89
:104A100048EE477AB6EE007A07EEC87A68EE087A72
:104A2000DFED3C6A27EE277AF0EE687A47EE667A89
:104A300068EE299A39EEA77A17EE103A23F47F63CD
:104A400023F00F0307EE103A77EE699A77EEE97AD2
:104A5000013D24F47F643543B7EE007A24F00F045F
:104A6000BFEE008A18BFB0EE478A07EE104A67EE25
:104A7000890A39EE477A07EE903A47EE270A07EEA1
:104A8000104A67EE877A30EEA77A17EE101A0029DF
:104A900021F000431ADDB3F1864F09D9B5EEC08A83
:104AA000F1EE10FA4CBF012000208CE70120E5E078
:104AB00036D1DFED196A37EE677A70EEA66AF4EE4A
:104AC000C76AF1EE10FAE9DC86232DE0134A93421F
:104AD00007D9B5EEC08AF1EE10FA4CBF01200020D4
:104AE0007DE71DD137EE677AB4EEE07AF1EE10FA89
:104AF000EADBEEE7AFF30080E13D55555555D53F74
:104B000000000000F3FF7F3F0700803F70A5EC36F8
:104B100000AAB83F3BAAB83F3CAA3833000016436E
:104B2000B3F17C5F6FD9DB157E3B4FF40000184179
:104B30000844C0F3C753A04A7F3B1A41024007EE26
:104B4000102AC0F3160040F40000C3F11703184107
:104B5000002977EEC77AB8BF404237EEA07ADFED82
:104B6000976ADFED975A9FED976A17EE103A23F494
:104B70007F6323F00F0307EE103A77EE677A67EE54
:104B8000266A70EEE70ADFED907A67EE277A9FEDEE
:104B90008F7A40EE877AB7EE000A36EEA77A77EE84
:104BA000666A77EEE67A67EE076A47EE277A16EED0
:104BB000A56ADFED875A46EE265A9FED866A15EE06
:104BC000A66ADFED855A46EE265AB0EE476A05EE34
:104BD000E66AF0EE006A67EE065A36EE666AC5EEE1
:104BE000866A76EEE77A77EEC77A30EE670A10EEDD
:104BF000103A03EBC053B3F5000F06DA23F0F4FAD2
:104C000020EE088AFDE50020A7E700EE103AF7E75E
:104C1000B7EE008AF5E59FED718AF2E5B0EE408AC5
:104C2000EFE5B0F17E5F3FF48CAE00283FF4B7AE05
:104C3000002D3FF48AAE0225002613F0FF4F08BF77
:104C40009FED677A674802BF68EE077A6FF0170337
:104C500017EE901A4FEAE15218BF00237F3A1A4428
:104C6000C1F31603834243F07E5106DD5E48834262
:104C70007FF71CAF0132A1F5000100205B4B03EB75
:104C80008003D3ED005A5A4B06EE101A75EE867A61
:104C9000F7EE006AC6EEA74A491041F0005101F54F
:104CA000802101EB405136EE657A07EE901A27EE2F
:104CB000245A15EE107A1F4006EE907A06EEE77A37
:104CC00077EEE57ADFED4B5A36EE676A65EE057AE8
:104CD00006EE667A9FED486A47EE865A9FED476A70
:104CE00005EEA76ADFED465A46EE275A9FED456A64
:104CF00005EEA76ADFED445A46EE275A27EE247ADE
:104D000036EE856A67EEA77A26EE076A05EEA76A91
:104D100066EEA64AF0EE085A74EEA57A77EE867A29
:104D200017EE901A194007EE901A77EEE55A27EE23
:104D3000277A75EEE45A66EEA76A36EE656A06EEE5
:104D4000057A9FED326A76EE877A17EE901A19404F
:104D500007EE901A77EEE66A27EE866A37EE667AF5
:104D6000DFED2B6A2B4967EEA67ADFED2B6A47EE63
:104D7000267A01EB800191ED007A77EE877A07EED3
:104D8000102A264A02EB8002D2ED005A76EE276AFC
:104D9000B8EEC77A76EEA56A76EE876A16EE902AA6
:104DA000134006EE903A36EEC77A37EE657A37EE64
:104DB000467A77EEC77A4BE6000080FF0072313FFB
:104DC0004CBB31330EEADD358CBEBF351872313F36
:104DD00055B38A38610B363BABAA2A3E000000006F
:104DE0000000804B71C41C00D6B35D00A4450300D5
:104DF00000F0FFFF55326C3E42F1533E05A38B3E5F
:104E0000ABAAAA3EB76DDB3E9A99193F0038763FB0
:104E1000A0C39D36944503004F38763F9C45030060
:104E2000014821F0B9BF00BFC8020020014821F0AD
:104E3000B3BF00BFB802002007B52BF0FCFF4FF452
:104E40007A72A0FB020302FB0131C00B074A40EA61
:104E50004140106000234FF400420548CDE9002393
:104E600022F07AFD002003B05DF804FB403A0020F8
:104E700018110020014B187800F0C2BADE7500202E
:104E8000044B1A78824202D01870FFF7F3BF00205B
:104E9000704700BFDE75002008B52BF0CCFF4FF443
:104EA0007A72A0FB020302FB0131114AC30B1268A4
:104EB00043EA41439B1A0F4A934214DD02F084FDFA
:104EC00020B1BDE808400120FFF7DABF0220FFF75C
:104ED000D7FF00F043FA002803DABDE8084000F0ED
:104EE00079BA24F097FC47F230529342E9DC08BDCE
:104EF000403A0020A0BB0D0008B52BF09CFF4FF4FA
:104F00007A72A0FB020302FB0131C00B044A40EAA3
:104F100041401060BDE808400020FFF7B1BF00BF6E
:104F2000403A0020014B1878704700BFDE75002022
:104F3000F8B5044610B900252846F8BD0378002BC3
:104F4000F9D00F4E0F4FBE420FD30D4EBE42F2D2DC
:104F500030682BF080FB30B1356821462868FCF7BB
:104F600089FA0028E8D00436F0E730682BF073FBAC
:104F700018B135682B68A342DED00436E3E700BFE2
:104F800098690300C469030070B5194C194D8CB0C1
:104F90000022002303A9204621F0B8FC08B10CB080
:104FA00070BD2B68059E5868DDE9031223F0B3FA43
:104FB0000028EDDBFF238DF81830B6FA86F35B0985
:104FC00007908DF820302BF036FF4FF47A72A0FB5B
:104FD000020302FB0131C00B40EA4140C90B8DE8DE
:104FE000030006ABCDE90A010FCB00F023FACFE7AF
:104FF000B81200201C3B00201FB50A4C2468A4688E
:1050000084420DD183F00103CDE9011203930648D8
:105010000022002301A921F023FC044821F0BCFE5A
:1050200004B010BD1C3B0020B81200200C3B002037
:105030001FB50023CDE90233044B8DF80C0001A805
:10504000019323F098FA05B05DF804FB581E0300A5
:105050000268034B9A420CBF08300020704700BF23
:10506000581E0300014B036032207047443A002071
:10507000044B1A68044B9A4214BF6FF012000020D0
:10508000704700BF1C3B0020441E030038B5044697
:1050900000282FD0194D2B68834229D053B198682E
:1050A00040B183685B6803B198472B68002198681A
:1050B00003F014F91249134B8C4214BFED21002167
:1050C0003222002023F041FA002812DBA0682C6075
:1050D00070B1012103F002F92B68986883680A49CE
:1050E0001B6898472B68986883689B6803B198474A
:1050F000002038BD6FF01200FBE700BF1C3B002012
:10510000441E0300443A0020F94F000038B505461C
:1051100048B90648FFF7BAFF041E02DB2846FFF72E
:1051200087FF204638BD6FF01504FAE7441E0300E0
:10513000F7B50C4615460D4901AA1E4624F01AFF84
:1051400068B1019B6BB9012C0DD1094F224639463C
:105150003046A847002802DD3878FFF7D7FF03B0B4
:10516000F0BD0020FBE76FF01500F8E79C48030056
:10517000901000200148FFF789BF00BF441E0300C4
:1051800008B50B480B492BF086FC0B4824F041FE78
:1051900018B10948012124F00FFE084A002342F803
:1051A000043B0133322BFAD1BDE80840FFF7E2BFE0
:1051B0000C3B0020894F000008190300443A0020EE
:1051C00030B51C4C04EB00148FB0606883683A2142
:1051D000DB68984758BB60686189836804AD1B69C8
:1051E0002A46984718BB95E803000123069307ABAE
:1051F00083E803006389ADF824302BF01CFE4FF4E4
:105200007A75A0FB053205FB0121DB0B43EA414324
:10521000C90BCDE90A31237B8DF830300EAB13E991
:105220000F008DE80F0006AB0FCB00F029F90FB08F
:1052300030BD00BFE802002010B5134CBFF35B8FF8
:1052400054E8002F22F0010144E800100028F7D1B3
:10525000BFF35B8FD20702D50020FFF7B1FFBFF38A
:105260005B8F54E8003F23F0020244E8002100294C
:10527000F7D1BFF35B8F9B0704D5BDE81040012039
:10528000FFF79EBF10BD00BF203B0020064901EB89
:105290000012506830B183689B68114608310BB129
:1052A000024A1847704700BFE8020020B1520000D0
:1052B00010B5104C0C1B102C1BD824112BF08BFAA2
:1052C00090B1BFF35B8F01230B4AA34052E8000F5C
:1052D000184342E800010029F8D1BFF35B8F07486B
:1052E000BDE8104021F058BD2046BDE81040FFF752
:1052F00067BF10BDF0020020203B0020D802002034
:1053000002289ABF024B03EB40000020704700BF09
:105310004C0F0020F8B50F4D0F4E761B07460C467C
:1053200005EBC105C6F3C706A64201DC00200CE070
:105330002A683B689A4209D13C716B6838461B6801
:10534000984718B1431E012BF0D9F8BD0134083538
:10535000EAE700BF485303009853030037B501A89C
:1053600021F02EF8194D019C00232B60182358437F
:1053700018380444019B9C4202D2002003B030BD87
:1053800020462BF068F9F0B1204624F00BFDD0B98F
:10539000204624F048FDB0B9204624F030FD0146F7
:1053A00088B9204602F09AFF20F0200378330AD013
:1053B00010F1860F07D00028E0DB2B68044A42F882
:1053C000234001332B60183CD4E700BF243B00206E
:1053D000FC10002070B5084D084E2C68013C002CD4
:1053E00002DA00232B6070BD56F82400012102F080
:1053F00075FF013CF3E700BF243B0020FC100020B8
:105400001FB50023CDE90233044B8DF80C0001A831
:10541000019323F0B0F805B05DF804FB5C1E0300B7
:105420000268034B9A420CBF08300020704700BF4F
:105430005C1E030084B030B589B00CAC84E80F006A
:10544000002301930CAD084B00930FCD02AC0FC4A9
:1054500095E8030084E80300684623F08CF809B05F
:10546000BDE8304004B07047601E03000268034B83
:105470009A420CBF08300020704700BF601E030036
:1054800084B030B58BB00EAC84E80F0000230193DC
:105490000EAD084B00930FCD02AC0FC495E80F0082
:1054A00084E80F00684623F066F80BB0BDE8304092
:1054B00004B07047641E03000268034B9A420CBF9D
:1054C00008300020704700BF641E03001FB5002392
:1054D000CDE90233044B8DF80C0001A8019323F0B1
:1054E0004AF805B05DF804FB681E030082B038B5C9
:1054F00004A981E80C000546114820F06DFF044620
:10550000A0B16B68012B0CD0022B05D0A3B9BDE86C
:10551000384002B023F045B823F04AF8002820466E
:10552000F5DCBDE8384002B023F034B86FF0040079
:10553000BDE8384002B070476FF08500F8E700BF63
:105540005A49030082B010B502A981E80C00044654
:105550000B4820F041FF78B16368022B04D0002093
:10556000BDE8104002B0704723F022F80028CCBFFD
:10557000002001206060F2E76FF00400F0E700BF58
:105580005A49030002460249024823F069B800BFA5
:10559000583B0020C41E030002460249024823F083
:1055A0005FB800BF403B0020B41E03000246024922
:1055B000024823F055B800BF283B0020A41E03007A
:1055C0000D4A52F82030013342F820300B4A0123B3
:1055D000117883400B430A490978DBB2137023EA40
:1055E00001030849084A097850780B43181A537088
:1055F00018BF0120704700BF843B0020E2750020E7
:10560000E0750020E1750020A810002010B5114AB7
:1056100052F82030002B19DD013B42F820300E4AB1
:105620002BB913780121814023EA010313700B4841
:105630000B4B047810780B4A5978127820EA040052
:1056400010435870401A18BF012010BD6FF01500AC
:10565000FBE700BF843B0020E2750020E0750020DE
:10566000A8100020E1750020044A0123127883402D
:10567000D8B213401B1A584258417047E2750020B7
:1056800010B5084B084A1870084B51781C78084B25
:105690001B7823EA040318435070401A18BF0120F6
:1056A00010BD00BFE1750020A8100020E0750020AB
:1056B000E2750020074B00221A70074B074A197841
:1056C000074B50781B7823EA0103181A537018BF50
:1056D00001207047E1750020E0750020A81000202F
:1056E000E2750020A0F1E003072B03D82030C0B200
:1056F000FFF766BF064B062213F8011F19B1013AE6
:10570000FAD10020704718700028F8D0F9E700BFE0
:10571000AA100020A0F1E003072B10B405D8203018
:105720005DF8044BC0B2FFF771BF0023064A19466B
:1057300012F8014F0133A04208BF1170062BF7D1B8
:1057400000205DF8044B7047AA100020A0F1E00390
:10575000072B03D82030C0B2FFF786BF064A0023CC
:1057600012F8011F884204D00133062BF8D1002023
:1057700070470120704700BFAA100020024B002292
:105780001A605A60704700BFA9100020B0F5805F12
:1057900010B510D20949002301EB4302B2F80140D1
:1057A00024B10133062BF7D1002010BDA2F801006F
:1057B0000028F6D0F8E76FF08500F6E79B10002090
:1057C00030B50023074C194604EB43020133B2F80D
:1057D0000150854204BF51709170062BF4D1002016
:1057E00030BD00BF9B100020024B00221A605A609F
:1057F0009A6070479C100020074A002302EB430187
:10580000B1F80110814204D00133062BF6D10020FB
:1058100070470120704700BF9B100020042810D85B
:10582000094A52F82030013342F82030074A012358
:10583000117883400B43DBB21370054A002053708C
:1058400070476FF015007047703B0020DF75002037
:1058500091100020042814D80B4A52F82030002B55
:105860000FDD013B42F82030084A2BB913780121A3
:10587000814023EA01031370054B12785A7000200F
:1058800070476FF015007047703B0020DF750020F7
:1058900091100020014B5880998070479110002092
:1058A000014B1881D980704791100020024B0022D3
:1058B0001A605A601A7270479210002000487047B0
:1058C000A8100020004870479B1000200048704737
:1058D0009110002082B02DE9F84308A90068109CBF
:1058E00081E80C00174622F03EFD056909982368FF
:1058F000666832384200F3B114183C4405EBC40E1C
:10590000DFF84890DEF80410314455F8346091FB1C
:10591000F9F833440E9E434436884FF4B47C09FBB7
:105920001811BCFBF6FC93FBFCF60CFB163345F898
:105930003430CEF8041002443A440C32002045F8CA
:105940002260BDE8F84302B0704700BF40420F003C
:1059500008B503460069034903632BF0E0F8002013
:1059600008BD00BF395A0000F8B52DED028B0C467A
:10597000B1F90410054631B99FED2D0A84ED000AF6
:10598000BDEC028BF8BDD4E9027657EA06004CD094
:10599000A888C01946F10006121A63EB0603012A13
:1059A00073F1000041DB4FF47A7607EE901AA2FB08
:1059B000062106FB0311E888D30B43EA41439842D2
:1059C0004FEAE1314FF000028A41B8EEE78A14DB7A
:1059D00098B16A7A8AB107EE100A07EE903AB8EEEB
:1059E000C70AF8EEE77A07EE102A87EE800AF8EE8B
:1059F000470AFEF7F1FE28EE008A2B7ADFED0D6AEA
:105A000007EE103AB8EEC77A27EE087AC7EE267A84
:105A100094ED007A77EE877ABDEEE70AB8EEC00A19
:105A200077EEC07AC4ED007AAAE7DFED017AEFE7FE
:105A30000000000000007A442DE9F0412DED028BBA
:105A4000076B84B07E6804462BF0F5F90D460246DC
:105A50000B46804604F138013046FFF785FF2B46A0
:105A6000424604F148013046F0EE408AFFF77CFFE1
:105A7000FDEEE87AB0EE408A17EE903AFDEEC07A7D
:105A80001BB217EE902A15B2EBB1DFED2F7A3288F8
:105A9000F4EEE78AF1EE10FA4CD9DFED2C7AF4EE51
:105AA000E78AF1EE10FA47F6FF7158BF0B46002067
:105AB0000021CDE90201B5FA85F149090091384686
:105AC00002211CF01BFADDB1DFED1F7A7288B4EE03
:105AD000E78AF1EE10FA2FD9DFED1C7AB4EEE78AEF
:105AE000F1EE10FA47F6FF7348BF2B460020002165
:105AF000CDE9020101210091384602211CF0FEF996
:105B0000B4F93C3013B9B4F94C30BBB1307AC003AE
:105B10004FF47A72002300F2E7300021FBF740FBDC
:105B200002460B46204604B0BDEC028BBDE8F041B6
:105B300021F09AB9064BBAE7054BD7E704B0BDECA4
:105B4000028BBDE8F08100BF000000C700FEFF46E9
:105B50000080FFFF30B593B0182200210CA82BF075
:105B60002FFB254D06AC00220CA90023284620F06F
:105B7000CDFE014600283DD1182220462BF020FB07
:105B80000C9B07932BF057F94FF47A72A0FB02039A
:105B900002FB01319DF834308DF82830C00B9DF8A0
:105BA000443040EA4140C90B13F00102CDE908013D
:105BB00018BF0122049208AB0FCB8DE80F000EA88E
:105BC00094E80C0022F025FC119B012BCBD9C3F3E8
:105BD0005E044FF4004540F2E73000214FF47A7242
:105BE0000023E5FB0401FBF7DBFA02460B46034802
:105BF00021F03AF913B030BDE81200200000002077
:105C000030B58BB001AC84E80E0042680492027C8F
:105C10008DF8142094E8070006AD85E80B000F9A74
:105C20009DF8383043EA42030993094800220023D3
:105C300004A920F015FE002804DB06482AF07BFFAB
:105C400010B100200BB030BD0248FFF783FFF8E72A
:105C5000E81200200000002070B50025064605600F
:105C600000F01AFC044678B101F0E2FE30B900F011
:105C7000E5FC012370603370304670BD064B1B7825
:105C8000012BF4D02846F5E701F0D2FE0028EED033
:105C900023462046EEE700BFE375002008B5094B18
:105CA0001B7823B1012B06D06FF0850008BDBDE83D
:105CB000084023F0EBB9FFF701FEBDE808400130D2
:105CC00000F02EBEEC3B002008B5094B1B7823B139
:105CD000012B06D06FF0850008BDBDE8084023F019
:105CE000DDB9FFF7EFFDBDE80840013000F03EBE32
:105CF000EC3B002037B508490848094D6C462AF0AE
:105D00000EFF2046FFF7A8FF94E8030085E8030094
:105D1000002003B030BD00BF255D0000B01600209C
:105D2000EC3B002002490348012203F04FBA00BFB8
:105D3000E3750020BF49030082B00DF1080C0CE9A7
:105D4000030019469DF8003010461BB1012B05D009
:105D5000054A00E0054A02B021F0D6BE019B044A84
:105D600002B021F0D1BE00BFDE490300D3490300D9
:105D7000D749030008B5094B1B7823B1012B06D086
:105D80006FF0850008BDBDE8084023F08FB9FFF72C
:105D90009DFDBDE80840013000F010BEEC3B002046
:105DA00030B589B001AD0F4C2846FFF755FF94E898
:105DB0000C0095E8030022F0D6FE80B922F0FAFE2E
:105DC00095E803000A2305AA84E80300FFF7B4FF5F
:105DD00094E8030003AB83E8030000F023F809B064
:105DE00030BD00BFEC3B002070B50C4615460B499A
:105DF00000221E4624F0BEF808B9002070BD012C18
:105E000008D1074922463046A8470028F6DDFFF7AB
:105E1000C7FFF2E76FF01500F0E700BFC9490300C4
:105E2000E37500207FB56B4683E8030093E8030029
:105E3000002206AB03E90300039202A8034A029280
:105E400022F099FB07B05DF804FB00BF681F030058
:105E500002281FB530D830BB11B9002004B010BDE6
:105E6000174B1A68012383401343154C9A42236051
:105E7000F3D08DF800008DF801102AF0DCFF4FF40C
:105E80007A72A0FB020302FB0131C00B40EA4140E1
:105E9000C90BCDE9020104AB13E90F0004B0BDE862
:105EA000104000F015B9064B1A680029DAD1012319
:105EB000834022EA0303D8E76FF01500CEE700BF66
:105EC000BC3C0020014B196822F0D1BEBC3C002034
:105ED000312937B504460D4602D9002003B030BD44
:105EE0000228FAD801A8FFF7BDF80028F5DB8542A3
:105EF000F3DA019B53F82530312BEED84FF41672AC
:105F000002FB04F00C2202FB0300014B1844E5E7FE
:105F1000741F03002DE9F74FDDE90CABDFF84C905F
:105F200007460C4615461AB10F4B1B6849F821303D
:105F300002265FFA86F859F82410404622F097FEB0
:105F400030B9013EF5D26FF0850003B0BDE8F08FA7
:105F5000CDE900AB2B4622464146384622F097FE5B
:105F60000028F2DDEDE700BFBC3C0020F43B002040
:105F70002DE9F04F2DED028B9FB0544ECDE90A1262
:105F80009DED2A8B00EB4003804606EB830602253D
:105F90004FF0000A00F132090DF1680B306B22F06E
:105FA000E2F9002800F0878000234046CDE9103355
:105FB000FFF7A6F9CDE90C598DED0E8B0DF1300CE4
:105FC0000446BCE80F0012AF0FC79CE8030087E847
:105FD0000300CDE912598DED148B0DF1480EBEE88A
:105FE0000F000DF1600CACE80F0097E803008CE89F
:105FF0000300306B22F0B7F900285CD083681F697A
:10600000002F58D006F1300309930A9B06930B9B8F
:10601000CDE904439BE80F008DE80F00DDE918236C
:106020000998B847002846DBBAF1000F2FD1E8B233
:10603000FFF748FF80F00107FFB2CDE90C598DED65
:106040000E8B0DF1300CBCE80F0012AC0FC49CE8B5
:106050000300FFB284E80300CDE912598DED148BE3
:106060000DF1480EBEE80F000DF1600CACE80F001A
:1060700094E803008CE80300306B22F074F940B917
:106080006FF015001FB0BDEC028BBDE8F08F01274B
:10609000D3E783685C6914B96FF08500F2E7049771
:1060A0009BE80F008DE80F00DDE918230998A04751
:1060B000002808D0E6DB013D6B1CA6F118067FF432
:1060C0006DAF0020DEE74FF0010AF4E7280300205F
:1060D00010B58AB06C4684E80F0000230593064B88
:1060E000049394E80F000AAC04E90F0004A822F01E
:1060F00042FA0AB010BD00BF7C26030084B030B560
:1061000089B00CAC84E80F00002301930CAD084B60
:1061100000930FCD02AC0FC495E8030084E80300A0
:10612000684622F028FA09B0BDE8304004B0704754
:10613000842603000268034B9A420CBF08300020FB
:10614000704700BF842603007FB56B4683E80300D9
:1061500093E80300002206AB03E90300039202A8C0
:10616000034A029222F007FA07B05DF804FB00BF71
:1061700088260300074B1A78074B82B0162102FBD2
:10618000013301938DF8002002AB13E9030002B044
:10619000FFF7DABFEB750020EC75002002490348D9
:1061A000012203F013B800BFEB7500207C4A030006
:1061B00008B5002005F034FA002802DA10F1780F53
:1061C00007D1044803F092F8034804492AF0A7FCD9
:1061D000002008BDBC030020E01600209D610000E7
:1061E00070B503788AB004460E4607AD032B20D85D
:1061F000DFE803F002191B1D11492846FBF744F99B
:10620000059563780493A3780393E3780293237945
:10621000019363790093A3790A4A1E21304621F045
:1062200073FC0AB070BD0849E7E70849E5E708498B
:10623000E3E7084A0A21284621F066FCE0E700BFB0
:106240008F4A0300B84A0300964A03009D4A0300A0
:10625000A74A0300B14A030010B592B0044626F0E5
:10626000A5FA01A9FFF7BCFF09A9204607F090F89D
:106270009DF82530012B13D10A4820F08DFD2046D2
:1062800026F094FA084B19780F22162313FB0123EA
:106290000649194422F077FD10B9054820F07CFD2D
:1062A00012B010BDD4030020EB750020EC75002067
:1062B000E40300202DE9F0418AB00D461646284936
:1062C0006A4604461F4623F055FEF8B10098E8B12F
:1062D0000A2201A921F0DCFC019B1B7803BB162DCF
:1062E0001ED1C4B2042C1BD8DFF888806C432A4628
:1062F00008EB04013846B047002813DD04F10F0015
:1063000002A94044FFF76CFF00200BE015496A46E4
:10631000204623F02FFE78B1009B6BB9012D04D0ED
:106320006FF015000AB0BDE8F0810F492A463846E3
:10633000B04700EAE070F5E70C496A46204623F0D2
:1063400019FE0028E0D000980028DDD0072DE7D105
:106350002BF0D1F80028D7D105492A46E7E700BF3E
:10636000DB4A0300804A0300EB750020E44A030087
:10637000E4750020EC750020042808B50CD80F2225
:10638000162313FB002305480549184422F0FBFCA3
:10639000B0FA80F0400908BD0020FCE7EC75002051
:1063A000E54E0300014B1878FFF7E6BFEB750020C0
:1063B0002DE9F0410C468EB005464FF0160806A9AF
:1063C000204615FB08F7FFF70BFF0D4E216807F17C
:1063D0000F029319B150A2889A80A2799A71094943
:1063E0002A4601A821F0BCFB4246F11901A802F09F
:1063F000EDFE054820F0D0FC0EB0BDE8F08100BFF6
:10640000EC750020F94A0300E403002038B50F239F
:10641000162414FB0034094B09491C440546204648
:1064200022F0B1FC48B12146002004F0DDFF2846EF
:106430000349BDE83840FFF7BBBF38BDEC7500200D
:10644000E54E030010B504288AB002D900200AB036
:1064500010BD0F23162414FB00340D4B0D491C44B2
:10646000204622F090FC0028F0D02146002006F0C3
:106470000FFF04460028E9D001A906F089FF204655
:1064800026F076F89DF82400831E58425841DEE736
:10649000EC750020E54E0300014B1878FFF7D2BFE2
:1064A000EB750020F0B58DB0FFF77CFF98B9FFF7D2
:1064B000F3FF80F001035B00DBB2214D2A7803EB90
:1064C0000213112B09DC022B2DD0102B23D000241A
:1064D00020460DB0F0BD0223EFE7202B1BD0122B7E
:1064E000F5D105F08BFE00232B7004460028EFD178
:1064F000144F0FCF02AE0FC63B681349336003221F
:106500000094234602A805F047FE04460028DFD188
:1065100002232B70DBE705F071FE00232B7004468D
:106520000028D4D0D4E7074E0FCE07AC0FC4336891
:106530002360002304490093032207A8E3E700BF78
:106540005A760020301C0300F403002030B593B0CD
:10655000054626F02BF901A90446FFF741FE09A9DB
:10656000284606F015FF9DF82530012B05D1FFF7D1
:1065700019FF214618B904F037FF13B030BD034BA3
:106580001878FFF715FFFFF78DFFF6E7EB75002092
:1065900030B593B00D4609A9044606F0F9FE9DF802
:1065A0002530012B0BD1204626F000F901A9FFF779
:1065B00017FE0E4B00221A701DB1FFF773FF13B0C8
:1065C00030BDFFF76FFF204626F0F0F8084B197832
:1065D0000F22162313FB01230649194422F0D3FB93
:1065E0000028ECD1044820F0D7FBE8E75A760020D9
:1065F000EB750020EC750020E403002008B5064888
:1066000006F020FE054807F01BF9054807F032F9AF
:10661000FFF748FF002008BD9C03002080030020F6
:106620007003002008B5044B1878FFF7EFFEBDE8B3
:106630000840FFF737BF00BFEB750020014B18780B
:10664000704700BFEB750020042808B510D80A4B2E
:106650001A7882420AD018704FF4F01200230748CB
:1066600020F036FCFFF71EFFFFF784FD002008BD79
:106670006FF02100FBE700BFEB750020E016002063
:10668000054B187805230130B0FBF3F303EB8303CC
:10669000C01AC0B2FFF7D8BFEB750020054B1878C1
:1066A00005230430B0FBF3F303EB8303C01AC0B23D
:1066B000FFF7CABFEB750020042838B51DD80F239B
:1066C000162414FB00340E4B0E491C44204622F0C5
:1066D0005AFB18B96FF01204204638BD214600203D
:1066E00006F0D6FD05460028F4D0132126F060F808
:1066F0000446284625F03CFFEEE76FF02104EBE767
:10670000EC750020E54E030010B50A4B0A491A78D3
:1067100016240F2314FB0234084B1C44204622F09D
:1067200032FB28B121460020BDE8104006F0B0BD84
:1067300010BD00BFEB750020E54E0300EC75002096
:1067400070B5164D90B004460146284622F01BFB5A
:10675000E8B108A92846FFF743FD1149284622F071
:1067600012FB0646B0B969462046FFF739FD23689B
:106770002B60A388AB80A3790A49AB71324608A885
:1067800021F0EEF90722214608A802F01FFD0020A3
:1067900010B070BD6FF00B00FAE700BFE475002089
:1067A000E54E0300094B03001FB5B0240294044CCE
:1067B0000194BDF81840009427F000FC04B010BD0F
:1067C000414B030007B5064B0093064906480523D5
:1067D0004FF4407220F0E6FA002003B05DF804FBAD
:1067E000A42603003877002010170020F0B5164EBD
:1067F000164F89B0002200236946304620F086F803
:10680000054608B109B0F0BDFFF77EFF0446002839
:10681000F8D01822294602A82AF0D2FC08230DEB52
:10682000030120460397CDF810D0ADF8143008F0DE
:10683000D5FE013003D10221204625F03DFF204640
:1068400025F096FED6E700BF48130020102703006E
:106850002DE9F041164FDFF85C808AB001AE0022CE
:1068600000233146384620F051F8054610B10AB0F1
:10687000BDE8F081FFF748FF04460028F7D0182252
:10688000294604A82AF09CFC0C2304A92046CDE943
:106890000586ADF81C3008F0A1FE013003D10221BD
:1068A000204625F009FF204625F062FED7E700BF0D
:1068B00018130020602703002DE9F041164FDFF880
:1068C0005C808AB001AE002200233146384620F0B9
:1068D0001DF8054610B10AB0BDE8F081FFF714FFBE
:1068E00004460028F7D01822294604A82AF068FC9C
:1068F000092304A92046CDE90586ADF81C3008F02F
:106900006DFE013003D10221204625F0D5FE204640
:1069100025F02EFED7E700BF78130020B027030034
:1069200037B5054640F6CD42014600230C481FF01E
:1069300097FF044678B110F10B0F09D10022002314
:10694000694607481FF0E2FF2846FFF7E9FF0446C3
:10695000204603B030BD034903482AF0C9F8F7E7E1
:10696000481300202C0400201017002030B50546E5
:1069700085B040F6CD42014600230D481FF070FF60
:10698000044678B110F10B0F09D10022002301A9B0
:1069900007481FF0BBFF2846FFF7E8FF04462046E4
:1069A00005B030BD034904482AF0A2F8F7E700BF5C
:1069B000181300201C0400201017002030B50546D5
:1069C00085B040F6CD42014600230D481FF048FF38
:1069D000044678B110F10B0F09D10022002301A960
:1069E00007481FF093FF2846FFF7E8FF04462046BC
:1069F00005B030BD034904482AF07AF8F7E700BF34
:106A0000781300200C040020101700201FB500236D
:106A1000CDE90233044B8DF80C0001A8019321F05D
:106A2000AAFD05B05DF804FB2C2803007FB5002308
:106A3000CDE90433044BADF8140003A8039321F00F
:106A40009AFD07B05DF804FB282803000268034B99
:106A50009A420CBF08300020704700BF282803006E
:106A600008B501F057F8BDE8084001492AF040B8E0
:106A70005005002007B5084829F0EDFD48B14FF456
:106A8000F0120023CDE9002304480022002320F067
:106A900063FF03B05DF804FB381903008811002080
:106AA00008B5FEF7BDFC10B96FF0850008BDFEF714
:106AB00039FA38B10138C0B20128F5D803482AF0B4
:106AC00001FA01E0FFF7D6FF0020EFE78811002070
:106AD00037B5104CA5682D21EB6820469847B8B90A
