:1010000088370020FD7D0000F7260100D17D00001B
:10101000D17D0000D17D0000D17D000000000000E6
:10102000000000000000000000000000117F000030
:10103000D17D0000000000008D7E0000D17D000009
:101040002581000025810000258100002581000008
:1010500025810000258100002581000025810000F8
:1010600025810000258100002581000025810000E8
:1010700025810000258100002581000025810000D8
:1010800025810000258100002581000025810000C8
:1010900025810000258100002581000025810000B8
:1010A00025810000258100002581000025810000A8
:1010B0002581000025810000258100002581000098
:1010C0002581000025810000258100002581000088
:1010D0002581000025810000258100002581000078
:1010E0002581000025810000258100002581000068
:1010F0002581000025810000258100002581000058
:1011000090F800F06DE9024520F007016FF0000C47
:1011100010F0070491F820F040F049804FF00004EF
:101120006FF00700D1E9002391F840F000F10800CA
:1011300082FA4CF2A4FA8CF283FA4CF3A2FA8CF302
:101140004BBBD1E9022382FA4CF200F10800A4FA69
:101150008CF283FA4CF3A2FA8CF3E3B9D1E90423BD
:1011600082FA4CF200F10800A4FA8CF283FA4CF3F4
:10117000A2FA8CF37BB9D1E9062301F1200182FAAE
:101180004CF200F10800A4FA8CF283FA4CF3A2FAB4
:101190008CF3002BC6D0002A04BF04301A4612BAC2
:1011A000B2FA82F2FDE8024500EBD2007047D1E9C5
:1011B000002304F00305C4F100004FEAC50514F054
:1011C000040F91F840F00CFA05F562EA05021CBF25
:1011D00063EA050362464FF00004A9E7000000003F
:1011E000A2EB0300704700BF02780B78012A28BFEA
:1011F0009A42F5D16DE9044540EA0104CDE9026760
:101200006FF0000C4FEA447212B380EA010414F04C
:10121000070F6AD100F0070420F0070004F003056F
:1012200021F007014FEAC505F0E8042314F0040F8C
:10123000F1E804670CFA05F462EA040266EA0406BF
:101240000AD063EA0403624667EA0407664603E0DD
:10125000F0E80423F1E8046782FA4CF582EA060418
:10126000A4FA8CF46CBB83FA4CF583EA0705A5FA63
:101270008CF595B950E9022351E9026782FA4CF5E1
:1012800082EA0604A4FA8CF483FA4CF583EA070593
:10129000A5FA8CF52543DBD09CB92DBAB5FA85F4B7
:1012A00024F0070427FA04F1DDE9026723FA04F3C6
:1012B00003F0FF0001F0FF01FDE80445A0EB010091
:1012C000704724BAB4FA84F424F0070426FA04F12F
:1012D000DDE9026722FA04F202F0FF0001F0FF01EB
:1012E000FDE80445A0EB0100704714F0030F3CD16A
:1012F00010F0030428D150F8082B51F8083B82FA6B
:101300004CF582EA0305A5FA8CF55DB950F8042C7A
:1013100051F8043C82FA4CF582EA0305A5FA8CF5F3
:10132000002DE8D02DBAB5FA85F424F0070423FA8D
:1013300004F122FA04F202F0FF0001F0FF01FDE8DF
:101340000445A0EB010070474FEAC40420F00300FD
:1013500050F8082B21F0030151F8083B0CFA04F473
:1013600062EA040263EA0403C9E710F003041AD036
:10137000A1EB040120F00300E40750F8042B06D091
:101380000FD28B785FFAA2F4E41A06D12BB1CB7896
:101390005FFAB2F4E41A00D11BB920465DF8104B95
:1013A000704701F1040150F8042BCC0721F0030130
:1013B00051F8043B48D824D222F07F4482FA4CF5FD
:1013C00094EA1325A5FA8CF50AD165B951F8043BC6
:1013D00084EA0204B4EB036F0ED150F8042BEBE760
:1013E0004FEA132355E035F07F454DD10878FDE8ED
:1013F0000445C0F1000070474FEA126203F0FF039A
:1014000047E002EA1C4482FA4CF594EA1345A5FA37
:101410008CF50AD165B951F8043B84EA0204B4EBB7
:10142000034F0CD150F8042BEBE74FEA134330E0A5
:1014300015EA1C4528D10B884FEA124229E04FEAF1
:10144000124203EA1C4324E002F0FF0482FA4CF546
:1014500094EA1365A5FA8CF50AD165B951F8043BF5
:1014600084EA0204B4EB032F09D150F8042BEBE714
:101470004FEA13630DE015F0FF0F05D10B684FEA3B
:10148000122223F07F4304E04FF00000FDE8044502
:10149000704712BA1BBA82FA4CF482EA0304A4FA27
:1014A0008CF5B5FA85F402FA04F203FA04F34FEA74
:1014B0001260FDE80445A0EB1360704700000000D7
:1014C00001F0FF01102A2BDB10F0070F08D010F8F5
:1014D000013B013A8B422DD010F0070F42B3F6D1F9
:1014E000F0B441EA012141EA014122F007047FF012
:1014F00000070023F0E80256083C85EA010586EA69
:10150000010685FA47F5A3FA87F586FA47F6A5FAA4
:1015100087F68EB9EED1F0BC01F0FF0102F00702B0
:1015200032B110F8013B013A83EA010313B1F8D15B
:101530000020704701387047002D06BF354603383C
:10154000073815F0010F07D1013015F4807F02BF75
:10155000013015F4C03F0130F0BC0138704700BFC6
:1015600081F0004102E000BF83F0004330B54FEA54
:1015700041044FEA430594EA050F08BF90EA020FC1
:101580001FBF54EA000C55EA020C7FEA645C7FEA54
:10159000655C00F0E2804FEA5454D4EB5555B8BF77
:1015A0006D420CDD2C4480EA020281EA030382EAE8
:1015B000000083EA010180EA020281EA0303362D7A
:1015C00088BF30BD11F0004F4FEA01314FF4801C4D
:1015D0004CEA113102D0404261EB410113F0004F5F
:1015E0004FEA03334CEA133302D0524263EB430316
:1015F00094EA050F00F0A780A4F10104D5F1200EB4
:101600000DDB02FA0EFC22FA05F2801841F100010E
:1016100003FA0EF2801843FA05F359410EE0A5F1E2
:1016200020050EF1200E012A03FA0EFC28BF4CF013
:10163000020C43FA05F3C01851EBE37101F00045C9
:1016400007D54FF0000EDCF1000C7EEB00006EEBD6
:101650000101B1F5801F1BD3B1F5001F0CD3490860
:101660005FEA30004FEA3C0C04F101044FEA4452B7
:1016700012F5800F80F09A80BCF1004F08BF5FEA3E
:10168000500C50F1000041EB045141EA050130BD1E
:101690005FEA4C0C404141EB0101013C28BFB1F530
:1016A000801FE9D291F0000F04BF01460020B1FA7B
:1016B00081F308BF2033A3F10B03B3F120020CDA4E
:1016C0000C3208DD02F1140CC2F10C0201FA0CF02C
:1016D00021FA02F10CE002F11402D8BFC2F1200C91
:1016E00001FA02F120FA0CFCDCBF41EA0C01904047
:1016F000E41AA2BF01EB0451294330BD6FEA040490
:101700001F3C1CDA0C340EDC04F11404C4F120027A
:1017100020FA04F001FA02F340EA030021FA04F38C
:1017200045EA030130BDC4F10C04C4F1200220FAE3
:1017300002F001FA04F340EA0300294630BD21FA21
:1017400004F0294630BD94F0000F83F4801306BFE7
:1017500081F480110134013D4EE77FEA645C18BFDB
:101760007FEA655C29D094EA050F08BF90EA020F72
:1017700005D054EA000C04BF1946104630BD91EA6A
:10178000030F1EBF0021002030BD5FEA545C05D16D
:101790004000494128BF41F0004130BD14F58004AC
:1017A0003CBF01F5801130BD01F0004545F0FE4120
:1017B00041F470014FF0000030BD7FEA645C1ABF55
:1017C000194610467FEA655C1CBF0B46024650EA8C
:1017D000013406BF52EA033591EA030F41F40021B8
:1017E00030BD00BF90F0000F04BF0021704730B53E
:1017F0004FF4806404F132044FF000054FF0000113
:1018000050E700BF90F0000F04BF0021704730B5D3
:101810004FF4806404F1320410F0004548BF4042A8
:101820004FF000013EE700BF42004FEAE2014FEAFD
:1018300031014FEA02701FBF12F07F4393F07F4FD8
:1018400081F06051704732F07F4208BF704793F0DB
:101850007F4F04BF41F40021704730B54FF46074EE
:1018600001F0004521F000411CE700BF50EA0102F1
:1018700008BF704730B54FF000050AE050EA01029A
:1018800008BF704730B511F0004502D5404261EB0A
:1018900041014FF4806404F132045FEA915C3FF44B
:1018A000D8AE4FF003025FEADC0C18BF03325FEAE8
:1018B000DC0C18BF033202EBDC02C2F1200300FA99
:1018C00003FC20FA02F001FA03FE40EA0E0021FABE
:1018D00002F11444BDE600BF70B54FF0FF0C4CF4AC
:1018E000E06C1CEA11541DBF1CEA135594EA0C0F5E
:1018F00095EA0C0F00F0DEF82C4481EA030621EA99
:101900004C5123EA4C5350EA013518BF52EA0335D3
:1019100041F4801143F4801338D0A0FB02CE4FF085
:101920000005E1FB02E506F00042E0FB03E54FF0B5
:101930000006E1FB03569CF0000F18BF4EF0010EAD
:10194000A4F1FF04B6F5007F64F5407404D25FEAA9
:101950004E0E6D4146EB060642EAC62141EA55515C
:101960004FEAC52040EA5E504FEACE2EB4F1FD0C9E
:1019700088BFBCF5E06F1ED8BEF1004F08BF5FEA1C
:10198000500E50F1000041EB045170BD06F00046CE
:1019900046EA010140EA020081EA0301B4EB5C047B
:1019A000C2BFD4EB0C0541EA045170BD41F4801173
:1019B0004FF0000E013C00F3AB8014F1360FDEBF98
:1019C000002001F0004170BDC4F10004203C35DA74
:1019D0000C341BDC04F11404C4F1200500FA05F3F7
:1019E00020FA04F001FA05F240EA020001F0004298
:1019F00021F0004110EBD37021FA04F642EB06010E
:101A00005EEA430E08BF20EAD37070BDC4F10C0437
:101A1000C4F1200500FA04F320FA05F001FA04F2FB
:101A200040EA020001F0004110EBD37041F10001E7
:101A30005EEA430E08BF20EAD37070BDC4F12005F2
:101A400000FA05F24EEA020E20FA04F301FA05F25A
:101A500043EA020321FA04F001F0004121FA04F202
:101A600020EA020000EBD3705EEA430E08BF20EAD2
:101A7000D37070BD94F0000F0FD101F0004640000C
:101A800041EB010111F4801F08BF013CF7D041EA8E
:101A9000060195F0000F18BF704703F00046520092
:101AA00043EB030313F4801F08BF013DF7D043EA63
:101AB0000603704794EA0C0F0CEA135518BF95EA19
:101AC0000C0F0CD050EA410618BF52EA4306D1D1A0
:101AD00081EA030101F000414FF0000070BD50EABF
:101AE000410606BF1046194652EA430619D094EA49
:101AF0000C0F02D150EA013613D195EA0C0F05D133
:101B000052EA03361CBF104619460AD181EA030186
:101B100001F0004141F0FE4141F470014FF000003E
:101B200070BD41F0FE4141F4780170BD70B54FF0D9
:101B3000FF0C4CF4E06C1CEA11541DBF1CEA135559
:101B400094EA0C0F95EA0C0F00F0A7F8A4EB05043B
:101B500081EA030E52EA03354FEA013100F0888032
:101B60004FEA03334FF0805545EA131343EA1263FB
:101B70004FEA022245EA111545EA10654FEA0026B0
:101B80000EF000419D4208BF964244F1FD0404F569
:101B9000407402D25B084FEA3202B61A65EB0305C5
:101BA0005B084FEA32024FF480104FF4002CB6EB82
:101BB000020E75EB030E22BFB61A754640EA0C0002
:101BC0005B084FEA3202B6EB020E75EB030E22BF42
:101BD000B61A754640EA5C005B084FEA3202B6EB83
:101BE000020E75EB030E22BFB61A754640EA9C0042
:101BF0005B084FEA3202B6EB020E75EB030E22BF12
:101C0000B61A754640EADC0055EA060E18D04FEACF
:101C1000051545EA16754FEA06164FEAC30343EA6F
:101C200052734FEAC2025FEA1C1CC0D111F4801F3C
:101C30000BD141EA00014FF000004FF0004CB6E735
:101C400011F4801F04BF01430020B4F1FD0C88BFD4
:101C5000BCF5E06F3FF6AFAEB5EB030C04BFB6EBDF
:101C6000020C5FEA500C50F1000041EB045170BDD2
:101C70000EF0004E4EEA113114EB5C04C2BFD4EBFF
:101C80000C0541EA045170BD41F480114FF0000E83
:101C9000013C90E645EA060E8DE60CEA135594EAFF
:101CA0000C0F08BF95EA0C0F3FF43BAF94EA0C0F02
:101CB0000AD150EA01347FF434AF95EA0C0F7FF477
:101CC00025AF104619462CE795EA0C0F06D152EACB
:101CD00003353FF4FDAE1046194622E750EA4106AF
:101CE00018BF52EA43067FF4C5AE50EA41047FF4C0
:101CF0000DAF52EA43057FF4EBAE12E753B94AB990
:101D0000002908BF00281CBF4FF0FF314FF0FF3003
:101D100000F00CB8ADF1080C6DE904CE00F068F9E4
:101D2000DDF804E0DDE9022304B07047704700BF2E
:101D30004FF0FF3C06E000BF4FF0010C02E000BF97
:101D40004FF0010C4DF804CD4FEA410C7FEA6C5C7A
:101D50004FEA430C18BF7FEA6C5C1BD001B050EA1D
:101D6000410C0CBF52EA430C91EA030F02BF90EA08
:101D7000020F0020704710F1000F91EA030F58BFC7
:101D8000994208BF90422CBFD8176FEAE37040F029
:101D9000010070474FEA410C7FEA6C5C02D150EAC7
:101DA000013C07D14FEA430C7FEA6C5CD6D152EA82
:101DB000033CD3D05DF8040B704700BF8446104647
:101DC00062468C461946634600E000BF01B5FFF746
:101DD000B7FF002848BF10F1000F01BD4DF808ED16
:101DE000FFF7F4FF0CBF012000205DF808FB00BFE7
:101DF0004DF808EDFFF7EAFF34BF012000205DF841
:101E000008FB00BF4DF808EDFFF7E0FF94BF01208D
:101E100000205DF808FB00BF4DF808EDFFF7CEFF8E
:101E200094BF012000205DF808FB00BF4DF808EDCD
:101E3000FFF7C4FF34BF012000205DF808FB00BF9E
:101E4000844641EA000313F003036DD1403A41D3C5
:101E500051F8043B40F8043B51F8043B40F8043B84
:101E600051F8043B40F8043B51F8043B40F8043B74
:101E700051F8043B40F8043B51F8043B40F8043B64
:101E800051F8043B40F8043B51F8043B40F8043B54
:101E900051F8043B40F8043B51F8043B40F8043B44
:101EA00051F8043B40F8043B51F8043B40F8043B34
:101EB00051F8043B40F8043B51F8043B40F8043B24
:101EC00051F8043B40F8043B51F8043B40F8043B14
:101ED000403ABDD2303211D351F8043B40F8043BB4
:101EE00051F8043B40F8043B51F8043B40F8043BF4
:101EF00051F8043B40F8043B103AEDD20C3205D3C4
:101F000051F8043B40F8043B043AF9D2043208D0BB
:101F1000D2071CBF11F8013B00F8013B01D30B882D
:101F200003806046704700BF082A13D38B078DD00B
:101F300010F003038AD0C3F10403D21ADB071CBFDD
:101F400011F8013B00F8013B80D331F8023B20F847
:101F5000023B7BE7043AD9D3013A11F8013B00F880
:101F6000013BF9D20B7803704B7843708B78837008
:101F7000604670474FEA410C7FEA6C5C02D150EA40
:101F8000013C0AD14FEA430C7FEA6C5C02D152EA71
:101F9000033C02D14FF0000070474FF00100704742
:101FA0004FEA410212F5001215D211D56FF4787381
:101FB000B3EB625212D94FEAC12343F0004343EA24
:101FC000505311F0004F23FA02F018BF40427047FF
:101FD0004FF00000704750EA013005D111F0004089
:101FE00008BF6FF0004070474FF00000704700BF1F
:101FF0002DE9F04786468C460846089E15467446ED
:102000001946002B40F0C2808542B2FA82F245D9CF
:102010004AB1C2F1200300FA02FC2EFA03F3954004
:1020200043EA0C0C94404FEA154EA8B2BCFBFEF8F4
:10203000230C0EFB18CC08FB00F943EA0C4399452E
:1020400028D9EB1808F1FF3704D2994502D9A8F135
:1020500002072B44A3EB0903A4B2B3FBFEFC0EFB67
:102060001C330CFB00F044EA0344A04214D92C19A1
:102070000CF1FF3304D2A04202D9ACF102032C448C
:10208000241A43EA07401EB1D44000233460736031
:10209000BDE8F0874746DDE76346F1E792BB431BA7
:1020A00001214FEA154EAFB2B3FBFEFC200C0EFB34
:1020B0001C330CFB07F840EA0343984562D9EB1840
:1020C0000CF1FF3004D2984502D9ACF102002B4448
:1020D000A3EB0803A4B2B3FBFEFC0EFB1C330CFB0A
:1020E00007F744EA0344A7424ED92C190CF1FF33F9
:1020F00004D2A74202D9ACF102032C44E41B43EA08
:102100000040C0E7C2F1200320FA03F1954090405F
:102110002EFA03F303434FEA154EAFB2B1FBFEFCB8
:102120000EFB1C10190C0CFB07F841EA0041884516
:1021300004FA02F422D969180CF1FF3004D2884560
:1021400002D9ACF102002944A1EB08019BB2B1FB1A
:10215000FEFC0EFB1C110CFB07F743EA01439F42F8
:102160000ED9EB180CF1FF3104D29F4202D9ACF129
:1021700002012B44DB1B41EA004192E76046E3E7A2
:102180006146F7E76046A3E76346B7E7834206D9AF
:1021900016B9002108467BE7C6E900E0F9E7B3FA83
:1021A00083F78FB9834201D3724508D8BEEB02048E
:1021B00060EB030301209C461EB9002168E7384606
:1021C000FAE7C6E9004CF8E7C7F1200CBB4022FA59
:1021D0000CF41C432EFA0CF120FA0CF3B840014326
:1021E0004FEA14490EFA07F5B3FBF9F81FFA84FE1B
:1021F00009FB18300B0C08FB0EFA43EA00439A4522
:1022000002FA07F240D9E31808F1FF3004D29A45E8
:1022100002D9A8F102002344A3EB0A0389B2B3FB5D
:10222000F9F809FB183308FB0EFE41EA03418E451D
:102230002CD9611808F1FF3304D28E4502D9A8F1D8
:102240000203214443EA0040A0FB0298A1EB0E01E7
:102250004145CE46434602D306D14D4504D2B9EBA3
:10226000020E68EB04030138002EA6D0B5EB0E0277
:1022700061EB030101FA0CFC22FA07F34CEA0303B9
:10228000F940C6E9003198E74046C5E74346D9E73B
:102290002DE9F0472DED028B9FED498B4A4E84B01E
:1022A00004464FF02003EFF3118783F31288BFF346
:1022B0006F8FD4F8C0508DB9022104F1D80011F00D
:1022C0001EFA002843D100238DED008B029304F108
:1022D000C80239463D480BF02BF9E2E7D4F8C42098
:1022E0002B68C4F8C030954208BFC4F8C430D4F895
:1022F000D83043F00203C4F8D830EB6823F004036D
:1023000043F00103EB606B6887F31188BFF36F8FB5
:10231000284698474FF02003EFF3118983F3128882
:10232000BFF36F8FEB68990723F0010219D4EA60BD
:10233000D4F8D83023F00203C4F8D83089F31188D8
:10234000BFF36F8FDB05ACD40AF0D2FFA9E704F12D
:10235000D00500220121284611F097FB0028F8D172
:10236000B1E7306823F00303EB600028E0D00027DA
:10237000D0F80080BA460028DAD04268954201467B
:102380000BD1016897B972683160824200D17160E7
:1023900040F808AB0AF00AFC3946B8F1000F0BD040
:1023A000D8F8002040460F469046E4E7396072684E
:1023B000824208BF7760EBE74246F3E7AFF3008065
:1023C000FFFFFFFFFFFFFFFF9423002042240020B8
:1023D0002DE9F04F2DED028BD3B00C46CDE908016D
:1023E00092460B930CF0A0FB036813931846FEF77C
:1023F00087FEA38912901D0603D52369002B00F0E8
:102400008A870023CDF810A0CDE92733CDE9153315
:10241000CDE917330E9314930793049B9FEDA27B92
:102420001B7829AA8DED107B26929346002B00F095
:10243000EB81DDF810A004E01AF8013F002B00F05A
:102440001C81252BF8D1049BBAEB030540F01A81BF
:102450009AF80030002B00F0D78100239AF8015041
:102460008DF87B3006930AF1010A4FF0FF39039390
:102470000AF1010AA5F120035A2B00F23B81DFE8A3
:1024800013F0A502390139019E02390139013901E0
:102490006A00390139016602780239017102850248
:1024A00039017E025B005B005B005B005B005B0050
:1024B0005B005B005B0039013901390139013901E9
:1024C00039013901CF01390134028700CF01CF0131
:1024D000CF013901390139013901C202390139010C
:1024E000B5003901390139013E023901B002390123
:1024F000390101073901390139013901390139013E
:1025000039013901CF01390134028B00CF01CF01EC
:10251000CF01F2028B0080003901E8023901DA02B2
:10252000B900C902800039013E027D00250739014A
:102530003901280739017D00A5F1300300221AF87E
:10254000015B02EB820203EB4202A5F13003092B8F
:10255000F5D906928EE7089D28460CF0E5FA436807
:1025600017931846FEF7CCFD1890044628460CF049
:10257000DBFA83681593002C40F070869AF80050BF
:1025800076E7039B9AF8005043F0200303936FE72C
:10259000039B43F010030393039B9C0640F194813B
:1025A0000B9B073323F007031A46596852F8083B80
:1025B0000B920A460029C0F2BB85B9F1FF3F00F03B
:1025C000F587039921F0800653EA020100F05A854D
:1025D0000A2B72F1000180F07C8730338DF847318F
:1025E0000DF2471303960493012634E0039B43F056
:1025F00010030393039B13F0200200F054810B9B04
:10260000073323F0070319465A6851F8083B0B912A
:10261000039921F4806600210020B9F1FF3F8DF875
:102620007B0000F0938226F08000039053EA0200C2
:1026300040F08B82B9F1000F40F0C187002940F0D3
:10264000268516F001061BBF30238DF8473152ABAB
:102650000DF2471304930023B145CDE90C334946ED
:102660009DF87B200A93B8BF314605910F93002A4D
:1026700052D0059B013305934EE0049BBAEB030552
:1026800000F0C280049B289FCBE90035279B0133D3
:102690002F44072B289727930ADC0BF1080B079B85
:1026A0002B440793D4E600BF0000000000000000A8
:1026B000DDE9080126AA0CF05FFE80B90DF1A40B3C
:1026C000EDE7DDE9080126AA0CF056FE002800F02F
:1026D0008A800A9B1BB10A9908980CF027F9099B7C
:1026E0009B89590601F1E582079853B0BDEC028B36
:1026F000BDE8F08F002D00F0878000228DF8E450B7
:102700008DF87B200123CDE90C2205931E4639ABC1
:102710000A9291460F920493039B13F0020302D096
:10272000059902310591039911F0840405D1DDE981
:1027300005010F1A002F00F34183289F8AB1279AC1
:102740000DF17B0101320137CBF80010072A4FF061
:10275000010128972792CBF8041000F387830BF12F
:10276000080B83B1279B1FAA01330237CBF8002047
:10277000072B4FF0020228972793CBF8042000F391
:1027800083830BF1080B802C00F0FC81A9EB060879
:10279000B8F1000F00F34282039BDA0500F16D816E
:1027A000049BCBF80030279BCBF804600133F5196C
:1027B000072B2895279300F3AA820BF1080B039BA4
:1027C000580705D5DDE905239C1A002C00F36E831C
:1027D000DDE9062305998A42ACBF9B185B18079375
:1027E000002D7FF46EAF002327930A9B1BB10A993B
:1027F00008980CF09BF80DF1A40BCDF810A0049BE9
:102800001B78002B7FF415AE289B002B3FF467AF9D
:10281000099C089826AA21460CF0AEFDA38960E722
:102820000B9B073323F00703B3EC027B57EC176BCA
:102830000B9327F000431B938DED1A7ADDE91A0103
:10284000AE4B4FF0FF328DED107BFFF793FB00286E
:1028500040F09B84DDE91A01A84B4FF0FF32FFF7EF
:10286000D1FA002840F091840022002330463946F6
:10287000FFF7BEFA002840F05B879DF87B20039BA2
:102880009F4C23F0800303939E4B472DC8BF1C46EB
:1028900003210023CDE90C3304940A9305910E46DD
:1028A00099460F93E3E60B9951F8043B0B9103997A
:1028B00011F010017FF4ACAE039A12F0400000F06A
:1028C00019879BB20A46A3E60B9A52F8043B0B9277
:1028D000039AD00600F15584039A510640F14D84C5
:1028E00043F3C03211461BB264E60B9B002253F83F
:1028F000041B8DF87B208DF8E4100B9302E70B9FEF
:1029000057F8043B049300268DF87B60002B00F001
:102910009E86B9F1FF3F00F00D8504984A46314686
:10292000FEF7CEFD0A90002801F025810A9B049A4B
:102930000B97B1469E1A26EAE673CDE90C999DF8ED
:102940007B200593CDF82890CDF83C908FE60B9B2B
:1029500053F8042B0692002A80F20A84069A0B93FD
:1029600052420692039B9AF8005043F004030393EB
:102970007EE52B239AF800508DF87B3078E5039B99
:102980009AF8005043F08003039371E5524612F821
:10299000015B2A2D01F01982A5F13003092B924623
:1029A0004FF000093FF666AD1AF8015B09EB8909A3
:1029B00003EB4909A5F13003092BF5D95AE5039B2F
:1029C0009AF8005043F00103039351E59DF87B30E2
:1029D0009AF80050002B7FF44BAD20238DF87B300C
:1029E00046E5039B43F0100616F0200200F08983B1
:1029F0000B9B073323F0070319465A6851F8083B2D
:102A00000B91012108E6039B9AF8005043F008035C
:102A100003932DE50B9A039B43F0020652F8043B07
:102A20000B9247F63002ADF87C20374A149202210F
:102A300000227825F0E5039B9E0640F1FD830B9B69
:102A4000079A1B681A60D2175A600B9B04330B93CA
:102A5000D3E69AF80050039B6C2D00F0538443F0AA
:102A60001003039304E59AF80050039B682D00F0CF
:102A7000408443F040030393FAE4652D40F353810F
:102A8000DDE9100100220023FFF7A8F9002800F07B
:102A90004982279B1D4ACBF80020013301370122D0
:102AA000072B28972793CBF8042000F38E850BF192
:102AB000080B209B0E9A934204DB039BDB0701D497
:102AC0003D467CE6129B139ADD19CBE90023279B38
:102AD00028950133072B279300F3FE830BF1080B96
:102AE0000E9B5C1E002C7FF76AAE102C279B084FB4
:102AF00040F37885DDE90889102611E0FFFFEF7FBC
:102B0000644D0100684D0100744D0100A44D0100A9
:102B1000A84D01000BF1080B103C102C40F362850E
:102B200001331035072BCBE90076CDE92735F1DDF0
:102B300026AA494640460CF01FFC00287FF4C9AD88
:102B4000DDE927350DF1A40BE6E7039E01293FF4EB
:102B50003FAD022900F0768152AC03F00701DB089B
:102B600043EA4273D208303153EA0207204604F8A0
:102B7000011DF2D1F707049400F1768252AB03965F
:102B80001E1B68E5DDE90523A3EB0208B8F1000F81
:102B90007FF7FCADB8F1100F3A46279BC04F29DDF7
:102BA00019951C961024DDE90865194606E0A8F180
:102BB0001008B8F1100F0BF1080B18DD01311032BD
:102BC0000729CBE90074CDE92712F0DD26AA2946B2
:102BD00030460DF1A40B0CF0CFFB00287FF479AD4B
:102BE000A8F11008B8F1100FDDE92712E6DC199DF5
:102BF0001C9E0B460133CBF80070072B08EB020735
:102C0000CDE92737CBF8048000F30E85A9EB060841
:102C1000B8F1000F0BF1080B7FF7BEADB8F1100F44
:102C20003A46279B9E4F2EDD5946089CC3464FF0DF
:102C30001009B84637462E46099D06E0ABF1100B49
:102C4000BBF1100F01F1080118DD01339448103277
:102C5000072BC1E90009CDE92732EFDD26AA294675
:102C600020460CF089FB00287FF433ADABF1100B4C
:102C7000BBF1100FDDE9273229A9E6DC35463E46D7
:102C80004746D8468B460133CBF80070072B08EB3C
:102C90000207CDE92737CBF8048000F325820BF13A
:102CA000080B79E5279B7F49CBF8001001337D1C89
:102CB0000121072B28952793CBF8041000F34A85B0
:102CC0000BF1080B002A40F0E084039B0E9A03F0FE
:102CD000010313433FF473AD129B139A5919CBE9C7
:102CE0000023279B28910133072B279300F3EF85BF
:102CF0000BF1080B049ACBF800200E9ACBF80420B5
:102D000001335518072BCDE927357FF756ADDDE99F
:102D1000080126AA0CF030FB00287FF4DAAC289DCD
:102D20000DF1A40B4BE50E9B012B0BF1080640F3B4
:102D30007A81049BCBF80030279B013301370122B5
:102D4000072B28972793CBF8042000F3F981129AD8
:102D500003F10108139BD519B8F1070FC6E900323A
:102D6000CDE9278500F3F88108360E9BDDE91001D7
:102D700003F1FF3900220023FFF730F8002840F06C
:102D80008B81049CC6F8049008F1010801344D447D
:102D9000B8F1070FCDE92785346000F35981083673
:102DA000169A726008F101031544072B22AACDE997
:102DB00027353260ABDC06F1080B00E5102FDDE9AA
:102DC0002721DFF8E4802DDD19934346CDE91C452A
:102DD000B046DDE908451E4604E0103F102F0BF118
:102DE000080B19DD013210311023072ACDE9272104
:102DF000CBF80060CBF80430EFDD26AA2946204648
:102E00000DF1A40B0CF0B8FA00287FF462AC103F6F
:102E1000102FDDE92721E5DCDDE91C453046199B53
:102E20004646804601323944072ACBF80080CBF869
:102E300004702891279200F3A9839DF87B200BF161
:102E4000080B7AE4149C52A903F00F001B09205CC4
:102E500001F8010D43EA0273120953EA0200F3D1AB
:102E600052ABCDE903615E1AFFF7F5BBDDE908015E
:102E700026AA19930CF080FA00287FF42AAC289F28
:102E8000199B0DF1A40B6CE4DDE9080126AA0CF0F6
:102E900073FA00287FF41DAC289F0DF1A40B72E497
:102EA000A84D0100A44D0100B84D0100102C279B36
:102EB000DFF8CC8323DD4746DDF82490DDF8208061
:102EC000102604E0103C102C0BF1080B16DD01332A
:102ED0001035072BCBE90076CDE92735F2DD26AAA0
:102EE000494640460DF1A40B0CF046FA00287FF449
:102EF000F0AB103C102CDDE92735E8DCB846013397
:102F00002544072BCBE90084CDE927357FF760AC5A
:102F1000DDE9080126AA0CF02FFA00287FF4D9ABCE
:102F2000289D55E4209A002A7FF7BCAE0C9E0E9B8C
:102F3000049A9E42A8BF1E46002E134419930BDD2F
:102F4000279B01333744072BCBE90026289727938B
:102F500000F39F850BF1080B0C9D002EA8BFAD1B45
:102F6000002D00F3EF81049B0C9A13449946039BB8
:102F70005E0500F10C82209C0E9B9C4203DB039AB1
:102F8000D50740F18E84129B139ADD19CBE90023FB
:102F9000279B28950133072B279300F3DE850BF140
:102FA000080B0E9B1C1B199BA3EB0906A642A8BF8E
:102FB0002646002E0DDD279BCBF8009001333544CB
:102FC000072BCBF804602895279300F3E0850BF1DD
:102FD000080B002EA8BFA41B002C7FF7F0AB102C11
:102FE000279BA64F40F3FE82DDE90889102605E005
:102FF0000BF1080B103C102C40F3F4820133103518
:10300000072BCBE90076CDE92735F1DD26AA494625
:1030100040460CF0B1F900287FF45BABDDE92735C1
:103020000DF1A40BE6E7039BDC073FF582AE049BA2
:10303000CBF80030279B03F101087D1C0123B8F178
:10304000070F2895CDF89C80CBF804307FF7A8AE09
:10305000DDE9080126AA0CF08FF900287FF439ABCE
:10306000DDE9278529AE9BE6302900F0C882049A65
:1030700003963023023802F8013C52AB1E1A04902A
:10308000FFF7E9BAB9F1000F7FF4A7AA039652AB94
:103090004E460493FFF7DFBA0E9B012B7FF780AEFD
:1030A000112B764F40F3E48243461024DDE9088B70
:1030B00006E00836A9F11009B9F1100F40F3D782E4
:1030C00001331035072BC6E90074CDE92735F0DD53
:1030D00026AA594640460CF04FF900287FF4F9AA79
:1030E000DDE9273529AEE5E7DDE9080126AA0CF080
:1030F00043F900287FF4EDAA289F0DF1A40BFFF7F8
:103100004BBB0B9951F8043B0B9116F010010CD1FD
:1031100016F0400004D00A469BB20121FFF77CBAAA
:1031200016F400721CBFDBB202460121FFF774BA2D
:103130005B42039E62EB42022D200121FFF76DBA34
:10314000DDE9080126AA0CF017F900287FF4C1AACE
:10315000DDE9273729AEFAE5DDE9080126AA0CF0FA
:103160000BF900287FF4B5AADDE9278529AEFCE537
:103170009AF800500B93FFF77BB9039A920500F180
:10318000A083DA171146FFF715BADDE910010246F0
:103190000B46FEF7EFFE002840F0CC85612D00F0D5
:1031A0009584412D00F00385B9F1FF3F00F0AA831B
:1031B00025F02003472B04D1B9F1000F08BF4FF0D1
:1031C0000109DDE91001039C002944F48072059295
:1031D000C0F2B584002341EC180B19930A93A5F1B2
:1031E0004103252B00F2C482DFE813F09603C202EC
:1031F000C202C2028F039303C202C202C202C2020F
:10320000C202C202C202C202C202C202C202C2029E
:10321000C202C202C202C202C202C202C202C2028E
:10322000C202C202C202C202C202C202C202C2027E
:10323000C202C2028F039303039BDD0600F10182E9
:10324000039B5C0600F13783039B980540F1F981ED
:103250000B9B079A1B681A70FFF7F7BB159B9AF830
:103260000050002B3FF404A91B78002B3FF400A969
:10327000039B43F480630393FFF7FAB8A84D010062
:10328000B84D0100BD4B1493039B13F0200200F0D6
:1032900002810B9B073323F0070319465A6851F844
:1032A000083B0B910398C1070AD553EA020107D0E6
:1032B00040F00201039130218DF87D508DF87C1093
:1032C000039921F480660221FFF7A6B9039EFFF758
:1032D0008BBBAB4B1493D7E7DDE9080126AA0CF0B2
:1032E0004BF800287FF4F5A9289D0DF1A40BFFF7FA
:1032F000F7BB43F400739AF8015003930AF1010AF3
:10330000FFF7B6B843F020039AF8015003930AF18F
:10331000010AFFF7ADB8089840210AF071FB099B3C
:1033200018601861002800F0C184099A4023536195
:10333000FFF767B804980B97FDF7E2FEB146064623
:10334000FFF7F9BA102D3A46279B8E4F40F3E181E3
:10335000DDE90848102605E00BF1080B103D102DA3
:1033600040F3D78101331032072BCBE90076CDE94A
:103370002732F1DD26AA414620460BF0FDFF00284A
:103380007FF4A7A9DDE927320DF1A40BE6E70D993B
:10339000CDF870A05A4638467A4EDDF854A0189BF6
:1033A000DDF824B04F464FF01008DDF83C9081B3B3
:1033B000B9F1000F00F0FD8009F1FF391799C2E95A
:1033C000001327990131184407292890279173DCAD
:1033D0000832199C9AF80010E51B8D42A8BF0D46D3
:1033E000002D0CDD2799013128440729C2E9007519
:1033F0002890279100F309819AF800100832002DD7
:10340000ACBF4C1B0C46002C12DC0F440D9900295C
:10341000CED1B9F1000FCFD1199BCDF854A0B94648
:103420009945DDF870A09346074628BF9946A2E566
:10343000102C279940F39084089D04930C9604E087
:10344000103C102C02F1080215DD01311030072963
:10345000C2E90068CDE92710F2DD26AA59462846C0
:103460000BF08AFF00287FF434A9103C102CDDE912
:10347000271029AAE9DC049B0C9D1560013120442A
:103480000729CDE92710546000F310839AF8001043
:1034900008320F44BAE70B9951F8043B0B9103999A
:1034A00011F010017FF4FEAE039A12F0400000F01C
:1034B00029819BB20A46F5E60898049326AA594644
:1034C0000BF05AFF00287FF404A92898049B29AA2E
:1034D0007FE70021CDE9045606F48067DFF8A88075
:1034E000159ECDF80CA052AC8C4605E00A2B72F16B
:1034F000000235D353462A46991841F10001A8FB32
:10350000010525F0030000EB9500091A581A4FF049
:10351000CC3562F1000E05FB00F508FB0E55A0FB53
:1035200008A005440AF0010E0520AEFB000E40186D
:103530004FEA5A0A303004F8010C4AEAC57A0CF115
:10354000010C013C6D08002FD0D031788C45CDD1D5
:10355000BCF1FF0FCAD00A2B72F1000280F0ED809F
:103560001596DDE9045652ABDDF80CA0CDF838C055
:10357000CDE903641E1BFFF76EB800BF884D010044
:10358000744D0100A84D0100CDCCCCCCDDE9080183
:1035900026AA19930BF0F0FE00287FF49AA89DF854
:1035A0007B20199B0DF1A40BFFF7C7B8039EFFF713
:1035B0000FB80D9901390AF1FF3A0D91FEE6012984
:1035C000039E7FF4C6AAFFF708B8DDE9080126AA22
:1035D0000BF0D2FE00287FF47CA8289F0DF1A40BED
:1035E000FFF767BA01332544072BCBF80070CBF8FF
:1035F0000440CDE927357FF7E0A8FFF788BB049AA0
:10360000039652AB9E1AFFF726B80898049326AA91
:1036100059460BF0B1FE00287FF45BA89AF8001021
:103620002898049B29AAEAE6DDE9080126AA0BF0FE
:10363000A3FE00287FF44DA8289F0DF1A40BFFF7EF
:10364000A5B80B9B079A1B681A60FFF7FEB94E4698
:10365000062E1A4628BF062699460A93C14B0596A0
:10366000CDE90C220B9704930F92FFF700B8984610
:1036700008F101084D44B8F1070FCDE927853760FF
:10368000C6F804907FF78BABE2E4129B13985919AC
:10369000CBE90003279B28910133072B279300F3E5
:1036A00016810BF1080B002ABFF624AB56421032EC
:1036B000AD4F80F2D382DDE90848102505E00BF11B
:1036C000080B103E102E40F3C98201331031072B36
:1036D000CBE90075CDE92731F1DD26AA4146204628
:1036E0000BF04AFE00287EF4F4AFDDE927310DF13E
:1036F000A40BE6E7039A12F400721CBFDBB2024689
:10370000FEF786BF039A12F400721CBFDBB20246BA
:10371000C8E50133CBF80070072B05EB0207CDE9B4
:103720002737CBF8045000F3E0800BF1080B1AE4C4
:103730002D228DF87B20FFF7A2B8189B1799E41A69
:103740001A4620460BF0E4FD737803B101364FF0C2
:10375000000CCFE6DDE9080126AA0BF00DFE0028DB
:103760007EF4B7AF209A289D0DF1A40BFFF7AABAFB
:103770004F46022124AB019321AB00930898B0EE91
:10378000480AF0EE680A20AB3A4600F041FB672D8C
:10379000049000F00E82472D00F09D82049B25F0DE
:1037A0002008B8F1460F03EB070605D11B78302B34
:1037B00000F0E482209F3E4451EC180B00220023CD
:1037C000FEF70CFB002800F040813346049A9B1A58
:1037D0000E93209A0C92B8F1470F00F02481B8F1B3
:1037E000460F00F0FE81531E612D209300F0DE8213
:1037F000412D40F0208150210120002BB6BFC2F1A5
:1038000001032B222D22092B8DF888108DF8892099
:1038100040F33D820DF19706544F32461046A7FB08
:103820000312D20802EB8201A3EB4101303100F810
:10383000011C19466329134600F1FF32EEDC3033D8
:1038400002F8013C831EB34280F0BC820DF1890274
:1038500013F8011B02F8011FB342F9D152AB181A39
:10386000A0F1AD0316930E9B169A012B03EB0206F3
:1038700040F32D82129B1E4424F4806343F4807332
:1038800003930023CDE90C3326EAE6720F930592E9
:10389000199B002B40F0D2809DF87B209946FEF7C3
:1038A000E6BE199A1C1BA2EB0906A6423D46A8BF1C
:1038B0002646FFF78EBB0B9B079A1B681A80FFF703
:1038C000C4B843F3C01211465BB2FEF773BEDDE924
:1038D000080126AA0BF050FD00287EF4FAAEDDE9BF
:1038E0002731209A0DF1A40BDDE6DDE9080126AAB7
:1038F0000BF042FD00287EF4ECAE289F0DF1A40BE6
:10390000FFF731BB4FF006095BE409F10107022123
:1039100030E74F4603212DE720A8B0EE480AF0EE2D
:10392000680A0BF0C1FC00224FF07F5351EC100BE2
:10393000FDF7D2FF0022002306460F46FEF74EFA9F
:10394000002840F0BB810A4B039309F1FF33CDE916
:103950001C9B0D95CDE90E4ADDF81080DDF80CB00A
:103960001D460DE09C4D0100A84D0100CDCCCCCCF6
:10397000884D010000220023FEF730FAF0B94D46D1
:10398000AD4B002230463946FDF7A6FF0F460646EE
:10399000FEF706FB0446FDF735FF0B4602463946A7
:1039A0003046FDF7E1FD1BF80430C24608F8013B44
:1039B0006B1C05F1FF3906460F46DBD19F4B0C957A
:1039C0000022304639460D9D0D94DDE91C9B0E9C6E
:1039D000CDF838A0DDF83CA0FEF728FA002840F02A
:1039E0000E81964B304639460022FEF7F7F918B1A2
:1039F0000D9BDF0700F103810C9B002BC0F21A81A5
:103A00000C9B01334344302208F8012B4345FBD182
:103A1000049A9B1A0E9325F02008DAE6049A249B58
:103A20009B1A209A0E93D31C0C9201DB914518DA55
:103A3000531E023D2093E9B20020DEE62D228DF8D0
:103A40007B204FF00009FEF714BE249BB342BFF465
:103A5000BDAE30215A1C24921970249B9E42F9D885
:103A6000B4E60E9B934200F3AB80E30740F1608124
:103A7000129BD618670502D5002A00F33381059BF7
:103A8000039326EAE6730593672500230F930D93AE
:103A9000FEE6DDE9080126AA0BF06EFC00287EF4A4
:103AA00018AE289F0DF1A40BFFF756BA089804939F
:103AB00026AA59460BF060FC00287EF40AAE9AF85C
:103AC00000102898049B29AA0F449FE478238DF8BE
:103AD0007D3030238DF87C30039BB9F1630F43F0C8
:103AE000020400F3AF8000230A9339AB0493039BD5
:103AF00043F481730593119B002B23DB9DED108B09
:103B000000231993612D7FF46AABB0EE480AF0EE02
:103B1000680A20A80BF0C8FB00224FF07F5351EC3D
:103B2000100BFDF7D9FE0022002306460F46FEF7D4
:103B300055F9002840F0C280414B039305E700236C
:103B4000039C0A93DDE9102303F1004308EE903A49
:103B50002D2308EE102A1993D4E7DDE9080126AADF
:103B60000BF00AFC00287EF4B4AD209C289D0DF1DA
:103B7000A40BFFF716BA4E46CDF81490CDE90C0011
:103B80009DF87B200B9781460F90FEF770BDDDE915
:103B9000080126AA0BF0F0FB00287EF49AAD209CC9
:103BA0000E9B289D1C1B0DF1A40BFFF712BA582386
:103BB0008DE7E6077FF532AFC6194FF04708FBE502
:103BC0000E9B129A9E180C9B002B40F3C880672511
:103BD000620500F18880059B039326EAE67305934E
:103BE00053E70C9A04F00103002A43EA090340F367
:103BF000D580002B40F0BD800C9E6625E8E70E9B2B
:103C0000039A2493D17B18F8013C8B42424609D198
:103C1000302002F8010C249A531E249312F8013C20
:103C20009942F6D0392B0BBF039B01339B7ADBB251
:103C300002F8013C4346EBE6000030400000E03F64
:103C4000744D0100089809F1010109F0D9FE0490B2
:103C5000002800F0C980049B0A9348E701333144EF
:103C6000072BCDE92731CBF80070CBF804607FF744
:103C70003FA8DDE9080126AA0BF07EFB00287EF4B0
:103C800028ADDDE927310DF1A40BFFF733B800288B
:103C900040F0818030228DF88A200DF18B02303384
:103CA00002F8013B22ABD31A1693DCE5089A0C23E9
:103CB00013604FF0FF330793FEF716BD4E4B4F4A8C
:103CC000612D18BF1A460123039220933DE6E207B7
:103CD0007FF5D2ADCEE5E1077FF5A0AE049BA84607
:103CE000DE1969E5672515990B78FF2B78D000243C
:103CF0000C9A204603E001300131FF2B08D093429B
:103D000006DAD21A4B78002BF5D10B780134F4E7A0
:103D100015910D900F940C92059B0D9A03930F9B98
:103D20001344189A02FB036626EAE6730593AFE58F
:103D300016469FE6119B324C002B039BA8BF9DF8B3
:103D40007B2023F08003B8BF2D220393B8BF8DF8EA
:103D50007B202C4BFEF799BD2B4DFFF78EBBC3F19B
:103D600001031E44059A039226EAE673059367252C
:103D70008BE6129BD6184E44662529E751EC180BAA
:103D800000220023FEF72AF800287FF413ADC7F1C4
:103D9000010720970FE50DF18A0280E743B9059BE3
:103DA00003930123059366251E466EE6702123E5E5
:103DB000059B0393129B5E1C4E4426EAE673059313
:103DC000662562E6022316934DE50B9B9AF8015097
:103DD000924653F8042B0B9342EAE279FEF748BB74
:103DE00000230F930D9397E709998B8943F04002C5
:103DF00013468A81FEF775BC884D0100744D0100A1
:103E00006C4D0100704D0100A84D01000000000044
:103E10002DE9F04F9FB08DED040B0091016C289DB2
:103E2000029057EC106B0A92089349B1426C4A60B9
:103E30000123934004468B600AF0A0FE0023236414
:103E4000B7F10009B4BF012300232B60764BBCBF40
:103E500029F00049CDF8149033EA090300F0A88056
:103E60009DED047B002251EC170B00238DED067BAA
:103E7000FDF7B4FF804668B1089A01231360299BBF
:103E800013B1299A694B1360694B039303981FB0D0
:103E9000BDE8F08F9DED060B02981CAA1DA90BF042
:103EA000A3F95FEA1955824640F09880DDE91C8548
:103EB000454405F23243202B40F38483C3F1400391
:103EC00009FA03F905F2124326FA03F349EA03005B
:103ED000FDF788FC0123013D1193A1F1F871554BC9
:103EE0000022FDF741FB4AA3D3E90023FDF7F4FCD0
:103EF00049A3D3E90023FDF739FB064628460F46C0
:103F0000FDF780FC46A3D3E90023FDF7E5FC02465C
:103F10000B4630463946FDF729FB06460F46FEF7AD
:103F20003FF800228346002330463946FDF760FF04
:103F3000002840F01B83A8EB0508BBF1160F08F121
:103F4000FF3400F28D813C4D05EBCB05D5E9002314
:103F5000DDE90601FDF74CFF002873D00023002C9B
:103F60000BF1FF3B1093C0F2808100230B93BBF158
:103F7000000F6DDA0B9BA3EB0B030B93CBF100034C
:103F8000CDE90EB3009B092B4FF0000B68D8052B31
:103F900040F31D83043B00930025009B023B032B51
:103FA00000F22486DFE813F060045D045504390450
:103FB000089AC9F3130942F20F7359EA060913600C
:103FC0001CD1299B002B00F02C861C4B039308333B
:103FD000299A039813601FB0BDE8F08FDDE906123F
:103FE000C2F31303084643F07F51CDF84480A5F295
:103FF000FF35DDF8708041F4401170E7299B002BFC
:1040000040F0E8830E4B039340E700BFAFF300801E
:1040100061436F63A787D23FB3C8608B288AC63FCE
:10402000FB799F501344D33F0000F07FA54D010062
:10403000A44D01000000F83F70410100C84D01008F
:10404000D44D0100B8F1000F40F35D8410900B9047
:1040500000230F93009BCDF838B0092B5C4496D910
:1040600000234FF0FF32CDE90923012500930C9581
:10407000029B00215964099B189302980AF058FD8D
:104080000390002800F0BB85DDE902321A64099B29
:104090000E2B00F21481002D00F011810E9A002ADF
:1040A00040F33884B14D02F00F0305EBC303151143
:1040B000D205D3E9008940F1F883AD4BDDE9060173
:1040C000D3E90823FDF732FDCDE9120105F00F0514
:1040D00003277DB1A64EEB0708D540464946D6E9F1
:1040E0000023FDF7F9FB0137804689466D1006F184
:1040F0000806F0D142464B46DDE91201FDF716FDF8
:1041000080468946109B43B19A4B0022404649465F
:10411000FDF76EFE002840F0F0843846FDF772FB94
:1041200042464B46FDF7D8FB934B0022FDF71EFAA3
:10413000099B0646A1F15077002B00F0A9800E9B49
:104140001993099B1293039B884D49464046CDE93C
:1041500014675E1CFDF724FF129905EBC10313EDF4
:10416000027B07468DED167BFDF74CFB02460B46A6
:1041700040464946FDF7F8F989460C993037DDE9A4
:1041800016238046FFB2002900F052847B490020AC
:10419000FDF7CCFCDDE91423FDF7E6F9039D0246AB
:1041A0000B46CDE914232F7042464B46FDF73EFEE9
:1041B000002840F09684CDE91AB4CDF858A0129D9D
:1041C000DDE914AB00272AE00137AF4280F2DD843D
:1041D0006B4B504659460022FDF77EFB684B002290
:1041E00082468B4640464946FDF776FB8946804627
:1041F000FDF7D6FE0446FDF705FB02460B4640469A
:104200004946FDF7B1F9303406F8014B52465B469A
:1042100080468946FDF7ECFD002840F0B384424615
:104220004B4654490020FDF79FF952465B46FDF787
:10423000DFFD0028C8D0199BDDF858A0039A374647
:1042400003F1010802E0974200F07B843E4617F834
:10425000013D392BF7D00133DBB23B70454674E1A9
:104260000123002C1093BFF680AEC8F101030B931D
:1042700000247CE63846FDF7C5FA42464B46FDF77A
:104280002BFB3D4B0022FDF771F90646A1F150775B
:104290003C4B404649460022FDF766F932463B4614
:1042A00080468946FDF7C2FD002840F0598440460B
:1042B0004946324607F10043FDF79AFD28BB1D9B96
:1042C000002BC0F291800E9A0E2A00F38D80274DAC
:1042D0000E9B05EBC30595ED007B0A9B002B8DED36
:1042E000007B19DA099B002B16DC0ED1254B00222E
:1042F000DDE90001FDF7F0FA02460B46DDE90601B3
:10430000FDF780FD002800F02B844FF00009039E8C
:104310004F460A9BDD4324E2DDE90045DDE90689DD
:1043200022462B4640464946FDF700FCFDF738FE85
:104330000646FDF767FA22462B46FDF7CDFA039FA6
:104340000B46024649464046FDF70EF906F130039A
:1043500007F8013B099B012B00F010830125CDF8E4
:1043600010A09946DDE900ABA8462BE070410100A2
:10437000484101000000F03F00001C400000E03F09
:10438000000024400000144052465B462046294667
:10439000FDF7CCFBFDF704FE0646FDF733FA524667
:1043A0005B46FDF799FA08F101080B4602462946DB
:1043B0002046FDF7D9F806F13003C84507F8013B60
:1043C00000F0DA82B94B0022FDF786FA00220023C2
:1043D00004460D46FDF702FD0028D5D00E9DDDF800
:1043E00010A001353E46B0E00C9A002A40F0D28081
:1043F00000230F9E0B9D0C931F4655B1002C08DD2A
:10440000A5420B9A2B46A8BF2346D21A0B92ED1A4F
:10441000E41A0F9B53B10C9B13B1002E40F0E782BE
:1044200051460F9A02980AF039FD824602980121FE
:104430000AF050FC8146BBF1000F40F0B681009BB2
:10444000012B40F3CC810120204410F01F0000F02C
:104450009A80C0F12003042B40F3DA810B9BC0F15A
:104460001C0003440B93054404440B9B002B05DD07
:10447000514602981A460AF06BFD8246002C05DD73
:104480004946029822460AF063FD8146109B002BA4
:1044900040F07081099B002B40F348810C9B002B5E
:1044A00040F0A4800E9D0135DDF80C80099CDDF8FC
:1044B00008B0012607E0514600230A2258460AF0B8
:1044C00067FB01368246494650460AF04BF9A64240
:1044D00000F1300308F8013BEDDB099A002AC8BF60
:1044E0001646039AD8BF012602EB060B002451465C
:1044F0000122029800930AF02BFD494682460AF0F9
:104500009FFD002840F3E281039A02E05A4500F043
:10451000E8815E460BF1FF3B16F8013C392BF5D0E4
:1045200001338BF80030DDF80880494640460AF038
:1045300025FB57B12CB1BC4203D0214640460AF0BE
:104540001DFB029839460AF019FB029851460AF001
:1045500015FB00233370089B1D60299B002B3FF443
:1045600095AC03981E601FB0BDE8F08F5846FDF76C
:1045700049F932463B46FDF731FC00287FF4DBACBD
:104580000BF1FF3BD7E41C230B9A1A440B921D44FA
:104590001C446AE7009A012A40F3A881099B0F9AFC
:1045A0005E1EB242C0F26A81002BA2EB060680F2C8
:1045B000DD820B9B099A9D1A029801210AF08AFB61
:1045C00007461AE7C3F1200306FA03F080E4012549
:1045D000E3E43946002302980A220AF0D9FA189B2C
:1045E000002B074640F3EF820E960993002D00F34F
:1045F0003E81BBF1000F40F0DE81B846039E099C6E
:10460000731E1C44049B03F00103CDE90B43029C81
:10461000494650460AF0A6F83946834650460AF005
:104620000FFD42464946054620460AF02BFDC2686A
:1046300001460BF13003002A3AD1CDE90903504677
:104640000AF0FEFC0999069020460AF097FA069AAD
:104650000A9B002A5AD1009A1AB90C9A002A00F033
:104660009A82002D45DB0B9AB346B2420BF8013B10
:1046700000F0B881514600230A2220460AF088FA49
:104680004745824639464FF000034FF00A02204664
:1046900036D00AF07DFA4146074600230A2220461A
:1046A0000AF076FA5E468046B2E700BF000024407A
:1046B000029806930AF062FA002D069B06DB049A24
:1046C000009902F001020D432A432AD151460122EA
:1046D000029800930AF03CFC494682460AF0B0FC7E
:1046E0000028009B40F3E780392B00F02F820BF16C
:1046F00031030E9D06F8013B3C460135474612E763
:104700000AF046FA5E460746804681E7002DC0F271
:104710007D8200990D430C990D4300F07782002AA9
:10472000A1DD392B00F012820133E2E7009B022B5E
:104730007FF7B4AE099B002B40F01C81494605224F
:1047400002980AF025FA0146814650460AF078FCA4
:10475000002840F30F81039E0E9D312306F8013B94
:1047600001350298494601350AF008FA002F7FF416
:10477000E8AEEAE6494650460AF062FC0028BFF679
:1047800089AE5146002302980A220AF001FA0E9BD4
:104790005E1E0C9B8246002B7FF41BAF189B002BE8
:1047A00040F3FF810E9D09937EE601465A4602982A
:1047B0000AF074FB009B012B81466BDD4FF0000B70
:1047C000D9F8103009EB830318690AF031FAC0F107
:1047D000200039E6924B03930333FFF7F9BB049BA8
:1047E000002B7FF430AEDDE90412C2F31303002B7B
:1047F0007FF429AE8B4B134023B10B9B01330B93FA
:1048000001340123BBF1000F40F0AE819B461AE654
:104810003FF42BAEC0F13C03B6E601230C930A9B98
:104820000E9A134418930133012B1E460993B8BF07
:104830000126172E40F3D581012204235B0003F1EA
:104840001400B042114602F10102F7D9029B5964EB
:1048500013E401230C930A9E002E32DD189609966C
:10486000E7E700230C93DAE700230C93F3E73946DC
:1048700002982A460AF06CFB0746BAE60F9B0B9A91
:104880000F96F31A9B44099B15461A441C440B923D
:10489000002691E6049B002B90D1DDE90401C1F3D1
:1048A00013030A46002B89D1A4E79DED067B02275E
:1048B0008DED127B0DE47FF41CAFDA077FF519AFA5
:1048C00012E70123CDE90933FFF7D2BB03D1009BE7
:1048D000DB073FF519AE5E461BF8013D302BFAD0E1
:1048E00021E6039A3123013513701CE6119A002A40
:1048F00000F0FA8003F233430B9A0F9E15461A44D8
:104900001C440B9258E6C8F1010304460B93109027
:10491000FFF79EBB00F0EC800E9B434D5E4206F01D
:104920000F0305EBC303D3E90023DDE90601FCF720
:10493000D3FF3511CDE9120100F04E813B4E00232B
:10494000022780468946E80709D5D6E90023404674
:104950004946FCF7C1FF01378046894601236D10A7
:1049600006F10806EFD1002B7FF4CCABDDE912890C
:10497000FFF7C8BB039ECCE4DDF810A00E9D0246F5
:104980000B46FCF7F3FD02460B46CDE90423013547
:10499000DDE90023A846FDF749FA40B9DDE9002327
:1049A000DDE90401FDF71AFA18B1F10701D5039A00
:1049B0004CE43E46C9E5796802980AF0B9F8054624
:1049C000002800F027813B6902339A0007F10C01AF
:1049D0000C30FDF735FA0298294601220AF0B8FAA0
:1049E00080460BE60E9D3C46013547467FE5DDF8E7
:1049F00008803946324640460AF050FA524601468F
:104A0000074640460AF094F95146824640460AF06D
:104A1000B5F80F9B9B1B0F933FF408AD00E500BF5B
:104A2000D44D01000000F07F7041010048410100B9
:104A3000DDE91401FCF750FF039B1F70129B012B53
:104A4000CDE90C0100F0C680129F039BCDF844B065
:104A50001F447C4B002240464946FCF73DFF8946F7
:104A60008046FDF79DFA8346FCF7CCFE0BF1300B38
:104A700002460B4640464946FCF776FD06F801BB68
:104A8000B74280468946E4D1DDF844B06E4B00223F
:104A9000DDE90C01FCF76AFD02460B46404649463B
:104AA000FDF7C4F9002867D1DDE90C236649002031
:104AB000FCF75AFD02460B4640464946FDF798F979
:104AC00048B91D9B002BFFF693AC0E9B0E2B3FF7B6
:104AD0008FACFFF7FDBB3E46013F16F8013C302B83
:104AE000F9D0199D013530E51C9BC3F1360303E76E
:104AF000DDE906890227FFF705BB099B002B3FF480
:104B0000B9AB189B002B7FF7DAAB0E9A1293013AE0
:104B10004C4B1992404600224946FCF7DDFE804688
:104B20008946781CFCF76EFE42464B46FCF7D4FEE5
:104B3000464B0022FCF71AFD0646A1F15077FFF71D
:104B400002BB08F101083123FFF787BB0E9D039AD2
:104B5000B34639233C460BF8013B01354746D8E4C0
:104B60004FF000094F46F6E59B4629E60B9A15469D
:104B70001A441C440B921FE5199B039A03F1010888
:104B8000FFF764BBDDF858A0ABE7DDE91AB4DDF848
:104B900058A0FFF794BB392BD8D0002D3FF7A7AD15
:104BA000A7E5009B022B0ADC189B099349460E9D42
:104BB00009F0D8FD039A00F1300313708DE4189BBF
:104BC00009930E96B6E5009B022BF8DC189B0E9617
:104BD00009930BE5374659E7DDE912890227FFF70C
:104BE00091BA029B00215964FFF747BA029B002546
:104BF0005D642946184609F09BFF0390A8B9144B41
:104C0000144800224FF4D5710AF03AFC002A7FF7CD
:104C100070AD5BE50E4B0F482A4640F2EA210AF0E0
:104C20002FFC0D4B0393FFF731B9DDE902321A6413
:104C30004FF0FF3301220A9518930C920993FFF766
:104C40003EBB00BF000024400000E03F00001C40CD
:104C5000D84D0100EC4D0100C84D0100014808F09D
:104C600065B800BFB807002007B50EF04BFF4FF442
:104C70007A72A0FB020302FB0131C00B074A40EA33
:104C80004140106000234FF400420548CDE9002365
:104C900008F02CFE002003B05DF804FBA8120020F1
:104CA000C80B0020014B187800F0A4BA1E24002085
:104CB000044B1A78824202D01870FFF7F3BF00202D
:104CC000704700BF1E24002008B50EF01BFF4FF4F4
:104CD0007A72A0FB020302FB0131114AC30B126876
:104CE00043EA41439B1A0F4A934214DD00F0F8FF58
:104CF00020B1BDE808400120FFF7DABF0220FFF72E
:104D0000D7FF00F025FA002803DABDE8084000F0DC
:104D10005BBA0DF02FF847F230529342E9DC08BD40
:104D2000A8120020A0BB0D0008B50EF0EBFE4FF45A
:104D30007A72A0FB020302FB0131C00B044A40EA75
:104D400041401060BDE808400020FFF7B1BF00BF40
:104D5000A8120020F8B5044610B900252846F8BD71
:104D60000378002BF9D00F4E0F4FBE420FD30D4EDC
:104D7000BE42F2D230680EF0C0FB30B13568214639
:104D80002868FCF731FA0028E8D00436F0E73068EC
:104D90000EF0B3FB18B135682B68A342DED00436A1
:104DA000E3E700BF246501003C65010070B5194CC4
:104DB000194D8CB00022002303A9204607F0B2FD54
:104DC00008B10CB070BD2B68059E5868DDE9031270
:104DD0000CF059FA0028EDDBFF238DF81830B6FAF5
:104DE00086F35B0907908DF820300EF08BFE4FF4B0
:104DF0007A72A0FB020302FB0131C00B40EA414082
:104E0000C90B8DE8030006ABCDE90A010FCB00F01A
:104E100001FACFE7CC0C0020841300201FB50A4C08
:104E20002468A46884420DD183F00103CDE9011206
:104E3000039306480022002301A907F023FD04483C
:104E400007F074FF04B010BD84130020CC0C0020C8
:104E5000741300201FB50023CDE90233044B8DF8F5
:104E60000C0001A801930CF03EFA05B05DF804FBBC
:104E700038430100014B036032207047AC12002020
:104E800038B5044600282FD0194D2B68834229D00D
:104E900053B1986840B183685B6803B198472B6849
:104EA0000021986801F078FD1249134B8C4214BF21
:104EB000ED210021322200200CF0FFF9002812DB46
:104EC000A0682C6070B1012101F066FD2B68986824
:104ED00083680A491B6898472B68986883689B68B1
:104EE00003B19847002038BD6FF01200FBE700BF08
:104EF0008413002024430100AC1200201D4E00004A
:104F000038B5054648B90648FFF7BAFF041E02DB6C
:104F10002846FFF79FFF204638BD6FF01504FAE7DB
:104F200024430100F7B50C4615460D4901AA1E465B
:104F30000DF0C5FA68B1019B6BB9012C0DD1094F79
:104F4000224639463046A847002802DD3878FFF768
:104F5000D7FF03B0F0BD0020FBE76FF01500F8E7C6
:104F6000FA520100700B00200148FFF789BF00BF13
:104F70002443010008B50B480B490EF033FC0B48E5
:104F80000DF0F7F918B1094801210DF0C5F9084AEB
:104F9000002342F8043B0133322BFAD1BDE808402C
:104FA000FFF7E2BF74130020AD4D0000043F010085
:104FB000AC12002030B51C4C04EB00148FB06068BC
:104FC00083683A21DB68984758BB606861898368C9
:104FD00004AD1B692A46984718BB95E803000123D6
:104FE000069307AB83E803006389ADF824300EF025
:104FF00089FD4FF47A75A0FB053205FB0121DB0B1F
:1050000043EA4143C90BCDE90A31237B8DF83030A7
:105010000EAB13E90F008DE80F0006AB0FCB00F0CD
:105020001FF90FB030BD00BFD807002010B5134CDA
:10503000BFF35B8F54E8002F22F0010144E8001019
:105040000028F7D1BFF35B8FD20702D50020FFF70E
:10505000B1FFBFF35B8F54E8003F23F0020244E846
:1050600000210029F7D1BFF35B8F9B0704D5BDE872
:1050700010400120FFF79EBF10BD00BF8813002025
:10508000064901EB0012506830B183689B681146F5
:1050900008310BB1024A1847704700BFD8070020FB
:1050A000A550000010B5104C0C1B102C1BD824115F
:1050B0000EF07AFA90B1BFF35B8F01230B4AA34045
:1050C00052E8000F184342E800010029F8D1BFF36D
:1050D0005B8F0748BDE8104007F028BE2046BDE8BA
:1050E0001040FFF767BF10BDE007002088130020C5
:1050F000C807002002289ABF024B03EB40000020A3
:10510000704700BF6C0B0020F8B50F4D0F4E761B9B
:1051100007460C4605EBC105C6F3C706A64201DCEF
:1051200000200CE02A683B689A4209D13C716B6808
:1051300038461B68984718B1431E012BF0D9F8BDBB
:1051400001340835EAE700BF00570100305701007D
:1051500037B501A807F066F9194D019C00232B60B3
:105160001823584318380444019B9C4202D2002063
:1051700003B030BD20460EF0C0F9F0B120460DF06E
:10518000C1F8D0B920460DF0FEF8B0B920460DF0B8
:10519000E6F8014688B9204601F0FEFB20F0200326
:1051A00078330AD010F1860F07D00028E0DB2B6897
:1051B000044A42F8234001332B60183CD4E700BF77
:1051C0008C130020AC0B002070B5084D084E2C68E5
:1051D000013C002C02DA00232B6070BD56F824003D
:1051E000012101F0D9FB013CF3E700BF8C13002043
:1051F000AC0B00201FB50023CDE90233044B8DF822
:105200000C0001A801930CF06EF805B05DF804FBEA
:105210003C43010084B030B589B00CAC84E80F0089
:10522000002301930CAD084B00930FCD02AC0FC4CB
:1052300095E8030084E8030068460CF054F809B0D0
:10524000BDE8304004B07047404301000268034BA2
:105250009A420CBF08300020704700BF4043010055
:1052600084B030B58BB00EAC84E80F0000230193FE
:105270000EAD084B00930FCD02AC0FC495E80F00A4
:1052800084E80F0068460CF02EF80BB0BDE8304003
:1052900004B07047444301000268034B9A420CBFBC
:1052A00008300020704700BF444301001FB50023B1
:1052B000CDE90233044B8DF80C0001A801930CF0EA
:1052C00012F805B05DF804FB484301000D4A52F89E
:1052D0002030013342F820300B4A012311788340FB
:1052E0000B430A490978DBB2137023EA010308492A
:1052F000084A097850780B43181A537018BF0120D8
:10530000704700BF90130020212400201F2400209C
:10531000202400207E0B002010B5114A52F82030C6
:10532000002B19DD013B42F820300E4A2BB91378CF
:105330000121814023EA010313700B480B4B0478D1
:1053400010780B4A5978127820EA040010435870FC
:10535000401A18BF012010BD6FF01500FBE700BF19
:1053600090130020212400201F2400207E0B002009
:1053700020240020044A012312788340D8B213402D
:105380001B1A5842584170472124002010B5084B81
:10539000084A1870084B51781C78084B1B7823EA90
:1053A000040318435070401A18BF012010BD00BFFD
:1053B000202400207E0B00201F2400202124002018
:1053C000074B00221A70074B074A1978074B507891
:1053D0001B7823EA0103181A537018BF0120704785
:1053E000202400201F2400207E0B002021240020E8
:1053F000A0F1E003072B03D82030C0B2FFF766BF4F
:10540000064B062213F8011F19B1013AFAD1002008
:10541000704718700028F8D0F9E700BF800B002013
:10542000A0F1E003072B10B405D820305DF8044B41
:10543000C0B2FFF771BF0023064A194612F8014FA8
:105440000133A04208BF1170062BF7D100205DF890
:10545000044B7047800B0020A0F1E003072B03D81A
:105460002030C0B2FFF786BF064A002312F8011FA2
:10547000884204D00133062BF8D100207047012068
:10548000704700BF800B0020024B00221A605A6058
:10549000704700BF7F0B0020B0F5805F10B510D2C1
:1054A0000949002301EB4302B2F8014024B1013362
:1054B000062BF7D1002010BDA2F801000028F6D07D
:1054C000F8E76FF08500F6E7710B002030B5002398
:1054D000074C194604EB43020133B2F801508542F0
:1054E00004BF51709170062BF4D1002030BD00BF75
:1054F000710B0020024B00221A605A609A607047BC
:10550000720B0020074A002302EB4301B1F801109F
:10551000814204D00133062BF6D1002070470120D0
:10552000704700BF710B0020004870477E0B0020C1
:1055300000487047710B002082B02DE9F84308A99C
:105540000068109C81E80C0017460BF0DAFD056935
:1055500009982368666832384200F3B114183C4455
:1055600005EBC40EDFF84890DEF80410314455F81E
:10557000346091FBF9F833440E9E434436884FF46F
:10558000B47C09FB1811BCFBF6FC93FBFCF60CFB8E
:10559000163345F83430CEF8041002443A440C3245
:1055A000002045F82260BDE8F84302B0704700BF14
:1055B00040420F0030B593B0182200210CA808F02B
:1055C0001FFD254D06AC00220CA90023284607F03C
:1055D000A9F9014600283DD11822204608F010FD07
:1055E0000C9B07930EF08EFA4FF47A72A0FB020325
:1055F00002FB01319DF834308DF82830C00B9DF846
:10560000443040EA4140C90B13F00102CDE90801E2
:1056100018BF0122049208AB0FCB8DE80F000EA833
:1056200094E80C000BF0C3FD119B012BCBD9C3F305
:105630005E044FF4004540F2E73000214FF47A72E7
:105640000023E5FB0401FCF759FB02460B46034827
:1056500007F0D4FB13B030BDF40C00200000002094
:1056600030B58BB001AC84E80E0042680492027C35
:105670008DF8142094E8070006AD85E80B000F9A1A
:105680009DF8383043EA4203099309480022002379
:1056900004A907F0F7F8002804DB06480EF0ECF840
:1056A00010B100200BB030BD0248FFF783FFF8E7D0
:1056B000F40C00200000002030B585B06D460024B9
:1056C00009490A480EF0CCF800946C6000F03CFBED
:1056D00095E80300064A02AB83E8030082E8030072
:1056E000204605B030BD00BFF5560000F80D002083
:1056F000F813002002490348012202F075B800BFE8
:1057000022240020E253010082B00DF1080C0CE9C4
:10571000030019469DF8003010461BB1012B05D03F
:10572000054A00E0054A02B008F0D8BF019B044AD0
:1057300002B008F0D3BF00BF01540100F6530100CE
:10574000FA530100072804D00C2808D06FF0850018
:105750007047064B1B78002BF8D10BF0C7BF034BEB
:105760001B78002BF2D10BF0C9BF00BFF81300204B
:1057700010B5084CFFF788FEFFF7BCFE23780BB985
:105780000BF0B4FF23781BB9BDE810400BF0B6BF97
:1057900010BD00BFF813002070B588B0002305AE1F
:1057A000CDE905330F4C00F0CFFA96E8030001ADC8
:1057B00094E80C0085E803000BF0A7FE80B9FFF722
:1057C000D7FF95E803000A23324684E80300FFF779
:1057D0009BFF94E8030003AB83E8030000F022F88A
:1057E00008B070BDF813002070B50C4615460B4983
:1057F00000221E460CF063FE08B9002070BD012C8B
:1058000008D1074922463046A8470028F6DDFFF7B1
:10581000C3FFF2E76FF01500F0E700BFEC530100A3
:10582000222400207FB56B4683E8030093E8030041
:10583000002206AB03E90300039202A8034A029286
:105840000BF051FD07B05DF804FB00BFD043010031
:1058500002281FB530D830BB11B9002004B010BDEC
:10586000174B1A68012383401343154C9A42236057
:10587000F3D08DF800008DF801100EF043F94FF4CD
:105880007A72A0FB020302FB0131C00B40EA4140E7
:10589000C90BCDE9020104AB13E90F0004B0BDE868
:1058A000104000F015B9064B1A680029DAD101231F
:1058B000834022EA0303D8E76FF01500CEE700BF6C
:1058C000C8140020014B19680BF08BBEC8140020CF
:1058D000312937B504460D4602D9002003B030BD4A
:1058E0000228FAD801A8FFF7C5FA0028F5DB85429F
:1058F000F3DA019B53F82530312BEED84FF41672B2
:1059000002FB04F00C2202FB0300014B1844E5E704
:10591000DC4301002DE9F74FDDE90CABDFF84C90DB
:1059200007460C4615461AB10F4B1B6849F8213043
:1059300002265FFA86F859F8241040460BF051FE13
:1059400030B9013EF5D26FF0850003B0BDE8F08FAD
:10595000CDE900AB2B462246414638460BF051FEBE
:105960000028F2DDEDE700BFC8140020001400207D
:105970002DE9F04F2DED028B9FB0544ECDE90A1268
:105980009DED2A8B00EB4003804606EB8306022543
:105990004FF0000A00F132090DF1680B306B0BF08B
:1059A000B0FB002800F0878000234046CDE910338B
:1059B000FFF7A0FBCDE90C598DED0E8B0DF1300CEE
:1059C0000446BCE80F0012AF0FC79CE8030087E84D
:1059D0000300CDE912598DED148B0DF1480EBEE890
:1059E0000F000DF1600CACE80F0097E803008CE8A5
:1059F0000300306B0BF085FB00285CD083681F69C7
:105A0000002F58D006F1300309930A9B06930B9B95
:105A1000CDE904439BE80F008DE80F00DDE9182372
:105A20000998B847002846DBBAF1000F2FD1E8B239
:105A3000FFF748FF80F00107FFB2CDE90C598DED6B
:105A40000E8B0DF1300CBCE80F0012AC0FC49CE8BB
:105A50000300FFB284E80300CDE912598DED148BE9
:105A60000DF1480EBEE80F000DF1600CACE80F0020
:105A700094E803008CE80300306B0BF042FB40B964
:105A80006FF015001FB0BDEC028BBDE8F08F012751
:105A9000D3E783685C6914B96FF08500F2E7049777
:105AA0009BE80F008DE80F00DDE918230998A04757
:105AB000002808D0E6DB013D6B1CA6F118067FF438
:105AC0006DAF0020DEE74FF0010AF4E71808002070
:105AD00010B58AB06C4684E80F0000230593064B8E
:105AE000049394E80F000AAC04E90F0004A80BF03B
:105AF000FAFB0AB010BD00BFE44A010084B030B523
:105B000089B00CAC84E80F00002301930CAD084B66
:105B100000930FCD02AC0FC495E8030084E80300A6
:105B200068460BF0E0FB09B0BDE8304004B07047B8
:105B3000EC4A01000268034B9A420CBF0830002077
:105B4000704700BFEC4A010073B5194C194EB442BE
:105B5000254602D36FF0120008E02B68DB6804349E
:105B600033B9154C2368AB4211D1002002B070BD8F
:105B70009847C0F307238DF804008DF80530C0F373
:105B80000743C0B28DF806300028E0D0E9E723B122
:105B90001B689B680BB1002098472B6825609B68A9
:105BA000002BE2D0012002B0BDE87040184700BFD2
:105BB0003C6501003C650100CC14002007B5094B91
:105BC00001911B68834207D19DF8063033B903B0B9
:105BD0005DF804EBFFF7B8BFFFF7B6FF002003B096
:105BE0005DF804FBCC14002070B5094C094D0A4E39
:105BF000AC42234603D3BDE87040FFF7A5BF1B6846
:105C00001B690434002BF3D030469847F0E700BFFF
:105C10003C6501003C650100BD5B000082B0F0B551
:105C2000254D91B00C4616A981E80C002B6806465C
:105C3000002B3DD01B68002B3AD01B68002B37D0BF
:105C4000202200210DF11D0008F0DAF901238DF862
:105C50001C306368CDF82D30A368CDF83130179B28
:105C6000CDF835309DF8683021688DF83930102234
:105C70009DF870308DF83A300DF11D000BF02BFAC5
:105C80002B680AADD3F800C00FCD6C460FC495E861
:105C9000030044F8040B07AF217097E80E00DCF80E
:105CA00000403046A04711B0BDE8F04002B0704758
:105CB0006FF01200F7E700BFCC14002008B50448CD
:105CC00001F0DCFA002818BF6FF0150008BD00BF16
:105CD000095D0000014B1878704700BF870B00205A
:105CE000084B1B780B2B4FF001000AD8984010F49A
:105CF000CD6F05D110F4016F0CBF0120002070475B
:105D000002207047870B00200A2808B5024613D0EE
:105D10000A4B0B491870FFF7E3FF02280AD10B78F2
:105D2000032A08BF43F001030B70BDE80840054893
:105D300006F0FCBF0023F7E708BD00BF870B00207B
:105D4000232400206008002008B5FFF7C9FF0228BF
:105D500006BF034B1878002000F0010008BD00BF0B
:105D60002324002010B50948094C06F067FB206089
:105D700048B1084B08494D2202F0EEFB20680CF0B8
:105D80003BFD002010BD6FF01500FBE7A45401009F
:105D9000D0140020F44A0100AA54010038B504468A
:105DA0000D46FFF797FF0B280BD8DFE800F01E1E0B
:105DB0000A0A1E060A0A0A0A0A1EBDE8384001F04D
:105DC00027BA4FF476720023094806F013FF0948FA
:105DD0002146006800232A460CF018FD044610B145
:105DE000034806F0E3FE204638BD6FF01204FAE7E0
:105DF0001C0D0020D0140020014806F0D7BE00BFC3
:105E00001C0D002010B5094C0A44914200D110BD70
:105E100011F8013B584003090001E35CC0B2434064
:105E200018091B01205CDBB25840EEE7F754010073
:105E3000014B1B68184700BF7008002007B50B46D0
:105E4000002102460091034800F014F903B05DF808
:105E500004FB00BF315E00002DE9F047058B0446CE
:105E60002807904611D4022905F0070540F0CD809F
:105E700020460BF064FE78B10138218B042811D83C
:105E8000DFE800F0C3106D85950001290CBF45F0D7
:105E9000100545F02005258388F31188BFF36F8F27
:105EA000BDE8F08701F0070AAA4500F0A6800027A8
:105EB000B9463E46A368002B00F0BD8041F00801C2
:105EC000218388F31188BFF36F8FA168002900F048
:105ED000BB800D68002900F0B780D1F804803346FC
:105EE00052462046C047002D76D02B6829461D46D5
:105EF000F0E701F007035A1F012A1BD8002221F006
:105F00000701062B276889B2C4E9002209D13B4664
:105F100003E0628B013262831B68002BF9D141F0F0
:105F20000201218320460BF00AFE00287BD041F0BD
:105F3000200177E0042B0AD121F0070189B22183E7
:105F400020460BF0FCFD10B141F020012183218B94
:105F500001F0070AAA4550D00027B946AAE72369ED
:105F600021F0070141F00601062DD3F800902183AE
:105F70002DD1B9F1000F40D041F00801218388F301
:105F80001188BFF36F8F3A492046C84729E021F0B6
:105F90000701236941F0040189B2042DD3F804906C
:105FA0002183E6D000273E464FF0040A82E721F025
:105FB0000701236941F0050189B2052DD3F8089046
:105FC0002183D6D000273E464FF0050A72E700270E
:105FD0003E464FF0060A6DE72B4687E7B9F1000F02
:105FE000D1D14FF02003EFF3118883F31288BFF370
:105FF0006F8F238B23F008032383258BEA062ED58E
:1060000025F01003238305F007056669218B002E18
:10601000BFF66FAF00232768C4E9003321F0070102
:1060200041F001012183218B01F0070AAA454FF0BD
:1060300000097FF43FAF002F9BD041F0080121837E
:1060400088F31188BFF36F8F002FC7D03D683946A2
:106050003346524620460BF09EFD2F46F4E7AB0632
:106060007FF51AAF25F02003238305F00705FFE62F
:10607000C31B01002DE9F04F8BB01C46531E814617
:106080008A460193019B5878252803F1010516D112
:1060900000201E464FF0FF370236024600903D4674
:1060A00033780196392B50D81F2B0FD8002B00F0D6
:1060B000DC8151462520C8473078514688E00028C9
:1060C00000F0D3815146C8470195DBE7A3F12001D9
:1060D0001929EED80FF2040C5CF821F0456100009C
:1060E000B3600000B360000045610000B3600000D1
:1060F000CD610000B3600000B3600000B360000039
:10610000B36000000F62000045610000B360000052
:1061100021620000D5610000B3600000E161000071
:10612000FF610000FF610000FF610000FF610000EF
:10613000FF610000FF610000FF610000FF610000DF
:10614000FF61000018460136AAE7582B00F00A81CB
:10615000A3F163015FFA81FCBCF1170FA9D81729DD
:10616000A7D80FF2080C5CF821F000BFC363000051
:1061700047620000B3600000B3600000B36000003D
:106180002762000047620000B3600000B3600000B7
:1061900027620000B3600000B3600000B36000003D
:1061A00011630000B3600000B36000009F63000053
:1061B000B360000047620000B3600000B3600000FD
:1061C00011630000B36000002762000051462520E3
:1061D000C84757E7009B03F0FE0300930027B2E790
:1061E000002D0CDA002F0CDA0099002900F035811F
:1061F00025EAE5750A2101FB0535303DA3E7002FAF
:10620000F6DB0A2101FB0733A3F130079BE7002FE0
:1062100054F8043B80F22381002B80F222815D42FE
:10622000022300938FE7682B03D1682A06D1482206
:1062300089E76C2B02D16C2A00F01581002A7FF4CB
:1062400038AF1A467FE77A2A06D1752B54F8046BCB
:1062500015D14FF0000B0CE06C2AF6D04C2AF4D18B
:10626000E21D22F00702752BD2E9006B02F108044F
:1062700007D1202843D1DFF80082013D0AE04FEA30
:10628000E67BBBF1000FF4DA7642DFF8F0816BEBCE
:106290004B0B013D0DF12503039300230293304680
:1062A00059460A220023FBF729FD039B303203F8ED
:1062B000012DB4460393029B5A46BCF10A0F8B464C
:1062C00072F1000203F1FF3106460291E7D2C3F1F9
:1062D000010B28330DEB0306002FA6F1040680F214
:1062E0008880009BD90700F18380A5EB0B05A7EB05
:1062F0000B03009A920700F18E802F4684E02B2832
:106300000ABFDFF87C81DFF87C8105F1FF35C1E74A
:10631000702B26D154F8041B0022002961D0DFF82D
:106320006881023D03F06003393B0DF1250C002626
:1063300001F00F00092888BFC01830300CF8010D9B
:1063400010294FEA111040EA02704FEA121B72F155
:10635000000206F1FF3E1ED2C6F1010B06F1280332
:10636000B8E778236C2A03D154F8041B002208E014
:106370004C2AF9D1E21D22F007021446526854F863
:10638000081B232804D19806C9D4DFF80081C8E788
:10639000DFF8F080C6E7764601465A46C8E754F86B
:1063A000046B3046FAF7ACFE002F834616DBB8428A
:1063B000A8BFBB46DFF8CC80CBF10003A5EB0B05F3
:1063C00097E754F8043B8DF81030013D4FF0FF3350
:1063D0004FF0010B04AEDFF8AC808AE72D1A434280
:1063E000F9E7244E053D6FF004034FF0050BF2E78B
:1063F0002F46A7EB0B03002BE0DDED1B79E70093A5
:1064000051462020C847009B013FF8D56A1E002D49
:10641000ACBF551B154608F1FF3803E00093514609
:10642000C847009B18F8010F0028F7D1013B09D598
:10643000B3445E450CD1013D3FF524AE51462020CA
:10644000C847F8E7009351463020C847009BEDE766
:1064500016F8010B5146C847EBE70123E1E61F465A
:1064600071E61D466FE64C226DE600200BB0BDE8DC
:10647000F08F00BF135501000955010007550100B9
:106480000B550100875501000D5501001055010005
:1064900008B504464FF02002EFF3118382F312880F
:1064A000BFF36F8F03F0AAFF204601F08FFF034870
:1064B0000BF048F901F01CFEFCE700BF1955010084
:1064C00003F0C6BF2DE9F7430F4606460821C06A10
:1064D000DFF850900BF0F0FC3C68241A80463C60DA
:1064E00004EA0905AC4203D8002003B0BDE8F083FC
:1064F00008236A46214630460BF051FC0028F4D1AF
:10650000694630460BF0E2FC40B1BDF80230BDF800
:1065100004203C6005EA090513441D44A4EB08046B
:10652000E0E700BF0000FFFF2DE9F047044688B018
:1065300000F1140738460DF056F8A06A8368DB684E
:106540009847E06228B96FF01505284608B0BDE805
:10655000F087A06A8368DB6898470368013B1F2BBC
:10656000F1D8A06A216805AA0CF0C7FA0028EAD180
:10657000A589002DE7D0069BB5FBF3F203FB12556E
:10658000002DE0D1E389012BDDD9E36A009593F872
:1065900004904FF0FF334FF0FF32384606F01CFAFC
:1065A000E06A08210BF088FCA8460646E3891FFA3A
:1065B00085FA534508D8E389434523D1384606F088
:1065C00085FA6FF02C05C0E7A1892B04891B13FA0B
:1065D00081F14A460823204600910BF02EFC78B149
:1065E000694620460BF0E9FB08F1010800990823F1
:1065F0004A4620461FFA88F80BF01FFC0028DAD024
:106600000135D3E753450BD1009908234A46891B2E
:1066100020460BF012FC18B9694620460BF0CDFB62
:1066200069462046FFF74EFF054618B1384606F08A
:106630004DFA8AE7009B63604FEA13484FEA084827
:10664000C4F80880D4E9011399420FD3082301AAA2
:1066500020460BF0A4FB05460028E7D101AB13F858
:10666000012B914533D10135082DF8D163681B0CFE
:106670001B046946204600930BF09FFBA3890099F9
:106680004A4620460BF0D9FB051ECFDB636876D067
:1066900006EB03084FF6FF79A389CDF800801FFAB7
:1066A00088F29B1B9A422ED300236168002B43D0B3
:1066B000090C09040091204669460BF07EFB009905
:1066C00020460BF0DFFB0546002D74D0AEE701A994
:1066D00020460BF0FBFB626810B9921B6260B1E7C9
:1066E000BDF80850BDF80610E06AC4F808802944D7
:1066F0000BF0E2FB40449042A060EED1002DECD0C4
:106700006FF01C0568E0082303AA414620460BF001
:1067100046FB0546002889D103A920460BF0D6FB8D
:1067200030B1BDF80C304B4502D1BDF810300BB183
:10673000B044B1E70123B8E720460BF0A3FB0546C0
:1067400000287FF473AF6368264AA18913400B4485
:10675000A3EB460363601340A36020460BF09AFC52
:10676000B1E75B1A4A4620460BF067FB051EFFF6B1
:106770005DAF08D0E26AA36812681344A360D4E94D
:1067800001318B42EDD86168A38901EB46029A4240
:106790009AD1DFF85080A26801EA08039A4293D0A8
:1067A00020460BF06FFB054600287FF43FAF63687F
:1067B00003EA0803A360A389A288A3EB46039A42D5
:1067C00006D0384606F082F9012323740025BCE682
:1067D00020460BF048FC0546384606F077F9002DB8
:1067E000F2D0B2E60000FFFF2DE9F04F1D46037C1A
:1067F00089B0044689469046002B00F0BE80C26AEC
:10680000082110460BF058FB2946824610460BF033
:1068100053FBA389A3EB8A039D42074600F2B08095
:106820001DB1B8F1000F00F0AB806368039304AAB8
:1068300003A92046DDF80CB00BF080FB06460028CB
:1068400064D1BDF810304B4505D06268039B9A4275
:10685000EDD1E5B95AE004A920460BF037FB00283A
:10686000F3D0BDF81200BDF8143075B19D420ED1C1
:106870004FEA1B41090401442B46424620460BF0D7
:10688000A9FA002803DC064640E0002B3ED0002F8A
:1068900040D104F1140301934FF0FF320198DFF867
:1068A000E8B04FF0FF3306F097F8E3899E4261D0DD
:1068B000D4E90123F9188A422FD3ADF81A3006A87B
:1068C000FF238DF81E30ADF81890ADF81C500BF07A
:1068D000ABFAA1682B46424620460BF079FB2946CD
:1068E0008246E06A0BF0E8FAA2680244A260BAF1BC
:1068F000000F07D106A920460BF0A4FB002814BF07
:106900008246AA46019806F0E1F85646304609B09C
:10691000BDE8F08F5744BFB2BBE7E06A08210BF037
:10692000CBFA4FF6FF73ADF8183000218DF81E300A
:10693000A389ADF81C10111802EA0B021A44101AB0
:10694000606006A8ADF81A100BF06EFA06A9204692
:106950000BF078FB211D20460BF02FFA636803EA49
:106960000B03A36020460BF095FB82460028C9D19B
:1069700001369AE76FF01B0AC4E76FF00C06C5E713
:106980006FF01506C2E700BF0000FFFF014B036078
:1069900000207047084B010070B5446903460D465E
:1069A000002C3AD00BF0EFFC002839D12148227A94
:1069B000465CB24237D02048405C904236D1E26813
:1069C00018469047002815DA022D11D0032D10D15A
:1069D00010F1860F0CD0BFF35B8F231D53E8001F0F
:1069E00041F0020143E80012002AF7D1BFF35B8FA8
:1069F000267270BD022D267201D00020F9E7043402
:106A0000BFF35B8F54E8003F23F0020344E80032F9
:106A1000002AF7D1BFF35B8FEFE76FF05700E8E78D
:106A20004FF0FF30E5E76FF07700E2E76FF08500A9
:106A3000DFE700BF465501004255010070B5114B1C
:106A40001C680D46DCB1104B196800238B4202DB39
:106A50006FF0010070BD224612F8106B864202D022
:106A600001331446F2E7E06810B96FF01200F1E765
:106A70000CF043FD0028F8D02C600020EAE76FF00E
:106A80000C00E7E774080020084B010070B588B0DF
:106A900005460C46C0B269461646FFF7CFFF0028F0
:106AA0001BDB0098C8B14368029383682268019594
:106AB000CDE903360023CDE906230593C5680BF025
:106AC0006CFC6DB12846084901AA0CF01AF8079829
:106AD00008B9059B236008B070BD6FF01500FAE798
