:10100000182F0020614300001BBA00003543000088
:101010003543000035430000354300000000000068
:1010200000000000000000000000000085440000F7
:101030003543000000000000F1430000354300008C
:10104000A5460000A5460000A5460000A5460000F4
:10105000A5460000A5460000A5460000A5460000E4
:10106000A5460000A5460000A5460000A5460000D4
:10107000A5460000A5460000A5460000A5460000C4
:10108000A5460000A5460000A5460000A5460000B4
:10109000A5460000A5460000A5460000A5460000A4
:1010A000A5460000A5460000A5460000A546000094
:1010B000A5460000A5460000A5460000A546000084
:1010C000A5460000A5460000A5460000A546000074
:1010D000A5460000A5460000A5460000A546000064
:1010E000A5460000A5460000A5460000A546000054
:1010F000A5460000A5460000A5460000A546000044
:1011000053B94AB9002908BF00281CBF4FF0FF316E
:101110004FF0FF3000F00CB8ADF1080C6DE904CED3
:1011200000F008F8DDF804E0DDE9022304B07047C0
:10113000704700BF2DE9F04786468C460846089E5A
:10114000154674461946002B40F0C2808542B2FA1B
:1011500082F245D94AB1C2F1200300FA02FC2EFA0C
:1011600003F3954043EA0C0C94404FEA154EA8B2A5
:10117000BCFBFEF8230C0EFB18CC08FB00F943EA7D
:101180000C43994528D9EB1808F1FF3704D299454B
:1011900002D9A8F102072B44A3EB0903A4B2B3FBC5
:1011A000FEFC0EFB1C330CFB00F044EA0344A0429F
:1011B00014D92C190CF1FF3304D2A04202D9ACF19E
:1011C00002032C44241A43EA07401EB1D4400023F2
:1011D00034607360BDE8F0874746DDE76346F1E7BA
:1011E00092BB431B01214FEA154EAFB2B3FBFEFC8D
:1011F000200C0EFB1C330CFB07F840EA0343984518
:1012000062D9EB180CF1FF3004D2984502D9ACF149
:1012100002002B44A3EB0803A4B2B3FBFEFC0EFBBD
:101220001C330CFB07F744EA0344A7424ED92C19A0
:101230000CF1FF3304D2A74202D9ACF102032C44D3
:10124000E41B43EA0040C0E7C2F1200320FA03F1A7
:10125000954090402EFA03F303434FEA154EAFB288
:10126000B1FBFEFC0EFB1C10190C0CFB07F841EA4D
:101270000041884504FA02F422D969180CF1FF30C4
:1012800004D2884502D9ACF102002944A1EB08013F
:101290009BB2B1FBFEFC0EFB1C110CFB07F743EAF3
:1012A00001439F420ED9EB180CF1FF3104D29F424B
:1012B00002D9ACF102012B44DB1B41EA004192E769
:1012C0006046E3E76146F7E76046A3E76346B7E7B2
:1012D000834206D916B9002108467BE7C6E900E03B
:1012E000F9E7B3FA83F78FB9834201D3724508D87F
:1012F000BEEB020460EB030301209C461EB90021F3
:1013000068E73846FAE7C6E9004CF8E7C7F1200C71
:10131000BB4022FA0CF41C432EFA0CF120FA0CF319
:10132000B84001434FEA14490EFA07F5B3FBF9F848
:101330001FFA84FE09FB18300B0C08FB0EFA43EA77
:1013400000439A4502FA07F240D9E31808F1FF304A
:1013500004D29A4502D9A8F102002344A3EB0A0360
:1013600089B2B3FBF9F809FB183308FB0EFE41EA1A
:1013700003418E452CD9611808F1FF3304D28E4504
:1013800002D9A8F10203214443EA0040A0FB0298DD
:10139000A1EB0E014145CE46434602D306D14D4551
:1013A00004D2B9EB020E68EB04030138002EA6D07C
:1013B000B5EB0E0261EB030101FA0CFC22FA07F314
:1013C0004CEA0303F940C6E9003198E74046C5E717
:1013D0004346D9E710F8012B11F8013B012A28BF39
:1013E0009A42F7D0D01A7047034613F8012B002A0F
:1013F000FBD1181A013870472DE9F0472DED028B0B
:101400009FED498B4A4E84B004464FF02003EFF322
:10141000118783F31288BFF36F8FD4F8C0508DB952
:10142000022104F1D8000BF0CAFA002843D10023AE
:101430008DED008B029304F1C80239463D4808F057
:1014400009FBE2E7D4F8C4202B68C4F8C030954209
:1014500008BFC4F8C430D4F8D83043F00203C4F84D
:10146000D830EB6823F0040343F00103EB606B68B2
:1014700087F31188BFF36F8F284698474FF02003FA
:10148000EFF3118983F31288BFF36F8FEB6899072D
:1014900023F0010219D4EA60D4F8D83023F0020313
:1014A000C4F8D83089F31188BFF36F8FDB05ACD453
:1014B00008F0B0F9A9E704F1D0050022012128467F
:1014C0000BF043FC0028F8D1B1E7306823F00303A8
:1014D000EB600028E0D00027D0F80080BA46002852
:1014E000DAD04268954201460BD1016897B972681B
:1014F0003160824200D1716040F808AB07F0E8FD2E
:101500003946B8F1000F0BD0D8F8002040460F46FE
:101510009046E4E739607268824208BF7760EBE783
:101520004246F3E7AFF30080FFFFFFFFFFFFFFFF3F
:10153000601B0020D61B0020014807F089BE00BFB9
:101540002001002007B50BF03DFC4FF47A72A0FBA0
:10155000020302FB0131C00B074A40EA4140106020
:1015600000234FF400420548CDE9002308F050FC69
:10157000002003B05DF804FB680A0020B0030020DF
:10158000014B187800F0A4BAB21B0020044B1A7863
:10159000824202D01870FFF7F3BF0020704700BFEF
:1015A000B21B002008B50BF00DFC4FF47A72A0FBC3
:1015B000020302FB0131114AC30B126843EA4143A3
:1015C0009B1A0F4A934214DD00F0F8FF20B1BDE8EA
:1015D00008400120FFF7DABF0220FFF7D7FF00F035
:1015E00025FA002803DABDE8084000F05BBA09F0EC
:1015F00053FD47F230529342E9DC08BD680A0020EF
:10160000A0BB0D0008B50BF0DDFB4FF47A72A0FB18
:10161000020302FB0131C00B044A40EA4140106062
:10162000BDE808400020FFF7B1BF00BF680A0020F6
:10163000F8B5044610B900252846F8BD0378002BFC
:10164000F9D00F4E0F4FBE420FD30D4EBE42F2D215
:1016500030680BF0B2F830B1356821462868FFF7E2
:10166000B9FE0028E8D00436F0E730680BF0A5F8A2
:1016700018B135682B68A342DED00436E3E700BF1B
:10168000CCEF0000E4EF000070B5194C194D8CB0A0
:101690000022002303A9204607F0D6FB08B10CB0B6
:1016A00070BD2B68059E5868DDE9031208F087FFBE
:1016B0000028EDDBFF238DF81830B6FA86F35B09BE
:1016C00007908DF820300BF07DFB4FF47A72A0FB71
:1016D000020302FB0131C00B40EA4140C90B8DE817
:1016E000030006ABCDE90A010FCB00F001FACFE70A
:1016F0008C040020440B00201FB50A4C2468A46809
:1017000084420DD183F00103CDE901120393064811
:101710000022002301A907F047FB044807F098FDC9
:1017200004B010BD440B00208C040020340B0020BA
:101730001FB50023CDE90233044B8DF80C0001A83E
:10174000019308F06CFF05B05DF804FBE8D80000D9
:10175000014B0360322070476C0A002038B5044604
:1017600000282FD0194D2B68834229D053B1986897
:1017700040B183685B6803B198472B680021986883
:1017800001F08EFB1249134B8C4214BFED21002156
:101790003222002008F02DFF002812DBA0682C6008
:1017A00070B1012101F07CFB2B68986883680A49BD
:1017B0001B6898472B68986883689B6803B19847B3
:1017C000002038BD6FF01200FBE700BF440B002083
:1017D000D4D800006C0A0020F916000038B5054680
:1017E00048B90648FFF7BAFF041E02DB2846FFF798
:1017F0009FFF204638BD6FF01504FAE7D4D80000EB
:10180000F7B50C4615460D4901AA1E4609F0E9FF39
:1018100068B1019B6BB9012C0DD1094F22463946A5
:101820003046A847002802DD3878FFF7D7FF03B01D
:10183000F0BD0020FBE76FF01500F8E7F0E50000D1
:10184000580300200148FFF789BF00BFD4D800002B
:1018500008B50B480B490BF025F90B4809F01BFFA5
:1018600018B10948012109F0E9FE084A002342F8AD
:10187000043B0133322BFAD1BDE80840FFF7E2BF49
:10188000340B002089160000A4D500006C0A00204B
:1018900030B51C4C04EB00148FB0606883683A21AB
:1018A000DB68984758BB60686189836804AD1B6931
:1018B0002A46984718BB95E803000123069307AB17
:1018C00083E803006389ADF824300BF07BFA4FF412
:1018D0007A75A0FB053205FB0121DB0B43EA41438E
:1018E000C90BCDE90A31237B8DF830300EAB13E9FB
:1018F0000F008DE80F0006AB0FCB00F01FF90FB003
:1019000030BD00BF4001002010B5134CBFF35B8F0A
:1019100054E8002F22F0010144E800100028F7D11C
:10192000BFF35B8FD20702D50020FFF7B1FFBFF3F3
:101930005B8F54E8003F23F0020244E800210029B5
:10194000F7D1BFF35B8F9B0704D5BDE810400120A2
:10195000FFF79EBF10BD00BF480B0020064901EBFA
:101960000012506830B183689B68114608310BB192
:10197000024A1847704700BF40010020811900004B
:1019800010B5104C0C1B102C1BD824110AF06CFF46
:1019900090B1BFF35B8F01230B4AA34052E8000FC5
:1019A000184342E800010029F8D1BFF35B8F0748D4
:1019B000BDE8104007F04CBC2046BDE81040FFF7E2
:1019C00067BF10BD48010020480B002030010020F7
:1019D00002289ABF024B03EB40000020704700BF73
:1019E00054030020F8B50F4D0F4E761B07460C46EA
:1019F00005EBC105C6F3C706A64201DC00200CE0DA
:101A00002A683B689A4209D13C716B6838461B686A
:101A1000984718B1431E012BF0D9F8BD01340835A1
:101A2000EAE700BFE8E9000018EA000037B501A8BE
:101A300006F07CFF194D019C00232B6018235843AE
:101A400018380444019B9C4202D2002003B030BDF0
:101A500020460AF0B2FEF0B1204609F0E5FDD0B90B
:101A6000204609F022FEB0B9204609F00AFE0146E0
:101A700088B9204601F014FA20F0200378330AD008
:101A800010F1860F07D00028E0DB2B68044A42F8EB
:101A9000234001332B60183CD4E700BF4C0B0020DF
:101AA0009403002070B5084D084E2C68013C002CB2
:101AB00002DA00232B6070BD56F82400012101F0EA
:101AC000EFF9013CF3E700BF4C0B0020940300202A
:101AD0001FB50023CDE90233044B8DF80C0001A89B
:101AE000019308F09CFD05B05DF804FBECD8000004
:101AF00084B030B589B00CAC84E80F0000230193AA
:101B00000CAD084B00930FCD02AC0FC495E8030059
:101B100084E80300684608F082FD09B0BDE8304063
:101B200004B07047F0D800000268034B9A420CBF23
:101B300008300020704700BFF0D8000084B030B5F6
:101B40008BB00EAC84E80F00002301930EAD084B60
:101B500000930FCD02AC0FC495E80F0084E80F008E
:101B6000684608F05CFD0BB0BDE8304004B070473B
:101B7000F4D800000268034B9A420CBF08300020E2
:101B8000704700BFF4D800001FB50023CDE9023331
:101B9000044B8DF80C0001A8019308F040FD05B03E
:101BA0005DF804FBF8D800000D4A52F820300133EC
:101BB00042F820300B4A0123117883400B430A4935
:101BC0000978DBB2137023EA01030849084A09784F
:101BD00050780B43181A537018BF0120704700BF8C
:101BE000500B0020B51B0020B31B0020B41B0020AD
:101BF0006603002010B5114A52F82030002B19DD81
:101C0000013B42F820300E4A2BB913780121814064
:101C100023EA010313700B480B4B047810780B4A2E
:101C20005978127820EA040010435870401A18BFFF
:101C3000012010BD6FF01500FBE700BF500B002026
:101C4000B51B0020B31B002066030020B41B00203E
:101C5000044A012312788340D8B213401B1A584219
:101C600058417047B51B002010B5084B084A187042
:101C7000084B51781C78084B1B7823EA040318435F
:101C80005070401A18BF012010BD00BFB41B0020C7
:101C900066030020B31B0020B51B0020074B002269
:101CA0001A70074B074A1978074B50781B7823EABC
:101CB0000103181A537018BF01207047B41B00208D
:101CC000B31B002066030020B51B0020A0F1E00339
:101CD000072B03D82030C0B2FFF766BF064B0622A1
:101CE00013F8011F19B1013AFAD10020704718709A
:101CF0000028F8D0F9E700BF68030020A0F1E00356
:101D0000072B10B405D820305DF8044BC0B2FFF7A4
:101D100071BF0023064A194612F8014F0133A04251
:101D200008BF1170062BF7D100205DF8044B7047F7
:101D300068030020A0F1E003072B03D82030C0B2D5
:101D4000FFF786BF064A002312F8011F884204D01D
:101D50000133062BF8D1002070470120704700BFE7
:101D600068030020024B00221A605A60704700BFCF
:101D700067030020B0F5805F10B510D20949002339
:101D800001EB4302B2F8014024B10133062BF7D135
:101D9000002010BDA2F801000028F6D0F8E76FF08F
:101DA0008500F6E75903002030B50023074C19469B
:101DB00004EB43020133B2F80150854204BF517075
:101DC0009170062BF4D1002030BD00BF59030020D4
:101DD000024B00221A605A609A6070475A03002032
:101DE000074A002302EB4301B1F80110814204D0FD
:101DF0000133062BF6D1002070470120704700BF49
:101E000059030020004870476603002000487047CF
:101E10005903002082B02DE9F84308A90068109CFE
:101E200081E80C00174608F008FB0569099823684B
:101E3000666832384200F3B114183C4405EBC40E16
:101E4000DFF84890DEF80410314455F8346091FB17
:101E5000F9F833440E9E434436884FF4B47C09FBB2
:101E60001811BCFBF6FC93FBFCF60CFB163345F893
:101E70003430CEF8041002443A440C32002045F8C5
:101E80002260BDE8F84302B0704700BF40420F0037
:101E900030B593B0182200210CA80BF075F8254D31
:101EA00006AC00220CA90023284606F0CDFF01460F
:101EB00000283DD1182220460BF066F80C9B0793B2
:101EC0000AF080FF4FF47A72A0FB020302FB01319B
:101ED0009DF834308DF82830C00B9DF8443040EA2E
:101EE0004140C90B13F00102CDE9080118BF0122DE
:101EF000049208AB0FCB8DE80F000EA894E80C00FD
:101F000008F0F1FA119B012BCBD9C3F35E044FF417
:101F1000004540F2E73000214FF47A720023E5FBE0
:101F20000401FFF7EDF802460B46034807F0F8F905
:101F300013B030BDB40400200000002030B58BB0D9
:101F400001AC84E80E0042680492027C8DF81420F3
:101F500094E8070006AD85E80B000F9A9DF838302D
:101F600043EA4203099309480022002304A906F02A
:101F70001BFF002804DB06480AF0DEFD10B100203C
:101F80000BB030BD0248FFF783FFF8E7B404002030
:101F90000000002030B585B06D46002409490A488C
:101FA0000AF0BEFD00946C6000F03CFB95E8030075
:101FB000064A02AB83E8030082E80300204605B02E
:101FC00030BD00BFD11F0000B8050020B80B0020B5
:101FD00002490348012201F08BBE00BFB61B00205E
:101FE000D8E6000082B00DF1080C0CE90300194698
:101FF0009DF8003010461BB1012B05D0054A00E0CA
:10200000054A02B007F078BF019B044A02B007F00E
:1020100073BF00BFF7E60000ECE60000F0E600004A
:10202000072804D00C2808D06FF085007047064BB5
:102030001B78002BF8D108F0F5BC034B1B78002B64
:10204000F2D108F0F7BC00BFB80B002010B5084C67
:10205000FFF788FEFFF7BCFE23780BB908F0E2FC1F
:1020600023781BB9BDE8104008F0E4BC10BD00BFE8
:10207000B80B002070B588B0002305AECDE905335C
:102080000F4C00F0CFFA96E8030001AD94E80C0085
:1020900085E8030008F0D5FB80B9FFF7D7FF95E886
:1020A00003000A23324684E80300FFF79BFF94E80D
:1020B000030003AB83E8030000F022F808B070BD12
:1020C000B80B002070B50C4615460B4900221E4681
:1020D00009F087FB08B9002070BD012C08D1074921
:1020E00022463046A8470028F6DDFFF7C3FFF2E797
:1020F0006FF01500F0E700BFE2E60000B61B00201D
:102100007FB56B4683E8030093E80300002206AB2B
:1021100003E90300039202A8034A029208F07FFA3F
:1021200007B05DF804FB00BF80D9000002281FB58E
:1021300030D830BB11B9002004B010BD174B1A685D
:10214000012383401343154C9A422360F3D08DF84A
:1021500000008DF801100AF035FE4FF47A72A0FBF2
:10216000020302FB0131C00B40EA4140C90BCDE93B
:10217000020104AB13E90F0004B0BDE8104000F009
:1021800015B9064B1A680029DAD10123834022EAE7
:102190000303D8E76FF01500CEE700BF880C0020DE
:1021A000014B196808F0B9BB880C0020312937B5FC
:1021B00004460D4602D9002003B030BD0228FAD8EB
:1021C00001A8FFF7C5FA0028F5DB8542F3DA019B89
:1021D00053F82530312BEED84FF4167202FB04F081
:1021E0000C2202FB0300014B1844E5E78CD90000E8
:1021F0002DE9F74FDDE90CABDFF84C9007460C46B4
:1022000015461AB10F4B1B6849F8213002265FFAB8
:1022100086F859F82410404608F07FFB30B9013E9B
:10222000F5D26FF0850003B0BDE8F08FCDE900ABCB
:102230002B4622464146384608F07FFB0028F2DD57
:10224000EDE700BF880C0020C00B00202DE9F04F07
:102250002DED028B9FB0544ECDE90A129DED2A8BD5
:1022600000EB4003804606EB830602254FF0000A90
:1022700000F132090DF1680B306B08F0DEF8002830
:1022800000F0878000234046CDE91033FFF7A0FB24
:10229000CDE90C598DED0E8B0DF1300C0446BCE8E8
:1022A0000F0012AF0FC79CE8030087E80300CDE9D9
:1022B00012598DED148B0DF1480EBEE80F000DF193
:1022C000600CACE80F0097E803008CE80300306B6B
:1022D00008F0B3F800285CD083681F69002F58D03D
:1022E00006F1300309930A9B06930B9BCDE9044347
:1022F0009BE80F008DE80F00DDE918230998B84727
:10230000002846DBBAF1000F2FD1E8B2FFF748FFF3
:1023100080F00107FFB2CDE90C598DED0E8B0DF168
:10232000300CBCE80F0012AC0FC49CE80300FFB2F5
:1023300084E80300CDE912598DED148B0DF1480EA0
:10234000BEE80F000DF1600CACE80F0094E803004C
:102350008CE80300306B08F070F840B96FF015009E
:102360001FB0BDEC028BBDE8F08F0127D3E7836877
:102370005C6914B96FF08500F2E704979BE80F00E1
:102380008DE80F00DDE918230998A047002808D040
:10239000E6DB013D6B1CA6F118067FF46DAF002053
:1023A000DEE74FF0010AF4E78001002010B58AB0A3
:1023B0006C4684E80F0000230593064B049394E8D1
:1023C0000F000AAC04E90F0004A808F028F90AB0CD
:1023D00010BD00BF94E0000084B030B589B00CACF3
:1023E00084E80F00002301930CAD084B00930FCD40
:1023F00002AC0FC495E8030084E80300684608F0C7
:102400000EF909B0BDE8304004B070479CE0000010
:102410000268034B9A420CBF08300020704700BF8F
:102420009CE0000073B5194C194EB442254602D306
:102430006FF0120008E02B68DB68043433B9154CE8
:102440002368AB4211D1002002B070BD9847C0F3A1
:1024500007238DF804008DF80530C0F30743C0B2A0
:102460008DF806300028E0D0E9E723B11B689B68AF
:102470000BB1002098472B6825609B68002BE2D0A9
:10248000012002B0BDE87040184700BFE4EF000033
:10249000E4EF00008C0C002007B5094B01911B688C
:1024A000834207D19DF8063033B903B05DF804EBE1
:1024B000FFF7B8BFFFF7B6FF002003B05DF804FBDD
:1024C0008C0C002070B5094C094D0A4EAC422346D5
:1024D00003D3BDE87040FFF7A5BF1B681B69043438
:1024E000002BF3D030469847F0E700BFE4EF000040
:1024F000E4EF00009924000082B0F0B5254D91B0C2
:102500000C4616A981E80C002B680646002B3DD02E
:102510001B68002B3AD01B68002B37D020220021EB
:102520000DF11D000AF030FD01238DF81C306368A9
:10253000CDF82D30A368CDF83130179BCDF835306C
:102540009DF8683021688DF8393010229DF8703080
:102550008DF83A300DF11D0007F059FF2B680AADD8
:10256000D3F800C00FCD6C460FC495E8030044F8C3
:10257000040B07AF217097E80E00DCF800403046EE
:10258000A04711B0BDE8F04002B070476FF01200F4
:10259000F7E700BF8C0C002008B5044801F0F2F802
:1025A000002818BF6FF0150008BD00BFE52500002A
:1025B000014B1878704700BF6F030020084B1B7851
:1025C0000B2B4FF001000AD8984010F4CD6F05D1C5
:1025D00010F4016F0CBF01200020704702207047EB
:1025E0006F0300200A2808B5024613D00A4B0B4996
:1025F0001870FFF7E3FF02280AD10B78032A08BFFF
:1026000043F001030B70BDE80840054806F020BE0A
:102610000023F7E708BD00BF6F030020B71B0020B1
:10262000C801002008B5FFF7C9FF022806BF034B09
:102630001878002000F0010008BD00BFB71B002083
:1026400010B50948094C06F07DF9206048B1084BE7
:1026500008494D2202F004FA206809F02DFA002002
:1026600010BD6FF01500FBE79AE70000900C00200A
:10267000A4E00000A0E7000038B504460D46FFF7CF
:1026800097FF0B280BD8DFE800F01E1E0A0A1E0673
:102690000A0A0A0A0A1EBDE8384001F03DB84FF4A4
:1026A00076720023094806F037FD09482146006884
:1026B00000232A4609F00AFA044610B1034806F03E
:1026C00007FD204638BD6FF01204FAE7DC04002055
:1026D000900C0020014806F0FBBC00BFDC04002089
:1026E00010B5094C0A44914200D110BD11F8013BCC
:1026F000584003090001E35CC0B2434018091B01C4
:10270000205CDBB25840EEE7EDE70000014B1B68B0
:10271000184700BFD801002030B585B004460D46EB
:102720001022002168460AF02FFC02238DF80230A7
:102730002A46044B01932146684607F009FC05B080
:1027400030BD00BF0D27000080B505460E46174678
:10275000984607F015F903460AF0F2FDDFF81890E5
:10276000044649F80030424630463946A84754F8F6
:10277000090001F00DFE00BF080000002DE9F04740
:10278000058B04462807904611D4022905F0070559
:1027900040F0CD80204608F064FB78B10138218BF1
:1027A000042811D8DFE800F0C3106D8595000129D9
:1027B0000CBF45F0100545F02005258388F31188EE
:1027C000BFF36F8FBDE8F08701F0070AAA4500F05C
:1027D000A6800027B9463E46A368002B00F0BD80C6
:1027E00041F00801218388F31188BFF36F8FA1683E
:1027F000002900F0BB800D68002900F0B780D1F8F7
:102800000480334652462046C047002D76D02B68C0
:1028100029461D46F0E701F007035A1F012A1BD87D
:10282000002221F00701062B276889B2C4E90022A3
:1028300009D13B4603E0628B013262831B68002BA7
:10284000F9D141F002012183204608F00AFB00285B
:102850007BD041F0200177E0042B0AD121F0070161
:1028600089B22183204608F0FCFA10B141F0200122
:102870002183218B01F0070AAA4550D00027B946D1
:10288000AAE7236921F0070141F00601062DD3F8DC
:10289000009021832DD1B9F1000F40D041F0080103
:1028A000218388F31188BFF36F8F3A492046C847C8
:1028B00029E021F00701236941F0040189B2042DC8
:1028C000D3F804902183E6D000273E464FF0040A57
:1028D00082E721F00701236941F0050189B2052D46
:1028E000D3F808902183D6D000273E464FF0050A42
:1028F00072E700273E464FF0060A6DE72B4687E752
:10290000B9F1000FD1D14FF02003EFF3118883F319
:102910001288BFF36F8F238B23F008032383258B4B
:10292000EA062ED525F01003238305F00705666916
:10293000218B002EBFF66FAF00232768C4E9003358
:1029400021F0070141F001012183218B01F0070AE9
:10295000AA454FF000097FF43FAF002F9BD041F014
:102960000801218388F31188BFF36F8F002FC7D030
:102970003D68394633465246204608F09EFA2F46B7
:10298000F4E7AB067FF51AAF25F02003238305F0AB
:102990000705FFE6E7AE000008B504464FF0200249
:1029A000EFF3118382F31288BFF36F8F03F0AAFF56
:1029B000204601F08FFF034808F060F801F058FE50
:1029C000FCE700BFFDE7000003F0C6BF2DE9F743B9
:1029D0000F4606460821C06ADFF8509008F0FEFB5B
:1029E0003C68241A80463C6004EA0905AC4203D8DE
:1029F000002003B0BDE8F08308236A462146304634
:102A000008F05FFB0028F4D16946304608F0F0FB7F
:102A100040B1BDF80230BDF804203C6005EA09056C
:102A200013441D44A4EB0804E0E700BF0000FFFFCF
:102A30002DE9F047044688B000F11407384609F044
:102A400032FFA06A8368DB689847E06228B96FF0BC
:102A50001505284608B0BDE8F087A06A8368DB68E2
:102A600098470368013B1F2BF1D8A06A216805AA8B
:102A700009F0A3F90028EAD1A589002DE7D0069B2B
:102A8000B5FBF3F203FB1255002DE0D1E389012BD6
:102A9000DDD9E36A009593F804904FF0FF334FF0CF
:102AA000FF32384606F02AFAE06A082108F096FB61
:102AB000A8460646E3891FFA85FA534508D8E389F4
:102AC000434523D1384606F093FA6FF02C05C0E752
:102AD000A1892B04891B13FA81F14A460823204659
:102AE000009108F03CFB78B16946204608F0F7FAFF
:102AF00008F10108009908234A4620461FFA88F881
:102B000008F02DFB0028DAD00135D3E753450BD16F
:102B1000009908234A46891B204608F020FB18B973
:102B20006946204608F0DBFA69462046FFF74EFF6B
:102B3000054618B1384606F05BFA8AE7009B6360E9
:102B40004FEA13484FEA0848C4F80880D4E9011353
:102B500099420FD3082301AA204608F0B2FA05468D
:102B60000028E7D101AB13F8012B914533D1013592
:102B7000082DF8D163681B0C1B046946204600939E
:102B800008F0ADFAA38900994A46204608F0E7FA12
:102B9000051ECFDB636876D006EB03084FF6FF799E
:102BA000A389CDF800801FFA88F29B1B9A422ED38E
:102BB00000236168002B43D0090C090400912046D2
:102BC000694608F08CFA0099204608F0EDFA0546AF
:102BD000002D74D0AEE701A9204608F009FB626819
:102BE00010B9921B6260B1E7BDF80850BDF806103D
:102BF000E06AC4F80880294408F0F0FA40449042A2
:102C0000A060EED1002DECD06FF01C0568E0082329
:102C100003AA4146204608F054FA0546002889D107
:102C200003A9204608F0E4FA30B1BDF80C304B455A
:102C300002D1BDF810300BB1B044B1E70123B8E7C1
:102C4000204608F0B1FA054600287FF473AF6368A8
:102C5000264AA18913400B44A3EB4603636013404B
:102C6000A360204608F0A8FBB1E75B1A4A4620465D
:102C700008F075FA051EFFF65DAF08D0E26AA3689A
:102C800012681344A360D4E901318B42EDD8616826
:102C9000A38901EB46029A429AD1DFF85080A268DC
:102CA00001EA08039A4293D0204608F07DFA0546CF
:102CB00000287FF43FAF636803EA0803A360A38999
:102CC000A288A3EB46039A4206D0384606F090F954
:102CD000012323740025BCE6204608F056FB054678
:102CE000384606F085F9002DF2D0B2E60000FFFF6D
:102CF0002DE9F04F1D46037C89B004468946904675
:102D0000002B00F0BE80C26A0821104608F066FA67
:102D100029468246104608F061FAA389A3EB8A038C
:102D20009D42074600F2B0801DB1B8F1000F00F0DF
:102D3000AB806368039304AA03A92046DDF80CB0B6
:102D400008F08EFA0646002864D1BDF810304B45D5
:102D500005D06268039B9A42EDD1E5B95AE004A917
:102D6000204608F045FA0028F3D0BDF81200BDF85F
:102D7000143075B19D420ED14FEA1B410904014444
:102D80002B464246204608F0B7F9002803DC0646E9
:102D900040E0002B3ED0002F40D104F114030193FA
:102DA0004FF0FF320198DFF8E8B04FF0FF3306F044
:102DB000A5F8E3899E4261D0D4E90123F9188A423B
:102DC0002FD3ADF81A3006A8FF238DF81E30ADF8CA
:102DD0001890ADF81C5008F0B9F9A1682B4642468E
:102DE000204608F087FA29468246E06A08F0F6F99C
:102DF000A2680244A260BAF1000F07D106A92046DA
:102E000008F0B2FA002814BF8246AA46019806F0DC
:102E1000EFF85646304609B0BDE8F08F5744BFB2D0
:102E2000BBE7E06A082108F0D9F94FF6FF73ADF867
:102E3000183000218DF81E30A389ADF81C10111830
:102E400002EA0B021A44101A606006A8ADF81A10C4
:102E500008F07CF906A9204608F086FA211D2046D4
:102E600008F03DF9636803EA0B03A360204608F00D
:102E7000A3FA82460028C9D101369AE76FF01B0AEF
:102E8000C4E76FF00C06C5E76FF01506C2E700BF98
:102E90000000FFFF014B036000207047B8E0000016
:102EA00070B5446903460D46002C3AD008F0FDFB8E
:102EB000002839D12148227A465CB24237D02048D6
:102EC000405C904236D1E26818469047002815DAF7
:102ED000022D11D0032D10D110F1860F0CD0BFF3AD
:102EE0005B8F231D53E8001F41F0020143E80012ED
:102EF000002AF7D1BFF35B8F267270BD022D2672B8
:102F000001D00020F9E70434BFF35B8F54E8003FA1
:102F100023F0020344E80032002AF7D1BFF35B8FAD
:102F2000EFE76FF05700E8E74FF0FF30E5E76FF0AD
:102F30007700E2E76FF08500DFE700BF2AE80000D6
:102F400026E8000070B5114B1C680D46DCB1104B33
:102F5000196800238B4202DB6FF0010070BD22462E
:102F600012F8106B864202D001331446F2E7E06893
:102F700010B96FF01200F1E709F01FFC0028F8D03B
:102F80002C600020EAE76FF00C00E7E7DC0100208E
:102F9000B8E0000070B588B005460C46C0B269467E
:102FA0001646FFF7CFFF00281BDB0098C8B1436827
:102FB0000293836822680195CDE903360023CDE9A9
:102FC00006230593C56808F07AFB6DB128460849C9
:102FD00001AA08F0F6FE079808B9059B236008B01F
:102FE00070BD6FF01500FAE76FF01200F7E700BF51
:102FF000EDB60000F0B40C4B0C4E5F6A0C4BB342C4
:1030000003D36FF08500F0BC70475D68BD4209D303
:103010001C693CB195F802C00579AC4502D1234644
:10302000F0BC18472433EAE7940C0020B4050020D4
:10303000900500202DE9F047134CDFF85080DFF8B1
:10304000509005460E461746444503D36FF0850061
:10305000BDE8F0876268D9F824309A4212D3A36998
:1030600083B190782979884205D13A46314628467D
:10307000BDE8F04718475279012A03D13A46314654
:10308000284698472434DFE790050020B405002047
:10309000940C00202DE9F0410B4CDFF83080054600
:1030A0000E461746444502D36FF0850009E0636978
:1030B0000BB92434F6E73A463146284698470028AB
:1030C000F7D1BDE8F08100BF90050020B4050020D5
:1030D00010B5044608F036FD10F1780F00D050B955
:1030E000054A204608F024FBD2F8C43023EA000346
:1030F000C2F8C430002010BD940C0020024B002206
:103100001A605A60704700BF4F0D002070B50B4B1E
:103110000B4CA34201D3002070BD196A1E7F002210
:103120000439D5B2AE4201D82433F2E7013211F8A6
:1031300032508542F5D10120EEE700BF9005002016
:10314000B405002008B509480378C3F341130A33D6
:1031500050F823303BB100F1080200F1100198470C
:10316000C043C00F08BD1846FCE700BF940C002008
:1031700004282DE9F14FDFF8A09004460F4616D041
:1031800001282DD1DFF88C8098F8B93043B300F0D6
:1031900071FD1F4D4D4520D2D5F820B04FF0000AEB
:1031A0002B7F5FFA8AF6B34204D82435F2E7FFF7A3
:1031B000A5FFE7E70BEBC6060AF1010A307908F034
:1031C000C1FC0246307908F0B3FAD8F8C430002ABE
:1031D00023EA0003C8F8C430E2DA002388F8B930E3
:1031E0000B4D4D4508D30B4B1B6A6BB1394620463E
:1031F00001B0BDE8F04F1847EB681BB13A462146D5
:10320000284698472435ECE701B0BDE8F08F00BFB1
:1032100090050020940C0020B405002073B5C4B2C2
:1032200063060D468DF8074007D02046FFF76EFF76
:1032300078B10D4B93F8BA0058B10B4E204655B1FA
:1032400002F01AF8F3691BB10DF107010820984745
:10325000012002B070BD02F037F8F369002BF7D0FF
:103260000DF107010920F2E7940C002073B5867870
:103270008DF80060037942791C4C43EA0223ADF8D3
:103280000230C378304603F003038DF8043008F0B1
:103290004FFAD4F8C430184205460BD0304600F03F
:1032A000CBFC3046FFF714FF09F0DEFA10B9962088
:1032B00006F04CFB684601F0BBFF10F1780F03D01D
:1032C00010B1002002B070BD9DF8000002F038F887
:1032D00010F1780F01D00028F3D1D4F8C4300120C8
:1032E0002B4384F8B900C4F8C430EBE7940C0020F9
:1032F0002DE9F047A34EB36904460F461546FBB9C6
:10330000237803F01F03012B00F09D80022B00F0B7
:10331000048133BB94F900002A686178002834DA0C
:10332000062912D008292BD0D9B901231370517066
:1033300096F8C3305B0043F00103137002232AE1C7
:1033400098470028DCD100200DE06288100A011F98
:103350000129844605D9072803D8716AD2B20C78AE
:103360001CB96FF01500BDE8F0874E78664503D1B3
:103370009A4200F00B8101332144F0E70B780AE117
:1033800096F8BA301370012305E101390829E8D80D
:1033900001A353F821F000BF313400006333000073
:1033A0003F34000063330000BD330000633300008E
:1033B0006333000063330000C9330000A07801F0DC
:1033C00025FF0028BFD0CCE76388756A63BBFFF791
:1033D00095FE638886F8BA30F369002BB3D06A494A
:1033E00003209847AFE76B78042B10D0052B11D042
:1033F000022B04D16F796388BB4208BF01202B7870
:103400001D442B78002BEED10028AAD0DFE795F8D9
:103410000380F4E76388BB42F1D1B8F1000FEED12D
:103420002846FFF723FFEAE7FF270020B846E8E732
:103430006388012B95D1002386F8C33083E7638826
:10344000012B8ED1F8E796F8BA30D5F800C0002BE2
:1034500087D0756AA38894F804E02A46107800287B
:103460003FF47FAF5178022904D192F80480F045EF
:1034700000F293800244F1E78CF800208CF80120E0
:10348000396060E7154494E00B2A7FF46AAF0027A7
:103490004FF0FF08C146BA4606E06B78042B0FD008
:1034A000052B21D02B781D442B78002BF5D1F36907
:1034B00013B1514607209847002F7FF444AF50E7DF
:1034C00095F80280A38895F803909845EAD163881F
:1034D0009945E7D1B8F1070F1CD806EB0803AA46B7
:1034E00083F8BB900127DDE7A3884345DAD1A378B1
:1034F0004B450AD0AF78384600F09EFB3846FFF7C0
:10350000E7FDB0FA80F77F09CCE72846FFF7AEFE6B
:103510000746C7E7AA460027C4E794F90020637866
:10352000002A18DA002B7FF41CAF24792D6863067B
:103530000AD02046FFF7EAFD00283FF412AF96F8C4
:10354000BA30002B3FF40DAF2946204601F0DCFED7
:1035500000236B70F2E6012B08D0032B7FF401AF40
:103560006388002B7FF4FDAE012103E06188002910
:103570007FF4F7AEA088FFF751FE00287FF4E3AE9A
:10358000EFE600BF940C00204E0D002002282960B9
:103590007FF4F4AE4B883B60D5E694F90000627886
:1035A0000028BFF671AF002A3FF466AF0A2A7FF405
:1035B000D8AE2A78002A3FF4D4AE697804297FF483
:1035C00061AFA9788B427FF45DAF072B96BF9B1943
:1035D000002393F8BB308CF80030D4E613B5164CBA
:1035E000237DF3B9E268A168019201AB802008F065
:1035F000ADF8019AA3681344A360E3689B1AE360E3
:103600006BB962B12369E2889A4208DD94F8C82058
:1036100093FBF2F102FB11330BB90123237502B0C6
:1036200010BD00231A4619468020237502B0BDE85C
:10363000104001F0AFBE00BF940C002030B585B043
:10364000002302460D460193002858D1002935D1A8
:1036500008220B460DEB020108F08DFA002804DA6F
:10366000802001F009FE05B030BD2A4C029A22608C
:10367000039A626004F13802A2609DF90820BDF847
:103680000E302575002AC4E903550ADB802B04D9C6
:10369000802001F0F1FD0020E3E713B1C4E903331A
:1036A000E1E7FFF74FFD0028DAD0E28823699A426C
:1036B000D4BFE260E360FFF791FFD4E7154CD4E993
:1036C0000215002D01AB04DC08F055FA0028CADA17
:1036D000C6E72A4608F04FFA0028D9DB019AA3680A
:1036E0001344A360E3689B1AE360002BBBD104F191
:1036F0003803A360FFF726FD0028DCD1B0E780285F
:10370000B1D1044BDA68002AD5D11B7D002BD2D170
:10371000A9E700BF940C0020044B93F8C3300BB111
:1037200008F038BA6FF00C00704700BF940C00200E
:10373000054B064A9A62064ADA62064A1A63064A44
:1037400058629A6100207047940C0020F13200000A
:10375000F52F0000953000003530000010B5084B03
:1037600093F8B84034B900F0E3F830B1FFF7E0FF68
:10377000204610BD6FF07700FBE74FF0FF30F8E711
:10378000940C00202DE9F341414D04466F6A4148F5
:103790004FF0FF324FF0FF3305F0B0FB95F8B86003
:1037A000002E6ED13C482C62E86101F00DFF01F063
:1037B000FBFC041E49DB00F081FA041E45DB7B782C
:1037C000012B61D1FB79002B5ED0684685F8C830AB
:1037D000ADF802308DF804608DF8006001F028FD2E
:1037E000041E32DB802768468DF8007001F020FD52
:1037F000041E2ADB2949304601F0D2FE041E24DBD8
:103800002649384601F0CCFE041E1EDB244CDFF8AE
:103810009480444520D3002001F092FD041E14DB67
:10382000D5F8C430802043F00103C5F8C43001F05E
:1038300087FD041E09DBD5F8C43043F48033C5F896
:10384000C430012385F8B8300024124805F0D0FBBD
:10385000204602B0BDE8F081276A0026227FF3B23D
:103860009A4201D82434D4E707EBC30257F8331047
:10387000107901F095FE01360028EFD04FF0FF34AB
:10388000E3E76FF07704E0E76FF01504DDE700BFD2
:10389000940C002050040020713100003D360000DF
:1038A00090050020B405002030B51F4B8BB005AA51
:1038B00003F1100518685968144603C40833AB4275
:1038C0002246F7D11B7823701022002101A809F0AD
:1038D0005BFB12220021154809F056FB102101A8BC
:1038E00008F0F0FA00281BDD0828B8BF08200938C6
:1038F00001AB0E491A18002012F8013F0AAC04EB84
:10390000131403F00F0328336B44013014F8144CE4
:1039100013F8143C0C7008284B7001F10201EBD134
:1039200002480BB030BD00BF2EE80000B81B0020DD
:103930002DE9F04F704C87B04FF0000B00264FF090
:10394000011AB0463546B14623782BB96B4B023489
:103950009C42F3D1684833E06378052B1BD8DFE83D
:1039600003F09003C8901D3B402304A88DF810B0CD
:10397000ADF812308DF814B008F0CFF840B108233C
:1039800004A8ADF8123008F0C8F808B1ADF812B0CC
:10399000BDF81230E37123781C44D5E7E378002B9F
:1039A000F9D1A3787BB108F101085FFA88F8F2E752
:1039B0006B689C4209D02435514B9D42F8D30020BE
:1039C00007B0BDE8F08F4F4DF6E7AB68002BEAD0AB
:1039D000414620469847E6E7002DF0D000222B7F95
:1039E0009A42ECD2296AA07801EBC2010B79984285
:1039F00001D00132F3E70127E07800F003008DF8F1
:103A00001400207994F805C040EA0C20ADF81200AB
:103A100094F902000028FBB228DA07F110004FF0F9
:103A2000010C0CFA00F010EA0A0F26D143F08000D6
:103A30008DF8100004A8CDE90213019208F06DF88A
:103A4000DDE90121039BC0B99DF81020A27012F09E
:103A5000800F18BF10330A7118BFDBB24FF001029C
:103A600014BF9A40BA404AEA020A94E70120B840DB
:103A700010EA0A0F01D11846DAE70137102FBBD13F
:103A8000B7E7032E1DD1FFF70FFF074668B1FDF71B
:103A9000ABFC102809D13846A31C07F1100250F8DE
:103AA000041B43F8041B9042F9D123786FF0020104
:103AB000E218091B04EB5303D14213D50136F6B2C9
:103AC00069E7002EF1D1B9F1000F3FF478AFA4EB14
:103AD000090389F80230C3F3072389F8033089F812
:103AE0000480EBE702F801BC13F8010902F8020DAB
:103AF000E2E7A1464FE700BFFC0400208E0500204E
:103B0000B40500209005002010B5094B00211A468D
:103B10001C78844204D15C6814B102EB811010BDA2
:103B20000131042903F14003F2D10020F7E700BF7F
:103B3000600D00202DE9F34150F8283C10F82C6C62
:103B40001033044610D1036950F8202C990739D559
:103B5000EAB913F0040304D11A461946304607F0B7
:103B6000F5FD002344F8283C54F8283C10330BD0D2
:103B700054E9077554F8148C08F076FE00284CD0F0
:103B80002C48214608F0BBFF02B0BDE8F08150F898
:103B9000241C01AB304607F0D9FD10B16FF01503BE
:103BA000E0E7019A54F8243C134444F8243C54F8C8
:103BB000203C9B1A44F8203C54F81C3C134444F825
:103BC0001C3CD1E750F8241C01AB304601F05EFCF0
:103BD0000028E3D1019D54F8243C2B4444F8243CB4
:103BE00054F8203C5B1B44F8203C54F81C3C2B440C
:103BF00044F81C3C002DB4D0304601F0EBFCB5FB82
:103C0000F0F303FB1055002DABD154F8203C002BF2
:103C1000A7D0304601F082FCA6E744F8180CA4F1C6
:103C2000100005F055FA002DAED042463946304618
:103C3000A847A9E76809002010B54FF02003EFF36B
:103C4000118483F31288BFF36F8FFFF75DFF50B1CC
:103C50004368103307D16FF08B03436000F12C01F0
:103C6000034808F04CFF84F31188BFF36F8F10BD39
:103C70006809002070B50F4C04254FF02003EFF3C6
:103C8000118683F31288BFF36F8F6368103307D1F7
:103C90006FF08B030848636004F12C0108F02FFFDC
:103CA00086F31188BFF36F8F013D04F14004E4D126
:103CB00070BD00BF600D00206809002070B50A4C7F
:103CC0000A4E00253146204608F0ECFE0122A4F100
:103CD00010001146013508F066FE042D04F1400481
:103CE000F0D1002070BD00BF8C0D0020353B0000DE
:103CF0002DE9F0410F4B1C6805460E461746ACB146
:103D00004FF0FF324FF0FF330B4805F0F7F86368D0
:103D10003246D3F8088029463B462046C047044631
:103D2000054805F065F92046BDE8F0816FF0010413
:103D3000F9E700BF600E00203C0400200023036070
:103D4000044B5A6812B9C3E900007047106058600C
:103D5000704700BF640E0020014B1860704700BF21
:103D6000600E002030B585B000230546CDE9023352
:103D700001904FF0FF330C484FF0FF3205F0BEF8D2
:103D80000A4B1C684CB9284600F06EF804460648F9
:103D900005F02EF9204605B030BD636820461B684B
:103DA00001A998472468EDE73C040020640E002038
:103DB000024B0022C3E90022704700BF640E0020BE
:103DC000024B0022C3E90022FFF7F2BF6C0E002075
:103DD0002DE9F74307460C4609B100230B601F4D40
:103DE000DFF8809000264D450FD31D4B1D6885B32D
:103DF00055F8148C01AA41463846143D07F0F1FCF1
:103E000010B3D6B914BB2E461EE0D5F8008001AA27
:103E10004146384607F0E5FC50B116B954B92E4674
:103E200006E031680022404607F0DBFC0028F5D1AF
:103E30001435D8E7019B2360F1E731680022404642
:103E400007F0CFFC0028DDD16D69D0E7019B23602E
:103E5000D9E7304603B0BDE8F08300BFB8D7000013
:103E60006C0E0020E0D70000F8B5184C184F06463D
:103E70000025BC4208D3174B1C682CB3143CB6B9C0
:103E8000E368E3B96469F8E72EB9E3685BB92846EB
:103E900014340546EDE720680022314607F0A1FC06
:103EA0000028F2D1F3E79847002DF0D1F0E7206821
:103EB0000022314607F095FC0028E1D1E2E798475F
:103EC000002D08BF0546DDE72846F8BDB8D700003D
:103ED000E0D700006C0E002038B50C4D0C484FF0B8
:103EE000FF334FF0FF3205F009F82B783BB9FFF7AD
:103EF00067FF00F06DF8044610B901232B70002411
:103F0000034805F075F8204638BD00BFCA1B0020E5
:103F10003C0400202DE9F047048FDFF8B0A0013405
:103F200098B080468946A4B200F10806651EADB27D
:103F3000B5F5004F47D04A2305AA2946304607F079
:103F40006CFB04F57F543F34A4B20746214601239D
:103F50000DF10B02304607F060FB002F014603DC39
:103F6000002803DC2C46E1E7002816DCB8F83830DE
:103F7000AB4209D142466B1E22F8383F4FF4004154
:103F800002233046FEF7B4FE2946304607F0E1FA38
:103F90002146304607F0DDFAE4E707F160030DEB58
:103FA0000307002307F84C3C5246CDF8009003ABC2
:103FB00005A80396ADF8104007F037FC0028D1D0D3
:103FC00018B0BDE8F0870020FAE700BF99B80000FC
:103FD0007FB50123694602200193FEF7B3FF044633
:103FE00060BB02AA01A90220FEF7D4FF044610B16B
:103FF00010F10C0F22D10399B1F5803F23D2009A22
:10400000002394681846084484421AD30133082BCD
:10401000F9D10E4DA982EB825368AB602846D36874
:10402000EB6307F0D3FC044640B9094E6E602846A6
:10403000FFF784FE28466E60FFF78EFE204604B030
:1040400070BD9BB2E5E76FF02004F7E7740E002027
:10405000E001002030BFFFF7FDBF00BF114B124A47
:104060002DE9F041D518DFF84C80013DB5FBF3F5A3
:104070005D430E4B08EB0304013CB4FBF3F403FB7C
:1040800004540E1B07460A49304608F06FFF7019AA
:1040900042460021083E08F077FF3E6704F1080021
:1040A000BDE8F081010000000000000004000000F5
:1040B000E0D7000004000000044B9968986988422A
:1040C00003D003494FF080520A607047381B00202C
:1040D00004ED00E0134B9A6A12F0007F9A6A14BF55
:1040E0001E201D2012F0807F9A6A18BF1F2012F434
:1040F000002F9A6A18BF212012F4802F9A6A18BFE5
:10410000222012F4003F9A6A18BF232012F4803F45
:104110009A6A6FEA02426FEA12429A6218BF24203A
:10412000704700BF00ED00E010B5194B0246986AD9
:104130009C6A10F4805F14BF1720162014F4006FDF
:104140009C6A18BF1820A40509D5986B986A0004CA
:1041500004D51AB19A6A22F400429A6219200C4BD3
:104160009A6A12F4806F9A6A18BF1A20D2050CD48A
:104170009B6A13F4005F18BF1C20054A936A43F43E
:104180007F43936200230B7010BD1B20F5E700BF37
:1041900000ED00E010B51C4B0246986A9C6A10F0D6
:1041A000100F14BF1120102014F0080F9C6A18BFC4
:1041B0001220A40709D5586B986A000604D51AB1D5
:1041C0009A6A22F080029A6213200F4B9A6A12F0C8
:1041D000010F9A6A18BF142012F0200F9A6A18BFB4
:1041E0001520D40658BF9B6A074B9A6A920642BFB5
:1041F0005A6A22F400525A629A6A42F0FF029A62A4
:1042000000230B7010BD00BF00ED00E070B5444B03
:104210005B689CB00646C3F30803002585F311884C
:10422000BFF36F8F02F07F40B0F17F4F11D102F0EA
:104230000C0008280DD010074CBF0E4601250022A7
:10424000033B8DF80720032B05D8DFE803F01E5C45
:1042500060592E46F3E700249DF807309BB9682289
:10426000314602A808F082FE099B002D53D0C3F30B
:10427000080222B96FEA53236FEA4323099302A984
:10428000204607F0C4FB1CB070BD254BDA6A9107CD
:10429000E1D4DA6A002ADEDBDA6A5200DBD55A6939
:1042A000B16942F480725A61BFF34F8FBFF36F8FD1
:1042B0005A6931F8021C22F480725A61BFF34F8FA1
:1042C000BFF36F8F4DF60272914209D09A6AD2B253
:1042D00042B10DF107010120FFF75CFF0446BBE787
:1042E0003468B9E79A6A12F47F4F05D00DF10701DF
:1042F0000120FFF719FFF1E79B6AB3F5803FAAD3CE
:10430000FFF7E8FEEAE70DF107010020E4E70DF111
:1043100007010020EDE723F4FF7323F00103ADE76D
:1043200000ED00E0024A536943F010035361704707
:1043300000ED00E0EFF30880EFF3098101B572466C
:10434000FFF764FF01BD00BF044800232021C2180D
:104350000133302B82F80013F9D1704700E100E0FF
:10436000FEF732FB202080F3118808484FF40061EB
:10437000401880F30988EFF314800221084380F38A
:104380001488BFF36F8F00F0D5F80000D82100200B
:10439000084B9B6883420BD1EFF3058343B1064B77
:1043A0005A6842F080525A605A6A22F400425A62B5
:1043B00005F0ECBA381B002000ED00E0094A0A497C
:1043C000936809689967094958674B6843F08053B7
:1043D0004B60002383F31188BFF36F8F9368986F4E
:1043E000704700BF381B0020F4E2000000ED00E041
:1043F00021498A6882F8BDE04FF030001044EFF3A5
:10440000098C80E8F01F1EF0100F03D102F17C0030
:1044100080EC108A202080F31288BFF36F8F174F33
:104420004FF000668A698A603E604FF0700414198C
:104430002068134C206092F9BDE0506F0023536751
:1044400080F311881EF0100F03D00023E1EE103A24
:1044500003E002F17C0090EC108AEFF3148323F068
:10446000040383F31488BFF36F8F02F1300090E8E8
:10447000F01F8CF309887047381B002004ED00E022
:10448000B40E00201EF0040F0CBFEFF30880EFF312
:104490000980816911F8021C0229FFD001B507F0DB
:1044A000B8FA01BD40B2002807DB044A41090123E4
:1044B00000F01F00834042F82130704700E100E027
:1044C00040B200280CDB4309064900F01F002033EE
:1044D0000122824041F82320BFF34F8FBFF36F8F3B
:1044E000704700BF00E100E0054B420900F01F00EB
:1044F00053F82220012303FA00F01040704700BF58
:1045000000E100E040B20028A8BF00F1604001F1E6
:104510000101B8BF064B4FEA4111ACBF00F5614045
:1045200000F00F00C9B2B4BF195480F800137047EF
:1045300014ED00E0144A08B5144B22F07F029A6093
:10454000BFF34F8FBFF36F8FD3F8882022F4700230
:10455000C3F88820D3F8882042F4A002C3F888204A
:104560004FF04042C3F83422BFF34F8FBFF36F8F39
:104570000023E1EE103A04F065FA05F07DFAFFF74A
:10458000E3FE04F0ADFA00BF0010000000ED00E013
:1045900042F8203C009B42F81C3C019B42F8183C2E
:1045A0000A49029B42F8143C4FF0807342F8043CE5
:1045B00021F00101002342F8081C203A43674FF420
:1045C0007D430265C0F8BC30704700BF492700003A
:1045D000114B9B6883421BD1EFF30580C0B94FF0AC
:1045E0002002EFF3118182F31288BFF36F8F1A7BE1
:1045F00022F002021A73EFF3148323F0040383F30F
:104600001488BFF36F8F81F31188BFF36F8F7047EA
:104610006FF01500704700BF381B00200023E1EE4B
:10462000103AEFF3148323F0040383F31488BFF3E9
:104630006F8FBFF36F8F094B9860094B006F186045
:10464000104681F30988002163B681F31188BFF316
:104650006F8F00220023FEF777F800BF381B002081
:10466000B40E0020014910220A60704710ED00E0EE
:1046700072B6404080F31188BFF36F8FBFF34F8F46
:1046800030BF62B6BFF36F8F704700BF72B649404C
:1046900081F31188BFF34F8F20BF80F3118862B67A
:1046A000704700BF01B5EFF30580A0F110004FEA9D
:1046B000C0000449014409C99847BDE801400249C6
:1046C0000847000004D60000B9400000024B034A2E
:1046D0000348012100F030B8000004200000002051
:1046E000FCE00000084AC2F898000B6823F01F03A2
:1046F000034343F01003C2F89C308B6843F001037E
:10470000C2F8A030704700BF00ED00E0044B052266
:10471000C3F89420BFF34F8FBFF36F8F704700BF74
:1047200000ED00E0BFF35F8F024B0022C3F894203E
:10473000704700BF00ED00E010B5034C0123227864
:1047400007F086F9207010BDCB1B0020F0B5454D59
:104750002C68082C85B000F28280FFF7E3FF002070
:104760000C2684420DD1404D404F2C706846FEF718
:1047700091FB00240646A6420AD1FFF7C7FF00209E
:104780001CE0696806FB0011FFF7ACFF0130E8E7A9
:10479000009800EB04114FEA041CCB683B40B3F5D2
:1047A000000F4AD00CD8B3F5001F30D0B3F5800FFE
:1047B00038D0B3F5801F12D06FF0150005B0F0BDF2
:1047C000B3F1807F42D0B3F1007FF5D150F80C30C7
:1047D00088684A6807F02CF940F4802009E050F816
:1047E0000C3088684A6807F023F940F0885040F49C
:1047F0003020039028780728CDE90123DCD801A9CF
:10480000FFF770FF2B7801332B700134B3E750F8BA
:104810000C3088684A6807F00BF940F0885040F483
:104820000020E6E750F80C3088684A6807F000F985
:1048300040F0007040F40030DBE750F80C3088683E
:104840004A6807F0F5F840F08270D2E750F80C3073
:1048500088684A6807F0ECF840F08870C9E74FF0C4
:10486000FF30ABE708E10000CB1B00200000F0FFA9
:1048700008B5024806F002F9FEE700BF3FE8000075
:1048800008B5044806F0FAF8404080F311884FF06C
:10489000020002DF45E8000008B50649064821F09D
:1048A0000701C1F1005202F5802206F082FA0020D1
:1048B00008BD00BF8F3C0020B80E0020044A012331
:1048C000C2F840354FF080420020C2F8783570477A
:1048D00000E001404FF08043C0B2C3F81C05BFF3B5
:1048E0004F8F0549054BCA6802F4E0621343CB6061
:1048F000BFF34F8F00BFFDE700ED00E00400FA05B5
:1049000020B1034B800143F001031847704700BFFB
:10491000E0D7000010B50C460146084806F048FFF5
:1049200050B1022C08D150F8083C2BB11B691BB1C7
:10493000BDE810400068184710BD00BFDC0E002025
:10494000F8B590F90030002B04460D46174602DBFF
:104950006FF01500F8BD038823F0E0039BB240F22E
:1049600001629342F4D1468801791248360A06F072
:1049700011FF0028ECD0212E04D0222E0FD06FF092
:104980008500E7E70368E1885B685B6813F8092F37
:10499000914294BF29602A603B600020DAE7E388F7
:1049A00050F80C2C9A4294BF2A602B6050F8103CAF
:1049B000F2E700BFDC0E00202DE9F04104460E4670
:1049C00001791448174606F0E5FE0546D0B194F982
:1049D000002000686378002A0DDA012B16D155F803
:1049E000083C9BB11D688DB13B4632462146AC4622
:1049F000BDE8F0416047092B08D155F8083C2BB1C0
:104A00005D68F0E76FF01200BDE8F0816FF085009F
:104A1000FAE700BFDC0E002010B50C4601460F4837
:104A200006F0ACFE50B1611E052907D8DFE801F0A1
:104A3000070603070D0F012300F8043C10BD0023F7
:104A400000F8043C00F8033CF8E70123FAE710F80B
:104A5000033C002BF2D00023F4E700BFDC0E002063
:104A600010B50469C4E90012A36000236361064B1A
:104A70002061596804F1140211B9C3E9002210BD84
:104A80000A605A60FBE700BFDC0E00207FB50C4DCA
:104A90000C4E4FF0FF324FF0FF3301A9284604F0CF
:104AA000D3F90028F5D1084CB442F2D2236813B1EF
:104AB000019A934202D1636801A898470834F3E74A
:104AC00064040020E0D70000E0D70000020600F0F8
:104AD0007F0312D5082B05D1010700F00F0306D57F
:104AE0000E48704710F0780F12D100F00F034C20E1
:104AF00000EB43100A4B18447047082B05D10207FE
:104B000000F00F0306D50748704710F0780FF6D075
:104B100000207047044800EB43107047301000201D
:104B2000E40E0020501100205010002001490248DE
:104B300007F0E5BF0C0F0020A80600200146014841
:104B400007F026BFEC04002002480022002304F0F6
:104B50008BBA00BFEC04002013B5124803F068F9CB
:104B6000114B98421AD1114802F09AFD00241048C6
:104B700002F0DCFD0F49104800944FF0FF334FF472
:104B8000806204F06BFB0D490B4807F073FE0C4884
:104B90000C4907F087FF204602B010BD6FF00400FB
:104BA000FAE700BFAD4D00000000AD0B86E8000045
:104BB0002CE10000D81D0020A806002078E80000A5
:104BC0000C0F0020C94E000010B50E49BFF35B8FDB
:104BD000002351E8002F012A03D141E800300028CA
:104BE000F7D1BFF35B8F0CD151F8044C1439204638
:104BF00006F018FA783004D12046BDE8104006F0DF
:104C0000ECB910BD040F002038B5002464F07F001B
:104C1000C0B2FFF75BFF013406F068FF082CF5D146
:104C20000E4D0024E0B2FFF751FF036903B905619F
:104C3000013406F05BFF082C05F14005F2D108486D
:104C400006F054FF074BD3F87C2212B9064AC3F88A
:104C50007C22064806F04AFF002038BD741500206B
:104C600030100020E40E00207411002050110020AC
:104C700010B5054CFFF768FF20B14168204607F0EA
:104C8000CDFDF7E710BD00BF2004002007B50023CD
:104C90000E48002201A903F0A3FF90B1FFF7E8FF3F
:104CA0000A480022002301A903F09AFF38B90198AD
:104CB000042340600374FFF741FFFFF737FF002034
:104CC00001E00198406003B05DF804FB200400207F
:104CD000022810B511D8094B1C5CFFF7D7FF60B153
:104CE000002202740472FFF729FF054B93F8243069
:104CF0001BB1BDE81040FFF719BF10BD83E80000ED
:104D0000E40E0020F8B5877806463846FFF7DEFE49
:104D10003B06F578044612D5002D43D1FFF7B6FFC8
:104D2000034600283ED00122A577027403220273B5
:104D30009C60FFF703FFBDE8F840FFF7F7BE4DB1F9
:104D4000012D2FD1FFF7A2FF034658B365770574F5
:104D50000573EDE7FFF79AFF20B3B278124B12F01C
:104D6000800F02F0080111D041B1D3F8A836E360FA
:104D700001230374022303738460DAE702F00F0255
:104D8000142101FB0233D3F80836F0E711B1D3F850
:104D9000A837ECE702F00F02142101FB0233D3F82D
:104DA0000837E4E7F8BD00BF00700240F0B50646E2
:104DB00089B01422002103A808F0E6F83378013BFB
:104DC000052B21D8DFE803F07A0314146A160323B5
:104DD0008DF814300024FFF759FF0346A0B1047486
:104DE00000F10802DDE9050182E8030018461DE034
:104DF0000423EDE7B7783846FFF768FE837A044668
:104E000023B1013B022B43D909B0F0BD3B06F57835
:104E100013D5002DF8D1FFF739FF03460028F3D052
:104E20000122A5770274032202739C60FFF786FEBD
:104E300009B0BDE8F040FFF779BE55B1012DE3D1CF
:104E4000FFF724FF03460028DED06577057405735D
:104E5000EBE7FFF71BFF07460028D5D001230374BB
:104E600002230373846004F10C01B07807F011FB96
:104E7000134AE168B2F88C328B4206D95B1AA2F869
:104E80008C3203F029FA3846D0E7A2F88C52FAE7C0
:104E9000304609B0BDE8F040FFF734BF01A803F089
:104EA000F9F99DF80530052B04D19DF8043013F075
:104EB000600FA9D0034B059301248CE702248AE7F5
:104EC000E40E0020501000202DE9F043A64CDFF83E
:104ED0009C9285B08046FFF737FE074610B905B0B3
:104EE000BDE8F08394F825303A7C3BB9002A00F005
:104EF000868079689D4807F091FCECE7042A42D847
:104F0000DFE812F07D0005000001160140013B7B47
:104F1000BD68032B37D8DFE803F0023D5A5F6E69A6
:104F2000934B002232607260D3F880143170D3F852
:104F300084147170D3F88814D3F88C0441EA0021EA
:104F40007180D3F89014D3F8940441EA0021B18021
:104F5000D3F89814D3F89C3441EA0323F380082350
:104F6000EB6030687168834B03C311462B68687A25
:104F7000984796F90030002B08DBF38833B1A4F88A
:104F80008C3203F0A9F979684846B4E70023A4F805
:104F90008C32F8E76B7F002BF5D02B7F002BF2D003
:104FA00000266E774FF0FF3273482E774FF0FF33B5
:104FB00006F0AFFD6B6901936B68CDE9023601A97C
:104FC000687A02F077FF6C4806F0A5FDDBE72B68F6
:104FD0000121687A9847D6E7AB7A6BB9EB7F5BB96A
:104FE00065484FF0FF324FF0FF3306F092FD03F0BB
:104FF000A3F9614806F08FFD2B680221E9E73A7AB0
:10500000042AC0D8DFE802F059032367730002F0D6
:105010009FFE05460028B6D102F0D0FDBFF35B8F9E
:105020005649012351E8002F002A03D141E80030FE
:105030000028F7D1BFF35B8FA5D141F8085C41F898
:10504000105CE0696361143905F06FFF9BE7002590
:1050500065F07F00C0B2FFF739FD037A13B1407AE3
:1050600003F032FB0135082DF2D194F854311BB115
:1050700094F8550103F028FB0025E8B2FFF726FD60
:10508000037A13B1407A03F01FFB0135082DF4D1E8
:1050900094F874321BB194F8750203F015FB0020EC
:1050A00002F038FE012384F825302368002B3FF4FA
:1050B0006AAF00210220984765E7002584F8255053
:1050C00003F0A6FAFFF780FD2368002B3FF45BAFE7
:1050D00029460420EFE7002B3FF455AF02F042FED3
:1050E0002368002B3FF44FAF00210520E3E722683F
:1050F000002A3FF448AF002B3FF445AF00210620C3
:10510000904740E708F110054FF0FF334FF0FF32B2
:10511000284606F0FEFCFFF777FD284606F0FBFC6C
:1051200058F8283C002B3FF42EAF00210120C2E7A5
:1051300094F874327BB1012584F8895284F888523E
:10514000FFF7A4FD38B10E4A057405738260FFF7BE
:10515000F5FCFFF7EBFC58F8283C002B3FF413AFAD
:1051600000210A20A7E700BFE40E00202004002051
:1051700000700240E80E00201C0F0020040F0020E9
:105180005011002007F0FCF803F042FA02F00CFD89
:10519000FFF76EFDFFF738FD07F0EBF8014802F06E
:1051A00047FEF0E6AD4D000038B5164D95F82440A9
:1051B0002CBB05F1380007F076FB204600F0F8FC28
:1051C00022460121E8612720FFF79CF907F0D1F87A
:1051D000FFF71AFD044610B9012385F824300A4B65
:1051E0001B680BB1FFF7A2FC4FF08043D3F83834B3
:1051F000DB0702D50020FFF76BFD204638BD0024F9
:10520000FBE700BFE40E0020EC040020074B93F8FE
:1052100024203AB193F82530002B14BF00206FF002
:10522000120070476FF01200704700BFE40E0020BC
:1052300038B5104B93F824300446C3B1057828469E
:10524000FFF744FC10B96FF0150038BD45722379A3
:105250008372638843602078618810F0080F02D160
:105260004B1E0B42EFD107F00FF90020EDE76FF076
:105270001200EAE7E40E002038B5124B93F8242020
:105280000546CAB193F82530B3B1FFF71FFC0446B9
:10529000A8B1837A012B12D007D9023B012B07D981
:1052A0006369A3610020E06038BD03F04DF8F7E7C3
:1052B000284602F0C1FFF3E76FF01200F4E76FF049
:1052C0001500F1E7E40E002038B50E4B93F82420CA
:1052D000054682B193F825306BB1FFF7F7FB68B153
:1052E00015F008040AD1284602F0C8FF284603F04A
:1052F0003FFA204638BD6FF01200FBE76FF0150053
:10530000F8E700BFE40E002038B50C4B93F82420DA
:1053100005460C4662B193F825304BB1FFF7D6FB3A
:1053200048B144B1284602F08FFF2070002038BDFC
:105330006FF01200FBE76FF01500F8E7E40E0020B5
:1053400070B5134E96F824300446C3B1FFF7BEFB88
:105350000546B8B1230705D4204602F08FFF20464A
:1053600003F006FA2B7A83B901232B7296F82530C5
:105370000BB9002070BD204603F0A6F9F9E76FF0E5
:105380001200F7E76FF01500F4E76FF07700F1E730
:10539000E40E00202DE9F043DFF8EC801E4698F87B
:1053A000243085B0074689461546002B61D098F811
:1053B0002530002B5DD003065ED5FFF787FB044642
:1053C000002859D0037A002B56D04FF0FF334FF00E
:1053D000FF3208F1380006F09CFBA37F4BB108F1C7
:1053E000380006F098FB6FF00A04204605B0BDE8CF
:1053F000F083A37AC5B13BB30123A3774FF0000834
:1054000001A93846CDE90195CDF80C8002F052FD96
:105410001B4B984229D084F81E801EBB6FF00404F9
:10542000184806F078FBE0E7E27F02B1E577002B51
:10543000E2D102F091FFB842DED002F07DFF1148C8
:1054400006F069FB0024D0E7B8F80A30AB42F0D987
:105450006268B5FBF2F302FB1353002BE9D1012381
:10546000E377E6E7C6F80080D8E706B135600024A8
:10547000D6E76FF01204B8E76FF01504B5E700BF88
:105480000000AD0B1C0F0020E40E00202DE9F041C0
:105490001D46204B174693F824200E46002A33D091
:1054A00093F8253083B3030631D401B97FBBFFF7EE
:1054B0000DFB044658B3037A4BB34FF0FF33164845
:1054C0004FF0FF3206F025FBE3689F42B84628BF45
:1054D000984646B93FB905B12B600F4806F01BFB53
:1054E0000020BDE8F081A1694246304607F03EFD4C
:1054F000A3694344A361E368A3EB0803E360002DC1
:10550000EBD0C5F80080E8E76FF01200E9E76FF034
:105510001500E6E7E40E00201C0F002070B51E4DBC
:1055200095F82420034682B395F825206AB31B061C
:105530002ED4FFF7CBFA044650B3037A43B34FF0AF
:10554000FF334FF0FF3205F1380006F0E2FAE3686E
:10555000B3B9012663692677A361637F83B1FFF73F
:1055600095FB30B905F1380006F0D5FA6FF00B0065
:1055700070BD067484600673FFF7E0FAFFF7D6FA91
:10558000064806F0C8FA0020F2E76FF01200EFE7D5
:105590006FF01500ECE700BFE40E00201C0F0020A8
:1055A00010B5084B93F824300C462BB1FFF78EFA58
:1055B00028B10460002010BD6FF01200FBE76FF00F
:1055C0001500F8E7E40E0020014B1860704700BF9B
:1055D000E40E002008B5074B93F8243023B1FFF701
:1055E00075FA20B1406808BD6FF01200FBE76FF05C
:1055F0001500F8E7E40E002013280ED8084A12F828
:10560000103053B102EB4002527832B10868434384
:10561000002093FBF2F30B6070476FF015007047AA
:1056200087E80000054B0122C3F8002590F87610AA
:1056300009B1DA6070471A605A6070470070004024
:10564000087970B500F01F04072C20D80B780B2BBD
:105650001DD8DFE803F0070707071C061C1C1F21E5
:105660001C2304234A78032A1AD0042A0FD10025C8
:105670004A8844F20A06B24246D013D844F20306DE
:10568000B2423DD044F20506B2423BD0E2B36FF0E5
:10569000150034E00523E5E70623E3E70723E1E708
:1056A0000125E5E744F21406B2422FD044F2280661
:1056B000B2422DD044F20F06B242E8D10322C0F329
:1056C00040101B0243EA005343EA053343EA024316
:1056D000220102F1804202F5E0420020C2F81835B2
:1056E000230103F1804303F5E0438A79C3F81425CD
:1056F000C3F81005074B4A79234483F8902070BD06
:105700000022DCE70122DAE70222D8E70422D6E70A
:105710000522D4E730000020F7B50D464FF0FF33E7
:1057200056484FF0FF3203F0F7FC6E68731EFE2BF5
:105730003CD800235248534F1A4626FA03F111F081
:10574000010126D017F803C0BCF1000F2ED000EBEA
:10575000031E6C7CDEF81815003C18BF012421F0F4
:10576000807141EA0461CEF8181503F15101090175
:10577000013240F801C0D2B20133082BDDD12B7CBD
:10578000083B062B12D8DFE803F009111D1119118F
:105790001B0003F1510424010151EDE700233849B6
:1057A000012AC1F8F0356B7C0ED97BB16FF015047E
:1057B000324803F08DFC204603B0F0BD0223EEE733
:1057C0000323ECE70123EAE7082BEFD8C1F8F4350F
:1057D0002968530011B1898901FB0333E9689942B3
:1057E00049D3274BA968C3F82C162F46C3F8302697
:1057F0000FCF254C04F164060FC63B6833600026CA
:1058000026662B68274693B30FCB04F1780585E80D
:105810000F006566A4F8886048B3BFF35B8F57E854
:10582000003F47E80062002AF9D1BFF35B8F1749B8
:10583000A56F174A4FF400400F463146E5FB007153
:1058400000233846FBF75CFC0022CDE90001002371
:1058500004F1080004F0DCFA0E484FF0FF324FF07C
:10586000FF3303F059FC00B12066246EA0E7064820
:10587000FFF7D8FEF0E76FF00B0499E77000002007
:1058800000700040C0000020300000203F420F00A8
:1058900040420F008000002010B50E4B0024C3F8DA
:1058A0000441D3F80421C3F81041D3F81021122287
:1058B000C3F804230720FEF7F5FD22460121072047
:1058C000FEF720FE0448836C13B9403003F000FC5F
:1058D000002010BD007000403000002038B52E4B75
:1058E000D3F80421002A49D00022C3F80421D3F8B8
:1058F00004112A4C01219960C3F80025636E2546E6
:10590000BBB3E36FB4F8882033B104F16401984766
:10591000012814D0022827D0B4F88830B4F88420A5
:105920009A4221D90133A4F888301B4BD3F82C2696
:10593000D3F8341689B202EB4102C3F82C26A36FC8
:1059400023B9BDE838401548FFF76CBEBFF35B8F45
:1059500055E8003F5A1E45E800210029F8D1BFF361
:105960005B8F012BEDDC38BDA36F13B10C4807F042
:1059700070FA0C48BDE8384003F0AABBD3F8101108
:105980000029F0D0C3F81021D3F8102101229A6029
:105990001A605A60E7E700BF007000403000002046
:1059A0003800002080000020084B70B5C31A0D4657
:1059B00007499B10044659430648402206F028F93F
:1059C0002B4601462046BDE8704018478817002046
:1059D000B76DDBB66CD4000073B50C4C0C4A402399
:1059E000041B00930D460B460A49A410614306466A
:1059F000094806F03AF9011E05DA30462B4602B096
:105A0000BDE87040184702B070BD00BF8817002085
:105A1000D7BC0000B76DDBB66CD4000010B54FF0FA
:105A20002003EFF3118483F31288BFF36F8F074ACB
:105A3000136823F00201DB07116002D4012006F095
:105A400020FC84F31188BFF36F8F10BDD81700209E
:105A5000002270B5012104461046FEF753FD11489F
:105A600001F0DCF8104B984218D1206900F09CF945
:105A700001F0E6F826690D49304605F043FA0028A2
:105A80000BDB012535642469084904F11C0005F08D
:105A900039FA002801DBE564002070BD6FF00400D6
:105AA000FBE700BFE55A00000000AD0B3CE1000041
:105AB00070B501460C2309484B43C418D4E90E566F
:105AC000403300221844A26306F08FF82DB132460D
:105AD0002B460348BDE87040184770BD881700206A
:105AE0006CD40000012810B504460AD004280CD05C
:105AF00078B9084B1B6C5B070BD1BDE81040FFF772
:105B0000D7BF00F05FF92046F7E7BDE8104000F08E
:105B100067B910BD8817002008B54FF02003EFF3D8
:105B2000118183F31288BFF36F8F124A136843F019
:105B300002001060DA0708D481F31188BFF36F8F79
:105B40000120BDE8084001F093B84FF08043D3F83E
:105B50000C24D3F80C34DB07EED5074806F045F8E3
:105B600081F31188BFF36F8F0020BDE80840FFF775
:105B70009FBF00BFD8170020C81700201FB5002204
:105B80000123CDE90223094ACDF800D06B46CDF8B8
:105B900004D006F099F8002805DB4FF4804200237A
:105BA000684603F0B9FA05B05DF804FBF1BC0000EB
:105BB000024AC3B21C2003FB002070478817002054
:105BC000F8B52849BFF35B8F0646012251E8003F34
:105BD00041E800200028F9D1BFF35B8F33B9224997
:105BE00022484B60CB608A6005F09FF9731E012B41
:105BF0001DD806F039FE0446D0B91D4B1B78BBB149
:105C00004FF080430222C3F8082305464FF0804737
:105C1000D7F81824D7F81834D20313D59B0701D02E
:105C2000012E0FD1C4B185F31188BFF36F8FF8BD7A
:105C30004FF02003EFF3118583F31288BFF36F8FCA
:105C40000124E3E71CB12846FEF720FDE0E7002130
:105C5000212003F061FEDBE74FF080430222C3F80E
:105C60000423E4E78417002074170020A417002001
:105C7000D51B00200D4BBFF35B8F012253E8001FA3
:105C8000002903D143E800200028F7D1BFF35B8F40
:105C90000AD107490023CB60064B4B6003238B607E
:105CA000054B186805F041B9704700BFF817002090
:105CB000E01700207D5D0000DC17002007B5002202
:105CC0000023CDE9002308484FF40032002304F0FC
:105CD0009FF8064B186805F080F9054B00221A6002
:105CE00003B05DF804FB00BFE8030020DC170020D0
:105CF000F8170020F7B51C4E1C4CB7681C4DFB680C
:105D00003A213046984740B1002323702B8001F0A0
:105D100001F80123237003B0F0BD0C213B696A46F2
:105D2000304698470028EFD1124A019B93FBF2F3CB
:105D3000009A217803EB82031BB2B5F900200029F9
:105D4000E4D09A1A002AB8BF524212B2012ADDDC0E
:105D5000094A1368013901332170136003B0BDE8AB
:105D6000F040FFF7ABBF00BFBCD50000CC1B00204C
:105D7000781B002090D00300F017002008B50748DA
:105D800006F01BFD28B900F0C5FF054B01221A7073
:105D900008BDBDE80840034803F05ABABCD500006E
:105DA000CC1B0020FC010020034B044A1860002398
:105DB0001360034A13607047DC170020F4170020BB
:105DC000F0170020024B00221A70FFF753BF00BFEC
:105DD000CC1B0020014807F03CB800BFE8030020BE
:105DE000024A136801331360FFF768BFF4170020FD
:105DF000024B0B6001231360704700BFFC170020AB
:105E00000048704788E1000010B50122114606489D
:105E1000064C06F0C8FD06F09CFA206006F095FAE4
:105E20006060002010BD00BF04180020FC17002097
:105E30004FF08042D2F81015D2F8103501F01E0153
:105E400023F01F030B4343F00103C2F81035024B4C
:105E500000221A70704700BFCD1B00204FF0805306
:105E6000D3F83031082B20D14FF08042D2F81015F2
:105E7000CB071AD5D2F8103501F01E0123F01F030D
:105E80000B43C2F81035D2F808315BB1D2F81035A7
:105E900023F01F030B4343F00103C2F810356FF0EA
:105EA0008B007047024B01221A700020704700BF20
:105EB000CD1B00202DE9F0410D46164606F045FAAF
:105EC00031460746284605F020FF78B3B5FBF7F3C7
:105ED00007FB135353BBB6FBF7F407FB14642CBB4F
:105EE000B7421DD84FF0FF324FF0FF331148DFF8B3
:105EF000488003F011F906F028FA0746FFF7AEFFD5
:105F0000044680B9284601F09DFB98F800300BB19B
:105F1000FFF78EFFF61B3D44F0D1064803F0D8F89A
:105F20002046BDE8F0816FF08B04F6E76FF01504B2
:105F3000F6E700BF04180020CD1B00202DE9F84330
:105F40000E463046194617461C4605F0DEFE88B35D
:105F500044EA060515F003052CD1BCB11748DFF85B
:105F600064904FF0FF324FF0FF3303F0D5F824F088
:105F70000304AC4206EB05080BD1114AD2F80034F9
:105F8000DB07FBD500240D4803F0A2F82046BDE84E
:105F9000F883FFF763FF50B97959404601F072FB6F
:105FA00099F800300BB1FFF743FF0435E1E76FF0DC
:105FB0008B04E8E76FF01504E8E700BF0418002041
:105FC00000E00140CD1B002030B54068057B01F0AA
:105FD0001F04B2F5001F85B044EA451405D12046E0
:105FE00006F0ABF9002005B030BD0025B2F5800FFA
:105FF000CDE9025514D1B3F1007F0CBF0423052372
:106000008DF808300023194602AA204601F03EF818
:10601000234B98423DD10121204601F0D3F9E1E71D
:10602000B3F1C06F27D0B3F1007F14BF0123022367
:106030008DF80830836823FA01F111F00101E1D1F4
:10604000B2F1A07FDED104F01F03620903F5E07313
:1060500013D0012A20D1134A52F82330DB07D1D4C0
:106060000DF107052946204601F046F90E4B9842EE
:1060700006D00395C6E70323DAE74FF0A042EBE72B
:10608000284601F099F9064B9842F2D06FF00B00C8
:10609000A9E76FF01500A6E751F82330FFDE00BF37
:1060A0000000AD0B000300500400AD0B10B501F073
:1060B00073F9044668B901F037F9084B98420AD1E0
:1060C0000748214601F012F9224605210620FEF775
:1060D00019FA002010BD6FF00400FBE70000AD0BC3
:1060E000E5600000420970B5034602D0012A17D0CE
:1060F00070BD0D4E326951680029F9D003F01F03BD
:1061000001250C689D400029F2D08A682A4002D0FF
:106110004B68304698472CB1236821461C46F2E76D
:10612000024EE7E72346F8E79CD4000084D4000041
:106130002DE9FF4147683B7B01F01F0545EA431508
:106140000E4628460DF10701144601F0D5F814F467
:10615000403F80460DD1284606F0EDF83D4B98456E
:1061600003D19DF8070001F021F9002004B0BDE83B
:10617000F0810023194602AA2846CDE9023300F037
:1061800085FF344B984214D1804503D19DF8070018
:1061900001F00CF9A3034ED540F206332340B3F5CA
:1061A000837F1AD00DD8062B18D005D8B3B1022B97
:1061B00033D06FF01500D9E7B3F5807FF9D1012313
:1061C0000CE040F20222934229D0B3F5407F28D060
:1061D000B3F5007FEDD1022300E007238DF80830EE
:1061E00084F48033C3F30043E0068DF8093054BFD4
:1061F000C4F34013032321038DF80A3013D57A68C2
:106200000123B340C2F80835002202A9284600F055
:10621000F5FF104B9842A8D0CBE70423DEE7052317
:10622000DCE70323DAE7620341BF01237A68B34066
:10623000C2F80C35E8E7E3064FF0000354BFC4F39F
:10624000401403241A4602A928468DF8084000F09D
:106250001DFFDEE70000AD0B0B680068C01A024BA3
:10626000C0105843704700BFABAAAAAAD0E90001EA
:10627000014B0C2206F0C9BE5962000038B5056911
:106280000446284640F8044BFFF7F0FF05F11000E4
:10629000034906F045FC636901221A72002038BDEB
:1062A00081C100002DE9F84F04460D4629B10129AE
:1062B00025D06FF08500BDE8F88F06690C27B3681C
:1062C000AB4206D97068002107FB050005F026FEE9
:1062D00088B1666800250C277368AB4206D9306820
:1062E000002107FB050005F019FE30B12046BDE88E
:1062F000F84F05F058BF0135E1E70135ECE7D0F87C
:106300001080DFF8A8A000254FF00C09D8F808305D
:106310009D4209D2D8F8047009FB05F607EB060B7D
:10632000B85906F04AFAB8B9666800250C277368B0
:10633000AB4208D9326807FB05F302EB0308D058DB
:1063400006F03BFA48BB6068002105F04BFE204692
:10635000BDE8F84F05F04FBF4FF48031584605F0C7
:10636000DDFD0028E0D1DBF8083022691901126C4C
:1063700054509BF8040002EB0313012202FA00F0D0
:10638000C3E902A0B859191D8368DB69002BCBD083
:1063900098470028C8D10135B8E74FF4003140468E
:1063A00005F0BCFD0028CED10135C0E7BDC100001D
:1063B00008B503690349986303F1080006F0B0FBD0
:1063C000002008BD43C20000014B01221A60704743
:1063D00000C000400C2903690BD15B6A06490748DD
:1063E0004B4393FBF0F100FB11331160536000202D
:1063F00070476FF08500704790D0030040420F0057
:10640000044B00690022C3F80021D3F8003102F0E8
:106410005FBE00BF00C000407FB50569AB6A63B3D3
:106420003A2901D00C292BD105F110064FF0FF328B
:106430004FF0FF33304602F061FD134B0193A86A21
:106440000323002469460394029304F06EFD4FF089
:10645000FF324FF0FF33284602F05EFEA86A04F0D8
:10646000BCFD0A4BD3F808256A6201225A60304607
:1064700002F0BEFD204604B070BD6FF00A00FAE7DE
:106480006FF08500F7E700BFC963000000C000405F
:1064900010B504690020FFF78BFBA0624FF0FF32BC
:1064A0000021204606F07FFA04F1100006F0FBF907
:1064B000002201210C20FEF725F80C20FDF7F2FF49
:1064C000024B0122C3F80423002010BD00C000408D
:1064D00070B5012383400E4ABFF35B8FDC4352E863
:1064E000001F01EA040542E80056002EF7D1BFF371
:1064F0005B8F4FF4803282400648C0F80823BFF318
:106500005F8FBFF36F8F0B4214BF0120002070BD5F
:106510009C1800200010014070B40E49D1E90034ED
:10652000D01AC31844F1000422F07F46C1E90034B8
:10653000A6F50013B3F5400F09D2074B1B681A0AE2
:106540001B069C19054B42F10005C3E9004570BCD0
:1065500003F068BBD8070020A0180020E007002047
:1065600011B3BFF35B8F0123104A834052E800CF81
:106570004CEA030C42E800C10029F7D1BFF35B8F5E
:106580000B4A4FF480338340C2F80433094BBFF306
:106590005B8F1B68BFF35B8FC340DB0742BF064BBB
:1065A0004FF40032C3F80021704700BF9C18002050
:1065B000001001409818002000E100E00D4B186821
:1065C000010A0006BFF35F8F0B4BD3F80435181890
:1065D00041F10001B3F5801F0AD2084BD3E9002333
:1065E000904271EB030303D210F1807041F100017E
:1065F000704700BFA018002000100140E0070020F5
:106600002DE9F04F85B016461F469DF840A0044680
:10661000FFF75EFF0190FFF7D1FFB04271EB070378
:1066200054D23E4B301A67EB0101984271F10001E0
:106630004FD23B4B03EB0413D3E902239F4208BF25
:1066400096425ED037494FF4803804F1500508FA7D
:1066500004F8AD00C1F848832046ADB205F002FE53
:1066600026F07F4B05F1804504F5A87305F58835C4
:10667000DC464FF003090293029A2CF07F4341F865
:106680002230C1F84483D1F80435274A6FF0020064
:10669000C01A604420F07F40904232D9286868B127
:1066A000D1F804350393A3EB0B0020F07F40B0F545
:1066B000000F26D9204605F0D5FD039BBAF1000F47
:1066C00007D109EB030C09F10109D5E7BAF1000F75
:1066D00009D06FF0150520460199FFF741FF2846C4
:1066E00005B0BDE8F08F0123104ABFF35B8FA340D4
:1066F00052E8000F184342E800010029F8D1BFF327
:106700005B8F07490E98230101EB0412C8500F9BC1
:106710005360C2E902670025DDE700BF0100800089
:10672000C807002000100140FDFF7F0098180020DE
:106730007FB51C4C1C4BC4F80833C4F848331B4BC2
:1067400000254FF0FF304FF0FF31C4F80855C3E982
:1067500002014FF48033C4F80433154B02264FF482
:1067600000320121C4F804631120C3F880212A46B5
:10677000FDF7C8FE1120FDF795FE0E4A0123A36028
:10678000236013600C4B0D4A0093CDE901550023A3
:106790002846FFF735FF3046FFF712FA284604B0C7
:1067A00070BD00BF0010014003000F00C8070020AB
:1067B00000E100E09C18002019650000FFFF7F0049
:1067C0002DE9F7432F4CD4F8043399070BD5D4F8AF
:1067D000043143B12C4A0023C4F80431D4F8043105
:1067E000136801331360D4F80433DA032AD5BFF3F6
:1067F0005B8F264B53E8002F22F0010143E8001085
:106800000028F7D1BFF35B8FD30702D4D4F840310F
:10681000C3B10025C4F84051D4F84031FFF7CEFE93
:106820004FF02003EFF3118283F31288BFF36F8FD1
:10683000174BD3E90267B042B94106D282F31188FF
:10684000BFF36F8F03B0BDE8F0834FF0FF384FF018
:10685000FF39C3E90289D3E900101D604FF480338A
:10686000C4F84833C4F84051D4F8403182F3118859
:10687000BFF36F8F0029E5D0009032463B46284693
:106880008847DFE700100140A0180020981800207A
:10689000C807002030B5431C124C85B005D0844297
:1068A000A8BF0446012CB8BF0124FFF787FE0E4B9A
:1068B0000C4DD3E90013401AB0F5000F10D2221886
:1068C000AA4228BF2A4652184FF0000007490091FB
:1068D000CDE9010043F10003FFF792FE05B030BDA2
:1068E0002A46F0E7FFFF7F00D80700201965000067
:1068F00008B5FFF763FE024B1B68C01A08BD00BF56
:10690000D807002010B5084C012363601120FDF763
:10691000D7FD064BC4F80833C4F84833044B4FF492
:106920000032C3F8802110BD0010014003000F00A9
:1069300000E100E04FF08053D3F83021082A06D15F
:10694000D3F83431052B02D8024AD05C70470020BE
:10695000704700BF2AE9000008B54FF08053D3F814
:106960003021082A4ED14FF080420021C2F80C118C
:10697000C2F81011C2F8381502F54042D3F80414D9
:10698000C2F82015D3F80814C2F82415D3F80C1453
:10699000C2F82815D3F81014C2F82C15D3F8141423
:1069A000C2F83015D3F81814C2F83415D3F81C14F3
:1069B000C2F84015D3F82014C2F84415D3F82414B3
:1069C000C2F84815D3F82814C2F84C15D3F82C1483
:1069D000C2F85015D3F83014C2F85415D3F8341453
:1069E000C2F86015D3F83814C2F86415D3F83C1413
:1069F000C2F86815D3F84014C2F86C15D3F84434C3
:106A0000C2F87035FFF796FF18B12B4B2B4AC3F82D
:106A10008C26FFF78FFF18B1294BFB22C3F81825EE
:106A2000FFF788FF70B14FF080414FF08053D1F8ED
:106A3000E42ED3F8583222F00F0203F00F03134371
:106A4000C1F8E43EFFF776FF20B11E4B4FF4007211
:106A5000C3F840264FF08053D3F83031082B09D1CA
:106A60004FF08043D3F80024D20744BF6FF00102F7
:106A7000C3F80024144AD2F8883043F47003C2F8F3
:106A80008830BFF34F8FBFF36F8F4FF08053D3F831
:106A90003021082A0ED1D3F83431052B02D80B4A05
:106AA000D35C3BB14FF01023D3F808224FF0804362
:106AB000C3F8582508BD00BF0050004048810300BE
:106AC00000F000400090024000ED00E024E90000EA
:106AD00030B50468CCB1BFF35B8FB4FA84F3C3F173
